:100000000C9495110C94D0110C94D0110C94D01127
:100010000C94D0110C94D0110C94D0110C94D011DC
:100020000C94D0110C94D0110C94D0110C94D011CC
:100030000C94D0110C94703C0C94D0110C94D011F1
:100040000C94D0110C94D0110C94D0110C94D011AC
:100050000C94D0110C94D0110C94D0110C94D0119C
:100060000C94D0110C94F4E10C94D0110C9420E277
:100070000C94D0110C94B59F0C94D0110C94D01109
:100080000C94463C0C94D0110C94D0110C94D011CB
:100090000C9454E20C94D0110C9480E20C94D01186
:1000A0000C94D0110C94D0110C94D0110C94D0114C
:1000B0000C94D0110C94D0110C94D0110C94983C49
:1000C0000C94D0110C94D0110C94D0110C94D0112C
:1000D0000C94D0110C94D0110C94D0110C94D0111C
:1000E0000C94D011C3350B360D36E8351A36B636BA
:1000F000B636E8354336B63651365C367036753628
:10010000B636B6362236E8353E36B636D1351E36E8
:100110007A368B369236B636B6369636C98394839F
:100120009F8391838E83A183BE83A4837AD097D04B
:10013000A4D0CDD0ECD0FFD00DD13ED16AD10C945B
:1001400021B50C94D3420C9470B60C944AAE0C9426
:100150004E400C949FB00C949AAE0C94CC800C94AE
:1001600022C80C9459AE0C9458E00C9481B60C94AF
:1001700069B40C940FC30C944A980C947CAE0C9404
:10018000B4E20C94A0AF0C94E2C60C94934B0C9484
:1001900010BA0C9417C10C9493DA0C946E460C941C
:1001A0003BC00C9490740C94C3350C949F830C94B6
:1001B000CDD00C9448AF0C9435D80C947EBB0C94E5
:1001C00053B70C944FAE0C9464B50C94FBD60C94BE
:1001D00097D00C941DAE0C941CB50C940F800C940D
:1001E000B4D80C9402D70C944AB50C941CC70C9448
:1001F0004A9D0C9490AE0C9446B30C94BFB40C94EE
:1002000063A70C944ED60C9422360C942CB90C9403
:1002100092360C94AE9E0C9482AF0C946AB60C94F9
:1002200079AF0C943ED10C9427B70C94B9380C9448
:10023000B6360C9480B30C9451360C94B9B00C942F
:100240005BAF0C9454C70C9495AE0C94F4C50C940D
:100250005C360C942A840C9418840C9481B70C940A
:1002600009C20C94A4D00C9401A20C94FFD00C945D
:100270001E360C94469F0C9471D40C9402D90C94A5
:10028000A9D20C943BAE0C9486AF0C945EAE0C9449
:1002900015B50C9405B40C94A4830C9494BC0C94E4
:1002A00013B30C9405D60C9468AE0C94E5C00C9472
:1002B00033B60C9460BC0C94C6BD0C940AAE0C947E
:1002C000C7BF0C947A360C9475360C946A710C94F2
:1002D00078B00C9433840C9433B50C94BE830C9496
:1002E00062DA0C94BC9C0C9448E80C9462B00C94B8
:1002F000B1AA0C9411AE0C94ABA70C94ED830C94A2
:10030000DCC70C9471D30C9422AE0C940DDF0C94CA
:1003100035B00C943DAA0C9454AE0C94F4490C9452
:100320000EDE0C948E830C948EB00C941C840C9472
:1003300063AE0C947AD00C9440DE0C946AD10C9489
:1003400018AE0C94F7BE0C94C9830C94E52F0C9452
:1003500045AE0C9472AE0C9402BB0C9440AE0C945F
:1003600075C50C941FB60C94A4CA0C941BC50C94B0
:1003700096B80C94ECDD0C94369A0C9496360C944A
:1003800052D70C94BAAF0C94D9370C9467E10C9403
:1003900086AE0C9498840C9458CC0C9431A00C9498
:1003A000B5AF0C9457D70C942CAE0C9491830C944D
:1003B000D1BC0C94BEC30C943F9F0C9432C60C94D9
:1003C00078C20C94F7880C94E2DF0C94BCB30C94C4
:1003D00072D50C942FE00C94E8350C94B1AF0C94CA
:1003E0001A360C94ECD00C94F8B30C94A4D90C9459
:1003F00081AE0C94AFCE0C94F0B90C9407B40C946D
:10040000FA880C946DAE0C94FDC00C94BFAF0C94A4
:100410000D840C94C0AF0C94C1E20C94E6B70C941C
:1004200043360C947EAF0C940D360C9471AF0C9443
:1004300031AE0C947FBE0C94F8C30C9410A30C94B2
:1004400053B10C94F4830C94F4E00C9477AE0C94B8
:10045000A6C20C9498B60C94B8380C94A1830C9452
:100460004AD40C94B4BA0C94C0380C94F3980C94FD
:100470000DD10C9494830C948FAF0C9498CF0C9462
:1004800025C40C940B2C0C9430B80C9462B80C94CA
:10049000A6B90C9491C60C94D15E0C94DB810C949B
:1004A0008BAE0C943E360C9472D60C9489B20C949C
:1004B00013BC0C9436AE0C94D4AF0C948B360C94C5
:1004C0002EC70C940B360C94BCA20C94D1350C9412
:1004D00019DE0C9465C20C94DADF0C9470360C941F
:1004E000D8CC0C9427AE0C9423C90C945EAF526503
:1004F000706C6963617430722031001704C80000A9
:1005000000DC0027056400000078007505C80000C5
:1005100000DC002006640000007800E006C800004F
:1005200000DC002006C8000000DC002006C8000037
:1005300000DC002D08C80000000000C00DC800004D
:10054000001400C00DC800000014005A10C80000BC
:10055000001400C00D900100000000700390010025
:100560000014005504C800000014002705C800004E
:100570000014007003900100000000C805C80000CE
:10058000001400C805C80000001400C805C8000019
:10059000001400DD04B004000014007505C800005C
:1005A0000014007505C800000014007505C800009F
:1005B0000014009704B00400000000C00DC8000043
:1005C000001400C00DC80000001400910E9001003E
:1005D0000014005A10900100001400C00D20030008
:1005E0000000007003BC000000BC00E006BC00007E
:1005F00000BC00B807BC000000BC002D08BC00A96E
:1006000008BC000000BC00C00D4D0100000000C08F
:100610000D20010000BC005311BC000000BC005BB9
:1006200012B101000000009302690000006900EEB1
:10063000016900000069002601B8010000000024E3
:10064000F4D43050C38E20C2A24017828B70111296
:100650007A910D816CD90AA861E108C758660761D3
:100660005143061E4B5D05C145A7041A41110409FB
:100670003D9803713931034036DB0265339102D472
:10068000305402802E1D02632CEE01752AC501B084
:1006900028A001102781018F2564012B244B01E044
:1006A000223401AC211F018D200D01801FFC00842C
:1006B0001EED00971DDF00B81CD200E61BC600200F
:1006C0001BBC00641AB200B219A8000A19A0006A83
:1006D000189900D117910040178B00B5168400318E
:1006E000167E00B31579003A157300C7146F0058D1
:1006F000146A00EE1366008813630025135E00C7BA
:10070000125B006C12570015125400C11151007099
:10071000114F0021114B00D61049008D10470046A3
:1007200010440002104200C00F4000800F3E004203
:100730000F3C00060F3B00CB0E3800930E37005CD9
:100740000E3500270E3400F30D3200C10D3100903C
:100750000D3000600D2E00320D2D00050D2C00D93E
:100760000C2B00AE0C2900850C29005C0C270035F1
:100770000C27000E0C2600E80B2400C40B2400A05C
:100780000B23007D0B23005A0B2100390B2100188D
:100790000B2000F80A1F00D90A1E00BB0A1E009D8C
:1007A0000A1D00800A1D00630A1C00470A1B002C5A
:1007B0000A1B00110A1A00F7091A00DD091900C402
:1007C000091900AB091900920917007B0918006389
:1007D0000917004C09160036091600200916000AF0
:1007E000091500F5081500E0081400CC081400B83D
:1007F000081400A4081400900813007D0812006B70
:10080000081300580812004608120034081100238B
:100810000811001208110001081100F0071000E093
:10082000071000D0071000C0071000B0070F00A18C
:1008300007100091070E0083070F0074070F006573
:10084000070E0057070E0049070E003B070D002E4C
:10085000070E0020070D0013070D0006070D00F915
:10086000060C00ED060D00E0060C00D4060C00C8D6
:10087000060C00BC060C00B0060C00A4060B009988
:10088000060C008D060B0082060B0077060B006C31
:10089000060B0061060A0057060B004C060A0042D0
:1008A000060A0038060A002E060A0024060A001A64
:1008B000060A001006090007060A00FD050900F4F3
:1008C000050900EB050900E2050900D9050900D07A
:1008D000050900C7050900BE050900B5050800ADFA
:1008E000050800A50509009C050800940508008C72
:1008F000050800840508007C050800740508006CE4
:10090000050700650508005D050700560508004E4F
:1009100005070047050700400508003805070031B6
:100920000507002A050700230507001C0506001619
:100930000507000F0507000805060002050700FB74
:10094000040600F5040700EE040600E8040600E2D1
:10095000040700DB040600D5040600CF040600C926
:10096000040600C3040600BD040600B7040600B177
:10097000040500AC040600A6040600A00405009BC4
:1009800004060095040500900406008A040500850D
:10099000040500800406007A040500750405007053
:1009A0000405006B04050066040500610405005C95
:1009B00004050057040500520405004D04050048D5
:1009C000040500430405003E0404003A0405003514
:1009D000040500300404002C04050027040400234F
:1009E0000405001E0404001A040400160405001186
:1009F0000404000D040400090405000404040000BC
:100A0000040400FC030400F8030400F4030400F0F1
:100A1000030400EC030400E8030400E4030400E022
:100A2000030400DC030400D8030400D4030400D052
:100A3000030400CC030400C8030300C5030300241F
:100A4000F404D9201BC40C5C0E9804C4095F026531
:100A5000077101F405F900FB04B30048048700C1E5
:100A60000369005803550003034500BE023A0084A1
:100A700002310053022A002902250004022000E46A
:100A8000011C00C8011900AF01170098011400846F
:100A9000011300710110006101100051010E0043AB
:100AA000010D0036010B002B010B0020010B00157E
:100AB0000109000C01090003010800FB000800F314
:100AC000000800EB000700E4000600DE000600D886
:100AD000000600D2000600CC000500C7000500C2D9
:100AE000000500BD000400B9000400B5000400B119
:100AF000000400AD000400A9000400A5000300A24A
:100B00000003009F0004009B000300980003009571
:100B100000020093000300900003008D0002008B90
:100B200000030088000200860002008400030081A8
:100B30000002007F0002007D0002007B00020079BD
:100B400000020077000100760002007400020072CB
:100B5000000100710002006F0002006D0001006CD6
:100B60000002006A000100690002006700010066DF
:100B700000010065000100640002006200010061E4
:100B8000000100600001005F0002005D0001005CE8
:100B90000001005B0001005A0001005900010058EB
:100BA00000010057000100560001005500010054EB
:100BB00000010053000000530001005200010051E9
:100BC000000100500001004F0001004E0000004EE7
:100BD0000001004D0001004C0001004B0000004BE3
:100BE0000001004A000100490001004800000048DF
:100BF00000010047000100460000004600010045DA
:100C000000000045000100440001004300000043D3
:100C100000010042000000420001004100000041CC
:100C2000000100400001003F0000003F0001003EC5
:100C30000000003E0001003D0000003D0001003CBE
:100C40000000003C0000003C0001003B0000003BB5
:100C50000001003A0000003A0001003900000039AC
:100C600000010038000000380000003800010037A3
:100C7000000000370001003600000036000000369A
:100C8000000100350000003500000035000100348F
:100C90000000003400000034000100330000003385
:100CA000000000330001003200000032000000327A
:100CB000000100310000003100000031000100306F
:100CC00000000030000000300001002F0000002F65
:100CD0000000002F0000002F0001002E0000002E59
:100CE0000000002E0001002D0000002D0000002D4E
:100CF0000000002D0001002C0000002C0000002C42
:100D00000000002C0001002B0000002B0000002B35
:100D10000000002B0001002A0000002A0000002A29
:100D20000000002A0001002900000029000000291D
:100D30000000002900000029000100280000002810
:100D40000000002800000028000000280001002703
:100D500000000027000000270000002700000027F7
:100D600000010026000000260000002600000026EA
:100D700000000026000100250000002500000025DD
:100D800000000025000000250000002500010024CF
:100D900000000024000000240000002400000024C3
:100DA00000010023000000230000002300000023B6
:100DB00000000023000000230000002300010022A7
:100DC000000000220000002200000022000000229B
:100DD000000000220001002100000021000000218D
:100DE000000000210000002100000021000000217F
:100DF0000001002000000020000000200000002072
:100E00000000002000000020000000200000002062
:100E10000001001F0000001F0000001F0000001F55
:100E20000000001F0000001F0000001F0001001E46
:100E30000000001E0000001E0000001E00000089CF
:100E400010990000000052657047204275696C647B
:100E5000009600FF83048800000014008C0000004E
:100E6000000000000060F0FFFF0000000000000034
:100E7000009B0000000000000000000000000000D7
:100E8000000000000000A51C000018000020419593
:100E90000484036901000014008304DC05000014CD
:100EA00000901F8B0000000000000000A00F000059
:100EB0000000000000000000800000009B00000017
:100EC0000000000000A40F0000000000000000006F
:100ED000006A0A0000180AD7233CAA019B00000000
:100EE0000000000000000000000000000000000002
:100EF00000A51C000018F62820419504891B9500C8
:100F000000000042792068616E64206D6F76652074
:100F10007468652065782D00950100000074727575
:100F200064657220746F20646966666572656E74AC
:100F300020009501000000706F736974696F6E7313
:100F4000206F766572207468652020009507000088
:100F5000006275696C6420706C6174666F726D2ECE
:100F60002E2E2E00950000000041646A75737420D7
:100F70007468652073706163696E67202000950155
:100F80000000006265747765656E20746865206591
:100F9000787472756465720095010000006E6F7A56
:100FA0007A6C6520616E6420706C6174666F726D1E
:100FB0002000950700000077697468207468652038
:100FC0006B6E6F62732E2E2E009500000000756E02
:100FD0006465722074686520706C6174666F726DF0
:100FE0002020009501000000616E6420612073687C
:100FF000656574206F6620706170657200950100F0
:101000000000706C61636564206265747765656E6D
:10101000207468652020009507000000706C6174E2
:10102000666F726D20616E64207468652E2E2E00CE
:1010300095000000006E6F7A7A6C652E2057686507
:101040006E20796F75206172650095010000006463
:101050006F6E652C20707265737320746865202034
:1010600020202000950700000063656E74657220E3
:10107000627574746F6E2E00891F891F62003D02B5
:10108000000000002110422063308440A550C6605B
:10109000E770088129914AA16BB18CC1ADD1CEE135
:1010A000EFF13112100273325222B5529442F772AC
:1010B000D662399318837BB35AA3BDD39CC3FFF385
:1010C000DEE36224433420040114E664C774A444BC
:1010D00085546AA54BB528850995EEE5CFF5ACC5D5
:1010E0008DD55336722611163006D776F66695568C
:1010F000B4465BB77AA719973887DFF7FEE79DD725
:10110000BCC7C448E5588668A7784008611802281B
:101110002338CCC9EDD98EE9AFF9488969990AA974
:101120002BB9F55AD44AB77A966A711A500A333AEB
:10113000122AFDDBDCCBBFFB9EEB799B588B3BBBC4
:101140001AABA66C877CE44CC55C222C033C600C7B
:10115000411CAEED8FFDECCDCDDD2AAD0BBD688D14
:10116000499D977EB66ED55EF44E133E322E511ECB
:10117000700E9FFFBEEFDDDFFCCF1BBF3AAF599F64
:10118000788F8891A981CAB1EBA10CD12DC14EF104
:101190006FE18010A100C230E3200450254046706A
:1011A0006760B9839893FBA3DAB33DC31CD37FE395
:1011B0005EF3B1029012F322D232354214527762BA
:1011C0005672EAB5CBA5A89589856EF54FE52CD565
:1011D0000DC5E234C324A01481046674476424540A
:1011E0000544DBA7FAB79987B8975FE77EF71DC775
:1011F0003CD7D326F2369106B0165766767615465A
:1012000034564CD96DC90EF92FE9C899E9898AB9C4
:10121000ABA94458654806782768C018E1088238A9
:10122000A3287DCB5CDB3FEB1EFBF98BD89BBBABD4
:101230009ABB754A545A376A167AF10AD01AB32AF9
:10124000923A2EFD0FED6CDD4DCDAABD8BADE89D24
:10125000C98D267C076C645C454CA23C832CE01C49
:10126000C10C1FEF3EFF5DCF7CDF9BAFBABFD98FB4
:10127000F89F176E367E554E745E932EB23ED10E99
:10128000F01E78206D6F726521002A205072657300
:1012900073200045726173696E672E2E2E0065659E
:1012A00070726F6D5F64756D702E62696E20666915
:1012B0006C656E6F7420666F756E64005265616454
:1012C000206661696C65643B20454550524F4D2056
:1012D0006D617920626520636F727275707400525F
:1012E0006573746F72696E672E2E2E00656570725D
:1012F0006F6D5F64756D702E62696E2066696C65D6
:10130000616C7265616479206578697374730053E8
:101310004420636172642077726974652066616934
:101320006C656400536176696E672E2E2E005072D4
:1013300065737320555020746F2070726F636565FC
:10134000642E00796F757220626F7420696E6F7001
:10135000657261626C652E0054686973206D656EFC
:10136000752063616E206D616B65005361696C6609
:101370006973682076372E3130207230313836323A
:101380000041546D65676120323536302031342F8D
:1013900030372F3139002D2D2D205468696E67208C
:1013A0003332303834202D2D2D2D0053462D5265EB
:1013B000706C696361746F723100202020202020DE
:1013C000202020202020202020202020202000203D
:1013D0002020200020004320202020002F2020203B
:1013E00043004F464600202025004D41580046410D
:1013F0004E3A2D2D2D00010049033600FF006B00F1
:10140000D100A000B800D500A6000A0199003F0154
:101410008E0074018400A9017C00DE0174001302B7
:101420006C00480265007D025D00B2025600E702D2
:101430004E001C03460051033D0086033200BB03EF
:101440002200F0030300FF030000436F6F6C696E1E
:10145000672046616E20506F77657200456C617041
:101460007365643A20202020203030306830306DA1
:101470000020736563730054696D65204C65667464
:101480003A2020203030306830306D0055736520B0
:101490003020666F7220756E6C696D6974656400CA
:1014A0004D6178205A2050726F62652048697473CC
:1014B000005072696E74206F627374727563746920
:1014C0006F6E20202064657465637465642E20202F
:1014D000436865636B207468657072696E7420611F
:1014E0006E642065787472756465722E2050726522
:1014F0007373204C45465420666F72206D656E757F
:101500002E004175746F2D6C6576656C206661697F
:101510006C65640A546F6F20666172206F75742069
:101520006F66206C6576656C00507265737320433E
:10153000454E54455220627574746F6E20746F204E
:10154000636F6E74696E75652E00546865206275F0
:10155000696C6420706C61746520697320206E6F03
:1015600074206C6576656C65642100546865206242
:1015700075696C6420706C61746520697320206CDF
:101580006576656C656421004175746F2D6C6576B8
:10159000656C2020302E303030306D6D0041757418
:1015A0006F2D6C6576656C20696E61637469766514
:1015B00020004175746F2D6C6576656C20666169DD
:1015C0006C65640A496E636F6D706C65746520703C
:1015D000726F62696E67004175746F2D6C65766518
:1015E0006C206661696C65640A4261642070726F88
:1015F00062696E6720706F696E74730062657477DC
:1016000065656E2070726F6265207074732E004D78
:101610006178206865696768742076617269616EB7
:101620006365004175746F2D6C6576656C2056613D
:101630007269616E6365002050726F6265204F664B
:1016400066736574004175746F2D6C6576656C20EA
:101650004F66667365747300204465666C656374D9
:10166000696F6E004175746F2D6C6576656C2041F5
:10167000646A0055415254310020205553420053B2
:10168000657269616C20492F4F0045726173652056
:10169000456570726F6D005344202D3E2045657086
:1016A000726F6D00456570726F6D202D3E20534442
:1016B00000456570726F6D005072696E74205469D8
:1016C0006D653A202020682030306D004C617374C5
:1016D000205072696E743A20202020682030306DCE
:1016E000004C69666574696D653A202020202020D1
:1016F000682030306D00526573756D696E672070BB
:101700006F736974696F6E2E2E2E00436C65617263
:10171000696E67206275696C642E2E2E2020200071
:10172000447261696E696E6720706970656C696E7C
:10173000652E2E2E004C656176696E67207061758E
:1017400073652E2E2E202020200043616E63656C71
:101750006C696E67207072696E742E2E2E200045A3
:101760006E746572696E672070617573652E2E2EBA
:10177000202020005061757365206174205A506FDD
:10178000733A2000506C6174666F726D2054656D01
:10179000703A202020004C6566742054656D703AC4
:1017A000200052696768742054656D703A200054B7
:1017B0006F6F6C68656164204F6666736574730053
:1017C00020546F6F6C68656164204F666673657442
:1017D0003A00204F66667365743A0055702F446E68
:1017E0002F4C6566742F4D20746F207365740055FF
:1017F000702F446E2F522F4C2F4D20746F20736525
:10180000740050726F66696C65204E616D653A00B8
:101810005361766520546F2050726F66696C650065
:101820004368616E6765204E616D65004469737041
:101830006C617920436F6E66696700526573746FDF
:1018400072650052657365743A2070726573732017
:1018500043454E5445520046696C2E2054726970BF
:101860003A0046696C616D656E743A005472697035
:101870003A004C6966653A0046696C616D656E7444
:10188000204F646F6D6574657200486561746572A0
:1018900073204F66660043616E63656C2050726909
:1018A0006E74004C697665205A204F6666736574C5
:1018B0002041646A2E005072696E74205374617402
:1018C000697374696373004261636B20746F204DA8
:1018D0006F6E69746F72006D006D6D00486F6D659D
:1018E000204F6666736574730050726F66696C652D
:1018F000730046696C616D656E743A20202020206B
:1019000020302E306D6D0046696C616D656E743AE5
:10191000005A506F736974696F6E3A20202000502E
:1019200072696E742054696D653A20202020206809
:1019300020206D0054656D7065726174757265204C
:1019400072656164732020206F7574206F66207249
:10195000616E67652E20202020202020436865636B
:101960006B20776972696E672E0054656D706572C1
:1019700061747572652072656164732020206172E4
:1019800065206661696C696E672E2020202020200A
:101990002020436865636B20776972696E672E004B
:1019A00054656D70657261747572652064726F70D4
:1019B00070696E67436865636B20776972696E67EB
:1019C0002E004E6F742068656174696E67207072B6
:1019D0006F7065726C79436865636B2077697269B3
:1019E0006E672E0054656D70206C696D697420728D
:1019F0006561636865642E2053687574646F776EE3
:101A0000206F7220726573746172742E00506C6165
:101A100074666F726D204661696C75726521202055
:101A20002000546F6F6C2031204661696C757265BF
:101A300021202020202000546F6F6C203020466130
:101A4000696C757265212020202020004578747211
:101A500075646572204661696C757265212020206D
:101A600000486561746572732073687574646F777C
:101A70006E20647565746F20696E61637469766940
:101A800074790046696C616D656E74206C6F616479
:101A90002F756E6C6F616463616E63656C65642045
:101AA00064756520746F20746865207072696F7248
:101AB00020686561746572206572726F72004D797D
:101AC0002074656D706572617475726520776173DD
:101AD00020206368616E6765642065787465726E46
:101AE000616C6C792E20526573656C656374206639
:101AF000696C616D656E742020206D656E75207453
:101B00006F2074727920616761696E2E0077616958
:101B100074696E67200020204E412020202000653F
:101B200072726F7221004F464620202000435553A9
:101B3000544F4D0057484954452000505552504C81
:101B40004500424C5545202000475245454E200057
:101B500050494E4B2020004F52414E4745005245C0
:101B600044202020004C454420436F6C6F75720068
:101B7000536574204C6967687473204F4E2000537E
:101B80006574204C6967687473204F46460028438B
:101B9000616E6E6F74205072696E7420436F70793D
:101BA00029005072696E7420416E6F7468657220EE
:101BB000436F7079004D61696E204D656E750053FD
:101BC000657420436F6F6C696E672046616E204FAD
:101BD00046460053657420436F6F6C696E672046FC
:101BE000616E204F4E20004368616E676520484259
:101BF000502054656D70004368616E6765205465C0
:101C00006D7065726174757265004368616E6765B9
:101C1000205370656564004368616E676520457890
:101C200074727573696F6E005061757365206174AD
:101C3000205A506F7300446974746F205072696E3B
:101C400074696E67004E2F4100502D53746F7020E1
:101C500074726967676572656400502D53746F70A4
:101C600020496E76657274656400502D53746F70F0
:101C700020436F6E74726F6C00436865636B205312
:101C800044205265616473004578747275646572AE
:101C900020486F6C640050617573652077697468C3
:101CA0002048656174004F766572726964652047EB
:101CB0006354656D700048425020696E7374616CA6
:101CC0006C656400416363656C65726174696F6E15
:101CD0000045786974204D656E7500536F756E64AC
:101CE00000457874727564657220436F756E740078
:101CF000426F742053746174697374696373004331
:101D0000616C696272617465204E6F7A7A6C65737A
:101D100000526573746F72652053657474696E67E1
:101D2000730047656E6572616C2053657474696EEB
:101D300067730050726568656174205365747469D7
:101D40006E6773004C6576656C204275696C642023
:101D5000506C61746500456E61626C6520537465FA
:101D6000707065727320200044697361626C652035
:101D700053746570706572730056657273696F6E27
:101D800020496E666F726D6174696F6E0046696C92
:101D9000616D656E74204C6F6164696E6700486F99
:101DA0006D652041786573004A6F67204D6F6465EB
:101DB000004D6F6E69746F72204D6F6465005574CD
:101DC000696C697469657300507265686561740057
:101DD0005072696E742066726F6D20534400492002
:101DE00074696D6564206F7574207768696C65200F
:101DF0002020617474656D7074696E6720746F2043
:101E00006865617420206D7920706C6174666F72F2
:101E10006D2E00492074696D6564206F757420779C
:101E200068696C65202020617474656D7074696EDA
:101E30006720746F206865617420206D7920657853
:101E40007472756465722E00556E61626C652074E3
:101E50006F207265616420534420202063617264A6
:101E600020706172746974696F6E73206F76657229
:101E700032474220696E2073697A652E2020466FB2
:101E8000726D61746173204641542D3136206F723A
:101E9000202D33322E00556E61626C6520746F20E8
:101EA00072656164207468697320534420636172B1
:101EB0006420666F726D61742E2020202020466F92
:101EC000726D6174206173204641542D3136206F4C
:101ED00072204641542D33322E00534420636172E8
:101EE000642072656164206572726F722E20546F77
:101EF0006F206D616E7920435243206572726F725C
:101F0000732E426164206361726420636F6E74613A
:101F1000637473206F72656C656374726963616C5E
:101F2000206E6F6973652E005344206361726420D4
:101F300072656164206572726F7200534420636140
:101F40007264206E6F742070726573656E740053D6
:101F500044206361726420697320656D7074790038
:101F600043616E6E6F74206F70656E2074686520BB
:101F700066696C6500534420636172642072656118
:101F80006473206172652020206E6F7420676F6912
:101F90006E672077656C6C2E202054727961206406
:101FA0006966666572656E742063617264004927B4
:101FB0006D20616C7265616479206275696C646919
:101FC0006E6700436F6C6420506175736500556ED9
:101FD0007061757365005061757365202000436101
:101FE0006E63656C206C6F61642F756E6C6F6164DD
:101FF0003F0043616E63656C207468697320707282
:10200000696E743F0073657474696E67733F005244
:102010006573746F726520666163746F72790050C6
:102020006C6174666F726D2020202020202020209B
:102030002020004C65667420457874727564657262
:102040002020202020200052696768742045787481
:1020500072756465722020202020004578747275A6
:102060006465722020202020202020202020005085
:1020700072657373206C65667420746F2063616E83
:1020800063656C0045787472756465723A2020202F
:102090002D2D2D2F2D2D2D43004842503A2D2D2D25
:1020A0002F2D2D2D43004C20457874727564657278
:1020B0003A202D2D2D2F2D2D2D43005220457874A3
:1020C00072756465723A202D2D2D2F2D2D2D430014
:1020D000202D2D250048656174696E673A20202007
:1020E0002020202020202020200048656174696E77
:1020F000673A00203C2D592020284D656E75292017
:102100002020202020202000203C2D582020284D59
:10211000656E752920205A2D3E2020200020202089
:102120002020202020582D2020202020202020206A
:102130002000202020202020284D656E7529202099
:10214000592D3E2020200020202020202020205813
:102150002B20202020202020202020002020202094
:10216000204A6F67206D6F6465202020202020208A
:1021700000556E6C6F6164206C65667400556E6C02
:102180006F616420726967687400556E6C6F61647A
:10219000004C6F6164004C6F6164206C6566740074
:1021A0004C6F61642072696768740035206D696ED8
:1021B0007574652074696D656F75742068617365E9
:1021C0006C61707365642E20205072657373207487
:1021D00068652063656E74657220627574746F6ED5
:1021E00020746F2020202066696E6973682E00427B
:1021F0006567696E206C6F6164696E67206F72201D
:10220000202020756E6C6F6164696E672E2050729D
:102210006573732074686563656E7465722062759A
:1022200074746F6E207768656E202066696E6973BE
:102230006865642E004578747275646572732061F8
:102240007265206E6F7420202068656174696E6706
:102250002E2020436865636B20746865207769725F
:10226000696E672E00592041786973204C696E654C
:1022700000582041786973204C696E6500594553B8
:10228000004E4F2000446F6E650053656C656374AB
:102290002062657374206C696E65733A00457874CA
:1022A000727564657200506C6174666F726D005473
:1022B00075726E2048656174657273204F464600E2
:1022C00053746172742050726568656174696E67D9
:1022D0000046726565205352414D20004F4646002E
:1022E0004F4E20000B2CE52FD937B9384E40D34242
:1022F0006E46F449934BD15E6A7190740F80CC8026
:10230000DB81ED8398844A98F3983F9F469F31A0E4
:1023100001A210A363A7ABA73DAA0AAE11AE93DA40
:102320000DDFF4E067E1B4E2C1E2E0E1FCE185EC5D
:1023300091E201C08193EF3FF907E0F3D9F3112453
:102340001FBECFEFD1E2DEBFCDBF00E00CBF16E075
:10235000A0E0B2E0EEE5F4ED01E00BBF02C00790B3
:102360000D92A437B107D9F72CE1A4E7B6E001C07C
:102370001D92A031B207E1F711E1C5E9D1E100E01A
:1023800006C021970109802FFE010E9494E7C23701
:10239000D10780E00807A9F70E942F380C942DEA96
:1023A0000C9400006BBFFA01DC0102C007900D9293
:1023B00021503040D8F708958091050981110CC053
:1023C000809104098F5F80930409853028F081E0B3
:1023D0008093050910928F06089581E00E94663E61
:1023E00060E080E00C94043E8F929F92AF92BF9287
:1023F000CF92DF92EF92FF920F931F93CF93DF93D1
:10240000C62FD0E0FE01EE0FFF1FEE0FFF1FEE54B0
:10241000F94FC080D180E280F380FC01408151817E
:10242000628173814C195D096E097F09CC0FDD1F34
:10243000C255D94FE881F9814F01A12CB12C8416E6
:102440009506A606B70644F58C01C80CD91CEA1CF3
:10245000FB1CDB01CA0188199909AA09BB09AC0157
:10246000332722276091BE027091BF028091C00283
:102470009091C1020E94C8E2BB2797FDB095AB2F97
:10248000C80ED91EEA1EFB1EF801C082D182E2826C
:10249000F3821982188205C0CF01841B950B9983A2
:1024A0008883DF91CF911F910F91FF90EF90DF9084
:1024B000CF90BF90AF909F908F9008958F929F92F2
:1024C000AF92BF92CF92DF92EF92FF920F931F9342
:1024D000CF93DF93FC0180809180A280B380C62FD0
:1024E000D0E0CC0FDD1FC255D94F688179816B01D7
:1024F000E12CF12CC814D904EA04FB0424F58C0166
:10250000D501C4018C199D09AE09BF09AC0133275F
:1025100022276091BE027091BF028091C00290910B
:10252000C1020E94C8E2BB2797FDB095AB2FC80E31
:10253000D91EEA1EFB1EF801C082D182E282F3821C
:102540001982188204C06819790979836883DF9138
:10255000CF911F910F91FF90EF90DF90CF90BF90A0
:10256000AF909F908F9008951F93CF93DF93EB01CF
:10257000142F60E043FD03C00E94F41102C00E94CA
:102580005E1261E0CE0114FD05C0DF91CF911F9175
:102590000C94F411DF91CF911F910C945E120E9464
:1025A000ED1160E08FEF0E941E7CEAEFF6E01382EF
:1025B000128215821482108611860C946434F89469
:1025C000EAEFF6E02281338180819181821B930BB7
:1025D00078940895EF92FF920F931F93CF937C010D
:1025E0008B01C42F85EA99E00E949FCDB70185EA4F
:1025F00099E00E9477CDB80185EA99E00E9477CDF5
:10260000E091370AEE0FFF0BE75DF54F8081918176
:10261000855A994039F065EA79E08DE19AE00E94A7
:10262000FFA704C085EA99E00E94DECDC093040AAA
:10263000CF911F910F91FF90EF9008951092040A8F
:10264000E091370AEE0FFF0BE75DF54F8081918136
:10265000855A994021F48DE19AE00E94A7A8E09163
:10266000370AEE0FFF0BE75DF54F80819181DC01AA
:10267000ED91FC910480F581E02D19948091020286
:102680000895CF92DF92EF92FF920F931F93CF9313
:10269000DF93CDB7DEB7A0970FB6F894DEBF0FBEBD
:1026A000CDBF20919006222309F47FC08C01CE017A
:1026B00001960E942B7660E070E0C8010E942A43D8
:1026C000FC01C080D180E280F38060E070E0CE0148
:1026D00001960E942A43FC0180819181A281B381ED
:1026E000C81AD90AEA0AFB0ACD8ADE8AEF8AF88E6E
:1026F00061E070E0C8010E942A43FC01C080D180E3
:10270000E280F38061E070E0CE0101960E942A43EE
:10271000FC0180819181A281B381C81AD90AEA0A99
:10272000FB0AC98EDA8EEB8EFC8E62E070E0C80187
:102730000E942A43FC01C080D180E280F38062E0E5
:1027400070E0CE0101960E942A43FC0180819181B4
:10275000A281B381A7019601281B390B4A0B5B0BA1
:10276000DA01C9012D8F3E8F4F8F58A34D895E89A5
:102770006F89788D452B462B472B61F4498D5A8DF7
:102780006B8D7C8D452B462B472B21F4892B8A2B77
:102790008B2B59F08091900683FF05C0CE014596A2
:1027A0000E94FE4602C010929006A0960FB6F894C2
:1027B000DEBF0FBECDBFDF91CF911F910F91FF9074
:1027C000EF90DF90CF9008951092AD060895882382
:1027D00011F080E401C080E88093F7066093F4066E
:1027E0001092070910920609089581E08093F3067C
:1027F00008958091F706181634F48091F40681113B
:1028000004C081E0089580E0089582E008958091F9
:10281000F706089581E09091F706923008F480E081
:102820000895CF93DF93CDB7DEB764970FB6F894D2
:10283000DEBF0FBECDBF6093DB067093DC068093D6
:10284000DD069093DE06CE0101960E942B7662E0B3
:1028500070E0CE0101960E942343FC01408151812A
:10286000628173818091DB069091DC06A091DD0688
:10287000B091DE06481759076A077B071CF01092D3
:10288000DA0603C081E08093DA0664960FB6F89406
:10289000DEBF0FBECDBFDF91CF9108956091DB0603
:1028A0007091DC068091DD069091DE0608952091FE
:1028B000FC063091FD0681E0232B09F080E00895AD
:1028C000CF9360E070E0CB010E9411141092DA0601
:1028D00010929C0610929D0610929E0610929F06E2
:1028E0001092A006C1E0C093010210920809109254
:1028F000F8061092F7061092F6061092F50610925E
:10290000F4061092CA061092CB061092CC061092D2
:10291000CD061092CE061092CF061092D0061092DD
:10292000D1061092BA061092BB061092BC06109205
:10293000BD061092BE061092BF061092C0061092FD
:10294000C1061092B2061092B3061092B40610920D
:10295000B5061092D2061092D3061092D4061092A9
:10296000D5061092D6061092D7061092D80610926D
:10297000D9061092C2061092C3061092C406109295
:10298000C5061092C6061092C7061092C80610928D
:10299000C9061092B6061092B7061092B8061092A9
:1029A000B90661E082E490E00E94CBA0823009F099
:1029B00042C060E08FEF9FE00E94CBA08823D9F156
:1029C000C09391061092970610929806109299065D
:1029D00010929A0610929606109292061092930602
:1029E000109294061092950610920709109204090D
:1029F0001092050910928F06109206091092AC06EB
:102A00001092AB061092A8061092A7061092AA0682
:102A10001092A9061092A6061092A5061092A20680
:102A20001092A1061092A4061092A306109290068E
:102A3000CF910C94A14710929106C4CF0E946014CC
:102A400085E680930202EAEFF6E013821282158295
:102A500014821086118610928E06089581E090915E
:102A60008E06963009F080E008958091900683FFED
:102A700016C090910002992391F080918E068330C8
:102A800071F080910509882351F080918F068F5F46
:102A900080938F06981718F481E0809306090895B3
:102AA0008F929F92AF92BF92CF92DF92EF92FF925E
:102AB0000F931F93CF93DF93CDB7DEB7AA970FB6CF
:102AC000F894DEBF0FBECDBF882321F091E0909334
:102AD000AD0605C09091AD06992309F4ECC0F82E1F
:102AE000CE0145960E942B7681E089A78AA76E01C8
:102AF00089E2C80ED11C03E010E08EE99AE0FC01E7
:102B0000E759FF4F2081FC01222319F026A137A1AC
:102B100004C0EC5AFF4F20813181232B91F148965C
:102B20000E9422A5882369F1F6018081F81224C051
:102B3000812C912C54018394402F60E070E080E060
:102B400090E40E943974A50194010E940FE74B01A3
:102B50005C01B801CE0145960E942A43FC014081E8
:102B6000518162817381840E951EA61EB71E8082DC
:102B70009182A282B38205C088248A94982C540141
:102B8000DBCF0430110509F08EC060ED77E08CEEEC
:102B900091E00E94D4A0BC0180E090E00E944DE54D
:102BA0002091D5153091D6154091D7155091D81553
:102BB0000E9455E69B01AC0160E074E284E799E471
:102BC0000E9469E40E9417E54B015C018091910627
:102BD000882329F18091F90681110AC064E070E030
:102BE000CE0145960E942A438C0163E070E009C043
:102BF00063E070E0CE0145960E942A438C0164E0B8
:102C000070E0CE0145960E942A43FC0180819181AB
:102C1000A281B381F80180839183A283B383E12CE5
:102C200000E010E09801B501A401CE0145960E9494
:102C30008277F11040C0CE0101960E942B7663E0AE
:102C400070E0CE0101960E942A438C0163E070E09F
:102C50008FED96E00E942A43FC0180819181A28140
:102C6000B381F80180839183A283B38364E070E031
:102C7000CE0101960E942A438C0164E070E08FED42
:102C800096E00E942A43FC0180819181A281B38158
:102C9000F80180839183A283B38360E0CE01019623
:102CA0000E94A27508C0FFEFCF1ADF0A8DE19BE0FA
:102CB00004E010E024CFAA960FB6F894DEBF0FBE52
:102CC000CDBFDF91CF911F910F91FF90EF90DF90DB
:102CD000CF90BF90AF909F908F9008952F923F928A
:102CE0004F925F926F927F928F929F92AF92BF921C
:102CF000CF92DF92EF92FF920F931F93CF93DF93C8
:102D0000CDB7DEB7C856D1090FB6F894DEBF0FBEF7
:102D1000CDBF182FCE01CD960E94EE42CE018996EE
:102D20000E94EE42112309F433C1E8E4F5E182ED9B
:102D300095E12485222309F4B2C22385222309F4D4
:102D4000AEC2BE968E179F07A1F784E1EFEDF6E0C5
:102D5000DE01559601900D928A95E1F7CE0101961C
:102D60000E942B7660E070E0CE0145960E942A43D7
:102D70008C014091591550915A1560915B157091D5
:102D80005C158EE090E00E94E3A06B017C0180E086
:102D90000E941B7420E030E040EA50E40E9455E6B7
:102DA0000E9417E5C61AD70AE80AF90AF801C08294
:102DB000D182E282F38261E070E0CE0145960E940A
:102DC0002A438C014091871550918815609189158F
:102DD00070918A1582E190E00E94E3A06B017C0172
:102DE00081E00E941B7420E030E040EA50E40E9441
:102DF00055E60E9417E5C61AD70AE80AF90AF8014B
:102E0000C082D182E282F38262E070E0CE01459618
:102E10000E942A438C0162E070E0CE0101960E947C
:102E20002A43FC01C080D180E280F38082E00E94CE
:102E30001B7420E030E040EA50E40E9455E60E9416
:102E400017E5C60ED71EE81EF91EF801C082D18212
:102E5000E282F38262E070E0CE0145960E942A434E
:102E6000FC0140815181628173818091B5159091FF
:102E7000B615A091B715B091B81584179507A60798
:102E8000B7079CF462E070E0CE0145960E942A43A9
:102E90004091B5155091B6156091B7157091B81560
:102EA000FC01408351836283738362E070E0CE0152
:102EB00001960E942A43FC01C080D180E280F38009
:102EC00062E070E0CE0145960E942A43FC018081B9
:102ED0009181A281B3818C159D05AE05BF05BCF41F
:102EE00062E070E0CE0145960E942A438C0162E0C8
:102EF00070E0CE0101960E942A43FC0180819181FD
:102F0000A281B381F80180839183A283B38363E0BC
:102F100070E0CE0145960E942A438C0163E070E088
:102F2000CE0101960E942A43FC0180819181A281F9
:102F3000B381F80180839183A283B38364E070E05E
:102F4000CE0145960E942A438C0164E070E0CE01D8
:102F500001960E942A43FC0180819181A281B38164
:102F6000F80180839183A283B383BE016B5E7F4FA0
:102F7000CE018F5A9F4F0E94657584E1FE01EF5A82
:102F8000FF4FDE01999601900D928A95E1F757C0A7
:102F900084E1EFEDF6E0DE01999601900D928A95BD
:102FA000E1F7CE0145960E942B7664E070E0CE01F9
:102FB00089960E942A43FC0110810181328023807E
:102FC00063E070E0CE0189960E942A43FC01808074
:102FD0009180A280B38062E070E0CE0145960E94AD
:102FE0002A43FC01C080D180E280F38061E070E080
:102FF000CE0145960E942A43FC01408051806280A8
:10300000738060E070E0CE0145960E942A43FC0187
:1030100040815181628173812F923F920F931F9360
:1030200093018201CE0101960E94EF4260E0CE0141
:1030300001960E94A2750F900F900F900F906091D3
:10304000AB157091AC158091AD159091AE150E94A5
:103050004FE520E030E040E857E30E9455E620913C
:10306000A7153091A8154091A9155091AA150E9455
:1030700055E60E9417E5A9966CAF7DAF8EAF9FAF66
:10308000A997CE018F5A9F4F0E942B7684E1FE01B3
:10309000EF5AFF4FDE01DD9601900D928A95E1F720
:1030A00060E070E0CE01CD960E942A43FC01C08012
:1030B000D180E280F38060E070E0CE0189960E94CA
:1030C0002A43FC0180819181A281B381A7019601ED
:1030D000281B390B4A0B5B0BCA01B9010E944FE553
:1030E00020914B1530914C1540914D1550914E1536
:1030F0000E9469E42B013C0161E070E0CE01CD96B5
:103100000E942A43FC01C080D180E280F38061E00C
:1031100070E0CE0189960E942A43FC018081918152
:10312000A281B381A7019601281B390B4A0B5B0BC7
:10313000CA01B9010E944FE52091791530917A15A5
:1031400040917B1550917C150E9469E44B015C0114
:1031500062E070E0CE01CD960E942A43FC01C0805F
:10316000D180E280F38062E070E0CE0189960E9417
:103170002A43FC0180819181A281B381A70196013C
:10318000281B390B4A0B5B0BCA01B9010E944FE5A2
:103190002091A7153091A8154091A9155091AA1515
:1031A0000E9469E46B017C01A3019201C301B20199
:1031B0000E9455E62B013C01A5019401C501B40113
:1031C0000E9455E69B01AC01C301B2010E94E1E3FC
:1031D0004B015C01A7019601C701B6010E9455E6AB
:1031E0009B01AC01C501B4010E94E1E30E94C8E665
:1031F0002B013C0180919106882329F18091F906E9
:1032000081110AC064E070E0CE0189960E942A43D1
:103210008C0163E070E009C063E070E0CE01899644
:103220000E942A438C0164E070E0CE0189960E94DE
:103230002A43FC0180819181A281B381F8018083BE
:103240009183A283B383B0907E1610927E16609114
:10325000AB157091AC158091AD159091AE150E9493
:103260004FE520E030E040E857E30E9455E620E0DB
:1032700030E040E852E40E9455E60E9417E56B01F9
:103280008301720120E0A9964CAD5DAD6EAD7FADBE
:10329000A997CE0189960E941879B0927E16C859D6
:1032A000DF4F0FB6F894DEBF0FBECDBFDF91CF91D9
:1032B0001F910F91FF90EF90DF90CF90BF90AF9054
:1032C0009F908F907F906F905F904F903F902F9046
:1032D0000895EF92FF920F931F93CF93DF9328E00F
:1032E000829FC0011124FC01E653F94FF080018157
:1032F0001281D381C481B581E680E7812F2D302FE3
:10330000412F5D2F6C2F7B2F8E2D9E2FA0E00E94D2
:103310006FE954F40E94CAE8F22E032F142FD52F20
:10332000C62FB72FE82EE92F2F2D302F412F5D2FDD
:103330006C2F7B2F8E2D9E2FDF91CF911F910F91A0
:10334000FF90EF9008952F923F924F925F926F926D
:103350007F928F929F92AF92BF92CF92DF92EF9225
:10336000FF920F931F93CF93DF93C82F0E94691989
:1033700079011A012B013C01A0E00E946FE909F0DC
:103380000CF453C088E0C89FE00111244E0188E48A
:10339000881A8EEF980A00E010E020E030E040E06C
:1033A00050E060E070E0C4010E9489A159016A0107
:1033B000F62FE72F8C019701A101B201C301EF2E77
:1033C000FE2E0E9448E989019A01AB01BC01C401AB
:1033D0000E94DBA1DE01A654B94FFE01E653F94F6E
:1033E00080818C93818111968C93119782811296A2
:1033F0008C931297838113968C93139784811496E0
:103400008C931497858115968C93159786811696C3
:103410008C931697878117968C9310821182128253
:1034200013821482158216821782DF91CF911F9129
:103430000F91FF90EF90DF90CF90BF90AF909F9053
:103440008F907F906F905F904F903F902F90089556
:1034500080E00E94A31981E00C94A319EF92FF92DF
:103460000F931F93CF93DF9328E0829FC001112415
:10347000FC01E654F94FF08001811281D381C481AF
:10348000B581E680E7812F2D302F412F5D2F6C2FE6
:103490007B2F8E2D9E2FA0E00E946FE954F40E9496
:1034A000CAE8F22E032F142FD52FC62FB72FE82EE0
:1034B000E92F2F2D302F412F5D2F6C2F7B2F8E2D3D
:1034C0009E2FDF91CF911F910F91FF90EF90089564
:1034D000CF92DF92EF92FF9280E00E942E1AE42FAB
:1034E00043E0B9018E2F952F0E9427746B017C0158
:1034F00081E00E942E1AE42F44E0B9018E2F952F0F
:103500000E9427749B01AC01C701B6010E94E1E350
:103510006B017C0180E00E946919E42F43E0B9014E
:103520008E2F952F0E9427749B01AC01C701B60115
:103530000E94E1E36B017C0181E00E946919E42FA4
:1035400044E0B9018E2F952F0E9427749B01AC0196
:10355000C701B6010E94E1E3FF90EF90DF90CF90AA
:1035600008950F931F93CF93DF93D82F0CE916E0A4
:10357000C0E0F801808181110FC08C2F0E94537C24
:10358000F8018083DD2321F08C2F0E94597C04C038
:1035900064E18C2F0E944E7CCF5F0F5F1F4FC530C0
:1035A00041F7DF91CF911F910F9108950F931F93D2
:1035B000CF930CE916E0C0E0F80160818C2F0E94E7
:1035C0004E7CF80111928F01CF5FC530A9F7CF91E2
:1035D0001F910F910895EF92FF920F931F93CF9336
:1035E000DF93CDB7DEB764970FB6F894DEBF0FBE9A
:1035F000CDBF8091F706853409F40CC190F5813474
:1036000009F461C0B8F4803209F4EFC1803409F4E0
:103610003FC0823009F020C20E941E136091F5065F
:103620007091F60621E040E089E799E00E94353C80
:1036300081E0FEC1833409F450C008F058C0CE01C7
:1036400001960E942B7684E1FE013196AFEDB6E043
:1036500001900D928A95E1F781E00E94501583E474
:10366000E7C1843809F487C150F4813809F465C191
:10367000833809F471C1803809F0EEC101C1863880
:1036800009F492C108F486C1873809F492C1E4C1F3
:103690000E945832853029F00E945832843009F057
:1036A000BBC181E48093F70681E064960FB6F8947D
:1036B000DEBF0FBECDBFDF91CF911F910F91FF9065
:1036C000EF900C94B11A8091D80C9091D70C891B73
:1036D0008F7009F0C1C182E4ABC18091D80C909188
:1036E000D70C891B8F7009F0B7C184E4A1C181E0B8
:1036F0000E946E1685E48093F7060E94583285304A
:1037000039F00E94583211E0843019F010E001C005
:1037100011E08091B40B80939B0660E080E00E94F2
:10372000043E8091070B882329F08091C40A909170
:10373000C50A04C08091F20A9091F30A9093A20600
:103740008093A1068091860B882329F08091430BFA
:103750009091440B04C08091710B9091720B9093E7
:10376000A4068093A30680919A0A882329F0809169
:10377000570A9091580A04C08091850A9091860A50
:103780009093A6068093A5068091F40681114CC102
:1037900060E08EEF9FE00E94CBA0882309F444C133
:1037A0008091F406882351F021E040E060E080E061
:1037B0000E94998260E088EF0E941E7C6091F5066D
:1037C0007091F6066115710569F080910809811103
:1037D00005C0111103C08FE597E102C08AE497E1AB
:1037E00041E00AC0111103C08FE597E102C08AE4ED
:1037F00097E141E06BE077E164960FB6F894DEBFA5
:103800000FBECDBFDF91CF911F910F91FF90EF9031
:103810000C94EA128091D80C9091D70C891B8F7070
:1038200009F01AC10E94D61A80910809882311F064
:1038300080E209C08091F5069091F606892B11F47B
:1038400081E001C082E08093F7060E941E130E946F
:103850005832853009F400C10E945832843009F48E
:10386000FBC087E064960FB6F894DEBF0FBECDBFF5
:10387000DF91CF911F910F91FF90EF900C947A42BE
:1038800080E00E94B11A0091AB061091AC060115C0
:10389000110521F40091A5061091A6061016110637
:1038A00054F460E089E49AE00E94A6A5B80189E496
:1038B0009AE00E9453A4E090A706F090A806E114B5
:1038C000F10421F4E090A106F090A2061E141F045A
:1038D00094F460E086EB9AE00E94A6A5B70186EB1F
:1038E0009AE00E9453A4101611062CF461E086EBB6
:1038F0009AE00E94A6A5E090A906F090AA06E1141D
:10390000F10421F4E090A306F090A4061E141F0415
:1039100094F460E085E39BE00E94A6A5B70185E3EF
:103920009BE00E9453A4101611062CF461E085E37D
:103930009BE00E94A6A581E87BC08091A50690919E
:10394000A606181619060CF072C089E49AE00E94C7
:1039500022A581116CC080C08091A1069091A20621
:10396000181619060CF067C086EB9AE00E9422A593
:10397000811161C071C081E00E94B11A80E00E9493
:103980006E1685E88093F70641E066EF76E185E301
:1039900097E132CF8091D80C9091D70C891B8F7012
:1039A00009F05AC086E844C080E00E94501587E8BC
:1039B0003FC08091D80C9091D70C891B8F7009F073
:1039C0004BC060E080919B060E94043E0E94D61A84
:1039D0000E941E131092F7061092F6061092F5063A
:1039E000109207091092060937C00E941E136091B9
:1039F000F5067091F60621E040E089E799E00E9423
:103A0000353C0E948C441092F6061092F5061092F6
:103A100008091092F70620C041E060E277E18FE5E7
:103A200097E10E94EA123DCE0E94ED11B9CE83E8E3
:103A30008093F70611C08091A3069091A4061816F2
:103A4000190634F485E39BE00E9422A5882321F027
:103A50000E94D61A84E8ECCF64960FB6F894DEBFC5
:103A60000FBECDBFDF91CF911F910F91FF90EF90CF
:103A700008958F929F92AF92BF92CF92DF92EF9272
:103A8000FF92CF93C0910202C53609F453C0CC23F4
:103A900009F450C0F0909606CF1509F44BC0FF20F2
:103AA00009F448C060919206709193068091940643
:103AB000909195066115710581059105D9F10E94D6
:103AC0004DE54B015C016C2F70E06F197109072EF9
:103AD000000C880B990B0E944FE59B01AC01C501BE
:103AE000B4010E9469E46B017C016C2F70E080E0FE
:103AF00090E00E944DE59B01AC0160E070E088EC35
:103B000092E40E94E0E39B01AC01C701B6010E9470
:103B100055E66B017C0120E030E0A9010E9464E4DD
:103B200087FF03C0C12CD12C7601C701B6010E94CA
:103B300017E503C060E070E0CB01CF91FF90EF90FC
:103B4000DF90CF90BF90AF909F908F900895FC0131
:103B500084819581860F971F608171810E942BE778
:103B600026813781820F931F08951F93CF93DF9390
:103B7000EC012A813B81888199812817390770F4EB
:103B8000162F6A817B81CE010E94A71DFC01108344
:103B90008A819B8101969B838A8302C081E088870A
:103BA000DF91CF911F910895682F8AEF96E00C94D2
:103BB000B51DCF93DF93EC018A819B81892B21F482
:103BC00081E0898780E015C060E070E0CE010E944E
:103BD000A71DFC018C819D810196688179810E94DD
:103BE0002BE79D838C838A819B8101979B838A83AA
:103BF0008081DF91CF9108958AEF96E00C94D91DD2
:103C0000CF938AEF96E00E94D91DC82F8AEF96E0E5
:103C10000E94D91D982F8C2FCF9108951F93CF9379
:103C2000DF938AEF96E00E94D91D182F8AEF96E065
:103C30000E94D91DD82F8AEF96E00E94D91DC82F67
:103C40008AEF96E00E94D91D982F612F7D2F8C2F2F
:103C5000DF91CF911F910895CF92DF92EF92FF9263
:103C60001F93CF93DF93C82F61E070E08AEF96E057
:103C70000E94A71DFC011081CF3F09F01C2F62E0BC
:103C800070E08AEF96E00E94A71DFC0180818D30D4
:103C900009F488C048F48C3008F071C0843008F012
:103CA000F0C0833071F00BC0873109F45EC020F49E
:103CB000803108F4E6C003C08F3109F47FC010E002
:103CC00000C164E070E08AEF96E00E94A71DFC014D
:103CD000C081D0E065E070E08AEF96E00E94A71D09
:103CE000FC01808190E0982F8827C80FD91F20976A
:103CF00019F40E94281A14C0C12ED12C7601EE0CA2
:103D0000FF1CF701E955F94F80819181892B09F05A
:103D1000BAC060E08DEF9FE00E94CBA08111B3C0DC
:103D2000113019F08EE99AE002C08DE19BE0BE01EE
:103D300048960E9453A489E49AE00E944EA58823E5
:103D400009F4B6C089E49AE00E9463A58111B0C06D
:103D5000113019F08EE99AE002C08DE19BE048969F
:103D60000E9463A58111A4C07CC00E94F91391E058
:103D7000811190E060E0892F0E94B03482C064E03D
:103D800070E08AEF96E00E94A71DFC0160816170DF
:103D9000113019F08EE99AE002C08DE19BE00E949B
:103DA000A0A26FC064E070E08AEF96E00E94A71DB9
:103DB00061E0FC0180810E94043E63C00E94152FD7
:103DC000182F882309F45DC064E070E08AEF96E064
:103DD0000E94A71DFC01C081EC2EF12C65E070E073
:103DE0008AEF96E00E94A71DFC01C081D0E0DC2F85
:103DF000CC27CE0DDF1D2097D1F08091AB0690919E
:103E0000AC06892B39F460E08DEF9FE00E94CBA0D7
:103E1000882369F08091AB069091AC06009731F44D
:103E200064E670E08CE591E00E94D4A0EC01BE0154
:103E300089E49AE00E9453A461E089E799E00E9436
:103E4000FF3D89E49AE00E9463A591E08927809371
:103E5000F8060E9441408091B80B8E7F8093B80B8A
:103E600030C081E08093F8061130F9F08EE99AE0D5
:103E700061E048960E94A6A58091B80B8E7F809342
:103E8000B80B11E01EC0F701E955F94F808191810F
:103E9000009749F4C601880F991F66EE70E0885AB2
:103EA0009E4F0E94D4A0EC013BCF8DE19BE0E0CF80
:103EB000113019F08EE99AE002C08DE19BE060E0DC
:103EC000D8CF812FDF91CF911F91FF90EF90DF909E
:103ED000CF9008952F923F924F925F926F927F9270
:103EE0008F929F92AF92BF92CF92DF92EF92FF920A
:103EF0000F931F93CF93DF93CDB7DEB7C656D1098B
:103F00000FB6F894DEBF0FBECDBF0E9419448823C0
:103F1000B9F08091FC069091FD062091FA0630914F
:103F2000FB062817390749F10E946D44882329F1BF
:103F30000E947A44682F8AEF96E00E94B51DE9CF6F
:103F40000E9472808823A1F18091FC069091FD0669
:103F50002091FA063091FB062817390709F414C29C
:103F60000E948080882309F40FC20E948E80682FEF
:103F70008AEF96E00E94B51DE7CF0E946D44811143
:103F800017C080910402882309F4F4C19091F706C8
:103F90009111F0C191E090930809813009F0E2C1DC
:103FA0008BE39FE19093F6068093F5060E94CF1273
:103FB0008091F806882359F089E49AE00E9422A5AE
:103FC000882329F080E00E9441401092F8068091F9
:103FD000DB069091DC06A091DD06B091DE06892B10
:103FE0008A2B8B2B19F18091DA0681111FC0CE012B
:103FF00001960E942B7662E070E0CE0101960E944D
:104000002343DC014D915D916D917C918091DB06A4
:104010009091DC06A091DD06B091DE0648175907A5
:104020006A077B071CF481E08093DA068091DB0647
:104030009091DC06A091DD06B091DE06892B8A2BDB
:104040008B2B79F18091DA06882359F10E94F913BC
:10405000811127C0CE0101960E942B7662E070E0AC
:10406000CE0101960E942343FC014081518162816F
:1040700073818091DB069091DC06A091DD06B09102
:10408000DE06481759076A077B075CF060E070E0BE
:10409000CB010E94111460E081E00E94B0340C94C6
:1040A000F12B1091F706123020F00E94EB1A0C94BD
:1040B000F12B1130F9F48091F40681110C94F12B5D
:1040C0008091F30681110C94F12B85E09AE00E9417
:1040D00030E1882311F40C94F12B1093F4060E9424
:1040E000ED1121E040E060E080E00E94998260E014
:1040F00088EF8DC180918E06833071F40E94A67482
:10410000882341F082E896E00E9430E1882321F084
:104110000E94D77F10928E0680910709811104C0FA
:1041200080910609882329F180910509882309F1E6
:1041300080918E068330E9F08091F706811119C0D5
:104140000E94F913811111C080910609882319F08A
:1041500081EB94E102C089E49CE19093F6068093A0
:10416000F50661E081E00E94B034109207091092D8
:104170008F0680918E06813031F40E94A6748111E1
:1041800002C010928E0680918E06823039F488E843
:1041900096E00E9430E1811110928E0680918E0689
:1041A000843009F052C08CE796E00E9430E1882309
:1041B00049F020E040E063E17EE189E799E00E9478
:1041C000353C20C08091F906813019F48DE19BE0E7
:1041D00002C08EE99AE048960E944EA5811115C052
:1041E00080919106882371F08091F906811103C0B6
:1041F0008DE19BE002C08EE99AE048960E944EA5B0
:10420000811123C010928E0620C08091F906813062
:1042100019F48DE19BE002C08EE99AE048960E9475
:1042200022A5882391F080919106882359F38091EB
:10423000F906882319F08EE99AE002C08DE19BE02F
:1042400048960E9422A58111DDCF80918E0685308F
:10425000E1F48CE796E00E9430E1882349F020E009
:1042600040E06EED7DE189E799E00E94353CD3C0E6
:1042700089E49AE00E944EA5882309F4CCC089E421
:104280009AE00E9422A58111C6C080918E068630D8
:1042900091F586E796E00E9430E1882391F08091C5
:1042A000740681FF06C060E089E799E00E945940EA
:1042B00022C010928E068091B80B8F7E8093B80B2F
:1042C0001AC08DE19AE00E9432AA8823A1F0809161
:1042D000740682FF04C08DE19AE00E94A7A80E94A4
:1042E0003A408091B80B8F7E8093B80B8FEF0E947D
:1042F000718310928E0680918E0681110C94F12BA1
:1043000060E070E08AEF96E00E94A71DDC011C913E
:104310000E94C25D882359F0812F8F7E8B3811F067
:104320001E3811F410920C0281E080930B02B0E26F
:104330006996BFAF69978091FC069091FD06892B25
:1043400089F18091D80C9091D70C891B8F708E3099
:1043500048F5812F8F7E8B3809F42EC51E3809F45D
:104360002BC520C08B3019F48AED9EE11BCE88E26C
:104370009FE118CE8091F5069091F606892B09F001
:1043800017CE0E948C4414CE0E948080811110CEE2
:104390008091FC069091FD06892B09F009CE0E94C0
:1043A000C98006CE80910C02811105C00E9463660F
:1043B00081E080930C028091FC069091FD06892B90
:1043C00011F40C94F12B89E799E00E943E3C1B38D4
:1043D00009F41FC11E3809F41CC11B3909F419C1A5
:1043E0001938E1F48091FC069091FD06029710F4D3
:1043F0000C94F12B0E94FC1D0E94FC1D90919106D3
:1044000091110C94812B682F661F6627661F0E94EE
:104410001E7C0C94F12B10928E0637CF163811F4B7
:104420000C94712B1C3909F4F4C0812F8B7F8039D7
:1044300099F09DE7910F923078F0883849F016395D
:1044400009F4E7C00E94C25D882311F40C94F12B9B
:104450001C3811F40C94982B1538D1F48091FC067B
:104460009091FD06059710F40C94F12B82E0809357
:104470008E060E94FC1D0E940E1E9B01AC01A8EE40
:10448000B3E00E94ABE7AB01BC0188E896E01AC13B
:104490001439A1F58091FC069091FD06059710F462
:1044A0000C94F12B0E94FC1D0E94FC1D809375064C
:1044B0000E94001E7C010E94FC1D80937406E11482
:1044C000F10471F0D70120E432E44FE050E00E94A3
:1044D000ABE7AB01BC0186E796E00E94FEE087C037
:1044E000CE0101960E94FBE086E0FE013196A6E730
:1044F000B6E001900D928A95E1F779C0153909F07F
:1045000088C08091FC069091FD06069710F40C94EB
:10451000F12B0E94FC1D0E94FC1D182F0E94FC1D07
:10452000D82E0E94FC1DE82E0E94FC1DF82E10FDC6
:1045300004C085EA99E00E949FCDD092A809E0923C
:10454000A9096AEF76E085EA99E00E9403CD11FDA2
:1045500002C00C94F12BE091370AEE0FFF0BE75DE0
:10456000F54F80819181855A994039F065EA79E06B
:104570008DE19AE00E94FFA704C085EA99E00E94BD
:10458000DECD1470FF2049F0111107C06F2D85EAB0
:1045900099E00E94CECD0C94F12B112311F40C94D0
:1045A000F12BFF2079F0AF2DB0E020E432E44FE0B2
:1045B00050E00E94ABE7AB01BC0186E796E00E94A9
:1045C000FEE00DC0CE0101960E94FBE086E0FE01F8
:1045D0003196A6E7B6E001900D928A95E1F781E069
:1045E00080937506809174068470809374060E948F
:1045F0003040609175068DE19AE00E942FAA80916B
:10460000B80B80618093B80B86E080938E060C9483
:10461000F12B8DE7810F823070F58091FC0690912F
:10462000FD06089710F40C94F12B0E94FC1D0E94CB
:10463000FC1DF82E0E940E1E4B015C010E94001E04
:1046400023E020938E06DC0120E432E44FE050E0CA
:104650000E94ABE7AB01BC0182E896E00E94FEE05D
:1046600081E0143809F080E0A50194016F2D0E94CB
:10467000617B0C94F12B173849F58091FC069091E1
:10468000FD06069710F40C94F12B84E080938E06BF
:1046900081E08093050910928F060E94FC1D0E9404
:1046A000FC1D8093F9060E94001E0E94001EDC0182
:1046B00020E432E44FE050E00E94ABE7AB01BC01E4
:1046C0008CE796E00E94FEE00C94F12B1D38A9F4D3
:1046D0008091FC069091FD06069710F40C94F12B46
:1046E00085E080938E0681E08093050910928F0605
:1046F0000E94FC1D0E94FC1DD6CF1F3809F09CC0F3
:104700008091FC069091FD06029710F40C94F12B19
:104710000E94FC1D0E94FC1D182FCE0101960E94D4
:104720002B769EE0C92ED12CE12CF12CA12EB12CA0
:10473000C5010E2C02C0959587950A94E2F780FF7B
:1047400017C0B701CE0101960E942A43FC01808167
:104750009181A281B3818AA79BA7ACA7BDA7F8943A
:1047600044E050E0B601CE018A960E9408EA7894AF
:10477000FFEFEF1AFF0A04E0C00ED11C23E0E2169F
:10478000F104B1F6112311F40C94F12B812F8871EF
:1047900081130C94F12B183021F0103121F012E02C
:1047A00003C010E001C011E081E090E0012E01C0E3
:1047B000880F0A94EAF790919006892B80939006CF
:1047C00060E070E0CE0101960E942A43FC018081E6
:1047D0009181A281B3818AA79BA7ACA7BDA761E005
:1047E00070E0CE0101960E942A43FC0180819181F4
:1047F000A281B3818EA79FA7A8ABB9AB62E070E09E
:10480000CE0101960E942A43FC0180819181A28100
:10481000B3818AAB9BABACABBDABF894FCE01F9F04
:10482000B00111246B5D714F4CE050E0CE018A96CF
:104830000E9408EA7894D5C7103909F029C18091FF
:10484000FC069091FD06029708F4CBC70E94FC1D60
:104850000E94FC1D182FCE018A960E942B761831DB
:1048600009F07AC0809190068770873009F043C0C4
:10487000F89444E050E066E170E0CE01CE960E94EC
:10488000E4E949E250E060E27EE0CE0101960E9458
:10489000E4E978948A819B81AC81BD811816190660
:1048A0001A061B0644F088EC90E0A0E0B0E08A8392
:1048B0009B83AC83BD8322962CAD3DAD4EAD5FADE9
:1048C00022976A817B818C819D818E01025E1F4FC0
:1048D0006801DE0152967D01085111090E94C54709
:1048E000882339F08091900688608093900610E0CC
:1048F00003C012E001C011E0F89461E0111101C0A1
:1049000060E080E29EE00E9412EA78941123C1F0F8
:10491000113019F482EB95E10CC00E94EB496D3F18
:104920007F4F8F4F9F4F19F487ED95E102C082E0D2
:1049300095E19093F6068093F5060E94CF1203C08E
:1049400081E00E94A3741092791610927A16109248
:104950007B1610927C1645C7183009F03EC0F894BB
:1049600044E050E066E170E0CE018C5B9F4F0E9416
:10497000E4E949E250E060E27EE0CE0101960E9467
:10498000E4E978948CE390E0A0E0B0E08A839B8334
:10499000AC83BD838E01025E1F4F9E012E5E3F4F92
:1049A000AE014A5F5F4F6CE370E080E090E00E94F0
:1049B0003C4740E069E275E1882319F08BE695E118
:1049C00002C08AE495E10E94EA12CE01CE960E94CE
:1049D000FBE086E0FE01FE96FCCD103119F40E944A
:1049E000A147FFC68EE0A82EB12CC12CD12CE12E00
:1049F000F12CC7010C2C02C0959587950A94E2F71B
:104A000080FF0CC0F894B601CE018A960E942A431A
:104A100044E050E0B5010E94E4E97894EFEFCE1A4B
:104A2000DE0AF4E0AF0EB11C03E0C016D10409F7B2
:104A300063E070E0CE018A960E942A43FC018081E7
:104A40009181A281B3818093B2069093B306A09323
:104A5000B406B093B50664E070E0CE018A960E9479
:104A60002A43FC0180819181A281B3818093B606A3
:104A70009093B706A093B806B093B906CE018A9674
:104A80000E94411361E0CE018A960E94A275A9C6D8
:104A9000113999F48091FC069091FD06039708F472
:104AA000A0C60E94FC1D0E94FC1D182F0E94FC1D28
:104AB000682F812F0E944E7C94C61239E1F48091B8
:104AC000FC069091FD06069708F48BC60E94FC1D1B
:104AD0000E94FC1D182F0E94FC1DF82E0E94FC1D38
:104AE000E82E0E94FC1D0E94FC1D4E2D6F2D812F73
:104AF0000E94D98376C61339B1F48091FC06909157
:104B0000FD06069708F46DC60E94FC1D0E94001E5B
:104B10007C010E94001E6C010E94FC1DB601C701B1
:104B20000E9419425EC6183809F062C08091FC06E6
:104B30009091FD06049708F454C663E070E08AEF94
:104B400096E00E94A71D2091FC063091FD06DC0135
:104B5000EC90F12CB4E0EB0EF11C2E153F0508F49F
:104B600040C680919106882339F080910102882304
:104B700019F01092010203C081E08093010262E00B
:104B800070E08AEF96E00E94A71DFC0180818330CF
:104B900059F062E070E08AEF96E00E94A71DDC0108
:104BA0008C918C3009F099C58091010281110DC062
:104BB00061E070E08AEF96E00E94A71DFC0181E0B1
:104BC0009081992319F080E001C08FEF0E942C1E84
:104BD00080910102882309F404C610E0812F90E03F
:104BE0008E159F0508F0FDC50E94FC1D1F5FF6CFC6
:104BF000163909F041C08091FC069091FD0603979B
:104C000008F4EFC50E94FC1D0E94FC1D8093020267
:104C10000E94FC1D809102028823F1F0809197068A
:104C200090919806A0919906B0919A06892B8A2BAB
:104C30008B2B91F48091960681110EC00E94313326
:104C400060939706709398068093990690939A06BE
:104C5000809102028093960680910202882309F4D3
:104C6000C0C50E943133609392067093930680937F
:104C7000940690939506B5C51739B9F48091FC0652
:104C80009091FD060297B8F10E94FC1D0E94FC1D48
:104C9000811102C084E006C0813019F40E947A427A
:104CA0002AC082E00E94B54226C0183999F480914A
:104CB000FC069091FD06029708F493C50E94FC1D26
:104CC0000E94FC1D0E940F2E60E089E799E00E947F
:104CD000594087C5193991F48091FC069091FD06E1
:104CE000059708F47EC50E94FC1D0E940E1E8AEFE7
:104CF00096E00E9475321092050973C51A3971F455
:104D00008091FC069091FD06029708F46AC50E9406
:104D1000FC1D0E94FC1D0E94C733EDCF1C3999F485
:104D20008091FC069091FD06029708F45AC50E94F6
:104D3000FC1D0E94FC1D91E0813009F090E0892F5C
:104D40000E945E7C4EC51D39A1F48091FC069091B5
:104D5000FD06459708F445C50E940E1E0E940E1ED2
:104D60000E940E1E0E940E1E0E940E1E0E94FC1D1E
:104D700038C51E3909F035C58091FC069091FD06B5
:104D8000059708F42EC50E94FC1D0E940E1E6B01A3
:104D90007C012FE632E143E85AE30E9464E487FF96
:104DA00003C0C12CD12C760142E0C701B6010E949C
:104DB00039740E94111415C56996BFAD6997B15039
:104DC0006996BFAF6997B11105C089E799E00E9464
:104DD0003E3C07C51B3809F0EEC08091FC0690915F
:104DE000FD06499708F453C40E94FC1DE1E0E093DE
:104DF0008E060E940E1E2C966CAF7DAF8EAF9FAFBD
:104E00002C970E940E1E60966CAF7DAF8EAF9FAF49
:104E100060970E940E1E64966CAF7DAF8EAF9FAF01
:104E200064970E940E1E22966CAF7DAF8EAF9FAF2F
:104E300022970E940E1E6AA77BA78CA79DA7809130
:104E40007D16882351F060E0CE01CE960E94F411C9
:104E500061E0CE018A960E94F4110E940E1E6896AF
:104E60006CAF7DAF8EAF9FAF68978091910688231E
:104E7000C9F08091F90681110BC022968CAD9DADD1
:104E8000AEADBFAD22978AA79BA7ACA7BDA70AC0AE
:104E90008AA59BA5ACA5BDA522968CAF9DAFAEAF54
:104EA000BFAF229722968CAD9DADAEADBFAD229720
:104EB0008093B2069093B306A093B406B093B50660
:104EC0004AA45BA46CA47DA48091B6069091B70619
:104ED000A091B806B091B90693018201081B190B85
:104EE0002A0B3B0BD901C80168017901FF0CCC08E2
:104EF000DC2C76019801AD016C2D7C2D8C2D9C2D28
:104F0000A090D206B090D306C090D406D090D5061B
:104F1000E090D606F090D7060091D8061091D906F9
:104F20000E9448E92093D2063093D3064093D406DA
:104F30005093D5066093D6067093D7068093D80613
:104F40009093D9064092B6065092B7066092B80682
:104F50007092B9060E94DC1122968CAC9DACAEAC6E
:104F6000BFAC22978DA58F938CA58F938BA58F9324
:104F70008AA58F936496CCACDDACEEACFFAC6497A5
:104F800060960CAD1DAD2EAD3FAD60972C964CAD2F
:104F90005DAD6EAD7FAD2C97CE0101960E94EF42C4
:104FA000E12C00E010E0980168964CAD5DAD6EAD6F
:104FB0007FAD6897CCC11E3809F0CEC18091FC0648
:104FC0009091FD064A9708F462C30E94FC1D11E00F
:104FD00010938E060E940E1E64966CAF7DAF8EAF4E
:104FE0009FAF64970E940E1E68966CAF7DAF8EAF28
:104FF0009FAF68970E940E1E6D966CAF7DAF8EAF0F
:105000009FAF6D970E940E1E28966CAF7DAF8EAF3E
:105010009FAF28970E940E1E22966CAF7DAF8EAF79
:105020009FAF22970E940E1EA1966CAF7DAF8EAFF0
:105030009FAFA1970E94FC1D29968FAF2997809161
:105040009106882399F18091F906811117C028965D
:105050008CAD9DADAEADBFAD289722968CAF9DAF08
:10506000AEAFBFAF229729968FAD29978F7E299635
:105070002FAD299723FF17C0806115C022968CADF4
:105080009DADAEADBFAD229728968CAF9DAFAEAFB4
:10509000BFAF289729968FAD2997877F29963FAD77
:1050A000299734FD886029968FAF299780917D16C6
:1050B000882359F029964FAD2997BE01625C7F4F36
:1050C000CE018C5B9F4F0E94B41228968CAD9DAD93
:1050D000AEADBFAD28978AA79BA7ACA7BDA7229668
:1050E0008CAD9DADAEADBFAD22978EA79FA7A8ABEF
:1050F000B9ABAAECB6E0A796BFAFAEAFA7971E01BB
:10510000BAE22B0E311CE2EBF6E0A596FFAFEEAF54
:10511000A59773E0472E512C2996BFAD2997AB2F49
:10512000B0E0A396BFAFAEAFA397A3968EAD9FADF1
:10513000A397042C02C0959587950A94E2F780FF07
:1051400053C0F1016080718082809380740163019B
:10515000FF0CCC08DC2C76019301A4016C2D7C2D76
:105160008C2D9C2DA796AEADBFADA797AC90119698
:10517000BC9011971296CC9012971396DC901397CF
:105180001496EC9014971596FC90159716960C9122
:10519000169717961C9117970E9448E92C93119621
:1051A0003C93119712964C93129713965C93139716
:1051B00014966C93149715967C93159716968C936A
:1051C000169717969C93A596EEADFFADA5974081D7
:1051D000518162817381460D571D681D791D408381
:1051E00051836283738360C0D1010D911D912D9114
:1051F0003C9160960CAF1DAF2EAF3FAF6097A59668
:10520000EEADFFADA5974081518162817381480168
:105210005901841A950AA60AB70A75016401FF0CA0
:10522000CC08DC2C76019401A5016C2D7C2D8C2DF5
:105230009C2DA796AEADBFADA797AC901196BC9034
:1052400011971296CC9012971396DC9013971496A0
:10525000EC9014971596FC90159716960C9116974E
:1052600017961C9117970E9448E92C9311963C932E
:10527000119712964C93129713965C93139714966A
:105280006C93149715967C93159716968C93169796
:1052900017969C9360960CAD1DAD2EAD3FAD6097FB
:1052A0000083118322833383BFEF4B1A5B0AA796D7
:1052B000EEADFFADA7973896A796FFAFEEAFA797D5
:1052C000F4E02F0E311CA596AEADBFADA597149698
:1052D000A596BFAFAEAFA597B5E04B16510409F048
:1052E00024CF0E94DC1128968CAC9DACAEACBFAC38
:1052F000289722968FAD22978F9321968FAD219775
:105300008F938FAD8F938EAD8F936D96CCACDDACBC
:10531000EEACFFAC6D9768960CAD1DAD2EAD3FADFC
:10532000689764964CAD5DAD6EAD7FAD6497CE0170
:1053300001960E94EF422996EFAC2997A1960CADF9
:105340001DAD2EAD3FADA19740E050E0BA01CE01BA
:1053500001960E94827797C11B3909F098C180910C
:10536000FC069091FD06809708F491C10E94FC1DF7
:10537000E1E0E0938E060E940E1E60966CAF7DAF5A
:105380008EAF9FAF60970E940E1E64966CAF7DAF8C
:105390008EAF9FAF64970E940E1E68966CAF7DAF74
:1053A0008EAF9FAF68970E940E1E28966CAF7DAFA0
:1053B0008EAF9FAF28970E940E1E22966CAF7DAFD6
:1053C0008EAF9FAF22970E940E1E6D966CAF7DAF81
:1053D0008EAF9FAF6D970E94FC1D182F0E940E1E6E
:1053E000A1966CAF7DAF8EAF9FAFA1970E94001EBC
:1053F000A3969FAF8EAFA39780919106811105C0B0
:105400001F7729961FAF299733C08091F906811124
:1054100018C028968CAD9DADAEADBFAD2897229635
:105420008CAF9DAFAEAFBFAF2297F12FFF7629961D
:10543000FFAF299713FF1CC0F0612996FFAF299792
:1054400017C022968CAD9DADAEADBFAD229728960C
:105450008CAF9DAFAEAFBFAF2897012F07772996CE
:105460000FAF299714FF04C0086029960FAF299742
:1054700080917D16882359F029964FAD2997BE015A
:10548000625C7F4FCE018C5B9F4F0E94B4122896C6
:105490008CAD9DADAEADBFAD28978AA79BA7ACA73D
:1054A000BDA722968CAD9DADAEADBFAD22978EA7A8
:1054B0009FA7A8ABB9ABEAECF6E01E011AE2210EF9
:1054C000311CA2EBB6E0A796BFAFAEAFA79743E003
:1054D000442E512C2996BFAD2997AB2FB0E0A5964D
:1054E000BFAFAEAFA597A5968EAD9FADA597042C87
:1054F00002C0959587950A94E2F7D1016D907D9051
:105500008D909C9080FF31C074016301FF0CCC082A
:10551000DC2C76019301A4016C2D7C2D8C2D9C2D0F
:10552000A080B180C280D380E480F580068117819D
:105530000E9448E9208331834283538364837583C7
:1055400086839783A796AEADBFADA7974D915D912A
:105550006D917C911397460D571D681D791D4D93D4
:105560005D936D937C93139734C0A796AEADBFAD9A
:10557000A7974D915D916D917C9113979401830153
:10558000041B150B260B370BC901B8016801790103
:10559000FF0CCC08DC2C76019B01AC016C2D7C2D22
:1055A0008C2D9C2DA080B180C280D380E480F580BA
:1055B000068117810E9448E9208331834283538307
:1055C00064837583868397836D927D928D929C927E
:1055D0001397BFEF4B1A5B0A389604E0200E311C7C
:1055E000A796AEADBFADA7971496A796BFAFAEAFC7
:1055F000A797B5E04B16510409F075CF0E94DC1156
:1056000070907E162996EFAD29977E2A28968CAC4D
:105610009DACAEACBFAC289722968FAD22978F93EE
:1056200021968FAD21978F938FAD8F938EAD8F93F2
:105630006896CCACDDACEEACFFAC689764960CAD74
:105640001DAD2EAD3FAD649760964CAD5DAD6EADBA
:105650007FAD6097CE0101960E94EF42A396CEAC3B
:10566000DFACA397A196ECACFDAC0EAD1FADA1973E
:10567000272D6D964CAD5DAD6EAD7FAD6D97CE01B6
:1056800001960E9418790F900F900F900F90209123
:10569000FC063091FD068091FA069091FB062817D2
:1056A000390781F00E941944882361F00E946D44FB
:1056B000882341F00E947A44682F8AEF96E00E9486
:1056C000B51DE5CF60E070E08AEF96E00E94A71D6F
:1056D000FC011081A8950C949B2181E0809301022C
:1056E00063CA8091FC069091FD06029708F479C088
:1056F0000E94FC1D0E94FC1D8093F9060E94617CA3
:1057000070C09091F906911108C0982F9F7E83FF79
:105710000CC0892F80610C940322982F977F84FFFF
:1057200004C0892F88600C940322892F0C940322D3
:105730008091FC069091FD06459708F452C00E94A6
:10574000FC1D0E940E1E2B013C010E940E1E2C9679
:105750006CAF7DAF8EAF9FAF2C970E940E1E6B017A
:105760007C010E940E1E4B015C010E940E1E2091C6
:105770009106222349F02091F906211103C0B401BA
:10578000C50102C04B015C018092B2069092B30643
:10579000A092B406B092B5066093B6067093B706B1
:1057A0008093B8069093B9069F938F937F936F93DE
:1057B0002C960CAD1DAD2EAD3FAD2C97B301A201C3
:1057C000CE0101960E94EF42CE0101960E94411344
:1057D00060E0CE0101960E94A2750F900F900F908D
:1057E0000F90CA59DF4F0FB6F894DEBF0FBECDBF82
:1057F000DF91CF911F910F91FF90EF90DF90CF90AD
:10580000BF90AF909F908F907F906F905F904F90E0
:105810003F902F90089540E06DE074E089E099E0BA
:105820000E9491DDEAEFF6E080E092E091838083D0
:10583000138212821582148284E097E09783868314
:10584000108611868FED96E00E94EE4288E896E081
:105850000E94FBE082E896E00E94FBE08CE796E085
:105860000E94FBE086E796E00C94FBE0CF93DF9389
:105870001F921F92CDB7DEB721E0298322E32A834E
:1058800042E050E0BC01CE0101960E9408EA0F9070
:105890000F90DF91CF910895CF93DF93EC0140E01B
:1058A00050E060EE70E40E944FA146E656E666EADC
:1058B0007EE3CE0102960E944FA140E050E060E1FD
:1058C00072E4CE010496DF91CF910C944FA1CF9357
:1058D000DF93EC010A960E944C2CCE0140960E9468
:1058E0004C2CCE014A96DF91CF910C94362C0F931D
:1058F0001F93CF93DF9300D0CDB7DEB78C0167E065
:105900000E9412EA61E0C80102960E9412EA8FEF3B
:1059100089838A838B83B8016C5F7F4F43E050E0BB
:10592000CE0101960E9408EA0F900F900F90DF9130
:10593000CF911F910F91089567E080E491E00C945E
:10594000CBA0682F80E491E00C9412EAFF920F93B1
:105950001F93CF93DF9300D0CDB7DEB7F82E062F7D
:10596000142F68E080E491E00E9412EAF9820A8331
:105970001B8343E050E064E471E0CE0101960E9495
:1059800008EA0F900F900F90DF91CF911F910F9128
:10599000FF900895CF92DF92EF92FF92CF93DF9323
:1059A0006B017C01EA01CA010E9428EAB701CE011D
:1059B0000496DF91CF91FF90EF90DF90CF900C9401
:1059C00028EAAC018091CA029091CB02A091CC024E
:1059D000B091CD02BC01CD010E94CA2C0895CF9395
:1059E000DF93EC0166EE70E00E9428EA66EE70E05C
:1059F000CE0102960E9428EA64E670E0CE01049689
:105A00000E9428EA65E0CE010696DF91CF910C94C2
:105A100012EA61E08EE691E00E9412EA68EE73E01D
:105A200082E791E00E9428EA68EE73E084E791E063
:105A30000E9428EA66E970E086E791E00E9428EA81
:105A400060ED77E088E791E00E9428EA60ED77E07A
:105A50008AE791E00E9428EA6FE070E08CE791E02D
:105A60000E9428EA6FE070E08EE791E00E9428EA49
:105A70006AE070E080E891E00E9428EA64E170E06A
:105A800082E891E00E9428EA64E170E084E891E015
:105A90000E9428EA44EF51E060E070E088ED91E078
:105AA0000E9420EA4CE755E160E070E08CED91E067
:105AB0000E9420EA60E170E080EE91E00E9428EA16
:105AC00060E170E082EE91E00E9428EA60E08BE005
:105AD00092E00E9412EA61E084EE91E00E9412EAF4
