:100000000C948D0F0C94C10F0C94C10F0C94C10F64
:100010000C94C10F0C94C10F0C94C10F0C94C10F20
:100020000C94C10F0C94C10F0C94C10F0C94C10F10
:100030000C94C10F0C945D3A0C94C10F0C94C10F39
:100040000C94C10F0C94C10F0C94C10F0C94C10FF0
:100050000C94C10F0C94C10F0C94C10F0C94C10FE0
:100060000C94C10F0C940EDF0C94C10F0C943ADF6A
:100070000C94C10F0C94A19D0C94C10F0C94C10F52
:100080000C94333A0C94C10F0C94C10F0C94C10F13
:100090000C94C10F0C94C10F0C94C10F0C94C10FA0
:1000A0000C94C10F0C94C10F0C94C10F0C94C10F90
:1000B0000C94C10F0C94C10F0C94C10F0C94853A91
:1000C0000C94C10F0C94C10F0C94C10F0C94C10F70
:1000D0000C94C10F0C94C10F0C94C10F0C94C10F60
:1000E0000C94C10FB033F833FA33D5330734A3344B
:1000F000A334D5333034A3343E3449345D346234D0
:10010000A334A3340F34D5332B34A334BE330B3490
:10011000673478347F34A334A3348334B581808149
:100120008B817D817A818D81AA819081D2CDEFCD25
:10013000FCCD25CE44CE57CE65CE96CEC2CE5265EE
:10014000706C6963617430722031001704C800005C
:1001500000DC0027056400000078007505C8000079
:1001600000DC002006640000007800E006C8000003
:1001700000DC002006C8000000DC002006C80000EB
:1001800000DC002D08C80000000000C00DC8000001
:10019000001400C00DC800000014005A10C8000070
:1001A000001400C00D9001000000007003900100D9
:1001B0000014005504C800000014002705C8000002
:1001C0000014007003900100000000C805C8000082
:1001D000001400C805C80000001400C805C80000CD
:1001E000001400DD04B004000014007505C8000010
:1001F0000014007505C800000014007505C8000053
:100200000014009704B00400000000C00DC80000F6
:10021000001400C00DC80000001400910E900100F1
:100220000014005A10900100001400C00D200300BB
:100230000000007003BC000000BC00E006BC000031
:1002400000BC00B807BC000000BC002D08BC00A921
:1002500008BC000000BC00C00D4D0100000000C043
:100260000D20010000BC005311BC000000BC005B6D
:1002700012B101000000009302690000006900EE65
:10028000016900000069002601B801000000002497
:10029000F4D43050C38E20C2A24017828B7011124A
:1002A0007A910D816CD90AA861E108C75866076187
:1002B0005143061E4B5D05C145A7041A41110409AF
:1002C0003D9803713931034036DB0265339102D426
:1002D000305402802E1D02632CEE01752AC501B038
:1002E00028A001102781018F2564012B244B01E0F8
:1002F000223401AC211F018D200D01801FFC0084E0
:100300001EED00971DDF00B81CD200E61BC60020C2
:100310001BBC00641AB200B219A8000A19A0006A36
:10032000189900D117910040178B00B51684003141
:10033000167E00B31579003A157300C7146F005884
:10034000146A00EE1366008813630025135E00C76D
:10035000125B006C12570015125400C1115100704D
:10036000114F0021114B00D61049008D1047004657
:1003700010440002104200C00F4000800F3E0042B7
:100380000F3C00060F3B00CB0E3800930E37005C8D
:100390000E3500270E3400F30D3200C10D310090F0
:1003A0000D3000600D2E00320D2D00050D2C00D9F2
:1003B0000C2B00AE0C2900850C29005C0C270035A5
:1003C0000C27000E0C2600E80B2400C40B2400A010
:1003D0000B23007D0B23005A0B2100390B21001841
:1003E0000B2000F80A1F00D90A1E00BB0A1E009D40
:1003F0000A1D00800A1D00630A1C00470A1B002C0E
:100400000A1B00110A1A00F7091A00DD091900C4B5
:10041000091900AB091900920917007B091800633C
:100420000917004C09160036091600200916000AA3
:10043000091500F5081500E0081400CC081400B8F0
:10044000081400A4081400900813007D0812006B23
:10045000081300580812004608120034081100233F
:100460000811001208110001081100F0071000E047
:10047000071000D0071000C0071000B0070F00A140
:1004800007100091070E0083070F0074070F006527
:10049000070E0057070E0049070E003B070D002E00
:1004A000070E0020070D0013070D0006070D00F9C9
:1004B000060C00ED060D00E0060C00D4060C00C88A
:1004C000060C00BC060C00B0060C00A4060B00993C
:1004D000060C008D060B0082060B0077060B006CE5
:1004E000060B0061060A0057060B004C060A004284
:1004F000060A0038060A002E060A0024060A001A18
:10050000060A001006090007060A00FD050900F4A6
:10051000050900EB050900E2050900D9050900D02D
:10052000050900C7050900BE050900B5050800ADAD
:10053000050800A50509009C050800940508008C25
:10054000050800840508007C050800740508006C97
:10055000050700650508005D050700560508004E03
:10056000050700470507004005080038050700316A
:100570000507002A050700230507001C05060016CD
:100580000507000F0507000805060002050700FB28
:10059000040600F5040700EE040600E8040600E285
:1005A000040700DB040600D5040600CF040600C9DA
:1005B000040600C3040600BD040600B7040600B12B
:1005C000040500AC040600A6040600A00405009B78
:1005D00004060095040500900406008A04050085C1
:1005E000040500800406007A040500750405007007
:1005F0000405006B04050066040500610405005C49
:1006000004050057040500520405004D0405004888
:10061000040500430405003E0404003A04050035C7
:10062000040500300404002C040500270404002302
:100630000405001E0404001A040400160405001139
:100640000404000D0404000904050004040400006F
:10065000040400FC030400F8030400F4030400F0A5
:10066000030400EC030400E8030400E4030400E0D6
:10067000030400DC030400D8030400D4030400D006
:10068000030400CC030400C8030300C503030024D3
:10069000F404D9201BC40C5C0E9804C4095F0265E5
:1006A000077101F405F900FB04B30048048700C199
:1006B0000369005803550003034500BE023A008455
:1006C00002310053022A002902250004022000E41E
:1006D000011C00C8011900AF011700980114008423
:1006E000011300710110006101100051010E00435F
:1006F000010D0036010B002B010B0020010B001532
:100700000109000C01090003010800FB000800F3C7
:10071000000800EB000700E4000600DE000600D839
:10072000000600D2000600CC000500C7000500C28C
:10073000000500BD000400B9000400B5000400B1CC
:10074000000400AD000400A9000400A5000300A2FD
:100750000003009F0004009B000300980003009525
:1007600000020093000300900003008D0002008B44
:10077000000300880002008600020084000300815C
:100780000002007F0002007D0002007B0002007971
:10079000000200770001007600020074000200727F
:1007A000000100710002006F0002006D0001006C8A
:1007B0000002006A00010069000200670001006693
:1007C0000001006500010064000200620001006198
:1007D000000100600001005F0002005D0001005C9C
:1007E0000001005B0001005A00010059000100589F
:1007F000000100570001005600010055000100549F
:10080000000100530000005300010052000100519C
:10081000000100500001004F0001004E0000004E9A
:100820000001004D0001004C0001004B0000004B96
:100830000001004A00010049000100480000004892
:10084000000100470001004600000046000100458D
:100850000000004500010044000100430000004387
:100860000001004200000042000100410000004180
:10087000000100400001003F0000003F0001003E79
:100880000000003E0001003D0000003D0001003C72
:100890000000003C0000003C0001003B0000003B69
:1008A0000001003A0000003A000100390000003960
:1008B0000001003800000038000000380001003757
:1008C000000000370001003600000036000000364E
:1008D0000001003500000035000000350001003443
:1008E0000000003400000034000100330000003339
:1008F000000000330001003200000032000000322E
:100900000001003100000031000000310001003022
:1009100000000030000000300001002F0000002F18
:100920000000002F0000002F0001002E0000002E0C
:100930000000002E0001002D0000002D0000002D01
:100940000000002D0001002C0000002C0000002CF5
:100950000000002C0001002B0000002B0000002BE9
:100960000000002B0001002A0000002A0000002ADD
:100970000000002A000100290000002900000029D1
:1009800000000029000000290001002800000028C4
:1009900000000028000000280000002800010027B7
:1009A00000000027000000270000002700000027AB
:1009B000000100260000002600000026000000269E
:1009C0000000002600010025000000250000002591
:1009D0000000002500000025000000250001002483
:1009E0000000002400000024000000240000002477
:1009F000000100230000002300000023000000236A
:100A0000000000230000002300000023000100225A
:100A1000000000220000002200000022000000224E
:100A20000000002200010021000000210000002140
:100A30000000002100000021000000210000002132
:100A40000001002000000020000000200000002025
:100A50000000002000000020000000200000002016
:100A60000001001F0000001F0000001F0000001F09
:100A70000000001F0000001F0000001F0001001EFA
:100A80000000001E0000001E0000001E0000008983
:100A900010990000000052657047204275696C642F
:100AA000009600FF83048800000014008C00000002
:100AB000000000000060F0FFFF00000000000000E8
:100AC000009B00000000000000000000000000008B
:100AD000000000000000A51C000018000020419547
:100AE0000484036901000014008304DC0500001481
:100AF00000901F8B0000000000000000A00F00000D
:100B00000000000000000000800000009B000000CA
:100B10000000000000A40F00000000000000000022
:100B2000006A0A0000180AD7233CAA019B000000B3
:100B300000000000000000000000000000000000B5
:100B400000A51C000018F62820419504891B95007B
:100B500000000042792068616E64206D6F76652028
:100B60007468652065782D00950100000074727529
:100B700064657220746F20646966666572656E7460
:100B800020009501000000706F736974696F6E73C7
:100B9000206F76657220746865202000950700003C
:100BA000006275696C6420706C6174666F726D2E82
:100BB0002E2E2E00950000000041646A757374208B
:100BC0007468652073706163696E67202000950109
:100BD0000000006265747765656E20746865206545
:100BE000787472756465720095010000006E6F7A0A
:100BF0007A6C6520616E6420706C6174666F726DD2
:100C000020009507000000776974682074686520EB
:100C10006B6E6F62732E2E2E009500000000756EB5
:100C20006465722074686520706C6174666F726DA3
:100C30002020009501000000616E6420612073682F
:100C4000656574206F6620706170657200950100A3
:100C50000000706C61636564206265747765656E21
:100C6000207468652020009507000000706C617496
:100C7000666F726D20616E64207468652E2E2E0082
:100C800095000000006E6F7A7A6C652E20576865BB
:100C90006E20796F75206172650095010000006417
:100CA0006F6E652C207072657373207468652020E8
:100CB00020202000950700000063656E7465722097
:100CC000627574746F6E2E00891F891F62003D0269
:100CD000000000002110422063308440A550C6600F
:100CE000E770088129914AA16BB18CC1ADD1CEE1E9
:100CF000EFF13112100273325222B5529442F77260
:100D0000D662399318837BB35AA3BDD39CC3FFF338
:100D1000DEE36224433420040114E664C774A4446F
:100D200085546AA54BB528850995EEE5CFF5ACC588
:100D30008DD55336722611163006D776F66695563F
:100D4000B4465BB77AA719973887DFF7FEE79DD7D8
:100D5000BCC7C448E5588668A778400861180228CF
:100D60002338CCC9EDD98EE9AFF9488969990AA928
:100D70002BB9F55AD44AB77A966A711A500A333A9F
:100D8000122AFDDBDCCBBFFB9EEB799B588B3BBB78
:100D90001AABA66C877CE44CC55C222C033C600C2F
:100DA000411CAEED8FFDECCDCDDD2AAD0BBD688DC8
:100DB000499D977EB66ED55EF44E133E322E511E7F
:100DC000700E9FFFBEEFDDDFFCCF1BBF3AAF599F18
:100DD000788F8891A981CAB1EBA10CD12DC14EF1B8
:100DE0006FE18010A100C230E3200450254046701E
:100DF0006760B9839893FBA3DAB33DC31CD37FE349
:100E00005EF3B1029012F322D2323542145277626D
:100E10005672EAB5CBA5A89589856EF54FE52CD518
:100E20000DC5E234C324A0148104667447642454BD
:100E30000544DBA7FAB79987B8975FE77EF71DC728
:100E40003CD7D326F2369106B0165766767615460D
:100E500034564CD96DC90EF92FE9C899E9898AB978
:100E6000ABA94458654806782768C018E10882385D
:100E7000A3287DCB5CDB3FEB1EFBF98BD89BBBAB88
:100E80009ABB754A545A376A167AF10AD01AB32AAD
:100E9000923A2EFD0FED6CDD4DCDAABD8BADE89DD8
:100EA000C98D267C076C645C454CA23C832CE01CFD
:100EB000C10C1FEF3EFF5DCF7CDF9BAFBABFD98F68
:100EC000F89F176E367E554E745E932EB23ED10E4D
:100ED000F01E78206D6F726521002A2050726573B4
:100EE00073200045726173696E672E2E2E00656552
:100EF00070726F6D5F64756D702E62696E206669C9
:100F00006C656E6F7420666F756E64005265616407
:100F1000206661696C65643B20454550524F4D2009
:100F20006D617920626520636F7272757074005212
:100F30006573746F72696E672E2E2E006565707210
:100F40006F6D5F64756D702E62696E2066696C6589
:100F5000616C72656164792065786973747300539C
:100F600044206361726420777269746520666169E8
:100F70006C656400536176696E672E2E2E00507288
:100F800065737320555020746F2070726F636565B0
:100F9000642E00796F757220626F7420696E6F70B5
:100FA000657261626C652E0054686973206D656EB0
:100FB000752063616E206D616B65005361696C66BD
:100FC0006973682076372E313020723031383632EE
:100FD0000041546D65676120313238302031342F43
:100FE00030372F3139002D2D2D205468696E672040
:100FF0003332303834202D2D2D2D0053462D52659F
:10100000706C696361746F72310020202020202091
:1010100020202020202020202020202020200020F0
:101020002020200020004320202020002F202020EE
:1010300043004F464600202025004D4158004641C0
:101040004E3A2D2D2D00010049033600FF006B00A4
:10105000D100A000B800D500A6000A0199003F0108
:101060008E0074018400A9017C00DE01740013026B
:101070006C00480265007D025D00B2025600E70286
:101080004E001C03460051033D0086033200BB03A3
:101090002200F0030300FF030000436F6F6C696ED2
:1010A000672046616E20506F77657200456C6170F5
:1010B0007365643A20202020203030306830306D55
:1010C0000020736563730054696D65204C65667418
:1010D0003A2020203030306830306D005573652064
:1010E0003020666F7220756E6C696D69746564007E
:1010F0004D6178205A2050726F6265204869747380
:10110000005072696E74206F6273747275637469D3
:101110006F6E20202064657465637465642E2020E2
:10112000436865636B207468657072696E742061D2
:101130006E642065787472756465722E20507265D5
:101140007373204C45465420666F72206D656E7532
:101150002E004175746F2D6C6576656C2066616933
:101160006C65640A546F6F20666172206F7574201D
:101170006F66206C6576656C0050726573732043F2
:10118000454E54455220627574746F6E20746F2002
:10119000636F6E74696E75652E00546865206275A4
:1011A000696C6420706C61746520697320206E6FB7
:1011B00074206C6576656C656421005468652062F6
:1011C00075696C6420706C61746520697320206C93
:1011D0006576656C656421004175746F2D6C65766C
:1011E000656C2020302E303030306D6D00417574CC
:1011F0006F2D6C6576656C20696E616374697665C8
:1012000020004175746F2D6C6576656C2066616990
:101210006C65640A496E636F6D706C6574652070EF
:10122000726F62696E67004175746F2D6C657665CB
:101230006C206661696C65640A4261642070726F3B
:1012400062696E6720706F696E747300626574778F
:1012500065656E2070726F6265207074732E004D2C
:101260006178206865696768742076617269616E6B
:101270006365004175746F2D6C6576656C205661F1
:101280007269616E6365002050726F6265204F66FF
:1012900066736574004175746F2D6C6576656C209E
:1012A0004F66667365747300204465666C6563748D
:1012B000696F6E004175746F2D6C6576656C2041A9
:1012C000646A00457261736520456570726F6D00D8
:1012D0005344202D3E20456570726F6D004565704A
:1012E000726F6D202D3E20534400456570726F6D06
:1012F000005072696E742054696D653A2020206830
:101300002030306D004C617374205072696E743AF5
:1013100020202020682030306D004C69666574699B
:101320006D653A202020202020682030306D00524A
:101330006573756D696E6720706F736974696F6E20
:101340002E2E2E00436C656172696E67206275698E
:101350006C642E2E2E20202000447261696E696E0E
:101360006720706970656C696E652E2E2E004C6565
:101370006176696E672070617573652E2E2E202050
:1013800020200043616E63656C6C696E672070722B
:10139000696E742E2E2E2000456E746572696E671C
:1013A0002070617573652E2E2E20202000506175EF
:1013B0007365206174205A506F733A2000506C613D
:1013C00074666F726D2054656D703A202020004C59
:1013D0006566742054656D703A20005269676874C0
:1013E0002054656D703A2000546F6F6C68656164BD
:1013F000204F6666736574730020546F6F6C686568
:101400006164204F66667365743A00204F666673A8
:1014100065743A0055702F446E2F4C6566742F4DDD
:1014200020746F207365740055702F446E2F522FF7
:101430004C2F4D20746F207365740050726F666975
:101440006C65204E616D653A005361766520546F7E
:101450002050726F66696C65004368616E67652035
:101460004E616D6500446973706C617920436F6EE5
:1014700066696700526573746F72650052657365C3
:10148000743A2070726573732043454E5445520080
:1014900046696C2E20547269703A0046696C616D21
:1014A000656E743A00547269703A004C6966653A28
:1014B0000046696C616D656E74204F646F6D657474
:1014C00065720048656174657273204F66660043FB
:1014D000616E63656C205072696E74004C6976654C
:1014E000205A204F66667365742041646A2E00504E
:1014F00072696E74205374617469737469637300E4
:101500004261636B20746F204D6F6E69746F72005F
:101510006D006D6D00486F6D65204F666673657474
:10152000730050726F66696C65730046696C616D1B
:10153000656E743A202020202020302E306D6D0002
:1015400046696C616D656E743A005A506F736974C8
:10155000696F6E3A202020005072696E74205469C1
:101560006D653A20202020206820206D0054656D94
:101570007065726174757265207265616473202094
:10158000206F7574206F662072616E67652E202053
:101590002020202020436865636B20776972696E84
:1015A000672E0054656D7065726174757265207286
:1015B00065616473202020617265206661696C69D1
:1015C0006E672E2020202020202020436865636B3A
:1015D00020776972696E672E0054656D706572615F
:1015E000747572652064726F7070696E67436865A8
:1015F000636B20776972696E672E004E6F74206886
:10160000656174696E672070726F7065726C794382
:101610006865636B20776972696E672E0054656D2B
:1016200070206C696D697420726561636865642EF1
:101630002053687574646F776E206F7220726573C3
:10164000746172742E00506C6174666F726D204606
:1016500061696C7572652120202000546F6F6C20C9
:1016600031204661696C75726521202020202000A0
:10167000546F6F6C2030204661696C757265212053
:1016800020202020004578747275646572204661C0
:10169000696C75726521202020004865617465724F
:1016A000732073687574646F776E20647565746FEA
:1016B00020696E61637469766974790046696C614A
:1016C0006D656E74206C6F61642F756E6C6F6164F4
:1016D00063616E63656C65642064756520746F205A
:1016E000746865207072696F7220686561746572D4
:1016F000206572726F72004D792074656D7065722D
:1017000061747572652077617320206368616E670C
:1017100065642065787465726E616C6C792E2052F8
:101720006573656C6563742066696C616D656E7464
:101730002020206D656E7520746F20747279206191
:101740006761696E2E0077616974696E6720002099
:10175000204E4120202020006572726F72210053BC
:101760006574204C6967687473204F4E2000536580
:1017700074204C6967687473204F464600284361A3
:101780006E6E6F74205072696E7420436F70792989
:10179000005072696E7420416E6F746865722043E8
:1017A0006F7079004D61696E204D656E75005365EF
:1017B0007420436F6F6C696E672046616E204F46E0
:1017C000460053657420436F6F6C696E67204661F5
:1017D0006E204F4E20004368616E6765204842507E
:1017E0002054656D70004368616E67652054656DB7
:1017F0007065726174757265004368616E6765201B
:101800005370656564004368616E67652045787450
:10181000727573696F6E0050617573652061742015
:101820005A506F7300446974746F205072696E74FB
:10183000696E67004E2F4100502D53746F702074F5
:10184000726967676572656400502D53746F70200C
:10185000496E76657274656400502D53746F702004
:10186000436F6E74726F6C00436865636B20534402
:1018700020526561647300457874727564657220E6
:10188000486F6C64005061757365207769746820D7
:1018900048656174004F76657272696465204763BC
:1018A00054656D700048425020696E7374616C6CB1
:1018B000656400416363656C65726174696F6E0095
:1018C00045786974204D656E7500536F756E6400C0
:1018D000457874727564657220436F756E7400424A
:1018E0006F74205374617469737469637300436126
:1018F0006C696272617465204E6F7A7A6C657300F0
:10190000526573746F72652053657474696E677382
:101910000047656E6572616C2053657474696E670B
:101920007300507265686561742053657474696EE4
:101930006773004C6576656C204275696C64205055
:101940006C61746500456E61626C652053746570EE
:101950007065727320200044697361626C65205366
:10196000746570706572730056657273696F6E206E
:10197000496E666F726D6174696F6E0046696C6165
:101980006D656E74204C6F6164696E6700486F6DA1
:10199000652041786573004A6F67204D6F6465006C
:1019A0004D6F6E69746F72204D6F64650055746978
:1019B0006C69746965730050726568656174005084
:1019C00072696E742066726F6D20534400492074F2
:1019D000696D6564206F7574207768696C65202077
:1019E00020617474656D7074696E6720746F20680F
:1019F00065617420206D7920706C6174666F726D02
:101A00002E00492074696D6564206F7574207768B5
:101A1000696C65202020617474656D7074696E67EF
:101A200020746F206865617420206D79206578745A
:101A300072756465722E00556E61626C6520746FFC
:101A40002072656164205344202020636172642009
:101A5000706172746974696F6E73206F766572322B
:101A6000474220696E2073697A652E2020466F7286
:101A70006D61746173204641542D3136206F7220A0
:101A80002D33322E00556E61626C6520746F2072AA
:101A900065616420746869732053442063617264D3
:101AA00020666F726D61742E2020202020466F7298
:101AB0006D6174206173204641542D3136206F7260
:101AC000204641542D33322E00534420636172640A
:101AD0002072656164206572726F722E20546F6F80
:101AE000206D616E7920435243206572726F72736C
:101AF0002E426164206361726420636F6E7461635F
:101B00007473206F72656C656374726963616C20B5
:101B10006E6F6973652E0053442063617264207296
:101B2000656164206572726F720053442063617254
:101B300064206E6F742070726573656E7400534418
:101B4000206361726420697320656D70747900434D
:101B5000616E6E6F74206F70656E207468652066AC
:101B6000696C65005344206361726420726561642E
:101B700073206172652020206E6F7420676F696E1C
:101B8000672077656C6C2E2020547279612064691F
:101B900066666572656E7420636172640049276DC4
:101BA00020616C7265616479206275696C64696E2C
:101BB0006700436F6C6420506175736500556E70EB
:101BC0006175736500506175736520200043616E17
:101BD00063656C206C6F61642F756E6C6F61643F20
:101BE0000043616E63656C2074686973207072696C
:101BF0006E743F0073657474696E67733F0052655D
:101C000073746F726520666163746F727900506CD3
:101C10006174666F726D20202020202020202020FB
:101C200020004C6566742045787472756465722076
:101C30002020202020005269676874204578747243
:101C400075646572202020202000457874727564C8
:101C5000657220202020202020202020200050728B
:101C6000657373206C65667420746F2063616E63A6
:101C7000656C0045787472756465723A2020202D79
:101C80002D2D2F2D2D2D43004842503A2D2D2D2F37
:101C90002D2D2D43004C2045787472756465723A81
:101CA000202D2D2D2F2D2D2D43005220457874727F
:101CB000756465723A202D2D2D2F2D2D2D4300207A
:101CC0002D2D250048656174696E673A202020201B
:101CD00020202020202020200048656174696E6744
:101CE0003A00203C2D592020284D656E7529202072
:101CF00020202020202000203C2D582020284D6529
:101D00006E752920205A2D3E2020200020202020E2
:101D100020202020582D202020202020202020207E
:101D200000202020202020284D656E752920205974
:101D30002D3E202020002020202020202020582B55
:101D400020202020202020202020002020202020B3
:101D50004A6F67206D6F64652020202020202000BE
:101D6000556E6C6F6164206C65667400556E6C6FA7
:101D7000616420726967687400556E6C6F616400FD
:101D80004C6F6164004C6F6164206C656674004C3C
:101D90006F61642072696768740035206D696E75C3
:101DA00074652074696D656F757420686173656C06
:101DB00061707365642E202050726573732074689F
:101DC000652063656E74657220627574746F6E2031
:101DD000746F2020202066696E6973682E0042654A
:101DE00067696E206C6F6164696E67206F72202076
:101DF0002020756E6C6F6164696E672E205072656D
:101E000073732074686563656E746572206275749F
:101E1000746F6E207768656E202066696E697368DE
:101E200065642E0045787472756465727320617202
:101E300065206E6F7420202068656174696E672E5E
:101E40002020436865636B20746865207769726938
:101E50006E672E00592041786973204C696E6500C9
:101E6000582041786973204C696E650059455300CC
:101E70004E4F2000446F6E650053656C656374209F
:101E800062657374206C696E65733A00457874728C
:101E90007564657200506C6174666F726D00547584
:101EA000726E2048656174657273204F4646005318
:101EB000746172742050726568656174696E670040
:101EC00046726565205352414D20004F4646004FF3
:101ED0004E200000FC29D32DC635A6363B3EC0401F
:101EE0005B44E1478049BE5C576F7D72FC7DB97EE3
:101EF000C87FD98184823696DF962B9D329D1D9EA8
:101F0000EA9FF9A04FA597A529A8F6ABFDABECD7A2
:101F100067DC4EDEC1DE6EDF7BDFEEEFFBE185ECE2
:101F200091E201C08193EF3FF907E0F3D9F3112467
:101F30001FBECFEFD1E2DEBFCDBF16E0A0E0B2E022
:101F4000E4EDFDEC01E00BBF02C007900D92A4365A
:101F5000B107D9F72BE1A4E6B6E001C01D92AE3F70
:101F6000B207E1F71FE0CDE8DFE004C02197FE01F2
:101F70000E944EE4CA36D107C9F70E941C360C9461
:101F8000E8E60C9400006BBFFA01DC0102C0079088
:101F90000D9221503040D8F708958091F5088111B5
:101FA0000CC08091F4088F5F8093F408853028F08E
:101FB00081E08093F50810927F06089581E00E94E9
:101FC000533C60E080E00C94F13B8F929F92AF9283
:101FD000BF92CF92DF92EF92FF920F931F93CF9316
:101FE000DF93C62FD0E0FE01EE0FFF1FEE0FFF1FA5
:101FF000EE55F94FC080D180E280F380FC01408132
:102000005181628173814C195D096E097F09CC0F82
:10201000DD1FC256D94FE881F9814F01A12CB12CA7
:1020200084169506A606B70644F58C01C80CD91C83
:10203000EA1CFB1CDB01CA0188199909AA09BB0922
:10204000AC01332722276091BE027091BF028091BC
:10205000C0029091C1020E9482DFBB2797FDB0951C
:10206000AB2FC80ED91EEA1EFB1EF801C082D1821A
:10207000E282F3821982188205C0CF01841B950B7E
:1020800099838883DF91CF911F910F91FF90EF90FB
:10209000DF90CF90BF90AF909F908F9008958F92D8
:1020A0009F92AF92BF92CF92DF92EF92FF920F93E7
:1020B0001F93CF93DF93FC0180809180A280B38037
:1020C000C62FD0E0CC0FDD1FC256D94F6881798171
:1020D0006B01E12CF12CC814D904EA04FB0424F5AB
:1020E0008C01D501C4018C199D09AE09BF09AC0151
:1020F000332722276091BE027091BF028091C002F7
:102100009091C1020E9482DFBB2797FDB095AB2F53
:10211000C80ED91EEA1EFB1EF801C082D182E282DF
:10212000F3821982188204C0681979097983688357
:10213000DF91CF911F910F91FF90EF90DF90CF90A3
:10214000BF90AF909F908F9008951F93CF93DF9390
:10215000EB01142F60E043FD03C00E94E50F02C0B5
:102160000E944F1061E0CE0114FD05C0DF91CF91B8
:102170001F910C94E50FDF91CF911F910C944F109C
:102180000E94DE0F60E08FEF0E940B7AEAEEF6E02D
:102190001382128215821482108611860C94533297
:1021A000F894EAEEF6E02281338180819181821BEE
:1021B000930B78940895EF92FF920F931F93CF9310
:1021C0007C018B01C42F85E999E00E94F7CAB70111
:1021D00085E999E00E94CFCAB80185E999E00E949B
:1021E000CFCAE091270AEE0FFF0BE75EF54F808123
:1021F00091818559994039F065E979E08DE09AE05F
:102200000E94EBA504C085E999E00E9437CBC093FA
:10221000F409CF911F910F91FF90EF9008951092C4
:10222000F409E091270AEE0FFF0BE75EF54F80817E
:1022300091818559994021F48DE09AE00E9493A6FE
:10224000E091270AEE0FFF0BE75EF54F8081918149
:10225000DC01ED91FC910480F581E02D09948091E1
:1022600002020895CF92DF92EF92FF920F931F9395
:10227000CF93DF93CDB7DEB7A0970FB6F894DEBF4C
:102280000FBECDBF20918006222309F47FC08C01B0
:10229000CE0101960E94187460E070E0C8010E94AF
:1022A0001741FC01C080D180E280F38060E070E0E3
:1022B000CE0101960E941741FC0180819181A2818B
:1022C000B381C81AD90AEA0AFB0ACD8ADE8AEF8AE4
:1022D000F88E61E070E0C8010E941741FC01C080E7
:1022E000D180E280F38061E070E0CE0101960E942F
:1022F0001741FC0180819181A281B381C81AD90A5A
:10230000EA0AFB0AC98EDA8EEB8EFC8E62E070E080
:10231000C8010E941741FC01C080D180E280F38097
:1023200062E070E0CE0101960E941741FC018081BD
:102330009181A281B381A7019601281B390B4A0B19
:102340005B0BDA01C9012D8F3E8F4F8F58A34D894A
:102350005E896F89788D452B462B472B61F4498D1B
:102360005A8D6B8D7C8D452B462B472B21F4892B69
:102370008A2B8B2B59F08091800683FF05C0CE01FC
:1023800045960E94EB4402C010928006A0960FB6BC
:10239000F894DEBF0FBECDBFDF91CF911F910F919B
:1023A000FF90EF90DF90CF90089510929D060895D2
:1023B000882311F080E401C080E88093E7066093F1
:1023C000E4061092F7081092F608089581E08093D1
:1023D000E30608958091E706181634F48091E40628
:1023E000811104C081E0089580E0089582E008959D
:1023F0008091E706089581E09091E706923008F415
:1024000080E00895CF93DF93CDB7DEB764970FB622
:10241000F894DEBF0FBECDBF6093CB067093CC06A1
:102420008093CD069093CE06CE0101960E9418743B
:1024300062E070E0CE0101960E941041FC014081F3
:102440005181628173818091CB069091CC06A091DD
:10245000CD06B091CE06481759076A077B071CF0D6
:102460001092CA0603C081E08093CA0664960FB634
:10247000F894DEBF0FBECDBFDF91CF91089560917C
:10248000CB067091CC068091CD069091CE06089532
:102490002091EC063091ED0681E0232B09F080E0DD
:1024A0000895CF9360E070E0CB010E940212109279
:1024B000CA0610928C0610928D0610928E0610920B
:1024C0008F0610929006C1E0C09301021092F808A6
:1024D0001092E8061092E7061092E6061092E506C2
:1024E0001092E4061092BA061092BB061092BC0637
:1024F0001092BD061092BE061092BF061092C00642
:102500001092C1061092AA061092AB061092AC0669
:102510001092AD061092AE061092AF061092B00661
:102520001092B1061092A2061092A3061092A40671
:102530001092A5061092C2061092C3061092C4060D
:102540001092C5061092C6061092C7061092C806D1
:102550001092C9061092B2061092B3061092B406F9
:102560001092B5061092B6061092B7061092B806F1
:102570001092B9061092A6061092A7061092A8060D
:102580001092A90661E082E490E00E94B69E82303B
:1025900009F042C060E08FEF9FE00E94B69E882362
:1025A000D9F1C09381061092870610928806109286
:1025B000890610928A061092860610928206109260
:1025C000830610928406109285061092F7081092E6
:1025D000F4081092F50810927F061092F6081092F7
:1025E0009C0610929B0610929806109297061092E5
:1025F0009A061092990610929606109295061092DD
:1026000092061092910610929406109293061092E0
:102610008006CF910C948E4510928106C4CF0E9403
:10262000511285E680930202EAEEF6E013821282EE
:10263000158214821086118610927E06089581E01C
:1026400090917E06963009F080E008958091800692
:1026500083FF16C090910002992391F080917E062D
:10266000833071F08091F508882351F080917F06C6
:102670008F5F80937F06981718F481E08093F608A7
:1026800008958F929F92AF92BF92CF92DF92EF9276
:10269000FF920F931F93CF93DF93CDB7DEB7AA9727
:1026A0000FB6F894DEBF0FBECDBF882321F091E0B6
:1026B00090939D0605C090919D06992309F4ECC066
:1026C000F82ECE0145960E94187481E089A78AA74A
:1026D0006E0189E2C80ED11C03E010E08EE89AE09A
:1026E000FC01E759FF4F2081FC01222319F026A1AC
:1026F00037A104C0EC5AFF4F20813181232B91F187
:1027000048960E940DA3882369F1F6018081F81292
:1027100024C0812C912C54018394402F60E070E000
:1027200080E090E40E942672A50194010E94C9E312
:102730004B015C01B801CE0145960E941741FC0196
:102740004081518162817381840E951EA61EB71E41
:1027500080829182A282B38205C088248A94982CB8
:102760005401DBCF0430110509F08EC060ED77E035
:102770008CEE91E00E94BF9EBC0180E090E00E9440
:1027800007E22091C5153091C6154091C7155091AB
:10279000C8150E940FE39B01AC0160E074E284E77E
:1027A00099E40E9423E10E94D1E14B015C018091F8
:1027B0008106882329F18091E90681110AC064E02D
:1027C00070E0CE0145960E9417418C0163E070E0F5
:1027D00009C063E070E0CE0145960E9417418C016C
:1027E00064E070E0CE0145960E941741FC018081B3
:1027F0009181A281B381F80180839183A283B38305
:10280000E12C00E010E09801B501A401CE0145964D
:102810000E946F75F11040C0CE0101960E9418749D
:1028200063E070E0CE0101960E9417418C0163E0E5
:1028300070E08FEC96E00E941741FC01808191814D
:10284000A281B381F80180839183A283B38364E082
:1028500070E0CE0101960E9417418C0164E070E0A7
:102860008FEC96E00E941741FC0180819181A2814A
:10287000B381F80180839183A283B38360E0CE01AA
:1028800001960E948F7308C0FFEFCF1ADF0A8DE018
:102890009BE004E010E024CFAA960FB6F894DEBFC8
:1028A0000FBECDBFDF91CF911F910F91FF90EF90A1
:1028B000DF90CF90BF90AF909F908F9008952F9210
:1028C0003F924F925F926F927F928F929F92AF92C0
:1028D000BF92CF92DF92EF92FF920F931F93CF930D
:1028E000DF93CDB7DEB7C856D1090FB6F894DEBF77
:1028F0000FBECDBF182FCE01CD960E94DB40CE017A
:1029000089960E94DB40112309F433C1E8E3F5E125
:1029100082EC95E12485222309F4B2C22385222387
:1029200009F4AEC2BE968E179F07A1F784E1EFECC3
:10293000F6E0DE01559601900D928A95E1F7CE0101
:1029400001960E94187460E070E0CE0145960E94E6
:1029500017418C014091491550914A1560914B15D2
:1029600070914C158EE090E00E94CE9E6B017C0130
:1029700080E00E94087220E030E040EA50E40E94CB
:102980000FE30E94D1E1C61AD70AE80AF90AF80152
:10299000C082D182E282F38261E070E0CE0145968E
:1029A0000E9417418C0140917715509178156091E4
:1029B000791570917A1582E190E00E94CE9E6B01AC
:1029C0007C0181E00E94087220E030E040EA50E49F
:1029D0000E940FE30E94D1E1C61AD70AE80AF90A59
:1029E000F801C082D182E282F38262E070E0CE011F
:1029F00045960E9417418C0162E070E0CE0101967D
:102A00000E941741FC01C080D180E280F38082E007
:102A10000E94087220E030E040EA50E40E940FE398
:102A20000E94D1E1C60ED71EE81EF91EF801C08231
:102A3000D182E282F38262E070E0CE0145960E948C
:102A40001741FC0140815181628173818091A515FC
:102A50009091A615A091A715B091A8158417950778
:102A6000A607B7079CF462E070E0CE0145960E948D
:102A700017414091A5155091A6156091A715709129
:102A8000A815FC01408351836283738362E070E088
:102A9000CE0101960E941741FC01C080D180E280E6
:102AA000F38062E070E0CE0145960E941741FC0180
:102AB00080819181A281B3818C159D05AE05BF05F2
:102AC000BCF462E070E0CE0145960E9417418C0193
:102AD00062E070E0CE0101960E941741FC01808106
:102AE0009181A281B381F80180839183A283B38312
:102AF00063E070E0CE0145960E9417418C0163E0CF
:102B000070E0CE0101960E941741FC018081918105
:102B1000A281B381F80180839183A283B38364E0AF
:102B200070E0CE0145960E9417418C0164E070E090
:102B3000CE0101960E941741FC0180819181A28102
:102B4000B381F80180839183A283B383BE016B5E5E
:102B50007F4FCE018F5A9F4F0E94527384E1FE0136
:102B6000EF5AFF4FDE01999601900D928A95E1F799
:102B700057C084E1EFECF6E0DE01999601900D92EA
:102B80008A95E1F7CE0145960E94187464E070E0E2
:102B9000CE0189960E941741FC011081018132808B
:102BA000238063E070E0CE0189960E941741FC010A
:102BB00080809180A280B38062E070E0CE01459673
:102BC0000E941741FC01C080D180E280F38061E067
:102BD00070E0CE0145960E941741FC014080518073
:102BE0006280738060E070E0CE0145960E941741DC
:102BF000FC0140815181628173812F923F920F933A
:102C00001F9393018201CE0101960E94DC4060E097
:102C1000CE0101960E948F730F900F900F900F902E
:102C200060919B1570919C1580919D1590919E15BA
:102C30000E9409E220E030E040E857E30E940FE301
:102C400020919715309198154091991550919A15AA
:102C50000E940FE30E94D1E1A9966CAF7DAF8EAFC9
:102C60009FAFA997CE018F5A9F4F0E94187484E19D
:102C7000FE01EF5AFF4FDE01DD9601900D928A951D
:102C8000E1F760E070E0CE01CD960E941741FC01B3
:102C9000C080D180E280F38060E070E0CE01899650
:102CA0000E941741FC0180819181A281B381A7011B
:102CB0009601281B390B4A0B5B0BCA01B9010E9414
:102CC00009E220913B1530913C1540913D15509102
:102CD0003E150E9423E12B013C0161E070E0CE0132
:102CE000CD960E941741FC01C080D180E280F38024
:102CF00061E070E0CE0189960E941741FC0180815D
:102D00009181A281B381A7019601281B390B4A0B3F
:102D10005B0BCA01B9010E9409E22091691530914B
:102D20006A1540916B1550916C150E9423E14B017F
:102D30005C0162E070E0CE01CD960E941741FC017B
:102D4000C080D180E280F38062E070E0CE0189969D
:102D50000E941741FC0180819181A281B381A7016A
:102D60009601281B390B4A0B5B0BCA01B9010E9463
:102D700009E220919715309198154091991550913D
:102D80009A150E9423E16B017C01A3019201C3010A
:102D9000B2010E940FE32B013C01A5019401C50182
:102DA000B4010E940FE39B01AC01C301B2010E9478
:102DB0009BE04B015C01A7019601C701B6010E948F
:102DC0000FE39B01AC01C501B4010E949BE00E948E
:102DD00082E32B013C0180918106882329F18091B7
:102DE000E90681110AC064E070E0CE0189960E9474
:102DF00017418C0163E070E009C063E070E0CE0130
:102E000089960E9417418C0164E070E0CE0189969A
:102E10000E941741FC0180819181A281B381F80158
:102E200080839183A283B383B0906E1610926E1646
:102E300060919B1570919C1580919D1590919E15A8
:102E40000E9409E220E030E040E857E30E940FE3EF
:102E500020E030E040E852E40E940FE30E94D1E11C
:102E60006B018301720120E0A9964CAD5DAD6EADA2
:102E70007FADA997CE0189960E940577B0926E1614
:102E8000C859DF4F0FB6F894DEBF0FBECDBFDF913C
:102E9000CF911F910F91FF90EF90DF90CF90BF9057
:102EA000AF909F908F907F906F905F904F903F90EA
:102EB0002F900895EF92FF920F931F93CF93DF937C
:102EC00028E0829FC0011124FC01E654F94FF080F4
:102ED00001811281D381C481B581E680E7812F2DE4
:102EE000302F412F5D2F6C2F7B2F8E2D9E2FA0E03A
:102EF0000E942AE654F40E9485E5F22E032F142F37
:102F0000D52FC62FB72FE82EE92F2F2D302F412F89
:102F10005D2F6C2F7B2F8E2D9E2FDF91CF911F91D8
:102F20000F91FF90EF9008952F923F924F925F92F2
:102F30006F927F928F929F92AF92BF92CF92DF92C9
:102F4000EF92FF920F931F93CF93DF93C82F0E94AE
:102F50005A1779011A012B013C01A0E00E942AE6D0
:102F600009F00CF453C088E0C89FE00111244E0121
:102F700088E4881A8EEF980A00E010E020E030E044
:102F800040E050E060E070E0C4010E94729F59018F
:102F90006A01F62FE72F8C019701A101B201C3014D
:102FA000EF2EFE2E0E9403E689019A01AB01BC01BF
:102FB000C4010E94C49FDE01A655B94FFE01E6542C
:102FC000F94F80818C93818111968C931197828126
:102FD00012968C931297838113968C931397848106
:102FE00014968C931497858115968C9315978681EA
:102FF00016968C931697878117968C931082118260
:10300000128213821482158216821782DF91CF9169
:103010001F910F91FF90EF90DF90CF90BF90AF90F6
:103020009F908F907F906F905F904F903F902F90E8
:10303000089580E00E94941781E00C949417EF9219
:10304000FF920F931F93CF93DF9328E0829FC001DD
:103050001124FC01E655F94FF08001811281D381E2
:10306000C481B581E680E7812F2D302F412F5D2F60
:103070006C2F7B2F8E2D9E2FA0E00E942AE654F409
:103080000E9485E5F22E032F142FD52FC62FB72FC0
:10309000E82EE92F2F2D302F412F5D2F6C2F7B2F06
:1030A0008E2D9E2FDF91CF911F910F91FF90EF906A
:1030B0000895CF92DF92EF92FF9280E00E941F1856
:1030C000E42F43E0B9018E2F952F0E9414726B01FB
:1030D0007C0181E00E941F18E42F44E0B9018E2F8B
:1030E000952F0E9414729B01AC01C701B6010E948A
:1030F0009BE06B017C0180E00E945A17E42F43E0C3
:10310000B9018E2F952F0E9414729B01AC01C7014B
:10311000B6010E949BE06B017C0181E00E945A177E
:10312000E42F44E0B9018E2F952F0E9414729B0169
:10313000AC01C701B6010E949BE0FF90EF90DF90C9
:10314000CF9008950F931F93CF93DF93D82F0CE860
:1031500016E0C0E0F801808181110FC08C2F0E9421
:10316000407AF8018083DD2321F08C2F0E94467A7B
:1031700004C064E18C2F0E943B7ACF5F0F5F1F4F2A
:10318000C53041F7DF91CF911F910F9108950F93B3
:103190001F93CF930CE816E0C0E0F80160818C2FFC
:1031A0000E943B7AF80111928F01CF5FC530A9F7D9
:1031B000CF911F910F910895EF92FF920F931F935C
:1031C000CF93DF93CDB7DEB764970FB6F894DEBF29
:1031D0000FBECDBF8091E706853409F40CC190F590
:1031E000813409F461C0B8F4803209F4EFC180344D
:1031F00009F43FC0823009F020C20E940F11609193
:10320000E5067091E60621E040E089E699E00E943B
:10321000223A81E0FEC1833409F450C008F058C05E
:10322000CE0101960E94187484E1FE013196AFEC44
:10323000B6E001900D928A95E1F781E00E9441137A
:1032400083E4E7C1843809F487C150F4813809F474
:1032500065C1833809F471C1803809F0EEC101C13C
:10326000863809F492C108F486C1873809F492C1FE
:10327000E4C10E944630853029F00E9446308430F7
:1032800009F0BBC181E48093E70681E064960FB644
:10329000F894DEBF0FBECDBFDF91CF911F910F918C
:1032A000FF90EF900C94A2188091C80C9091C70CDD
:1032B000891B8F7009F0C1C182E4ABC18091C80C39
:1032C0009091C70C891B8F7009F0B7C184E4A1C12C
:1032D00081E00E945F1485E48093E7060E944630F7
:1032E000853039F00E94463011E0843019F010E04A
:1032F00001C011E08091A40B80938B0660E080E018
:103300000E94F13B8091F70A882329F08091B40A4A
:103310009091B50A04C08091E20A9091E30A9093DB
:103320009206809391068091760B882329F08091F4
:10333000330B9091340B04C08091610B9091620B20
:10334000909394068093930680918A0A882329F0AB
:103350008091470A9091480A04C08091750A909123
:10336000760A90939606809395068091E4068111E3
:103370004CC160E08EEF9FE00E94B69E882309F466
:1033800044C18091E406882351F021E040E060E0F0
:1033900080E00E94878060E088EF0E940B7A609155
:1033A000E5067091E6066115710569F08091F808EF
:1033B000811105C0111103C088E993E102C083E8BF
:1033C00093E141E00AC0111103C088E993E102C012
:1033D00083E893E141E064E473E164960FB6F89406
:1033E000DEBF0FBECDBFDF91CF911F910F91FF9038
:1033F000EF900C94DB108091C80C9091C70C891B46
:103400008F7009F01AC10E94C7188091F8088823AC
:1034100011F080E209C08091E5069091E606892BC3
:1034200011F481E001C082E08093E7060E940F1151
:103430000E944630853009F400C10E944630843035
:1034400009F4FBC087E064960FB6F894DEBF0FBEA8
:10345000CDBFDF91CF911F910F91FF90EF900C9412
:10346000674080E00E94A21800919B0610919C0684
:103470000115110521F4009195061091960610167C
:10348000110654F460E089E39AE00E9491A3B80128
:1034900089E39AE00E943DA2E0909706F09098069A
:1034A000E114F10421F4E0909106F09092061E14CC
:1034B0001F0494F460E086EA9AE00E9491A3B701A9
:1034C00086EA9AE00E943DA2101611062CF461E0F3
:1034D00086EA9AE00E9491A3E0909906F0909A06FD
:1034E000E114F10421F4E0909306F09094061E1488
:1034F0001F0494F460E085E29BE00E9491A3B70171
:1035000085E29BE00E943DA2101611062CF461E0BA
:1035100085E29BE00E9491A381E87BC080919506A3
:1035200090919606181619060CF072C089E39AE07D
:103530000E940DA381116CC080C080919106909172
:103540009206181619060CF067C086EA9AE00E94E7
:103550000DA3811161C071C081E00E94A21880E0BA
:103560000E945F1485E88093E70641E06FE273E113
:103570008EE693E132CF8091C80C9091C70C891BE5
:103580008F7009F05AC086E844C080E00E94411361
:1035900087E83FC08091C80C9091C70C891B8F7041
:1035A00009F04BC060E080918B060E94F13B0E94C5
:1035B000C7180E940F111092E7061092E6061092AB
:1035C000E5061092F7081092F60837C00E940F1116
:1035D0006091E5067091E60621E040E089E699E019
:1035E0000E94223A0E9479421092E6061092E50665
:1035F0001092F8081092E70620C041E069E573E1F7
:1036000088E993E10E94DB103DCE0E94DE0FB9CE27
:1036100083E88093E70611C0809193069091940609
:103620001816190634F485E29BE00E940DA3882346
:1036300021F00E94C71884E8ECCF64960FB6F89486
:10364000DEBF0FBECDBFDF91CF911F910F91FF90D5
:10365000EF9008958F929F92AF92BF92CF92DF9298
:10366000EF92FF92CF93C0910202C53609F453C086
:10367000CC2309F450C0F0908606CF1509F44BC056
:10368000FF2009F448C06091820670918306809102
:103690008406909185066115710581059105D9F122
:1036A0000E9407E24B015C016C2F70E06F197109F9
:1036B000072E000C880B990B0E9409E29B01AC01BC
:1036C000C501B4010E9423E16B017C016C2F70E005
:1036D00080E090E00E9407E29B01AC0160E070E0B6
:1036E00088EC92E40E949AE09B01AC01C701B6010C
:1036F0000E940FE36B017C0120E030E0A9010E94F1
:103700001EE187FF03C0C12CD12C7601C701B60191
:103710000E94D1E103C060E070E0CB01CF91FF9047
:10372000EF90DF90CF90BF90AF909F908F900895D3
:10373000FC0184819581860F971F608171810E94B1
:10374000E5E326813781820F931F08951F93CF935E
:10375000DF93EC012A813B81888199812817390701
:1037600070F4162F6A817B81CE010E94981BFC01A8
:1037700010838A819B8101969B838A8302C081E0AA
:103780008887DF91CF911F910895682F8AEE96E088
:103790000C94A61BCF93DF93EC018A819B81892B2C
:1037A00021F481E0898780E015C060E070E0CE01FF
:1037B0000E94981BFC018C819D8101966881798112
:1037C0000E94E5E39D838C838A819B8101979B8383
:1037D0008A838081DF91CF9108958AEE96E00C94E0
:1037E000CA1BCF938AEE96E00E94CA1BC82F8AEEAE
:1037F00096E00E94CA1B982F8C2FCF9108951F939B
:10380000CF93DF938AEE96E00E94CA1B182F8AEEB0
:1038100096E00E94CA1BD82F8AEE96E00E94CA1B2F
:10382000C82F8AEE96E00E94CA1B982F612F7D2F29
:103830008C2FDF91CF911F910895CF92DF92EF925D
:10384000FF921F93CF93DF93C82F61E070E08AEE61
:1038500096E00E94981BFC011081CF3F09F01C2FBD
:1038600062E070E08AEE96E00E94981BFC01808185
:103870008D3009F488C048F48C3008F071C0843071
:1038800008F0F0C0833071F00BC0873109F45EC0DE
:1038900020F4803108F4E6C003C08F3109F47FC002
:1038A00010E000C164E070E08AEE96E00E94981B90
:1038B000FC01C081D0E065E070E08AEE96E00E94F5
:1038C000981BFC01808190E0982F8827C80FD91F92
:1038D000209719F40E94191814C0C12ED12C76011A
:1038E000EE0CFF1CF701E956F94F80819181892B7D
:1038F00009F0BAC060E08DEF9FE00E94B69E811192
:10390000B3C0113019F08EE89AE002C08DE09BE060
:10391000BE0148960E943DA289E39AE00E9439A325
:10392000882309F4B6C089E39AE00E944EA381116E
:10393000B0C0113019F08EE89AE002C08DE09BE033
:1039400048960E944EA38111A4C07CC00E94EA1137
:1039500091E0811190E060E0892F0E949F3282C047
:1039600064E070E08AEE96E00E94981BFC016081A2
:103970006170113019F08EE89AE002C08DE09BE092
:103980000E9489A06FC064E070E08AEE96E00E9419
:10399000981B61E0FC0180810E94F13B63C00E94A2
:1039A000022D182F882309F45DC064E070E08AEED0
:1039B00096E00E94981BFC01C081EC2EF12C65E082
:1039C00070E08AEE96E00E94981BFC01C081D0E076
:1039D000DC2FCC27CE0DDF1D2097D1F080919B06E8
:1039E00090919C06892B39F460E08DEF9FE00E9456
:1039F000B69E882369F080919B0690919C06009763
:103A000031F464E670E08CE591E00E94BF9EEC0129
:103A1000BE0189E39AE00E943DA261E089E699E057
:103A20000E94EC3B89E39AE00E944EA391E0892733
:103A30008093E8060E942E3E8091A80B8E7F809393
:103A4000A80B30C081E08093E8061130F9F08EE8D1
:103A50009AE061E048960E9491A38091A80B8E7F26
:103A60008093A80B11E01EC0F701E956F94F808141
:103A70009181009749F4C601880F991F66EE70E0A6
:103A8000885A9E4F0E94BF9EEC013BCF8DE09BE089
:103A9000E0CF113019F08EE89AE002C08DE09BE093
:103AA00060E0D8CF812FDF91CF911F91FF90EF90F1
:103AB000DF90CF9008952F923F924F925F926F9236
:103AC0007F928F929F92AF92BF92CF92DF92EF92AE
:103AD000FF920F931F93CF93DF93CDB7DEB7C656F8
:103AE000D1090FB6F894DEBF0FBECDBF0E940642CB
:103AF0008823B9F08091EC069091ED062091EA06BA
:103B00003091EB062817390749F10E945A42882361
:103B100029F10E946742682F8AEE96E00E94A61B58
:103B2000E9CF0E945F7E8823A1F18091EC069091FD
:103B3000ED062091EA063091EB062817390709F4C3
:103B400014C20E946D7E882309F40FC20E947B7EFE
:103B5000682F8AEE96E00E94A61BE7CF0E945A4289
:103B6000811117C080910402882309F4F4C1909157
:103B7000E7069111F0C191E09093F808813009F0C7
:103B8000E2C18AE29BE19093E6068093E5060E94FB
:103B9000C0108091E806882359F089E39AE00E94DA
:103BA0000DA3882329F080E00E942E3E1092E806A3
:103BB0008091CB069091CC06A091CD06B091CE0617
:103BC000892B8A2B8B2B19F18091CA0681111FC07A
:103BD000CE0101960E94187462E070E0CE01019659
:103BE0000E941041DC014D915D916D917C9180911D
:103BF000CB069091CC06A091CD06B091CE06481789
:103C000059076A077B071CF481E08093CA068091FC
:103C1000CB069091CC06A091CD06B091CE06892B13
:103C20008A2B8B2B79F18091CA06882359F10E9447
:103C3000EA11811127C0CE0101960E94187462E03A
:103C400070E0CE0101960E941041FC01408151813B
:103C5000628173818091CB069091CC06A091CD06B4
:103C6000B091CE06481759076A077B075CF060E001
:103C700070E0CB010E94021260E081E00E949F325E
:103C80000C94E2291091E706123020F00E94DC1813
:103C90000C94E2291130F9F48091E40681110C941E
:103CA000E2298091E30681110C94E22985EF99E0E5
:103CB0000E948ADE882311F40C94E2291093E40612
:103CC0000E94DE0F21E040E060E080E00E948780FB
:103CD00060E088EF8DC180917E06833071F40E9490
:103CE0009372882341F082E796E00E948ADE88235F
:103CF00021F00E94C47D10927E068091F708811108
:103D000004C08091F608882329F18091F508882362
:103D100009F180917E068330E9F08091E7068111F8
:103D200019C00E94EA11811111C08091F608882300
:103D300019F081E091E102C088E398E19093E606F2
:103D40008093E50661E081E00E949F321092F708BF
:103D500010927F0680917E06813031F40E9493722A
:103D6000811102C010927E0680917E06823039F465
:103D700088E796E00E948ADE811110927E0680918B
:103D80007E06843009F052C08CE696E00E948ADEFE
:103D9000882349F020E040E062E07AE189E699E09A
:103DA0000E94223A20C08091E906813019F48DE00A
:103DB0009BE002C08EE89AE048960E9439A38111E8
:103DC00015C080918106882371F08091E9068111E8
:103DD00003C08DE09BE002C08EE89AE048960E9406
:103DE00039A3811123C010927E0620C08091E9067C
:103DF000813019F48DE09BE002C08EE89AE048968D
:103E00000E940DA3882391F080918106882359F3A5
:103E10008091E906882319F08EE89AE002C08DE0CF
:103E20009BE048960E940DA38111DDCF80917E0614
:103E30008530E1F48CE696E00E948ADE882349F022
:103E400020E040E06DEC79E189E699E00E94223AB9
:103E5000D3C089E39AE00E9439A3882309F4CCC037
:103E600089E39AE00E940DA38111C6C080917E066D
:103E7000863091F586E696E00E948ADE882391F0EE
:103E80008091640681FF06C060E089E699E00E94A7
:103E9000463E22C010927E068091A80B8F7E8093B2
:103EA000A80B1AC08DE09AE00E941EA88823A1F0FA
:103EB0008091640682FF04C08DE09AE00E9493A680
:103EC0000E94273E8091A80B8F7E8093A80B8FEFD6
:103ED0000E945F8110927E0680917E0681110C9473
:103EE000E22960E070E08AEE96E00E94981BDC0117
:103EF0001C910E94AF5B882359F0812F8F7E8B38F5
:103F000011F01E3811F410920C0281E080930B0224
:103F1000B0E26996BFAF69978091EC069091ED068B
:103F2000892B89F18091C80C9091C70C891B8F70E7
:103F30008E3048F5812F8F7E8B3809F42EC51E38C0
:103F400009F42BC520C08B3019F489EC9AE11BCE03
:103F500087E19BE118CE8091E5069091E606892BDA
:103F600009F017CE0E94794214CE0E946D7E811115
:103F700010CE8091EC069091ED06892B09F009CEC8
:103F80000E94B67E06CE80910C02811105C00E946F
:103F9000506481E080930C028091EC069091ED06D4
:103FA000892B11F40C94E22989E699E00E942B3ABE
:103FB0001B3809F41FC11E3809F41CC11B3909F450
:103FC00019C11938E1F48091EC069091ED06029741
:103FD00010F40C94E2290E94ED1B0E94ED1B9091BD
:103FE000810691110C947229682F661F6627661F3F
:103FF0000E940B7A0C94E22910927E0637CF163875
:1040000011F40C9462291C3909F4F4C0812F8B7FC0
:10401000803999F09DE7910F923078F0883849F017
:10402000163909F4E7C00E94AF5B882311F40C94A1
:10403000E2291C3811F40C9489291538D1F48091A7
:10404000EC069091ED06059710F40C94E22982E0BD
:1040500080937E060E94ED1B0E94FF1B9B01AC011A
:10406000A8EEB3E00E9466E4AB01BC0188E796E0ED
:104070001AC11439A1F58091EC069091ED060597CF
:1040800010F40C94E2290E94ED1B0E94ED1B80931A
:1040900065060E94F11B7C010E94ED1B8093640663
:1040A000E114F10471F0D70120E432E44FE050E074
:1040B0000E9466E4AB01BC0186E696E00E9458DEF1
:1040C00087C0CE0101960E9455DE86E0FE01319642
:1040D000A6E6B6E001900D928A95E1F779C0153910
:1040E00009F088C08091EC069091ED06069710F4D7
:1040F0000C94E2290E94ED1B0E94ED1B182F0E94D8
:10410000ED1BD82E0E94ED1BE82E0E94ED1BF82E11
:1041100010FD04C085E999E00E94F7CAD092980981
:10412000E09299096AEE76E085E999E00E945BCA1F
:1041300011FD02C00C94E229E091270AEE0FFF0B5B
:10414000E75EF54F808191818559994039F065E9A5
:1041500079E08DE09AE00E94EBA504C085E999E042
:104160000E9437CB1470FF2049F0111107C06F2D4A
:1041700085E999E00E9427CB0C94E229112311F4E0
:104180000C94E229FF2079F0AF2DB0E020E432E476
:104190004FE050E00E9466E4AB01BC0186E696E089
:1041A0000E9458DE0DC0CE0101960E9455DE86E0C9
:1041B000FE013196A6E6B6E001900D928A95E1F7F0
:1041C00081E0809365068091640684708093640624
:1041D0000E941D3E609165068DE09AE00E941BA83A
:1041E0008091A80B80618093A80B86E080937E0667
:1041F0000C94E2298DE7810F823070F58091EC06F6
:104200009091ED06089710F40C94E2290E94ED1BA2
:104210000E94ED1BF82E0E94FF1B4B015C010E94C7
:10422000F11B23E020937E06DC0120E432E44FE022
:1042300050E00E9466E4AB01BC0182E796E00E9478
:1042400058DE81E0143809F080E0A50194016F2D5B
:104250000E944E790C94E229173849F58091EC06BA
:104260009091ED06069710F40C94E22984E0809377
:104270007E0681E08093F50810927F060E94ED1B78
:104280000E94ED1B8093E9060E94F11B0E94F11B26
:10429000DC0120E432E44FE050E00E9466E4AB0130
:1042A000BC018CE696E00E9458DE0C94E2291D3891
:1042B000A9F48091EC069091ED06069710F40C9409
:1042C000E22985E080937E0681E08093F5081092D4
:1042D0007F060E94ED1B0E94ED1BD6CF1F3809F010
:1042E0009CC08091EC069091ED06029710F40C941E
:1042F000E2290E94ED1B0E94ED1B182FCE010196B2
:104300000E9418749EE0C92ED12CE12CF12CA12E14
:10431000B12CC5010E2C02C0959587950A94E2F741
:1043200080FF17C0B701CE0101960E941741FC0122
:1043300080819181A281B3818AA79BA7ACA7BDA7E9
:10434000F89444E050E0B601CE018A960E94C3E69C
:104350007894FFEFEF1AFF0A04E0C00ED11C23E0AF
:10436000E216F104B1F6112311F40C94E229812F25
:10437000887181130C94E229183021F0103121F05A
:1043800012E003C010E001C011E081E090E0012ED6
:1043900001C0880F0A94EAF790918006892B8093D8
:1043A000800660E070E0CE0101960E941741FC019A
:1043B00080819181A281B3818AA79BA7ACA7BDA769
:1043C00061E070E0CE0101960E941741FC018081FE
:1043D0009181A281B3818EA79FA7A8ABB9AB62E000
:1043E00070E0CE0101960E941741FC01808191810D
:1043F000A281B3818AAB9BABACABBDABF894FCE0C4
:104400001F9FB00111246B5D714F4CE050E0CE0155
:104410008A960E94C3E67894D5C7103909F029C15D
:104420008091EC069091ED06029708F4CBC70E94AC
:10443000ED1B0E94ED1B182FCE018A960E94187466
:10444000183109F07AC0809180068770873009F0B2
:1044500043C0F89444E050E066E170E0CE01CE96AF
:104460000E949FE649E250E060E27EE0CE010196C4
:104470000E949FE678948A819B81AC81BD81181649
:1044800019061A061B0644F088EC90E0A0E0B0E0A4
:104490008A839B83AC83BD8322962CAD3DAD4EAD0C
:1044A0005FAD22976A817B818C819D818E01025E46
:1044B0001F4F6801DE0152967D01085111090E94CB
:1044C000B245882339F08091800688608093800609
:1044D00010E003C012E001C011E0F89461E0111196
:1044E00001C060E080E29EE00E94CDE67894112356
:1044F000C1F0113019F482E092E10CC00E94D8475B
:104500006D3F7F4F8F4F9F4F19F487E292E102C0BA
:1045100082E591E19093E6068093E5060E94C01043
:1045200003C081E00E9490721092691610926A1680
:1045300010926B1610926C1645C7183009F03EC0E9
:10454000F89444E050E066E170E0CE018C5B9F4F50
:104550000E949FE649E250E060E27EE0CE010196D3
:104560000E949FE678948CE390E0A0E0B0E08A831C
:104570009B83AC83BD838E01025E1F4F9E012E5E26
:104580003F4FAE014A5F5F4F6CE370E080E090E028
:104590000E94294540E069E771E1882319F08BEB1F
:1045A00091E102C08AE991E10E94DB10CE01CE9632
:1045B0000E9455DE86E0FE01FE96FCCD103119F416
:1045C0000E948E45FFC68EE0A82EB12CC12CD12CA6
:1045D000E12EF12CC7010C2C02C0959587950A9409
:1045E000E2F780FF0CC0F894B601CE018A960E94D3
:1045F000174144E050E0B5010E949FE67894EFEF48
:10460000CE1ADE0AF4E0AF0EB11C03E0C016D104EE
:1046100009F763E070E0CE018A960E941741FC0121
:1046200080819181A281B3818093A2069093A30699
:10463000A093A406B093A50664E070E0CE018A962C
:104640000E941741FC0180819181A281B3818093F6
:10465000A6069093A706A093A806B093A906CE013C
:104660008A960E94321161E0CE018A960E948F7371
:10467000A9C6113999F48091EC069091ED06039743
:1046800008F4A0C60E94ED1B0E94ED1B182F0E948B
:10469000ED1B682F812F0E943B7A94C61239E1F4FA
:1046A0008091EC069091ED06069708F48BC60E9467
:1046B000ED1B0E94ED1B182F0E94ED1BF82E0E948F
:1046C000ED1BE82E0E94ED1B0E94ED1B4E2D6F2D61
:1046D000812F0E94C58176C61339B1F48091EC0612
:1046E0009091ED06069708F46DC60E94ED1B0E949E
:1046F000F11B7C010E94F11B6C010E94ED1BB601B5
:10470000C7010E9406405EC6183809F062C0809159
:10471000EC069091ED06049708F454C663E070E04F
:104720008AEE96E00E94981B2091EC063091ED06EF
:10473000DC01EC90F12CB4E0EB0EF11C2E153F05E2
:1047400008F440C680918106882339F080910102E7
:10475000882319F01092010203C081E080930102C6
:1047600062E070E08AEE96E00E94981BFC01808176
:10477000833059F062E070E08AEE96E00E94981B68
:10478000DC018C918C3009F099C580910102811176
:104790000DC061E070E08AEE96E00E94981BFC017B
:1047A00081E09081992319F080E001C08FEF0E9491
:1047B0001D1C80910102882309F404C610E0812F9A
:1047C00090E08E159F0508F0FDC50E94ED1B1F5F50
:1047D000F6CF163909F041C08091EC069091ED06B4
:1047E000039708F4EFC50E94ED1B0E94ED1B809318
:1047F00002020E94ED1B809102028823F1F0809159
:10480000870690918806A0918906B0918A06892B27
:104810008A2B8B2B91F48091860681110EC00E9409
:104820001F31609387067093880680938906909362
:104830008A06809102028093860680910202882374
:1048400009F4C0C50E941F316093820670938306ED
:104850008093840690938506B5C51739B9F4809185
:10486000EC069091ED060297B8F10E94ED1B0E94B4
:10487000ED1B811102C084E006C0813019F40E9452
:1048800067402AC082E00E94A24026C0183999F4ED
:104890008091EC069091ED06029708F493C50E9472
:1048A000ED1B0E94ED1B0E94FC2B60E089E699E065
:1048B0000E94463E87C5193991F48091EC0690918B
:1048C000ED06059708F47EC50E94ED1B0E94FF1BB4
:1048D0008AEE96E00E9463301092F50873C51A398B
:1048E00071F48091EC069091ED06029708F46AC588
:1048F0000E94ED1B0E94ED1B0E94B631EDCF1C39CA
:1049000099F48091EC069091ED06029708F45AC54F
:104910000E94ED1B0E94ED1B91E0813009F090E0B8
:10492000892F0E944B7A4EC51D39A1F48091EC0667
:104930009091ED06459708F445C50E94FF1B0E9423
:10494000FF1B0E94FF1B0E94FF1B0E94FF1B0E9477
:10495000ED1B38C51E3909F035C58091EC069091E4
:10496000ED06059708F42EC50E94ED1B0E94FF1B63
:104970006B017C012FE632E143E85AE30E941EE11D
:1049800087FF03C0C12CD12C760142E0C701B601DC
:104990000E9426720E94021215C56996BFAD6997E2
:1049A000B1506996BFAF6997B11105C089E699E02A
:1049B0000E942B3A07C51B3809F0EEC08091EC0627
:1049C0009091ED06499708F453C40E94ED1BE1E075
:1049D000E0937E060E94FF1B2C966CAF7DAF8EAFDE
:1049E0009FAF2C970E94FF1B60966CAF7DAF8EAF80
:1049F0009FAF60970E94FF1B64966CAF7DAF8EAF38
:104A00009FAF64970E94FF1B22966CAF7DAF8EAF65
:104A10009FAF22970E94FF1B6AA77BA78CA79DA729
:104A200080916D16882351F060E0CE01CE960E94F1
:104A3000E50F61E0CE018A960E94E50F0E94FF1B00
:104A400068966CAF7DAF8EAF9FAF689780918106FF
:104A50008823C9F08091E90681110BC022968CADA4
:104A60009DADAEADBFAD22978AA79BA7ACA7BDA752
:104A70000AC08AA59BA5ACA5BDA522968CAF9DAF0B
:104A8000AEAFBFAF229722968CAD9DADAEADBFADA0
:104A900022978093A2069093A306A093A406B093B6
:104AA000A5064AA45BA46CA47DA48091A60690915F
:104AB000A706A091A806B091A90693018201081B40
:104AC000190B2A0B3B0BD901C80168017901FF0CB6
:104AD000CC08DC2C76019801AD016C2D7C2D8C2D41
:104AE0009C2DA090C206B090C306C090C406D09082
:104AF000C506E090C606F090C7060091C806109162
:104B0000C9060E9403E62093C2063093C306409371
:104B1000C4065093C5066093C6067093C70680937B
:104B2000C8069093C9064092A6065092A7066092C6
:104B3000A8067092A9060E94CD0F22968CAC9DAC5F
:104B4000AEACBFAC22978DA58F938CA58F938BA510
:104B50008F938AA58F936496CCACDDACEEACFFACA2
:104B6000649760960CAD1DAD2EAD3FAD60972C9651
:104B70004CAD5DAD6EAD7FAD2C97CE0101960E9420
:104B8000DC40E12C00E010E0980168964CAD5DAD92
:104B90006EAD7FAD6897CCC11E3809F0CEC1809153
:104BA000EC069091ED064A9708F462C30E94ED1B53
:104BB00011E010937E060E94FF1B64966CAF7DAFE0
:104BC0008EAF9FAF64970E94FF1B68966CAF7DAF5E
:104BD0008EAF9FAF68970E94FF1B6D966CAF7DAF45
:104BE0008EAF9FAF6D970E94FF1B28966CAF7DAF75
:104BF0008EAF9FAF28970E94FF1B22966CAF7DAFB0
:104C00008EAF9FAF22970E94FF1BA1966CAF7DAF26
:104C10008EAF9FAFA1970E94ED1B29968FAF29976A
:104C200080918106882399F18091E906811117C04E
:104C300028968CAD9DADAEADBFAD289722968CAFBA
:104C40009DAFAEAFBFAF229729968FAD29978F7ECC
:104C500029962FAD299723FF17C0806115C0229692
:104C60008CAD9DADAEADBFAD229728968CAF9DAFFC
:104C7000AEAFBFAF289729968FAD2997877F29962A
:104C80003FAD299734FD886029968FAF2997809191
:104C90006D16882359F029964FAD2997BE01625CA5
:104CA0007F4FCE018C5B9F4F0E94A51028968CAD44
:104CB0009DADAEADBFAD28978AA79BA7ACA7BDA7FA
:104CC00022968CAD9DADAEADBFAD22978EA79FA7AE
:104CD000A8ABB9ABAAEBB6E0A796BFAFAEAFA797AC
:104CE0001E01BAE22B0E311CE2EAF6E0A596FFAFF8
:104CF000EEAFA59773E0472E512C2996BFAD2997AB
:104D0000AB2FB0E0A396BFAFAEAFA397A3968EAD87
:104D10009FADA397042C02C0959587950A94E2F75E
:104D200080FF53C0F10160807180828093807401A4
:104D30006301FF0CCC08DC2C76019301A4016C2DDF
:104D40007C2D8C2D9C2DA796AEADBFADA797AC90BA
:104D50001196BC9011971296CC9012971396DC90F6
:104D600013971496EC9014971596FC901597169639
:104D70000C91169717961C9117970E9403E62C9397
:104D800011963C93119712964C93129713965C933D
:104D9000139714966C93149715967C931597169603
:104DA0008C93169717969C93A596EEADFFADA5979D
:104DB0004081518162817381460D571D681D791DA7
:104DC000408351836283738360C0D1010D911D9133
:104DD0002D913C9160960CAF1DAF2EAF3FAF609709
:104DE000A596EEADFFADA59740815181628173819B
:104DF00048015901841A950AA60AB70A7501640187
:104E0000FF0CCC08DC2C76019401A5016C2D7C2DC7
:104E10008C2D9C2DA796AEADBFADA797AC901196EB
:104E2000BC9011971296CC9012971396DC90139722
:104E30001496EC9014971596FC90159716960C9175
:104E4000169717961C9117970E9403E62C931196BC
:104E50003C93119712964C93129713965C93139769
:104E600014966C93149715967C93159716968C93BD
:104E7000169717969C9360960CAD1DAD2EAD3FAD69
:104E800060970083118322833383BFEF4B1A5B0A41
:104E9000A796EEADFFADA7973896A796FFAFEEAFFA
:104EA000A797F4E02F0E311CA596AEADBFADA59728
:104EB0001496A596BFAFAEAFA597B5E04B165104BB
:104EC00009F024CF0E94CD0F28968CAC9DACAEACDF
:104ED000BFAC289722968FAD22978F9321968FADE6
:104EE00021978F938FAD8F938EAD8F936D96CCACB2
:104EF000DDACEEACFFAC6D9768960CAD1DAD2EAD84
:104F00003FAD689764964CAD5DAD6EAD7FAD649777
:104F1000CE0101960E94DC402996EFAC2997A1961C
:104F20000CAD1DAD2EAD3FADA19740E050E0BA01F4
:104F3000CE0101960E946F7597C11B3909F098C187
:104F40008091EC069091ED06809708F491C10E9443
:104F5000ED1BE1E0E0937E060E94FF1B60966CAFC4
:104F60007DAF8EAF9FAF60970E94FF1B64966CAFC2
:104F70007DAF8EAF9FAF64970E94FF1B68966CAFAA
:104F80007DAF8EAF9FAF68970E94FF1B28966CAFD6
:104F90007DAF8EAF9FAF28970E94FF1B22966CAF0C
:104FA0007DAF8EAF9FAF22970E94FF1B6D966CAFB7
:104FB0007DAF8EAF9FAF6D970E94ED1B182F0E94A3
:104FC000FF1BA1966CAF7DAF8EAF9FAFA1970E94E4
:104FD000F11BA3969FAF8EAFA3978091810681119D
:104FE00005C01F7729961FAF299733C08091E90626
:104FF000811118C028968CAD9DADAEADBFAD289780
:1050000022968CAF9DAFAEAFBFAF2297F12FFF7648
:105010002996FFAF299713FF1CC0F0612996FFAFB7
:10502000299717C022968CAD9DADAEADBFAD22972E
:1050300028968CAF9DAFAEAFBFAF2897012F0777F3
:1050400029960FAF299714FF04C0086029960FAF67
:10505000299780916D16882359F029964FAD29978D
:10506000BE01625C7F4FCE018C5B9F4F0E94A510FA
:1050700028968CAD9DADAEADBFAD28978AA79BA7F6
:10508000ACA7BDA722968CAD9DADAEADBFAD2297AE
:105090008EA79FA7A8ABB9ABEAEBF6E01E011AE218
:1050A000210E311CA2EAB6E0A796BFAFAEAFA7971C
:1050B00043E0442E512C2996BFAD2997AB2FB0E089
:1050C000A596BFAFAEAFA597A5968EAD9FADA597A0
:1050D000042C02C0959587950A94E2F7D1016D9052
:1050E0007D908D909C9080FF31C074016301FF0C16
:1050F000CC08DC2C76019301A4016C2D7C2D8C2D29
:105100009C2DA080B180C280D380E480F580068190
:1051100017810E9403E62083318342835383648393
:10512000758386839783A796AEADBFADA7974D9144
:105130005D916D917C911397460D571D681D791DEA
:105140004D935D936D937C93139734C0A796AEAD4A
:10515000BFADA7974D915D916D917C91139794018F
:105160008301041B150B260B370BC901B80168011D
:105170007901FF0CCC08DC2C76019B01AC016C2D75
:105180007C2D8C2D9C2DA080B180C280D380E480AA
:10519000F580068117810E9403E6208331834283D4
:1051A000538364837583868397836D927D928D92FA
:1051B0009C921397BFEF4B1A5B0A389604E0200EBF
:1051C000311CA796AEADBFADA7971496A796BFAFFB
:1051D000AEAFA797B5E04B16510409F075CF0E940A
:1051E000CD0F70906E162996EFAD29977E2A2896DE
:1051F0008CAC9DACAEACBFAC289722968FAD2297FD
:105200008F9321968FAD21978F938FAD8F938EAD16
:105210008F936896CCACDDACEEACFFAC689764962F
:105220000CAD1DAD2EAD3FAD649760964CAD5DAD40
:105230006EAD7FAD6097CE0101960E94DC40A396D3
:10524000CEACDFACA397A196ECACFDAC0EAD1FAD20
:10525000A197272D6D964CAD5DAD6EAD7FAD6D9771
:10526000CE0101960E9405770F900F900F900F903E
:105270002091EC063091ED068091EA069091EB06C4
:105280002817390781F00E940642882361F00E94A6
:105290005A42882341F00E946742682F8AEE96E0C6
:1052A0000E94A61BE5CF60E070E08AEE96E00E94C7
:1052B000981BFC011081A8950C948C1F81E08093B1
:1052C000010263CA8091EC069091ED06029708F402
:1052D00079C00E94ED1B0E94ED1B8093E9060E949D
:1052E0004E7A70C09091E906911108C0982F9F7E68
:1052F00083FF0CC0892F80610C94F41F982F977F37
:1053000084FF04C0892F88600C94F41F892F0C94AB
:10531000F41F8091EC069091ED06459708F452C079
:105320000E94ED1B0E94FF1B2B013C010E94FF1BF2
:105330002C966CAF7DAF8EAF9FAF2C970E94FF1B5A
:105340006B017C010E94FF1B4B015C010E94FF1B53
:1053500020918106222349F02091E906211103C002
:10536000B401C50102C04B015C018092A20690927B
:10537000A306A092A406B092A5066093A606709319
:10538000A7068093A8069093A9069F938F937F9377
:105390006F932C960CAD1DAD2EAD3FAD2C97B30188
:1053A000A201CE0101960E94DC40CE0101960E942E
:1053B000321160E0CE0101960E948F730F900F9022
:1053C0000F900F90CA59DF4F0FB6F894DEBF0FBE93
:1053D000CDBFDF91CF911F910F91FF90EF90DF90A4
:1053E000CF90BF90AF909F908F907F906F905F9085
:1053F0004F903F902F90089540E06DE074E089EF6A
:1054000098E00E94EBDAEAEEF6E080E092E0918329
:105410008083138212821582148284EF96E0978330
:105420008683108611868FEC96E00E94DB4088E729
:1054300096E00E9455DE82E796E00E9455DE8CE6FB
:1054400096E00E9455DE86E696E00C9455DECF93FA
:10545000DF9300D0CDB7DEB721E0298322E32A8392
:1054600042E050E0BC01CE0101960E94C3E60F90DD
:105470000F90DF91CF910895CF93DF93EC0140E03F
:1054800050E060EE70E40E94399F46E656E666EA18
:105490007EE3CE0102960E94399F40E050E060E139
:1054A00072E4CE010496DF91CF910C94399FCF9393
:1054B000DF93EC010A960E943C2ACE0140960E949E
:1054C0003C2ACE014A96DF91CF910C94272A0F9364
:1054D0001F93CF93DF9300D01F92CDB7DEB78C011F
:1054E00067E00E94CDE661E0C80102960E94CDE629
:1054F0008FEF89838A838B83B8016C5F7F4F43E092
:1055000050E0CE0101960E94C3E60F900F900F90DD
:10551000DF91CF911F910F91089567E080E491E0B2
:105520000C94B69EFF920F931F93CF93DF9300D0FE
:105530001F92CDB7DEB7F82E062F142F68E080E457
:1055400091E00E94CDE6F9820A831B8343E050E09C
:1055500064E471E0CE0101960E94C3E60F900F90C3
:105560000F90DF91CF911F910F91FF900895CF92EF
:10557000DF92EF92FF92CF93DF936B017C01EA0100
:10558000CA010E94E3E6B701CE010496DF91CF91F4
:10559000FF90EF90DF90CF900C94E3E6AC01809108
:1055A000CA029091CB02A091CC02B091CD02BC0175
:1055B000CD010E94B72A0895CF93DF93EC0166EEE8
:1055C00070E00E94E3E666EE70E0CE0102960E9473
:1055D000E3E664E670E0CE0104960E94E3E665E04F
:1055E000CE010696DF91CF910C94CDE661E08EE678
:1055F00091E00E94CDE668EE73E082E791E00E94C0
:10560000E3E668EE73E084E791E00E94E3E666E992
:1056100070E086E791E00E94E3E660ED77E088E7DE
:1056200091E00E94E3E660ED77E08AE791E00E9476
:10563000E3E66FE070E08CE791E00E94E3E66FE064
:1056400070E08EE791E00E94E3E66AE070E080E8B7
:1056500091E00E94E3E664E170E082E891E00E945C
:10566000E3E664E170E084E891E00E94E3E644EF61
:1056700051E060E070E088ED91E00E94DBE64CE7ED
:1056800055E160E070E08CED91E00E94DBE660E1C6
:1056900070E080EE91E00E94E3E660E170E082EE6F
:1056A00091E00E94E3E660E08BE092E00E94CDE6AC
:1056B00061E084EE91E00E94CDE660E888E891E048
:1056C0000C94CDE6CF93DF93CDB7DEB764970FB6DA
:1056D000F894DEBF0FBECDBF84E1EEECF2E0DE0158
:1056E000119601900D928A95E1F744E150E06EE049
:1056F00070E0CE0101960E94C3E664960FB6F8945E
:10570000DEBF0FBECDBFDF91CF910895CF92DF9264
:10571000EF92FF920F931F93CF93DF93CDB7DEB736
:1057200064970FB6F894DEBF0FBECDBF7C0188E052
:10573000E2EEF2E0DE011D9601900D928A95E1F70E
:105740004CE050E06EE070E0CE0101960E949FE6D2
:105750006E018DE0C80ED11C8701F12C48E050E0AD
:10576000B801F601819191916F010E94C3E64CE06E
:1057700050E0B801685F7F4FCE0101960E94C3E6FA
:1057800066EE70E0C80144960E94E3E666EE70E0C3
:10579000C80146960E94E3E6F1E0FF1619F064E6C0
:1057A00070E002C06DE270E0C80148960E94E3E636
:1057B000F394065E1F4F84E0F812D0CF6CEA8CEFB2
:1057C0009FE00E94CDE664960FB6F894DEBF0FBE50
:1057D000CDBFDF91CF911F910F91FF90EF90DF90A0
:1057E000CF900895813009F082E0682F82E490E044
:1057F0000E94CDE60C94622B0F931F93CF93DF93FF
:10580000CDB7DEB76D970FB6F894DEBF0FBECDBF34
:1058100085E0EAEEF2E0DE01559601900D928A9560
:10582000E1F74DE050E062E270E08EE493E00E9428
:10583000C3E645E050E066E070E0CE0145960E9488
:10584000C3E66FE984E090E00E94CDE66BE18CE076
:1058500090E00E94CDE60E94622B84E99FE00E94C6
:10586000862BA89544E150E06CE871E083E893E072
:105870000E94C3E644E150E064EA71E08BE593E006
:105880000E94C3E644E150E064EF71E08FE693E0EC
:105890000E94C3E60E94F62A8091EF029091F002E6
:1058A000A091F102B091F2028A8F9B8FAC8FBD8FD5
:1058B00044E050E064E470E0CE014A960E94C3E602
:1058C00080E091E00E94572A8CE191E00E94572AE3
:1058D00000E010E020E030E040E050E060E070E008
:1058E00088EC91E00E94C49F20E030E040E050E06E
:1058F00060E070E080ED91E00E94C49F80E491E060
:105900000E94672A8AE491E00E94CE2A88E591E00D
:105910000E94DC2A61E080E691E00E94CDE660E032
:105920008DEF9FE00E94CDE660E08EEF9FE00E9449
:10593000CDE660E08FEF9FE00E94CDE661E082E976
:105940009FE00E94CDE660E081E99FE00E94CDE605
:1059500080E00E94F22B61E08CE490E00E94CDE6B2
:1059600060E08FE89FE00E94CDE660E08EE89FE077
:105970000E94CDE688EC90E0A0E0B0E089839A83B5
:10598000AB83BC8344E050E061E27EE08E010F5FB8
:105990001F4FC8010E94C3E663E084E69FE00E94B7
:1059A000CDE664E683E69FE00E94CDE684E1F8015F
:1059B00011928A95E9F744E150E069E47FE0C8017B
:1059C0000E94C3E660E080E99FE00E94CDE660E0CF
:1059D00088E49FE00E94CDE66D960FB6F894DEBF96
:1059E0000FBECDBFDF91CF911F910F91089561E060
:1059F00082E490E00E94B69E91E0823009F490E04B
:105A0000892F089561E08CE490E00E94B69E91E0B9
:105A1000813009F090E0892F0895CF93DF93CDB7BF
:105A2000DEB72C970FB6F894DEBF0FBECDBF83E272
:105A30009CE0A0E0B0E089839A83AB83BC831D82A5
:105A40001E821F82188619861A861B861C864CE0C9
:105A500050E062E671E0CE0101960E94C3E62C960A
:105A60000FB6F894DEBF0FBECDBFDF91CF91089582
:105A70000F931F93CF93DF938C01EB0160E070E0F5
:105A800080EA91E00E94BF9EF8019183808360E0EC
:105A900082EA91E00E94B69E8883DF91CF911F91A8
:105AA0000F910895CF93C62FBC0180EA91E00E9428
:105AB000E3E66C2F82EA91E0CF910C94CDE6FF9261
:105AC0000F931F93CF93DF9300D01F92CDB7DEB714
:105AD0008C01F62EBE016D5F7F4FCE0101960E94B4
