:100000000C949C110C94D7110C94D7110C94D7110B
:100010000C94D7110C94D7110C94D7110C94D711C0
:100020000C94D7110C94D7110C94D7110C94D711B0
:100030000C94D7110C94653C0C94D7110C94D711E7
:100040000C94D7110C943B3C0C94D7110C94D71101
:100050000C94D7110C94D7110C94D7110C94D71180
:100060000C94D7110C94EFE00C94D7110C941BE175
:100070000C94D7110C9454A10C94D7110C94D71153
:100080000C94D7110C94D7110C94D7110C94D71150
:100090000C944FE10C94D7110C947BE10C94D71184
:1000A0000C94D7110C94D7110C94D7110C94D71130
:1000B0000C94D7110C94D7110C94D7110C948D3C3F
:1000C0000C94D7110C94D7110C94D7110C94D71110
:1000D0000C94D7110C94D7110C94D7110C94D71100
:1000E0000C94D711B335FB35FD35D8350A36A63615
:1000F000A636D8353336A63641364C3660366536A8
:10010000A636A6361236D8352E36A636C1350E3668
:100110006A367B368236A636A636863688828F8247
:1001200091828B8285829582A38299824AD067D000
:1001300074D09DD0BCD0CFD0DDD00ED13AD10C94AC
:1001400020B10C94C4D80C940A430C9419B20C94AA
:1001500095820C947A400C947FCE0C9482C40C94BB
:1001600099AF0C9404810C949DD00C94EFC20C9424
:10017000D7DD0C94AFE10C9462E00C9488820C946F
:100180009EB20C9474CA0C940AB10C946ABC0C9480
:100190009EAF0C948E830C94A3820C9424DA0C945E
:1001A000CFD00C9413820C94DEA00C94D5AF0C9499
:1001B0006FC10C94CA4B0C9402C30C941EA90C94EE
:1001C0006CB60C9427D70C9414BA0C94A5460C94D6
:1001D00083830C94C8740C94B6C70C9455DA0C94B1
:1001E000B3350C9477AF0C94A8AF0C9453B70C9420
:1001F00091B40C94C2B10C94FEDD0C941AD40C94FE
:100200005EBA0C94AAAB0C941FB10C9447800C946A
:1002100041D40C9495B10C9487C10C94DDD00C940E
:100220008FAF0C9474D00C94D3B00C94BCE10C94AC
:10023000A8CC0C940FB10C9412360C940AB60C9402
:1002400085820C9482360C94FFB10C94C6AF0C944A
:10025000D59B0C94BCAF0C94D6A80C945EB40C94B3
:10026000A9380C947EC60C94A6360C94D7B00C9486
:1002700041360C94B0B00C94ADAF0C94BCD00C943F
:10028000A5C50C9447840C9442D60C9494AF0C945E
:10029000C6BF0C944EBF0C944C360C9443E70C94A0
:1002A000CBB40C9454840C9422BB0C947EAF0C946D
:1002B0000E360C9428CC0C94CBAF0C9414B10C9447
:1002C000F5B00C948F820C949ADF0C94A4B70C9424
:1002D000CEB00C9404B90C94EEB10C944AD00C94AA
:1002E0009EB70C9495830C9444B80C94D0B80C949D
:1002F0006A360C9465360C94A1710C9402B00C947F
:1003000008C70C9434B10C94D2D60C9430C30C941E
:10031000FDAF0C945F830C94D0A10C9493C20C9409
:1003200066D90C9499820C94F8AF0C9466830C9463
:10033000929A0C942B4A0C94CBDE0C94E99E0C946C
:100340009EB80C9452B50C94D52F0C947EBA0C9494
:10035000FCC70C9498B60C9437BF0C94D8B10C948D
:10036000FFC50C947EBE0C94B4B50C94CC830C9455
:1003700068CF0C94AFC40C9486360C94E9990C9415
:10038000E4AF0C94C9370C941ED60C945D840C9485
:10039000A0A30C94EFDF0C94DFAF0C9422D70C9445
:1003A000A7A40C94B5B70C94E5A00C94968A0C9471
:1003B000B7BC0C94998A0C9451C00C94ECBB0C946F
:1003C000AADD0C94DBB00C94D8350C945B9E0C9495
:1003D000F6C60C94DAAF0C941EAC0C940A360C944E
:1003E0002EC70C9442D50C94E4B00C94CBD60C944C
:1003F00041D30C9467D00C9456A40C9485AF0C9404
:1004000067B60C94C3830C9406B10C949AB90C94FF
:10041000E9AF0C94EEAF0C9479D20C940ED10C94FD
:10042000FDC80C94D5D50C9407B50C9433360C94B8
:10043000C1AF0C94FD350C94B7AF0C9470B80C940C
:10044000F4BC0C94B3B00C9437860C948B820C944F
:10045000A3AF0C944E840C94A2DF0C94D4B30C94F0
:1004600020BC0C94A8380C947EB60C94B0380C9434
:10047000D0AF0C94CCDD0C94E9BD0C94102C0C94F2
:100480003AD10C9443B50C9450B50C9460B60C94CE
:10049000C5C00C94085F0C948AAF0C9499C30C945B
:1004A000F7D70C942E360C94C6B00C9467B70C9406
:1004B000F3AF0C947B360C94A1C10C94FB350C94D7
:1004C000C1350C9470BB0C9460360C944DA00C9408
:1004D000BCC60C9448C40C9476D80C9491820C94AD
:1004E000B2AF5265706C696361743072203200176C
:1004F00004C8000000DC00270564000000780075D7
:1005000005C8000000DC002006640000007800E060
:1005100006C8000000DC002006C8000000DC002047
:1005200006C8000000DC002D08C80000000000C064
:100530000DC80000001400C00DC800000014005ACF
:1005400010C80000001400C00D90010000000070F1
:10055000039001000014005504C800000014002797
:1005600005C800000014007003900100000000C8DE
:1005700005C80000001400C805C80000001400C829
:1005800005C80000001400DD04B00400001400756C
:1005900005C800000014007505C8000000140075AF
:1005A00005C800000014009704B00400000000C05B
:1005B0000DC80000001400C00DC800000014009118
:1005C0000E9001000014005A10900100001400C0A9
:1005D0000D2003000000007003BC000000BC00E020
:1005E00006BC000000BC00B807BC000000BC002D29
:1005F00008BC00A908BC000000BC00C00D4D0100F3
:10060000000000C00D20010000BC005311BC000020
:1006100000BC005B12B10100000000930269000001
:10062000006900EE016900000069002601B80100C0
:1006300000000024F4D43050C38E20C2A2401782A0
:100640008B7011127A910D816CD90AA861E108C7EB
:10065000586607615143061E4B5D05C145A7041A44
:10066000411104093D9803713931034036DB0265BD
:10067000339102D4305402802E1D02632CEE01759A
:100680002AC501B028A001102781018F2564012B04
:10069000244B01E0223401AC211F018D200D01808B
:1006A0001FFC00841EED00971DDF00B81CD200E681
:1006B0001BC600201BBC00641AB200B219A8000AB5
:1006C00019A0006A189900D117910040178B00B546
:1006D00016840031167E00B31579003A157300C7F1
:1006E000146F0058146A00EE136600881363002527
:1006F000135E00C7125B006C12570015125400C144
:1007000011510070114F0021114B00D61049008D7E
:100710001047004610440002104200C00F40008005
:100720000F3E00420F3C00060F3B00CB0E380093FB
:100730000E37005C0E3500270E3400F30D3200C179
:100740000D3100900D3000600D2E00320D2D000592
:100750000D2C00D90C2B00AE0C2900850C29005C57
:100760000C2700350C27000E0C2600E80B2400C4D3
:100770000B2400A00B23007D0B23005A0B21003912
:100780000B2100180B2000F80A1F00D90A1E00BB1D
:100790000A1E009D0A1D00800A1D00630A1C0047F6
:1007A0000A1B002C0A1B00110A1A00F7091A00DDA7
:1007B000091900C4091900AB091900920917007B37
:1007C000091800630917004C0916003609160020A5
:1007D0000916000A091500F5081500E0081400CCF8
:1007E000081400B8081400A4081400900813007D31
:1007F0000812006B08130058081200460812003453
:10080000081100230811001208110001081100F05E
:10081000071000E0071000D0071000C0071000B05C
:10082000070F00A107100091070E0083070F007447
:10083000070F0065070E0057070E0049070E003B23
:10084000070D002E070E0020070D0013070D0006F0
:10085000070D00F9060C00ED060D00E0060C00D4B3
:10086000060C00C8060C00BC060C00B0060C00A468
:10087000060B0099060C008D060B0082060B007714
:10088000060B006C060B0061060A0057060B004CB5
:10089000060A0042060A0038060A002E060A00244C
:1008A000060A001A060A001006090007060A00FDDB
:1008B000050900F4050900EB050900E2050900D966
:1008C000050900D0050900C7050900BE050900B5E6
:1008D000050800AD050800A50509009C0508009461
:1008E0000508008C050800840508007C05080074D4
:1008F0000508006C050700650508005D0507005642
:100900000508004E050700470507004005080038A8
:10091000050700310507002A050700230507001C0D
:10092000050600160507000F05070008050600026A
:10093000050700FB040600F5040700EE040600E8C6
:10094000040600E2040700DB040600D5040600CF1D
:10095000040600C9040600C3040600BD040600B76F
:10096000040600B1040500AC040600A6040600A0BD
:100970000405009B04060095040500900406008A07
:1009800004050085040500800406007A040500754E
:10099000040500700405006B040500660405006191
:1009A0000405005C04050057040500520405004DD1
:1009B00004050048040500430405003E0404003A11
:1009C00004050035040500300404002C040500274C
:1009D000040400230405001E0404001A0404001685
:1009E000040500110404000D0404000904050004BA
:1009F00004040000040400FC030400F8030400F4F1
:100A0000030400F0030400EC030400E8030400E422
:100A1000030400E0030400DC030400D8030400D452
:100A2000030400D0030400CC030400C8030300C582
:100A300003030024F404D9201BC40C5C0E9804C4E6
:100A4000095F0265077101F405F900FB04B3004872
:100A5000048700C10369005803550003034500BE25
:100A6000023A008402310053022A002902250004C0
:100A7000022000E4011C00C8011900AF0117009812
:100A80000114008401130071011000610110005174
:100A9000010E0043010D0036010B002B010B00205D
:100AA000010B00150109000C01090003010800FBFE
:100AB000000800F3000800EB000700E4000600DE79
:100AC000000600D8000600D2000600CC000500C7D2
:100AD000000500C2000500BD000400B9000400B517
:100AE000000400B1000400AD000400A9000400A54A
:100AF000000300A20003009F0004009B0003009875
:100B00000003009500020093000300900003008D95
:100B10000002008B000300880002008600020084AF
:100B2000000300810002007F0002007D0002007BC4
:100B300000020079000200770001007600020074D4
:100B400000020072000100710002006F0002006DDF
:100B50000001006C0002006A0001006900020067E9
:100B600000010066000100650001006400020062EF
:100B700000010061000100600001005F0002005DF3
:100B80000001005C0001005B0001005A00010059F7
:100B900000010058000100570001005600010055F7
:100BA00000010054000100530000005300010052F6
:100BB00000010051000100500001004F0001004EF3
:100BC0000000004E0001004D0001004C0001004BF0
:100BD0000000004B0001004A0001004900010048EC
:100BE00000000048000100470001004600000046E8
:100BF00000010045000000450001004400010043E1
:100C000000000043000100420000004200010041DA
:100C100000000041000100400001003F0000003FD3
:100C20000001003E0000003E0001003D0000003DCC
:100C30000001003C0000003C0000003C0001003BC3
:100C40000000003B0001003A0000003A00010039BA
:100C500000000039000100380000003800000038B2
:100C600000010037000000370001003600000036A8
:100C7000000000360001003500000035000000359E
:100C80000001003400000034000000340001003393
:100C90000000003300000033000100320000003289
:100CA000000000320001003100000031000000317E
:100CB0000001003000000030000000300001002F73
:100CC0000000002F0000002F0000002F0001002E68
:100CD0000000002E0000002E0001002D0000002D5D
:100CE0000000002D0000002D0001002C0000002C51
:100CF0000000002C0000002C0001002B0000002B45
:100D00000000002B0000002B0001002A0000002A38
:100D10000000002A0000002A00010029000000292C
:100D2000000000290000002900000029000100281F
:100D30000000002800000028000000280000002813
:100D40000001002700000027000000270000002706
:100D500000000027000100260000002600000026F9
:100D600000000026000000260001002500000025EC
:100D700000000025000000250000002500000025DF
:100D800000010024000000240000002400000024D2
:100D900000000024000100230000002300000023C5
:100DA00000000023000000230000002300000023B7
:100DB00000010022000000220000002200000022AA
:100DC000000000220000002200010021000000219C
:100DD000000000210000002100000021000000218F
:100DE0000000002100010020000000200000002081
:100DF0000000002000000020000000200000002073
:100E0000000000200001001F0000001F0000001F64
:100E10000000001F0000001F0000001F0000001F56
:100E20000001001E0000001E0000001E0000001E49
:100E300000000089109900000000526570472042B0
:100E400075696C64009600FF83048800000014003C
:100E50008C000000000000000060F0FFFF000000B8
:100E600000000000009B00000000000000000000E7
:100E700000000000000000000000A51C0000180099
:100E8000002041950484036901000014008304DC00
:100E90000500001400901F8B0000000000000000FF
:100EA000A00F000000000000000000008000000013
:100EB0009B0000000000000000A40F0000000000E4
:100EC00000000000006A0A0000180AD7233CAA01AB
:100ED0009B00000000000000000000000000000077
:100EE0000000000000A51C000018F6282041950411
:100EF000891B950000000042792068616E64206DB6
:100F00006F7665207468652065782D009501000076
:100F10000074727564657220746F2064696666651A
:100F200072656E7420009501000000706F73697423
:100F3000696F6E73206F766572207468652020007B
:100F400095070000006275696C6420706C617466BE
:100F50006F726D2E2E2E2E00950000000041646AE7
:100F6000757374207468652073706163696E67209F
:100F7000200095010000006265747765656E20743D
:100F8000686520657874727564657200950100006B
:100F9000006E6F7A7A6C6520616E6420706C61748B
:100FA000666F726D200095070000007769746820F5
:100FB000746865206B6E6F62732E2E2E0095000094
:100FC0000000756E6465722074686520706C6174D1
:100FD000666F726D2020009501000000616E642034
:100FE00061207368656574206F662070617065723A
:100FF000009501000000706C616365642062657497
:101000007765656E207468652020009507000000F4
:10101000706C6174666F726D20616E6420746865B7
:101020002E2E2E0095000000006E6F7A7A6C652ED1
:10103000205768656E20796F752061726500950193
:10104000000000646F6E652C2070726573732074ED
:101050006865202020202000950700000063656E51
:1010600074657220627574746F6E2E00891F891FFB
:1010700062003D02000000002110422063308440E5
:10108000A550C660E770088129914AA16BB18CC157
:10109000ADD1CEE1EFF13112100273325222B552CE
:1010A0009442F772D662399318837BB35AA3BDD3A7
:1010B0009CC3FFF3DEE36224433420040114E6649E
:1010C000C774A44485546AA54BB528850995EEE5F7
:1010D000CFF5ACC58DD55336722611163006D776AE
:1010E000F6669556B4465BB77AA719973887DFF747
:1010F000FEE79DD7BCC7C448E5588668A778400876
:10110000611802282338CCC9EDD98EE9AFF9488996
:1011100069990AA92BB9F55AD44AB77A966A711A0D
:10112000500A333A122AFDDBDCCBBFFB9EEB799BE6
:10113000588B3BBB1AABA66C877CE44CC55C222C5D
:10114000033C600C411CAEED8FFDECCDCDDD2AAD36
:101150000BBD688D499D977EB66ED55EF44E133EED
:10116000322E511E700E9FFFBEEFDDDFFCCF1BBF86
:101170003AAF599F788F8891A981CAB1EBA10CD160
:101180002DC14EF16FE18010A100C230E320045068
:10119000254046706760B9839893FBA3DAB33DC3DB
:1011A0001CD37FE35EF3B1029012F322D2323542B8
:1011B000145277625672EAB5CBA5A89589856EF56B
:1011C0004FE52CD50DC5E234C324A0148104667408
:1011D000476424540544DBA7FAB79987B8975FE7BB
:1011E0007EF71DC73CD7D326F2369106B016576658
:1011F0007676154634564CD96DC90EF92FE9C89943
:10120000E9898AB9ABA94458654806782768C018A7
:10121000E1088238A3287DCB5CDB3FEB1EFBF98B1A
:10122000D89BBBAB9ABB754A545A376A167AF10AF7
:10123000D01AB32A923A2EFD0FED6CDD4DCDAABD2A
:101240008BADE89DC98D267C076C645C454CA23C47
:10125000832CE01CC10C1FEF3EFF5DCF7CDF9BAFFA
:10126000BABFD98FF89F176E367E554E745E932E97
:10127000B23ED10EF01E78206D6F726521002A20DB
:101280005072657373200045726173696E672E2E0C
:101290002E00656570726F6D5F64756D702E62698A
:1012A0006E2066696C656E6F7420666F756E640083
:1012B00052656164206661696C65643B20454550F8
:1012C000524F4D206D617920626520636F72727597
:1012D000707400526573746F72696E672E2E2E00E3
:1012E000656570726F6D5F64756D702E62696E20DA
:1012F00066696C65616C7265616479206578697393
:10130000747300534420636172642077726974655A
:10131000206661696C656400536176696E672E2E84
:101320002E00507265737320555020746F207072B8
:101330006F636565642E00796F757220626F74202B
:10134000696E6F70657261626C652E0054686973B6
:10135000206D656E752063616E206D616B65005355
:1013600061696C666973682076372E31302072307F
:10137000313836320041546D656761203235363080
:101380002031342F30372F3139002D2D2D20546846
:10139000696E67203332303834202D2D2D2D0053C7
:1013A000462D5265706C696361746F723200202043
:1013B000202020202020202020202020202020202D
:1013C000202000202020200020004320202020007A
:1013D0002F20202043004F464600202025004D416D
:1013E000580046414E3A2D2D2D0001009403360041
:1013F00009016B00D800A000BD00D500AB000A01B8
:101400009D003F01870074017F00A9017700DE0184
:10141000700013026800480262007D025B00B202A5
:101420005400E7024D001C03440051033A008603B8
:101430003000BB032200F0030200FF030000D0FED7
:10144000C0FF18FFD0FF63FFE0FFB1FFF0FF000017
:10145000000052001000A4002000F80030004D01F0
:101460004000A2015000F70160004C027000A00291
:101470008000F30290004503A0009703B000E90349
:10148000C0003B04D0008D04E000E004F000330510
:10149000000187051001DB05200130063001DA0666
:1014A0005001436F6F6C696E672046616E20506F0C
:1014B00077657200456C61707365643A2020202066
:1014C000203030306830306D002073656373005415
:1014D000696D65204C6566743A2020203030306894
:1014E00030306D00557365203020666F7220756E48
:1014F0006C696D69746564004D6178205A20507282
:101500006F62652048697473005072696E74206F51
:1015100062737472756374696F6E202020646574E1
:1015200065637465642E2020436865636B2074686E
:10153000657072696E7420616E642065787472756E
:101540006465722E205072657373204C454654209A
:10155000666F72206D656E752E004175746F2D6C0F
:101560006576656C206661696C65640A546F6F20EE
:10157000666172206F7574206F66206C6576656C8D
:101580000050726573732043454E54455220627576
:1015900074746F6E20746F20636F6E74696E7565FE
:1015A0002E00546865206275696C6420706C6174EB
:1015B0006520697320206E6F74206C6576656C659C
:1015C000642100546865206275696C6420706C61E8
:1015D000746520697320206C6576656C65642100F4
:1015E0004175746F2D6C6576656C2020302E30301F
:1015F00030306D6D004175746F2D6C6576656C20B3
:10160000696E61637469766520004175746F2D6C35
:101610006576656C206661696C65640A496E636F06
:101620006D706C6574652070726F62696E670041E1
:1016300075746F2D6C6576656C206661696C656488
:101640000A4261642070726F62696E6720706F6910
:101650006E7473006265747765656E2070726F6278
:1016600065207074732E004D617820686569676825
:10167000742076617269616E6365004175746F2DC7
:101680006C6576656C2056617269616E63650020D9
:1016900050726F6265204F666673657400417574A1
:1016A0006F2D6C6576656C204F666673657473008C
:1016B000204465666C656374696F6E004175746F74
:1016C0002D6C6576656C2041646A00554152543139
:1016D0000020205553420053657269616C20492FE8
:1016E0004F00457261736520456570726F6D0053E0
:1016F00044202D3E20456570726F6D004565707207
:101700006F6D202D3E20534400456570726F6D0053
:101710005072696E742054696D653A2020206820EB
:1017200030306D004C617374205072696E743A20D1
:10173000202020682030306D004C69666574696D2A
:10174000653A202020202020682030306D0052652E
:1017500073756D696E6720706F736974696F6E2E33
:101760002E2E00436C656172696E67206275696C2C
:10177000642E2E2E20202000447261696E696E67EF
:1017800020706970656C696E652E2E2E004C656147
:1017900076696E672070617573652E2E2E2020206D
:1017A000200043616E63656C6C696E6720707269BE
:1017B0006E742E2E2E2000456E746572696E672041
:1017C00070617573652E2E2E202020005061757378
:1017D00065206174205A506F733A2000506C617418
:1017E000666F726D2054656D703A202020004C6544
:1017F00066742054656D703A2000526967687420E1
:1018000054656D703A200020546F6F6C6865616498
:10181000204F66667365743A00204F666673657480
:101820003A0055702F446E2F4C6566742F4D20740E
:101830006F207365740055702F446E2F522F4C2FFC
:101840004D20746F207365740050726F66696C650B
:10185000204E616D653A005361766520546F2050CB
:10186000726F66696C65004368616E6765204E61E2
:101870006D6500446973706C617920436F6E6669B1
:101880006700526573746F72650052657365743AD0
:101890002070726573732043454E5445520046696B
:1018A0006C2E20547269703A0046696C616D656EE9
:1018B000743A00547269703A004C6966653A0046A1
:1018C000696C616D656E74204F646F6D65746572CF
:1018D0000048656174657273204F66660043616EEF
:1018E00063656C205072696E74004C697665205A8D
:1018F000204F66667365742041646A2E00507269D9
:101900006E74205374617469737469637300426107
:10191000636B20746F204D6F6E69746F72006D0081
:101920006D6D00486F6D65204F666673657473005A
:1019300050726F66696C65730046696C616D656EA7
:10194000743A202020202020302E306D6D00466912
:101950006C616D656E743A005A506F736974696F8B
:101960006E3A202020005072696E742054696D65B3
:101970003A20202020206820206D0054656D70657D
:101980007261747572652072656164732020206FC6
:101990007574206F662072616E67652E202020208E
:1019A000202020436865636B20776972696E672E1B
:1019B0000054656D70657261747572652072656141
:1019C0006473202020617265206661696C696E67AE
:1019D0002E2020202020202020436865636B207764
:1019E0006972696E672E0054656D706572617475F9
:1019F00072652064726F7070696E67436865636BAF
:101A000020776972696E672E004E6F742068656179
:101A100074696E672070726F7065726C7943686567
:101A2000636B20776972696E672E0054656D702054
:101A30006C696D697420726561636865642E2053FA
:101A4000687574646F776E206F722072657374614D
:101A500072742E00506C6174666F726D20466169FD
:101A60006C7572652120202000546F6F6C2031202E
:101A70004661696C75726521202020202000546F1A
:101A80006F6C2030204661696C75726521202020C2
:101A90002020004578747275646572204661696C17
:101AA000757265212020200048656174657273207D
:101AB00073687574646F776E20647565746F2069E0
:101AC0006E61637469766974790046696C616D65ED
:101AD0006E74206C6F61642F756E6C6F61646361EE
:101AE0006E63656C65642064756520746F2074682E
:101AF00065207072696F7220686561746572206517
:101B000072726F72004D792074656D7065726174C8
:101B10007572652077617320206368616E67656404
:101B20002065787465726E616C6C792E20526573D5
:101B3000656C6563742066696C616D656E742020E8
:101B4000206D656E7520746F2074727920616761F5
:101B5000696E2E0077616974696E67200020204EDF
:101B60004120202020006572726F7221004F46468E
:101B700020202000435553544F4D005748495445A9
:101B80002000505552504C4500424C5545202000F5
:101B9000475245454E200050494E4B2020004F52A1
:101BA000414E474500524544202020004C454420EA
:101BB000436F6C6F757200536574204C696768746D
:101BC00073204F4E2000536574204C69676874730E
:101BD000204F4646002843616E6E6F742050726934
:101BE0006E7420436F707929005072696E742041C1
:101BF0006E6F7468657220436F7079004D61696E15
:101C0000204D656E750053657420436F6F6C696E6F
:101C1000672046616E204F46460053657420436F2F
:101C20006F6C696E672046616E204F4E20004368DE
:101C3000616E6765204842502054656D70004368AE
:101C4000616E67652054656D70657261747572654B
:101C5000004368616E676520537065656400436882
:101C6000616E676520457874727573696F6E005098
:101C700061757365206174205A506F7300446974F4
:101C8000746F205072696E74696E67004E2F410048
:101C9000502D53746F702074726967676572656444
:101CA00000502D53746F7020496E766572746564B0
:101CB00000502D53746F7020436F6E74726F6C0000
:101CC000436865636B20534420526561647300452B
:101CD0007874727564657220486F6C640050617529
:101CE000736520776974682048656174004F766574
:101CF000727269646520476354656D700048425094
:101D000020696E7374616C6C656400416363656C1B
:101D100065726174696F6E0045786974204D656EF7
:101D20007500536F756E64004578747275646572E2
:101D300020436F756E7400426F7420537461746930
:101D4000737469637300526573746F7265205365B1
:101D50007474696E67730047656E6572616C2053B9
:101D6000657474696E67730050726568656174208C
:101D700053657474696E6773004C6576656C2042B8
:101D800075696C6420506C61746500456E61626CAD
:101D90006520537465707065727320200044697308
:101DA00061626C652053746570706572730056656E
:101DB0007273696F6E20496E666F726D6174696FC0
:101DC0006E0046696C616D656E74204C6F6164696C
:101DD0006E6700486F6D652041786573004A6F67D4
:101DE000204D6F6465004D6F6E69746F72204D6F8A
:101DF0006465005574696C69746965730050726537
:101E000068656174005072696E742066726F6D202F
:101E1000534400492074696D6564206F75742077A0
:101E200068696C65202020617474656D7074696EDA
:101E30006720746F206865617420206D7920706C54
:101E40006174666F726D2E00492074696D6564203F
:101E50006F7574207768696C6520202061747465E3
:101E60006D7074696E6720746F20686561742020DE
:101E70006D792065787472756465722E00556E6197
:101E8000626C6520746F2072656164205344202069
:101E9000206361726420706172746974696F6E731B
:101EA000206F76657232474220696E2073697A65C9
:101EB0002E2020466F726D61746173204641542D4F
:101EC0003136206F72202D33322E00556E61626CD8
:101ED0006520746F20726561642074686973205393
:101EE00044206361726420666F726D61742E2020DD
:101EF000202020466F726D6174206173204641542A
:101F00002D3136206F72204641542D33322E00532E
:101F10004420636172642072656164206572726F2F
:101F2000722E20546F6F206D616E792043524320D2
:101F30006572726F72732E426164206361726420F5
:101F4000636F6E7461637473206F72656C65637424
:101F5000726963616C206E6F6973652E0053442053
:101F6000636172642072656164206572726F7200D1
:101F700053442063617264206E6F742070726573C5
:101F8000656E740053442063617264206973206538
:101F90006D7074790043616E6E6F74206F70656E42
:101FA000207468652066696C650053442063617223
:101FB00064207265616473206172652020206E6FF9
:101FC0007420676F696E672077656C6C2E202054D3
:101FD00072796120646966666572656E74206361FA
:101FE00072640049276D20616C72656164792062BA
:101FF00075696C64696E6700436F6C64205061752D
:10200000736500556E706175736500506175736519
:1020100020200043616E63656C206C6F61642F75D6
:102020006E6C6F61643F0043616E63656C20746821
:102030006973207072696E743F0073657474696EA1
:1020400067733F00526573746F72652066616374D5
:102050006F727900506C6174666F726D2020202061
:1020600020202020202020004C65667420457874B4
:1020700072756465722020202020200052696768F4
:1020800074204578747275646572202020202000C9
:1020900045787472756465722020202020202020ED
:1020A000202020005072657373206C656674207464
:1020B0006F2063616E63656C00457874727564654A
:1020C000723A2020202D2D2D2F2D2D2D43004842FA
:1020D000503A2D2D2D2F2D2D2D43004C2045787459
:1020E00072756465723A202D2D2D2F2D2D2D4300F4
:1020F000522045787472756465723A202D2D2D2F0B
:102100002D2D2D4300202D2D250048656174696E0D
:10211000673A202020202020202020202020004856
:10212000656174696E673A00203C2D592020284D66
:10213000656E7529202020202020202000203C2DA5
:10214000582020284D656E752920205A2D3E2020CC
:1021500020002020202020202020582D202020205A
:1021600020202020202000202020202020284D6515
:102170006E75292020592D3E20202000202020206F
:1021800020202020582B202020202020202020200C
:102190000020202020204A6F67206D6F646520207A
:1021A000202020202000556E6C6F6164206C6566D5
:1021B0007400556E6C6F61642072696768740055B5
:1021C0006E6C6F6164004C6F6164004C6F616420E1
:1021D0006C656674004C6F61642072696768740096
:1021E00035206D696E7574652074696D656F7574E1
:1021F00020686173656C61707365642E2020507275
:10220000657373207468652063656E7465722062FF
:102210007574746F6E20746F2020202066696E695B
:1022200073682E00426567696E206C6F6164696E29
:1022300067206F7220202020756E6C6F6164696E5C
:10224000672E2050726573732074686563656E74C1
:10225000657220627574746F6E207768656E2020D9
:1022600066696E69736865642E004578747275647A
:1022700065727320617265206E6F7420202068651E
:102280006174696E672E2020436865636B207468F3
:102290006520776972696E672E00594553004E4F6D
:1022A0002000446F6E650045787472756465720035
:1022B000506C6174666F726D005475726E20486563
:1022C0006174657273204F464600537461727420C6
:1022D00050726568656174696E6700467265652055
:1022E0005352414D20004F4646004F4E2000102CC7
:1022F000D52FC937A9387A400A43A5462B4ACA4B7D
:10230000085FA171C8744780048113825F8347848A
:102310005D843786E999929ADEA0E5A0D0A1A0A3BA
:10232000A7A4D6A81EA9AAAB77AF7EAF55DACBDE9D
:10233000EFDF62E0AFE1BCE1EFEFFBE185EC91E2C2
:1023400001C08193EF3FF907E0F3D9F311241FBED9
:10235000CFEFD1E2DEBFCDBF00E00CBF16E0A0E0C2
:10236000B2E0E4E5F2ED01E00BBF02C007900D9290
:10237000A236B107D9F72BE1A2E6B6E001C01D9263
:10238000AF3FB207E1F711E1CCE9D1E100E006C0CF
:1023900021970109802FFE010E948FE6C737D107E0
:1023A00080E00807A9F70E941F380C9428E90C94D4
:1023B00000006BBFFA01DC0102C007900D922150B2
:1023C0003040D8F708958091F30881110CC08091B6
:1023D000F2088F5F8093F208853028F081E08093C7
:1023E000F30810927D06089581E00E945B3E60E054
:1023F00080E00C94F93D8F929F92AF92BF92CF9262
:10240000DF92EF92FF920F931F93CF93DF93C62F2C
:10241000D0E0FE01EE0FFF1FEE0FFF1FE056F94F59
:10242000C080D180E280F380FC01408151816281D3
:1024300073814C195D096E097F09CC0FDD1FC456ED
:10244000D94FE881F9814F01A12CB12C8416950652
:10245000A606B70644F58C01C80CD91CEA1CFB1C67
:10246000DB01CA0188199909AA09BB09AC01332704
:1024700022276091BE027091BF028091C0029091AC
:10248000C1020E94C3E1BB2797FDB095AB2FC80ED8
:10249000D91EEA1EFB1EF801C082D182E282F382BD
:1024A0001982188205C0CF01841B950B99838883FC
:1024B000DF91CF911F910F91FF90EF90DF90CF9020
:1024C000BF90AF909F908F9008958F929F92AF9200
:1024D000BF92CF92DF92EF92FF920F931F93CF9311
:1024E000DF93FC0180809180A280B380C62FD0E072
:1024F000CC0FDD1FC456D94F688179816B01E12C67
:10250000F12CC814D904EA04FB0424F58C01D5018C
:10251000C4018C199D09AE09BF09AC0133272227DC
:102520006091BE027091BF028091C0029091C10281
:102530000E94C3E1BB2797FDB095AB2FC80ED91EF3
:10254000EA1EFB1EF801C082D182E282F382198268
:10255000188204C06819790979836883DF91CF9163
:102560001F910F91FF90EF90DF90CF90BF90AF90B1
:102570009F908F9008951F93CF93DF93EB01142FBB
:1025800060E043FD03C00E94FB1102C00E9465127F
:1025900061E0CE0114FD05C0DF91CF911F910C9435
:1025A000FB11DF91CF911F910C9465120E94F411E1
:1025B00060E08FEF0E94567CE8EEF6E01382128214
:1025C00015821482108611860C945434F894E8EE27
:1025D000F6E02281338180819181821B930B789474
:1025E0000895EF92FF920F931F93CF937C018B017D
:1025F000C42F8DEB99E00E946FCDB7018DEB99E070
:102600000E9447CDB8018DEB99E00E9447CDE09143
:102610004F0AEE0FFF0BEF5BF54F808191818D5BD1
:10262000994039F06DEB79E085E39AE00E9470A95A
:1026300004C08DEB99E00E94AECDC0931C0ACF91EF
:102640001F910F91FF90EF90089510921C0AE09156
:102650004F0AEE0FFF0BEF5BF54F808191818D5B91
:10266000994021F485E39AE00E9414AAE0914F0A70
:10267000EE0FFF0BEF5BF54F80819181DC01ED9157
:10268000FC910480F581E02D199480910202089557
:10269000CF92DF92EF92FF920F931F93CF93DF932E
:1026A000CDB7DEB7A0970FB6F894DEBF0FBECDBF93
:1026B00020917E06222309F47FC08C01CE01019671
:1026C0000E94637660E070E0C8010E946143FC01F3
:1026D000C080D180E280F38060E070E0CE0101969E
:1026E0000E946143FC0180819181A281B381C81A5B
:1026F000D90AEA0AFB0ACD8ADE8AEF8AF88E61E0FF
:1027000070E0C8010E946143FC01C080D180E2807A
:10271000F38061E070E0CE0101960E946143FC010C
:1027200080819181A281B381C81AD90AEA0AFB0A81
:10273000C98EDA8EEB8EFC8E62E070E0C8010E94DA
:102740006143FC01C080D180E280F38062E070E0F0
:10275000CE0101960E946143FC0180819181A2819A
:10276000B381A7019601281B390B4A0B5B0BDA01D9
:10277000C9012D8F3E8F4F8F58A34D895E896F8978
:10278000788D452B462B472B61F4498D5A8D6B8DE7
:102790007C8D452B462B472B21F4892B8A2B8B2BA9
:1027A00059F080917E0683FF05C0CE0145960E94B8
:1027B000354702C010927E06A0960FB6F894DEBF91
:1027C0000FBECDBFDF91CF911F910F91FF90EF9082
:1027D000DF90CF90089510929B060895882311F002
:1027E00080E401C080E88093E5066093E2061092E1
:1027F000F5081092F408089581E08093E1060895A9
:102800008091E506181634F48091E206811104C027
:1028100081E0089580E0089582E008958091E506C2
:10282000089581E09091E506923008F480E00895E3
:10283000CF93DF93CDB7DEB764970FB6F894DEBFC2
:102840000FBECDBF6093C9067093CA068093CB06B6
:102850009093CC06CE0101960E94637662E070E010
:10286000CE0101960E945A43FC0140815181628150
:1028700073818091C9069091CA06A091CB06B09150
:10288000CC06481759076A077B071CF01092C80648
:1028900003C081E08093C80664960FB6F894DEBF4B
:1028A0000FBECDBFDF91CF9108956091C9067091A1
:1028B000CA068091CB069091CC0608952091EA0635
:1028C0003091EB0681E0232B09F080E00895CF934F
:1028D00060E070E0CB010E9418141092C8061092BC
:1028E0008A0610928B0610928C0610928D0610921A
:1028F0008E06C1E0C09301021092F6081092E6061F
:102900001092E5061092E4061092E3061092E20699
:102910001092B8061092B9061092BA061092BB0631
:102920001092BC061092BD061092BE061092BF0611
:102930001092A8061092A9061092AA061092AB0651
:102940001092AC061092AD061092AE061092AF0631
:102950001092A0061092A1061092A2061092A30651
:102960001092C0061092C1061092C2061092C306C1
:102970001092C4061092C5061092C6061092C706A1
:102980001092B0061092B1061092B2061092B306E1
:102990001092B4061092B5061092B6061092B706C1
:1029A0001092A4061092A5061092A6061092A706F1
:1029B00061E082E490E00E946AA2823009F042C0A5
:1029C00060E08FEF9FE00E946AA28823D9F1C09354
:1029D0007F06109285061092860610928706109246
:1029E000880610928406109280061092810610923A
:1029F0008206109283061092F5081092F208109247
:102A0000F30810927D061092F40810929A06109224
:102A100099061092960610929506109298061092BA
:102A200097061092940610929306109290061092B8
:102A30008F06109292061092910610927E06CF9108
:102A40000C94D84710927F06C4CF0E94671485E685
:102A500080930202E8EEF6E013821282158214825D
:102A60001086118610927C06089581E090917C0674
:102A7000963009F080E0089580917E0683FF16C0AD
:102A800090910002992391F080917C06833071F03F
:102A90008091F308882351F080917D068F5F8093A9
:102AA0007D06981718F481E08093F40808958F92BA
:102AB0009F92AF92BF92CF92DF92EF92FF920F93CD
:102AC0001F93CF93DF93CDB7DEB7AA970FB6F894D5
:102AD000DEBF0FBECDBF882321F091E090939B060F
:102AE00005C090919B06992309F4ECC0F82ECE0105
:102AF00045960E94637681E089A78AA76E0189E2E4
:102B0000C80ED11C03E010E086EB9AE0FC01E55A08
:102B1000FF4F2081FC01222319F0208D318D04C04C
:102B2000EA5BFF4F20813181232B91F10A960E94AD
:102B300095A6882369F1F6018081F81224C0812CC2
:102B4000912C54018394402F60E070E080E090E489
:102B50000E947174A50194010E940AE64B015C0178
:102B6000B801CE0145960E946143FC01408151812C
:102B700062817381840E951EA61EB71E808291828B
:102B8000A282B38205C088248A94982C5401DBCF9A
:102B90000430110509F08EC060ED77E08CEE91E015
:102BA0000E9473A2BC0180E090E00E9448E4209162
:102BB000D1153091D2154091D3155091D4150E9462
:102BC00050E59B01AC0160E074E284E799E40E9467
:102BD00064E30E9412E44B015C0180917F0688232C
:102BE00029F18091E70681110AC064E070E0CE010E
:102BF00045960E9461438C0163E070E009C063E088
:102C000070E0CE0145960E9461438C0164E070E063
:102C1000CE0145960E946143FC0180819181A28191
:102C2000B381F80180839183A283B383E12C00E018
:102C300010E09801B501A401CE0145960E94BA7733
:102C4000F11040C0CE0101960E94637663E070E00F
:102C5000CE0101960E9461438C0163E070E08DEC2F
:102C600096E00E946143FC0180819181A281B38141
:102C7000F80180839183A283B38364E070E0CE0186
:102C800001960E9461438C0164E070E08DEC96E057
:102C90000E946143FC0180819181A281B381F8018E
:102CA00080839183A283B38360E0CE0101960E946A
:102CB000DA7508C0FFEFCF1ADF0A87E29BE004E075
:102CC00010E024CFAA960FB6F894DEBF0FBECDBF9A
:102CD000DF91CF911F910F91FF90EF90DF90CF90F8
:102CE000BF90AF909F908F9008952F923F924F92F8
:102CF0005F926F927F928F929F92AF92BF92CF928C
:102D0000DF92EF92FF920F931F93CF93DF93CDB794
:102D1000DEB7C856D1090FB6F894DEBF0FBECDBFDF
:102D2000182FCE01CD960E942543CE0189960E9490
:102D30002543112309F433C1E4E4F5E18EEC95E178
:102D40002485222309F4B2C22385222309F4AEC2CA
:102D5000BE968E179F07A1F784E1EDECF6E0DE0149
:102D6000559601900D928A95E1F7CE0101960E9449
:102D7000637660E070E0CE0145960E9461438C016D
:102D800040915515509156156091571570915815F1
:102D90008EE090E00E9482A26B017C0180E00E94A4
:102DA000537420E030E040EA50E40E9450E50E9475
:102DB00012E4C61AD70AE80AF90AF801C082D182D9
:102DC000E282F38261E070E0CE0145960E946143A9
:102DD0008C014091831550918415609185157091F7
:102DE000861582E190E00E9482A26B017C0181E065
:102DF0000E94537420E030E040EA50E40E9450E525
:102E00000E9412E4C61AD70AE80AF90AF801C08239
:102E1000D182E282F38262E070E0CE0145960E94A8
:102E200061438C0162E070E0CE0101960E94614333
:102E3000FC01C080D180E280F38082E00E94537464
:102E400020E030E040EA50E40E9450E50E9412E4A5
:102E5000C60ED71EE81EF91EF801C082D182E2829A
:102E6000F38262E070E0CE0145960E946143FC016E
:102E700040815181628173818091B1159091B21529
:102E8000A091B315B091B41584179507A607B7079D
:102E90009CF462E070E0CE0145960E94614340914F
:102EA000B1155091B2156091B3157091B415FC0134
:102EB000408351836283738362E070E0CE010196A8
:102EC0000E946143FC01C080D180E280F38062E017
:102ED00070E0CE0145960E946143FC0180819181A2
:102EE000A281B3818C159D05AE05BF05BCF462E0DF
:102EF00070E0CE0145960E9461438C0162E070E073
:102F0000CE0101960E946143FC0180819181A281E2
:102F1000B381F80180839183A283B38363E070E07F
:102F2000CE0145960E9461438C0163E070E0CE01C2
:102F300001960E946143FC0180819181A281B3814D
:102F4000F80180839183A283B38364E070E0CE01B3
:102F500045960E9461438C0164E070E0CE010196C9
:102F60000E946143FC0180819181A281B381F801BB
:102F700080839183A283B383BE016B5E7F4FCE01BA
:102F80008F5A9F4F0E949D7584E1FE01EF5AFF4FBB
:102F9000DE01999601900D928A95E1F757C084E180
:102FA000EDECF6E0DE01999601900D928A95E1F73D
:102FB000CE0145960E94637664E070E0CE0189966A
:102FC0000E946143FC01108101813280238063E013
:102FD00070E0CE0189960E946143FC01808091805F
:102FE000A280B38062E070E0CE0145960E9461430A
:102FF000FC01C080D180E280F38061E070E0CE010E
:1030000045960E946143FC0140805180628073803C
:1030100060E070E0CE0145960E946143FC01408172
:103020005181628173812F923F920F931F9393017D
:103030008201CE0101960E94264360E0CE010196F6
:103040000E94DA750F900F900F900F906091A71566
:103050007091A8158091A9159091AA150E944AE433
:1030600020E030E040E857E30E9450E52091A315AE
:103070003091A4154091A5155091A6150E9450E5D8
:103080000E9412E4A9966CAF7DAF8EAF9FAFA99757
:10309000CE018F5A9F4F0E94637684E1FE01EF5A62
:1030A000FF4FDE01DD9601900D928A95E1F760E019
:1030B00070E0CE01CD960E946143FC01C080D180BA
:1030C000E280F38060E070E0CE0189960E94614367
:1030D000FC0180819181A281B381A7019601281B07
:1030E000390B4A0B5B0BCA01B9010E944AE42091DB
:1030F0004715309148154091491550914A150E9445
:1031000064E32B013C0161E070E0CE01CD960E94AA
:103110006143FC01C080D180E280F38061E070E017
:10312000CE0189960E946143FC0180819181A28138
:10313000B381A7019601281B390B4A0B5B0BCA010F
:10314000B9010E944AE4209175153091761540919D
:103150007715509178150E9464E34B015C0162E0A1
:1031600070E0CE01CD960E946143FC01C080D18009
:10317000E280F38062E070E0CE0189960E946143B4
:10318000FC0180819181A281B381A7019601281B56
:10319000390B4A0B5B0BCA01B9010E944AE420912A
:1031A000A3153091A4154091A5155091A6150E9424
:1031B00064E36B017C01A3019201C301B2010E948F
:1031C00050E52B013C01A5019401C501B4010E9409
:1031D00050E59B01AC01C301B2010E94DCE24B014E
:1031E0005C01A7019601C701B6010E9450E59B0151
:1031F000AC01C501B4010E94DCE20E94C3E52B01D1
:103200003C0180917F06882329F18091E706811196
:103210000AC064E070E0CE0189960E9461438C018F
:1032200063E070E009C063E070E0CE0189960E941F
:1032300061438C0164E070E0CE0189960E94614395
:10324000FC0180819181A281B381F8018083918307
:10325000A283B383B0907A1610927A166091A71564
:103260007091A8158091A9159091AA150E944AE421
:1032700020E030E040E857E30E9450E520E030E0F5
:1032800040E852E40E9450E50E9412E46B01830181
:10329000720120E0A9964CAD5DAD6EAD7FADA997F2
:1032A000CE0189960E945079B0927A16C859DF4FA4
:1032B0000FB6F894DEBF0FBECDBFDF91CF911F9147
:1032C0000F91FF90EF90DF90CF90BF90AF909F90C5
:1032D0008F907F906F905F904F903F902F900895C8
:1032E000EF92FF920F931F93CF93DF9328E0829F7B
:1032F000C0011124FC01E854F94FF08001811281D2
:10330000D381C481B581E680E7812F2D302F412FF5
:103310005D2F6C2F7B2F8E2D9E2FA0E00E946AE8E0
:1033200054F40E94C5E7F22E032F142FD52FC62F79
:10333000B72FE82EE92F2F2D302F412F5D2F6C2F27
:103340007B2F8E2D9E2FDF91CF911F910F91FF909C
:10335000EF9008952F923F924F925F926F927F92DB
:103360008F929F92AF92BF92CF92DF92EF92FF9295
:103370000F931F93CF93DF93C82F0E947019790189
:103380001A012B013C01A0E00E946AE809F00CF44C
:1033900053C088E0C89FE00111244E0188E4881AD8
:1033A0008EEF980A00E010E020E030E040E050E0CE
:1033B00060E070E0C4010E9428A359016A01F62F61
:1033C000E72F8C019701A101B201C301EF2EFE2E60
:1033D0000E9443E889019A01AB01BC01C4010E942B
:1033E0007AA3DE01A855B94FFE01E854F94F808158
:1033F0008C93818111968C931197828112968C9374
:103400001297838113968C931397848114968C93CF
:103410001497858115968C931597868116968C93B3
:103420001697878117968C931082118212821382CD
:103430001482158216821782DF91CF911F910F910E
:10344000FF90EF90DF90CF90BF90AF909F908F90C4
:103450007F906F905F904F903F902F90089580E005
:103460000E94AA1981E00C94AA19EF92FF920F937F
:103470001F93CF93DF9328E0829FC0011124FC01AA
:10348000E855F94FF08001811281D381C481B58163
:10349000E680E7812F2D302F412F5D2F6C2F7B2F62
:1034A0008E2D9E2FA0E00E946AE854F40E94C5E78A
:1034B000F22E032F142FD52FC62FB72FE82EE92F6A
:1034C0002F2D302F412F5D2F6C2F7B2F8E2D9E2F78
:1034D000DF91CF911F910F91FF90EF900895CF92C0
:1034E000DF92EF92FF9280E00E94351AE42F43E0D2
:1034F000B9018E2F952F0E945F746B017C0181E0D2
:103500000E94351AE42F44E0B9018E2F952F0E94B6
:103510005F749B01AC01C701B6010E94DCE26B0144
:103520007C0180E00E947019E42F43E0B9018E2FE6
:10353000952F0E945F749B01AC01C701B6010E94E8
:10354000DCE26B017C0181E00E947019E42F44E011
:10355000B9018E2F952F0E945F749B01AC01C701AA
:10356000B6010E94DCE2FF90EF90DF90CF900895CB
:103570000F931F93CF93DF93D82F0AE816E0C0E094
:10358000F801808181110FC08C2F0E948B7CF80183
:103590008083DD2321F08C2F0E94917C04C064E1A4
:1035A0008C2F0E94867CCF5F0F5F1F4FC53041F785
:1035B000DF91CF911F910F9108950F931F93CF9398
:1035C0000AE816E0C0E0F80160818C2F0E94867C3A
:1035D000F80111928F01CF5FC530A9F7CF911F91EC
:1035E0000F910895EF92FF920F931F93CF93DF9364
:1035F000CDB7DEB764970FB6F894DEBF0FBECDBF70
:103600008091E506853409F40BC190F5813409F405
:1036100061C0B8F4803209F4EEC1803409F43FC0CF
:10362000823009F01FC20E9425136091E306709159
:10363000E40621E040E086E699E00E942A3C81E031
:10364000FDC1833409F450C008F058C0CE01019682
:103650000E94637684E1FE013196ADECB6E0019004
:103660000D928A95E1F781E00E94571583E4E6C147
:10367000843809F486C150F4813809F464C1833870
:1036800009F470C1803809F0EDC100C1863809F431
:1036900091C108F485C1873809F491C1E3C10E9442
:1036A0004832853029F00E944832843009F0BAC18E
:1036B00081E48093E50681E064960FB6F894DEBF5E
:1036C0000FBECDBFDF91CF911F910F91FF90EF9073
:1036D0000C94B81A8091D40C9091D30C891B8F70E4
:1036E00009F0C0C182E4AAC18091D40C9091D30C9E
:1036F000891B8F7009F0B6C184E4A0C181E00E94EB
:10370000751685E48093E5060E944832853039F0CD
:103710000E94483211E0843019F010E001C011E03D
:103720008091B00B8093890660E080E00E94F93DB3
:103730008091110B882329F08091CE0A9091CF0AB5
:1037400004C08091FC0A9091FD0A909390068093AA
:103750008F068091820B882329F080913F0B9091F6
:10376000400B04C080916D0B90916E0B909392066C
:10377000809391068091B20A882329F080916F0A84
:103780009091700A04C080919D0A90919E0A909336
:103790009406809393068091E20681114BC160E00C
:1037A0008EEF9FE00E946AA2882309F443C18091B2
:1037B000E206882349F040E060E080E00E942E822B
:1037C00060E088EF0E94567C6091E3067091E40609
:1037D0006115710569F08091F608811105C011111C
:1037E00003C087EB97E102C082EA97E141E00AC09B
:1037F000111103C087EB97E102C082EA97E141E033
:1038000063E677E164960FB6F894DEBF0FBECDBFD6
:10381000DF91CF911F910F91FF90EF900C94F112D7
:103820008091D40C9091D30C891B8F7009F01AC130
:103830000E94DD1A8091F608882311F080E209C009
:103840008091E3069091E406892B11F481E001C098
:1038500082E08093E5060E9425130E94483285305D
:1038600009F400C10E944832843009F4FBC087E0AB
:1038700064960FB6F894DEBF0FBECDBFDF91CF9137
:103880001F910F91FF90EF900C94B14280E00E9445
:10389000B81A0091990610919A060115110521F4A4
:1038A00000919306109194061016110654F460E0EE
:1038B00081E69AE00E9419A7B80181E69AE00E9489
:1038C000C6A5E0909506F0909606E114F10421F467
:1038D000E0908F06F09090061E141F0494F460E0B0
:1038E00080EC9AE00E9419A7B70180EC9AE00E9450
:1038F000C6A5101611062CF461E080EC9AE00E9437
:1039000019A7E0909706F0909806E114F10421F4CD
:10391000E0909106F09092061E141F0494F460E06B
:1039200081E39BE00E9419A7B70181E39BE00E941D
:10393000C6A5101611062CF461E081E39BE00E94FD
:1039400019A781E87BC08091930690919406181680
:1039500019060CF072C081E69AE00E9495A68111CA
:103960006CC080C080918F06909190061816190641
:103970000CF067C080EC9AE00E9495A6811161C0AE
:1039800071C081E00E94B81A80E00E94751685E837
:103990008093E50641E06EE477E18DE897E132CF70
:1039A0008091D40C9091D30C891B8F7009F05AC070
:1039B00086E844C080E00E94571587E83FC08091A8
:1039C000D40C9091D30C891B8F7009F04BC060E030
:1039D000809189060E94F93D0E94DD1A0E942513FC
:1039E0001092E5061092E4061092E3061092F50894
:1039F0001092F40837C00E9425136091E30670917D
:103A0000E40621E040E086E699E00E942A3C0E941C
:103A1000C3441092E4061092E3061092F608109246
:103A2000E50620C041E068E777E187EB97E10E9477
:103A3000F1123ECE0E94F411BACE83E88093E506DF
:103A400011C080919106909192061816190634F4CF
:103A500081E39BE00E9495A6882321F00E94DD1A55
:103A600084E8ECCF64960FB6F894DEBF0FBECDBFEE
:103A7000DF91CF911F910F91FF90EF9008958F925A
:103A80009F92AF92BF92CF92DF92EF92FF92CF932D
:103A9000C0910202C53609F453C0CC2309F450C0CA
:103AA000F0908406CF1509F44BC0FF2009F448C0FC
:103AB00060918006709181068091820690918306C4
:103AC0006115710581059105D9F10E9448E44B010A
:103AD0005C016C2F70E06F197109072E000C880BC8
:103AE000990B0E944AE49B01AC01C501B4010E94FC
:103AF00064E36B017C016C2F70E080E090E00E9439
:103B000048E49B01AC0160E070E088EC92E40E9424
:103B1000DBE29B01AC01C701B6010E9450E56B01DD
:103B20007C0120E030E0A9010E945FE387FF03C031
:103B3000C12CD12C7601C701B6010E9412E403C04A
:103B400060E070E0CB01CF91FF90EF90DF90CF90DD
:103B5000BF90AF909F908F900895FC0184819581D4
:103B6000860F971F608171810E9426E6268137812A
:103B7000820F931F08951F93CF93DF93EC012A8147
:103B80003B81888199812817390770F4162F6A8143
:103B90007B81CE010E94AD1DFC0110838A819B8137
:103BA00001969B838A8302C081E08887DF91CF9151
:103BB0001F910895682F88EE96E00C94BB1DCF935B
:103BC000DF93EC018A819B81892B21F481E0898735
:103BD00080E015C060E070E0CE010E94AD1DFC01E8
:103BE0008C819D810196688179810E9426E69D8362
:103BF0008C838A819B8101979B838A838081DF915B
:103C0000CF91089588EE96E00C94DF1DCF9388EE57
:103C100096E00E94DF1DC82F88EE96E00E94DF1D0F
:103C2000982F8C2FCF9108951F93CF93DF9388EE19
:103C300096E00E94DF1D182F88EE96E00E94DF1D9F
:103C4000D82F88EE96E00E94DF1DC82F88EE96E000
:103C50000E94DF1D982F612F7D2F8C2FDF91CF9138
:103C60001F910895CF92DF92EF92FF921F93CF930F
:103C7000DF93C82F61E070E088EE96E00E94AD1DF2
:103C8000FC011081CF3F09F01C2F62E070E088EE4C
:103C900096E00E94AD1DFC0180818D3009F488C042
:103CA00048F48C3008F071C0843008F0F0C08330E4
:103CB00071F00BC0873109F45EC020F4803108F444
:103CC000E6C003C08F3109F47FC010E000C164E09A
:103CD00070E088EE96E00E94AD1DFC01C081D0E04E
:103CE00065E070E088EE96E00E94AD1DFC018081E9
:103CF00090E0982F8827C80FD91F209719F40E94A9
:103D00002F1A14C0C12ED12C7601EE0CFF1CF70126
:103D1000EB56F94F80819181892B09F0BAC060E0A0
:103D20008DEF9FE00E946AA28111B3C0113019F09B
:103D300086EB9AE002C087E29BE0BE010A960E94F1
:103D4000C6A581E69AE00E94C1A6882309F4B6C000
:103D500081E69AE00E94D6A68111B0C0113019F018
:103D600086EB9AE002C087E29BE00A960E94D6A604
:103D70008111A4C07CC00E94001491E0811190E0E8
:103D800060E0892F0E94A03482C064E070E088EE79
:103D900096E00E94AD1DFC0160816170113019F048
:103DA00086EB9AE002C087E29BE00E943AA46FC0D3
:103DB00064E070E088EE96E00E94AD1D61E0FC01D9
:103DC00080810E94F93D63C00E94172F182F88231D
:103DD00009F45DC064E070E088EE96E00E94AD1DDD
:103DE000FC01C081EC2EF12C65E070E088EE96E0DD
:103DF0000E94AD1DFC01C081D0E0DC2FCC27CE0D90
:103E0000DF1D2097D1F08091990690919A06892B19
:103E100039F460E08DEF9FE00E946AA2882369F088
:103E20008091990690919A06009731F464E670E0CB
:103E30008CE591E00E9473A2EC01BE0181E69AE05C
:103E40000E94C6A561E086E699E00E94F43D81E605
:103E50009AE00E94D6A691E089278093E6060E9408
:103E60006D408091B40B8E7F8093B40B30C081E0A5
:103E70008093E6061130F9F086EB9AE061E00A964D
:103E80000E9419A78091B40B8E7F8093B40B11E030
:103E90001EC0F701EB56F94F80819181009749F4DC
:103EA000C601880F991F66EE70E0885A9E4F0E94E7
:103EB00073A2EC013BCF87E29BE0E0CF113019F019
:103EC00086EB9AE002C087E29BE060E0D8CF812FCA
:103ED000DF91CF911F91FF90EF90DF90CF900895E9
:103EE0002F923F924F925F926F927F928F929F920A
:103EF000AF92BF92CF92DF92EF92FF920F931F93F8
:103F0000CF93DF93CDB7DEB7C656D1090FB6F8947D
:103F1000DEBF0FBECDBF0E9450448823B9F0809110
:103F2000EA069091EB062091E8063091E906281701
:103F3000390749F10E94A444882329F10E94B14421
:103F4000682F88EE96E00E94BB1DE9CF0E94AA80F0
:103F50008823A1F18091EA069091EB062091E80672
:103F60003091E9062817390709F413C20E94B88076
:103F7000882309F40EC20E94C680682F88EE96E05E
:103F80000E94BB1DE7CF0E94A444811117C08091FD
:103F90000402882309F4F3C19091E5069111EFC161
:103FA00091E09093F608813009F0E1C180E79FE14C
:103FB0009093E4068093E3060E94D6128091E60671
:103FC000882359F081E69AE00E9495A6882329F07B
:103FD00080E00E946D401092E6068091C9069091A3
:103FE000CA06A091CB06B091CC06892B8A2B8B2BCD
:103FF00019F18091C80681111FC0CE0101960E945F
:10400000637662E070E0CE0101960E945A43DC01C3
:104010004D915D916D917C918091C9069091CA06F8
:10402000A091CB06B091CC06481759076A077B07C9
:104030001CF481E08093C8068091C9069091CA065D
:10404000A091CB06B091CC06892B8A2B8B2B79F1D2
:104050008091C806882359F10E940014811127C05D
:10406000CE0101960E94637662E070E0CE01019677
:104070000E945A43FC014081518162817381809189
:10408000C9069091CA06A091CB06B091CC064817FC
:1040900059076A077B075CF060E070E0CB010E9483
:1040A000181460E081E00E94A0340C94F62B10916B
:1040B000E506123020F00E94F21A0C94F62B113013
:1040C000F1F48091E20681110C94F62B8091E106C7
:1040D00081110C94F62B8DE19AE00E942BE088234D
:1040E00011F40C94F62B1093E2060E94F41140E0B8
:1040F00060E080E00E942E8260E088EF8DC18091B8
:104100007C06833071F40E94DE74882341F080E7DE
:1041100096E00E942BE0882321F00E940F801092ED
:104120007C068091F508811104C08091F4088823F1
:1041300029F18091F308882309F180917C0683306E
:10414000E9F08091E506811119C00E9400148111E7
:1041500011C08091F408882319F089E095E102C02C
:1041600080E99CE19093E4068093E30661E081E0BE
:104170000E94A0341092F50810927D0680917C0672
:10418000813031F40E94DE74811102C010927C06ED
:1041900080917C06823039F486E796E00E942BE01D
:1041A000811110927C0680917C06843009F052C007
:1041B0008AE696E00E942BE0882349F020E040E068
:1041C00068E47EE186E699E00E942A3C20C0809166
:1041D000E706813019F487E29BE002C086EB9AE0A3
:1041E0000A960E94C1A6811115C080917F0688237E
:1041F00071F08091E706811103C087E29BE002C065
:1042000086EB9AE00A960E94C1A6811123C0109203
:104210007C0620C08091E706813019F487E29BE09C
:1042200002C086EB9AE00A960E9495A6882391F038
:1042300080917F06882359F38091E706882319F03F
:1042400086EB9AE002C087E29BE00A960E9495A660
:104250008111DDCF80917C068530E1F48AE696E01D
:104260000E942BE0882349F020E040E063E17EE1FA
:1042700086E699E00E942A3CD3C081E69AE00E943B
:10428000C1A6882309F4CCC081E69AE00E9495A6D5
:104290008111C6C080917C06863091F584E696E057
:1042A0000E942BE0882391F08091620681FF06C076
:1042B00060E086E699E00E94854022C010927C066C
:1042C0008091B40B8F7E8093B40B1AC085E39AE083
:1042D0000E949FAB8823A1F08091620682FF04C0F8
:1042E00085E39AE00E9414AA0E9466408091B40B74
:1042F0008F7E8093B40B8FEF0E94718210927C06A8
:1043000080917C0681110C94F62B60E070E088EEC1
:1043100096E00E94AD1DDC011C910E94F95D88238E
:1043200059F0812F8F7E8B3811F01E3811F41092C6
:104330000C0281E080930B02B0E26996BFAF6997EF
:104340008091EA069091EB06892B89F18091D40C3B
:104350009091D30C891B8F708E3048F5812F8F7E02
:104360008B3809F42EC51E3809F42BC520C08B30BC
:1043700019F48FE09FE11CCE8DE59FE119CE80916D
:10438000E3069091E406892B09F018CE0E94C344FD
:1043900015CE0E94B880811111CE8091EA069091CD
:1043A000EB06892B09F00ACE0E94018107CE80918D
:1043B0000C02811105C00E949A6681E080930C0274
:1043C0008091EA069091EB06892B11F40C94F62B60
:1043D00086E699E00E94333C1B3809F41FC11E3861
:1043E00009F41CC11B3909F419C11938E1F4809191
:1043F000EA069091EB06029710F40C94F62B0E94BB
:10440000021E0E94021E90917F0691110C94862B31
:10441000682F661F6627661F0E94567C0C94F62B39
:1044200010927C0637CF163811F40C94762B1C3979
:1044300009F4F4C0812F8B7F803999F09DE7910FAB
:10444000923078F0883849F0163909F4E7C00E94B4
:10445000F95D882311F40C94F62B1C3811F40C949C
:104460009D2B1538D1F48091EA069091EB060597C3
:1044700010F40C94F62B82E080937C060E94021EBE
:104480000E94141E9B01AC01A8EEB3E00E94A6E6B8
:10449000AB01BC0186E796E01AC11439A1F5809101
:1044A000EA069091EB06059710F40C94F62B0E9407
:1044B000021E0E94021E809363060E94061E7C015B
:1044C0000E94021E80936206E114F10471F0D7018C
:1044D00020E432E44FE050E00E94A6E6AB01BC01CC
:1044E00084E696E00E94F9DF87C0CE0101960E9423
:1044F000F6DF86E0FE013196A4E6B6E001900D926B
:104500008A95E1F779C0153909F088C08091EA06EB
:104510009091EB06069710F40C94F62B0E94021E65
:104520000E94021E182F0E94021ED82E0E94021EF8
:10453000E82E0E94021EF82E10FD04C08DEB99E0BB
:104540000E946FCDD092C009E092C10968EE76E07A
:104550008DEB99E00E94D3CC11FD02C00C94F62B98
:10456000E0914F0AEE0FFF0BEF5BF54F80819181D9
:104570008D5B994039F06DEB79E085E39AE00E941C
:1045800070A904C08DEB99E00E94AECD1470FF209D
:1045900049F0111107C06F2D8DEB99E00E949ECD5F
:1045A0000C94F62B112311F40C94F62BFF2079F0C8
:1045B000AF2DB0E020E432E44FE050E00E94A6E6E8
:1045C000AB01BC0184E696E00E94F9DF0DC0CE018C
:1045D00001960E94F6DF86E0FE013196A4E6B6E081
:1045E00001900D928A95E1F781E0809363068091B6
:1045F00062068470809362060E945C40609163064C
:1046000085E39AE00E949CAB8091B40B806180931B
:10461000B40B86E080937C060C94F62B8DE7810F1B
:10462000823070F58091EA069091EB06089710F4BD
:104630000C94F62B0E94021E0E94021EF82E0E946D
:10464000141E4B015C010E94061E23E020937C0691
:10465000DC0120E432E44FE050E00E94A6E6AB012A
:10466000BC0180E796E00E94F9DF81E0143809F090
:1046700080E0A50194016F2D0E94997B0C94F62B8C
:10468000173849F58091EA069091EB06069710F4E9
:104690000C94F62B84E080937C0681E08093F308F1
:1046A00010927D060E94021E0E94021E8093E70661
:1046B0000E94061E0E94061EDC0120E432E44FE048
:1046C00050E00E94A6E6AB01BC018AE696E00E949B
:1046D000F9DF0C94F62B1D38A9F48091EA0690912D
:1046E000EB06069710F40C94F62B85E080937C067D
:1046F00081E08093F30810927D060E94021E0E94C2
:10470000021ED6CF1F3809F09CC08091EA06909116
:10471000EB06029710F40C94F62B0E94021E0E94E6
:10472000021E182FCE0101960E9463769EE0C92ECC
:10473000D12CE12CF12CA12EB12CC5010E2C02C0E4
:10474000959587950A94E2F780FF17C0B701CE01CF
:1047500001960E946143FC0180819181A281B38115
:104760008AA79BA7ACA7BDA7F89444E050E0B60188
:10477000CE018A960E9403E97894FFEFEF1AFF0AB0
:1047800004E0C00ED11C23E0E216F104B1F61123BF
:1047900011F40C94F62B812F887181130C94F62B55
:1047A000183021F0103121F012E003C010E001C0F8
:1047B00011E081E090E0012E01C0880F0A94EAF731
:1047C00090917E06892B80937E0660E070E0CE019A
:1047D00001960E946143FC0180819181A281B38195
:1047E0008AA79BA7ACA7BDA761E070E0CE010196A8
:1047F0000E946143FC0180819181A281B3818EA7D7
:104800009FA7A8ABB9AB62E070E0CE0101960E9411
:104810006143FC0180819181A281B3818AAB9BAB12
:10482000ACABBDABF894FCE01F9FB00111246B5DF5
:10483000714F4CE050E0CE018A960E9403E97894D3
:10484000D5C7103909F029C18091EA069091EB068D
:10485000029708F4CBC70E94021E0E94021E182F66
:10486000CE018A960E946376183109F07AC0809151
:104870007E068770873009F043C0F89444E050E02A
:1048800066E170E0CE01CE960E94DFE849E250E09A
:1048900060E27EE0CE0101960E94DFE878948A8192
:1048A0009B81AC81BD81181619061A061B0644F0BF
:1048B00088EC90E0A0E0B0E08A839B83AC83BD836A
:1048C00022962CAD3DAD4EAD5FAD22976A817B81C6
:1048D0008C819D818E01025E1F4F6801DE01529620
:1048E0007D01085111090E94FC47882339F080910D
:1048F0007E06886080937E0610E003C012E001C04F
:1049000011E0F89461E0111101C060E080E29EE0E6
:104910000E940DE978941123C1F0113019F48AE056
:1049200096E10CC00E94224A6D3F7F4F8F4F9F4FF0
:1049300019F48FE296E102C08AE595E19093E406CE
:104940008093E3060E94D61203C081E00E94DB74CC
:10495000109275161092761610927716109278169D
:1049600045C7183009F03EC0F89444E050E066E1D5
:1049700070E0CE018C5B9F4F0E94DFE849E250E07F
:1049800060E27EE0CE0101960E94DFE878948CE33D
:1049900090E0A0E0B0E08A839B83AC83BD838E016E
:1049A000025E1F4F9E012E5E3F4FAE014A5F5F4F7A
:1049B0006CE370E080E090E00E94734740E061E8C3
:1049C00075E1882319F083EC95E102C082EA95E154
:1049D0000E94F112CE01CE960E94F6DF86E0FE0123
:1049E000FE96FCCD103119F40E94D847FFC68EE028
:1049F000A82EB12CC12CD12CE12EF12CC7010C2CEE
:104A000002C0959587950A94E2F780FF0CC0F89450
:104A1000B601CE018A960E94614344E050E0B501A0
:104A20000E94DFE87894EFEFCE1ADE0AF4E0AF0ED2
:104A3000B11C03E0C016D10409F763E070E0CE01B9
:104A40008A960E946143FC0180819181A281B38199
:104A50008093A0069093A106A093A206B093A3060C
:104A600064E070E0CE018A960E946143FC0180817F
:104A70009181A281B3818093A4069093A506A0930F
:104A8000A606B093A706CE018A960E94481361E05D
:104A9000CE018A960E94DA75A9C6113999F48091DF
:104AA000EA069091EB06039708F4A0C60E94021E46
:104AB0000E94021E182F0E94021E682F812F0E9442
:104AC000867C94C61239E1F48091EA069091EB0657
:104AD000069708F48BC60E94021E0E94021E182F21
:104AE0000E94021EF82E0E94021EE82E0E94021E44
:104AF0000E94021E4E2D6F2D812F0E944C8376C680
:104B00001339B1F48091EA069091EB06069708F408
:104B10006DC60E94021E0E94061E7C010E94061E97
:104B20006C010E94021EB601C7010E9450425EC67F
:104B3000183809F062C08091EA069091EB0604975C
:104B400008F454C663E070E088EE96E00E94AD1D64
:104B50002091EA063091EB06DC01EC90F12CB4E0F8
:104B6000EB0EF11C2E153F0508F440C680917F0620
:104B7000882339F080910102882319F010920102F4
:104B800003C081E08093010262E070E088EE96E06D
:104B90000E94AD1DFC018081833059F062E070E01D
:104BA00088EE96E00E94AD1DDC018C918C3009F0FE
:104BB00099C58091010281110DC061E070E088EE1D
:104BC00096E00E94AD1DFC0181E09081992319F0CF
:104BD00080E001C08FEF0E94321E80910102882385
:104BE00009F404C610E0812F90E08E159F0508F0AF
:104BF000FDC50E94021E1F5FF6CF163909F041C0A5
:104C00008091EA069091EB06039708F4EFC50E94A5
:104C1000021E0E94021E809302020E94021E8091C8
:104C200002028823F1F08091850690918606A0917A
:104C30008706B0918806892B8A2B8B2B91F4809163
:104C4000840681110EC00E94213360938506709303
:104C5000860680938706909388068091020280934F
:104C6000840680910202882309F4C0C50E94213382
:104C700060938006709381068093820690938306EA
:104C8000B5C51739B9F48091EA069091EB06029701
:104C9000B8F10E94021E0E94021E811102C084E02F
:104CA00006C0813019F40E94B1422AC082E00E94FD
:104CB000EC4226C0183999F48091EA069091EB06EF
:104CC000029708F493C50E94021E0E94021E0E94D1
:104CD000112E60E086E699E00E94854087C519396B
:104CE00091F48091EA069091EB06059708F47EC551
:104CF0000E94021E0E94141E88EE96E00E946532F9
:104D00001092F30873C51A3971F48091EA069091F4
:104D1000EB06029708F46AC50E94021E0E94021E5A
:104D20000E94B733EDCF1C3999F48091EA06909137
:104D3000EB06029708F45AC50E94021E0E94021E4A
:104D400091E0813009F090E0892F0E94967C4EC559
:104D50001D39A1F48091EA069091EB06459708F47D
:104D600045C50E94141E0E94141E0E94141E0E941B
:104D7000141E0E94141E0E94021E38C51E3909F01E
:104D800035C58091EA069091EB06059708F42EC58B
:104D90000E94021E0E94141E6B017C012FE632E16C
:104DA00043E85AE30E945FE387FF03C0C12CD12C84
:104DB000760142E0C701B6010E9471740E94181486
:104DC00015C56996BFAD6997B1506996BFAF699730
:104DD000B11105C086E699E00E94333C07C51B3837
:104DE00009F0EEC08091EA069091EB06499708F42D
:104DF00053C40E94021EE1E0E0937C060E94141E50
:104E00002C966CAF7DAF8EAF9FAF2C970E94141E77
:104E100060966CAF7DAF8EAF9FAF60970E94141EFF
:104E200064966CAF7DAF8EAF9FAF64970E94141EE7
:104E300022966CAF7DAF8EAF9FAF22970E94141E5B
:104E40006AA77BA78CA79DA780917916882351F02C
:104E500060E0CE01CE960E94FB1161E0CE018A9601
:104E60000E94FB110E94141E68966CAF7DAF8EAF3E
:104E70009FAF689780917F068823C9F08091E706ED
:104E800081110BC022968CAD9DADAEADBFAD22970A
:104E90008AA79BA7ACA7BDA70AC08AA59BA5ACA55E
:104EA000BDA522968CAF9DAFAEAFBFAF2297229625
:104EB0008CAD9DADAEADBFAD22978093A006909313
:104EC000A106A093A206B093A3064AA45BA46CA477
:104ED0007DA48091A4069091A506A091A606B0910C
:104EE000A70693018201081B190B2A0B3B0BD90162
:104EF000C80168017901FF0CCC08DC2C760198010F
:104F0000AD016C2D7C2D8C2D9C2DA090C006B090F9
:104F1000C106C090C206D090C306E090C406F090CF
:104F2000C5060091C6061091C7060E9443E820936B
:104F3000C0063093C1064093C2065093C3066093E7
:104F4000C4067093C5068093C6069093C706409228
:104F5000A4065092A5066092A6067092A7060E942B
:104F6000E31122968CAC9DACAEACBFAC22978DA564
:104F70008F938CA58F938BA58F938AA58F9364961F
:104F8000CCACDDACEEACFFAC649760960CAD1DAD67
:104F90002EAD3FAD60972C964CAD5DAD6EAD7FAD47
:104FA0002C97CE0101960E942643E12C00E010E0F0
:104FB000980168964CAD5DAD6EAD7FAD6897CCC184
:104FC0001E3809F0CEC18091EA069091EB064A970F
:104FD00008F462C30E94021E11E010937C060E9436
:104FE000141E64966CAF7DAF8EAF9FAF64970E9426
:104FF000141E68966CAF7DAF8EAF9FAF68970E940E
:10500000141E6D966CAF7DAF8EAF9FAF6D970E94F3
:10501000141E28966CAF7DAF8EAF9FAF28970E946D
:10502000141E22966CAF7DAF8EAF9FAF22970E9469
:10503000141EA1966CAF7DAF8EAF9FAFA1970E945B
:10504000021E29968FAF299780917F06882399F1B8
:105050008091E706811117C028968CAD9DADAEAD4D
:10506000BFAD289722968CAF9DAFAEAFBFAF229752
:1050700029968FAD29978F7E29962FAD299723FFEB
:1050800017C0806115C022968CAD9DADAEADBFAD91
:10509000229728968CAF9DAFAEAFBFAF28972996C9
:1050A0008FAD2997877F29963FAD299734FD88607A
:1050B00029968FAF299780917916882359F02996E0
:1050C0004FAD2997BE01625C7F4FCE018C5B9F4F35
:1050D0000E94BB1228968CAD9DADAEADBFAD28979A
:1050E0008AA79BA7ACA7BDA722968CAD9DADAEAD00
:1050F000BFAD22978EA79FA7A8ABB9ABA8EBB6E030
:10510000A796BFAFAEAFA7971E01BAE22B0E311C18
:10511000E0EAF6E0A596FFAFEEAFA59773E0472E65
:10512000512C2996BFAD2997AB2FB0E0A396BFAF06
:10513000AEAFA397A3968EAD9FADA397042C02C0EC
:10514000959587950A94E2F780FF53C0F10160803E
:1051500071808280938074016301FF0CCC08DC2C89
:1051600076019301A4016C2D7C2D8C2D9C2DA7968E
:10517000AEADBFADA797AC901196BC9011971296AB
:10518000CC9012971396DC9013971496EC9014978A
:105190001596FC90159716960C91169717961C91DC
:1051A00017970E9443E82C9311963C9311971296FF
:1051B0004C93129713965C93139714966C931497D1
:1051C00015967C93159716968C93169717969C9325
:1051D000A596EEADFFADA5974081518162817381A7
:1051E000460D571D681D791D40835183628373836B
:1051F00060C0D1010D911D912D913C9160960CAF35
:105200001DAF2EAF3FAF6097A596EEADFFADA59752
:10521000408151816281738148015901841A950A44
:10522000A60AB70A75016401FF0CCC08DC2C7601D4
:105230009401A5016C2D7C2D8C2D9C2DA796AEADD7
:10524000BFADA797AC901196BC9011971296CC90D9
:1052500012971396DC9013971496EC90149715966A
:10526000FC90159716960C91169717961C91179708
:105270000E9443E82C9311963C93119712964C93FD
:10528000129713965C93139714966C931497159634
:105290007C93159716968C93169717969C93609609
:1052A0000CAD1DAD2EAD3FAD609700831183228301
:1052B0003383BFEF4B1A5B0AA796EEADFFADA797FE
:1052C0003896A796FFAFEEAFA797F4E02F0E311CEC
:1052D000A596AEADBFADA5971496A596BFAFAEAFE0
:1052E000A597B5E04B16510409F024CF0E94E311B5
:1052F00028968CAC9DACAEACBFAC289722968FADF7
:1053000022978F9321968FAD21978F938FAD8F9397
:105310008EAD8F936D96CCACDDACEEACFFAC6D97E3
:1053200068960CAD1DAD2EAD3FAD689764964CAD43
:105330005DAD6EAD7FAD6497CE0101960E942643B0
:105340002996EFAC2997A1960CAD1DAD2EAD3FADC2
:10535000A19740E050E0BA01CE0101960E94BA77D1
:1053600097C11B3909F098C18091EA069091EB062C
:10537000809708F491C10E94021EE1E0E0937C0650
:105380000E94141E60966CAF7DAF8EAF9FAF60978A
:105390000E94141E64966CAF7DAF8EAF9FAF649772
:1053A0000E94141E68966CAF7DAF8EAF9FAF68975A
:1053B0000E94141E28966CAF7DAF8EAF9FAF2897CA
:1053C0000E94141E22966CAF7DAF8EAF9FAF2297C6
:1053D0000E94141E6D966CAF7DAF8EAF9FAF6D9720
:1053E0000E94021E182F0E94141EA1966CAF7DAF62
:1053F0008EAF9FAFA1970E94061EA3969FAF8EAF60
:10540000A39780917F06811105C01F7729961FAF52
:10541000299733C08091E706811118C028968CAD7A
:105420009DADAEADBFAD289722968CAF9DAFAEAF10
:10543000BFAF2297F12FFF762996FFAF299713FF71
:105440001CC0F0612996FFAF299717C022968CAD3A
:105450009DADAEADBFAD229728968CAF9DAFAEAFE0
:10546000BFAF2897012F077729960FAF299714FF11
:1054700004C0086029960FAF299780917916882378
:1054800059F029964FAD2997BE01625C7F4FCE013E
:105490008C5B9F4F0E94BB1228968CAD9DADAEAD2C
:1054A000BFAD28978AA79BA7ACA7BDA722968CADB6
:1054B0009DADAEADBFAD22978EA79FA7A8ABB9ABF0
:1054C000E8EBF6E01E011AE2210E311CA0EAB6E07C
:1054D000A796BFAFAEAFA79743E0442E512C2996B5
:1054E000BFAD2997AB2FB0E0A596BFAFAEAFA597E4
:1054F000A5968EAD9FADA597042C02C09595879576
:105500000A94E2F7D1016D907D908D909C9080FF80
:1055100031C074016301FF0CCC08DC2C76019301CF
:10552000A4016C2D7C2D8C2D9C2DA080B180C2807F
:10553000D380E480F580068117810E9443E82083B0
:105540003183428353836483758386839783A796CD
:10555000AEADBFADA7974D915D916D917C911397C5
:10556000460D571D681D791D4D935D936D937C937A
:10557000139734C0A796AEADBFADA7974D915D917F
:105580006D917C91139794018301041B150B260BDD
:10559000370BC901B80168017901FF0CCC08DC2C7C
:1055A00076019B01AC016C2D7C2D8C2D9C2DA08057
:1055B000B180C280D380E480F580068117810E948B
:1055C00043E82083318342835383648375838683D6
:1055D00097836D927D928D929C921397BFEF4B1A99
:1055E0005B0A389604E0200E311CA796AEADBFAD25
:1055F000A7971496A796BFAFAEAFA797B5E04B1687
:10560000510409F075CF0E94E31170907A16299623
:10561000EFAD29977E2A28968CAC9DACAEACBFAC82
:10562000289722968FAD22978F9321968FAD219741
:105630008F938FAD8F938EAD8F936896CCACDDAC8E
:10564000EEACFFAC689764960CAD1DAD2EAD3FADD2
:10565000649760964CAD5DAD6EAD7FAD6097CE0149
:1056600001960E942643A396CEACDFACA397A196E9
:10567000ECACFDAC0EAD1FADA197272D6D964CADDA
:105680005DAD6EAD7FAD6D97CE0101960E945079F4
:105690000F900F900F900F902091EA063091EB063B
:1056A0008091E8069091E9062817390781F00E9459
:1056B0005044882361F00E94A444882341F00E9452
:1056C000B144682F88EE96E00E94BB1DE5CF60E0F4
:1056D00070E088EE96E00E94AD1DFC011081A89557
:1056E0000C94A02181E08093010263CA8091EA06B4
:1056F0009091EB06029708F479C00E94021E0E9466
:10570000021E8093E7060E94997C70C09091E70684
:10571000911108C0982F9F7E83FF0CC0892F806154
:105720000C940822982F977F84FF04C0892F8860EB
:105730000C940822892F0C9408228091EA069091FB
:10574000EB06459708F452C00E94021E0E94141EE8
:105750002B013C010E94141E2C966CAF7DAF8EAFC6
:105760009FAF2C970E94141E6B017C010E94141E97
:105770004B015C010E94141E20917F06222349F0F8
:105780002091E706211103C0B401C50102C04B01FD
:105790005C018092A0069092A106A092A206B0920F
:1057A000A3066093A4067093A5068093A606909323
:1057B000A7069F938F937F936F932C960CAD1DAD8F
:1057C0002EAD3FAD2C97B301A201CE0101960E94F0
:1057D0002643CE0101960E94481360E0CE01019657
:1057E0000E94DA750F900F900F900F90CA59DF4FFB
:1057F0000FB6F894DEBF0FBECDBFDF91CF911F91E2
:105800000F91FF90EF90DF90CF90BF90AF909F905F
:105810008F907F906F905F904F903F902F90089562
:1058200040E065E174E087EF98E00E944FDDE8EE2C
:10583000F6E080E092E091838083138212821582E9
:10584000148282EF96E097838683108611868DEC12
:1058500096E00E94254386E796E00E94F6DF80E707
:1058600096E00E94F6DF8AE696E00E94F6DF84E684
:1058700096E00C94F6DFCF93DF931F921F92CDB783
:10588000DEB721E0298322E32A8342E050E0BC0115
:10589000CE0101960E9403E90F900F90DF91CF9106
:1058A0000895CF93DF93EC0140E050E060EE70E4A8
:1058B0000E94EEA246E656E666EA7EE3CE01029636
:1058C0000E94EEA240E050E060E172E4CE01049656
:1058D000DF91CF910C94EEA2CF93DF93EC010A9667
:1058E0000E94512CCE0140960E94512CCE014A9626
:1058F000DF91CF910C943B2C0F931F93CF93DF93A9
:1059000000D0CDB7DEB78C0167E00E940DE961E001
:10591000C80102960E940DE98FEF89838A838B83E9
:10592000B8016C5F7F4F43E050E0CE0101960E94CA
:1059300003E90F900F900F90DF91CF911F910F917E
:10594000089567E080E491E00C946AA2682F80E4F7
:1059500091E00C940DE9FF920F931F93CF93DF9387
:1059600000D0CDB7DEB7F82E062F142F68E080E404
:1059700091E00E940DE9F9820A831B8343E050E025
:1059800064E471E0CE0101960E9403E90F900F904C
:105990000F90DF91CF911F910F91FF900895CF92BB
:1059A000DF92EF92FF92CF93DF936B017C01EA01CC
:1059B000CA010E9423E9B701CE010496DF91CF917D
:1059C000FF90EF90DF90CF900C9423E9AC01809191
:1059D000CA029091CB02A091CC02B091CD02BC0141
:1059E000CD010E94CF2C0895CF93DF93EC0166EE9A
:1059F00070E00E9423E966EE70E0CE0102960E94FC
:105A000023E964E670E0CE0104960E9423E965E094
:105A1000CE010696DF91CF910C940DE961E08EE600
:105A200091E00E940DE968EE73E082E791E00E9448
:105A300023E968EE73E084E791E00E9423E966E9D8
:105A400070E086E791E00E9423E960ED77E088E767
:105A500091E00E9423E960ED77E08AE791E00E94FF
:105A600023E96FE070E08CE791E00E9423E96FE0AA
:105A700070E08EE791E00E9423E96AE070E080E840
:105A800091E00E9423E964E170E082E891E00E94E5
:105A900023E964E170E084E891E00E9423E944EFA7
:105AA00051E060E070E088ED91E00E941BE94CE776
:105AB00055E160E070E08CED91E00E941BE960E14F
:105AC00070E080EE91E00E9423E960E170E082EEF8
:105AD00091E00E9423E960E08BE092E00E940DE9F2
