:100000000C949A0F0C94CE0F0C94CE0F0C94CE0F30
:100010000C94CE0F0C94CE0F0C94CE0F0C94CE0FEC
:100020000C94CE0F0C94CE0F0C94CE0F0C94CE0FDC
:100030000C94CE0F0C94583A0C94CE0F0C94CE0F17
:100040000C94CE0F0C942E3A0C94CE0F0C94CE0F31
:100050000C94CE0F0C94CE0F0C94CE0F0C94CE0FAC
:100060000C94CE0F0C9410DE0C94CE0F0C943CDE4E
:100070000C94CE0F0C94479F0C94CE0F0C94CE0F83
:100080000C94CE0F0C94CE0F0C94CE0F0C94CE0F7C
:100090000C94CE0F0C94CE0F0C94CE0F0C94CE0F6C
:1000A0000C94CE0F0C94CE0F0C94CE0F0C94CE0F5C
:1000B0000C94CE0F0C94CE0F0C94CE0F0C94803A6F
:1000C0000C94CE0F0C94CE0F0C94CE0F0C94CE0F3C
:1000D0000C94CE0F0C94CE0F0C94CE0F0C94CE0F2C
:1000E0000C94CE0FA633EE33F033CB33FD3399347B
:1000F0009934CB332634993434343F345334583420
:10010000993499340534CB3321349934B4330134E0
:100110005D346E3475349934993479347A808180C1
:1001200083807D807780878095808B80A9CDC6CDA8
:10013000D3CDFCCD1BCE2ECE3CCE6DCE99CE52650E
:10014000706C6963617430722032001704C800005B
:1001500000DC0027056400000078007505C8000079
:1001600000DC002006640000007800E006C8000003
:1001700000DC002006C8000000DC002006C80000EB
:1001800000DC002D08C80000000000C00DC8000001
:10019000001400C00DC800000014005A10C8000070
:1001A000001400C00D9001000000007003900100D9
:1001B0000014005504C800000014002705C8000002
:1001C0000014007003900100000000C805C8000082
:1001D000001400C805C80000001400C805C80000CD
:1001E000001400DD04B004000014007505C8000010
:1001F0000014007505C800000014007505C8000053
:100200000014009704B00400000000C00DC80000F6
:10021000001400C00DC80000001400910E900100F1
:100220000014005A10900100001400C00D200300BB
:100230000000007003BC000000BC00E006BC000031
:1002400000BC00B807BC000000BC002D08BC00A921
:1002500008BC000000BC00C00D4D0100000000C043
:100260000D20010000BC005311BC000000BC005B6D
:1002700012B101000000009302690000006900EE65
:10028000016900000069002601B801000000002497
:10029000F4D43050C38E20C2A24017828B7011124A
:1002A0007A910D816CD90AA861E108C75866076187
:1002B0005143061E4B5D05C145A7041A41110409AF
:1002C0003D9803713931034036DB0265339102D426
:1002D000305402802E1D02632CEE01752AC501B038
:1002E00028A001102781018F2564012B244B01E0F8
:1002F000223401AC211F018D200D01801FFC0084E0
:100300001EED00971DDF00B81CD200E61BC60020C2
:100310001BBC00641AB200B219A8000A19A0006A36
:10032000189900D117910040178B00B51684003141
:10033000167E00B31579003A157300C7146F005884
:10034000146A00EE1366008813630025135E00C76D
:10035000125B006C12570015125400C1115100704D
:10036000114F0021114B00D61049008D1047004657
:1003700010440002104200C00F4000800F3E0042B7
:100380000F3C00060F3B00CB0E3800930E37005C8D
:100390000E3500270E3400F30D3200C10D310090F0
:1003A0000D3000600D2E00320D2D00050D2C00D9F2
:1003B0000C2B00AE0C2900850C29005C0C270035A5
:1003C0000C27000E0C2600E80B2400C40B2400A010
:1003D0000B23007D0B23005A0B2100390B21001841
:1003E0000B2000F80A1F00D90A1E00BB0A1E009D40
:1003F0000A1D00800A1D00630A1C00470A1B002C0E
:100400000A1B00110A1A00F7091A00DD091900C4B5
:10041000091900AB091900920917007B091800633C
:100420000917004C09160036091600200916000AA3
:10043000091500F5081500E0081400CC081400B8F0
:10044000081400A4081400900813007D0812006B23
:10045000081300580812004608120034081100233F
:100460000811001208110001081100F0071000E047
:10047000071000D0071000C0071000B0070F00A140
:1004800007100091070E0083070F0074070F006527
:10049000070E0057070E0049070E003B070D002E00
:1004A000070E0020070D0013070D0006070D00F9C9
:1004B000060C00ED060D00E0060C00D4060C00C88A
:1004C000060C00BC060C00B0060C00A4060B00993C
:1004D000060C008D060B0082060B0077060B006CE5
:1004E000060B0061060A0057060B004C060A004284
:1004F000060A0038060A002E060A0024060A001A18
:10050000060A001006090007060A00FD050900F4A6
:10051000050900EB050900E2050900D9050900D02D
:10052000050900C7050900BE050900B5050800ADAD
:10053000050800A50509009C050800940508008C25
:10054000050800840508007C050800740508006C97
:10055000050700650508005D050700560508004E03
:10056000050700470507004005080038050700316A
:100570000507002A050700230507001C05060016CD
:100580000507000F0507000805060002050700FB28
:10059000040600F5040700EE040600E8040600E285
:1005A000040700DB040600D5040600CF040600C9DA
:1005B000040600C3040600BD040600B7040600B12B
:1005C000040500AC040600A6040600A00405009B78
:1005D00004060095040500900406008A04050085C1
:1005E000040500800406007A040500750405007007
:1005F0000405006B04050066040500610405005C49
:1006000004050057040500520405004D0405004888
:10061000040500430405003E0404003A04050035C7
:10062000040500300404002C040500270404002302
:100630000405001E0404001A040400160405001139
:100640000404000D0404000904050004040400006F
:10065000040400FC030400F8030400F4030400F0A5
:10066000030400EC030400E8030400E4030400E0D6
:10067000030400DC030400D8030400D4030400D006
:10068000030400CC030400C8030300C503030024D3
:10069000F404D9201BC40C5C0E9804C4095F0265E5
:1006A000077101F405F900FB04B30048048700C199
:1006B0000369005803550003034500BE023A008455
:1006C00002310053022A002902250004022000E41E
:1006D000011C00C8011900AF011700980114008423
:1006E000011300710110006101100051010E00435F
:1006F000010D0036010B002B010B0020010B001532
:100700000109000C01090003010800FB000800F3C7
:10071000000800EB000700E4000600DE000600D839
:10072000000600D2000600CC000500C7000500C28C
:10073000000500BD000400B9000400B5000400B1CC
:10074000000400AD000400A9000400A5000300A2FD
:100750000003009F0004009B000300980003009525
:1007600000020093000300900003008D0002008B44
:10077000000300880002008600020084000300815C
:100780000002007F0002007D0002007B0002007971
:10079000000200770001007600020074000200727F
:1007A000000100710002006F0002006D0001006C8A
:1007B0000002006A00010069000200670001006693
:1007C0000001006500010064000200620001006198
:1007D000000100600001005F0002005D0001005C9C
:1007E0000001005B0001005A00010059000100589F
:1007F000000100570001005600010055000100549F
:10080000000100530000005300010052000100519C
:10081000000100500001004F0001004E0000004E9A
:100820000001004D0001004C0001004B0000004B96
:100830000001004A00010049000100480000004892
:10084000000100470001004600000046000100458D
:100850000000004500010044000100430000004387
:100860000001004200000042000100410000004180
:10087000000100400001003F0000003F0001003E79
:100880000000003E0001003D0000003D0001003C72
:100890000000003C0000003C0001003B0000003B69
:1008A0000001003A0000003A000100390000003960
:1008B0000001003800000038000000380001003757
:1008C000000000370001003600000036000000364E
:1008D0000001003500000035000000350001003443
:1008E0000000003400000034000100330000003339
:1008F000000000330001003200000032000000322E
:100900000001003100000031000000310001003022
:1009100000000030000000300001002F0000002F18
:100920000000002F0000002F0001002E0000002E0C
:100930000000002E0001002D0000002D0000002D01
:100940000000002D0001002C0000002C0000002CF5
:100950000000002C0001002B0000002B0000002BE9
:100960000000002B0001002A0000002A0000002ADD
:100970000000002A000100290000002900000029D1
:1009800000000029000000290001002800000028C4
:1009900000000028000000280000002800010027B7
:1009A00000000027000000270000002700000027AB
:1009B000000100260000002600000026000000269E
:1009C0000000002600010025000000250000002591
:1009D0000000002500000025000000250001002483
:1009E0000000002400000024000000240000002477
:1009F000000100230000002300000023000000236A
:100A0000000000230000002300000023000100225A
:100A1000000000220000002200000022000000224E
:100A20000000002200010021000000210000002140
:100A30000000002100000021000000210000002132
:100A40000001002000000020000000200000002025
:100A50000000002000000020000000200000002016
:100A60000001001F0000001F0000001F0000001F09
:100A70000000001F0000001F0000001F0001001EFA
:100A80000000001E0000001E0000001E0000008983
:100A900010990000000052657047204275696C642F
:100AA000009600FF83048800000014008C00000002
:100AB000000000000060F0FFFF00000000000000E8
:100AC000009B00000000000000000000000000008B
:100AD000000000000000A51C000018000020419547
:100AE0000484036901000014008304DC0500001481
:100AF00000901F8B0000000000000000A00F00000D
:100B00000000000000000000800000009B000000CA
:100B10000000000000A40F00000000000000000022
:100B2000006A0A0000180AD7233CAA019B000000B3
:100B300000000000000000000000000000000000B5
:100B400000A51C000018F62820419504891B95007B
:100B500000000042792068616E64206D6F76652028
:100B60007468652065782D00950100000074727529
:100B700064657220746F20646966666572656E7460
:100B800020009501000000706F736974696F6E73C7
:100B9000206F76657220746865202000950700003C
:100BA000006275696C6420706C6174666F726D2E82
:100BB0002E2E2E00950000000041646A757374208B
:100BC0007468652073706163696E67202000950109
:100BD0000000006265747765656E20746865206545
:100BE000787472756465720095010000006E6F7A0A
:100BF0007A6C6520616E6420706C6174666F726DD2
:100C000020009507000000776974682074686520EB
:100C10006B6E6F62732E2E2E009500000000756EB5
:100C20006465722074686520706C6174666F726DA3
:100C30002020009501000000616E6420612073682F
:100C4000656574206F6620706170657200950100A3
:100C50000000706C61636564206265747765656E21
:100C6000207468652020009507000000706C617496
:100C7000666F726D20616E64207468652E2E2E0082
:100C800095000000006E6F7A7A6C652E20576865BB
:100C90006E20796F75206172650095010000006417
:100CA0006F6E652C207072657373207468652020E8
:100CB00020202000950700000063656E7465722097
:100CC000627574746F6E2E00891F891F62003D0269
:100CD000000000002110422063308440A550C6600F
:100CE000E770088129914AA16BB18CC1ADD1CEE1E9
:100CF000EFF13112100273325222B5529442F77260
:100D0000D662399318837BB35AA3BDD39CC3FFF338
:100D1000DEE36224433420040114E664C774A4446F
:100D200085546AA54BB528850995EEE5CFF5ACC588
:100D30008DD55336722611163006D776F66695563F
:100D4000B4465BB77AA719973887DFF7FEE79DD7D8
:100D5000BCC7C448E5588668A778400861180228CF
:100D60002338CCC9EDD98EE9AFF9488969990AA928
:100D70002BB9F55AD44AB77A966A711A500A333A9F
:100D8000122AFDDBDCCBBFFB9EEB799B588B3BBB78
:100D90001AABA66C877CE44CC55C222C033C600C2F
:100DA000411CAEED8FFDECCDCDDD2AAD0BBD688DC8
:100DB000499D977EB66ED55EF44E133E322E511E7F
:100DC000700E9FFFBEEFDDDFFCCF1BBF3AAF599F18
:100DD000788F8891A981CAB1EBA10CD12DC14EF1B8
:100DE0006FE18010A100C230E3200450254046701E
:100DF0006760B9839893FBA3DAB33DC31CD37FE349
:100E00005EF3B1029012F322D2323542145277626D
:100E10005672EAB5CBA5A89589856EF54FE52CD518
:100E20000DC5E234C324A0148104667447642454BD
:100E30000544DBA7FAB79987B8975FE77EF71DC728
:100E40003CD7D326F2369106B0165766767615460D
:100E500034564CD96DC90EF92FE9C899E9898AB978
:100E6000ABA94458654806782768C018E10882385D
:100E7000A3287DCB5CDB3FEB1EFBF98BD89BBBAB88
:100E80009ABB754A545A376A167AF10AD01AB32AAD
:100E9000923A2EFD0FED6CDD4DCDAABD8BADE89DD8
:100EA000C98D267C076C645C454CA23C832CE01CFD
:100EB000C10C1FEF3EFF5DCF7CDF9BAFBABFD98F68
:100EC000F89F176E367E554E745E932EB23ED10E4D
:100ED000F01E78206D6F726521002A2050726573B4
:100EE00073200045726173696E672E2E2E00656552
:100EF00070726F6D5F64756D702E62696E206669C9
:100F00006C656E6F7420666F756E64005265616407
:100F1000206661696C65643B20454550524F4D2009
:100F20006D617920626520636F7272757074005212
:100F30006573746F72696E672E2E2E006565707210
:100F40006F6D5F64756D702E62696E2066696C6589
:100F5000616C72656164792065786973747300539C
:100F600044206361726420777269746520666169E8
:100F70006C656400536176696E672E2E2E00507288
:100F800065737320555020746F2070726F636565B0
:100F9000642E00796F757220626F7420696E6F70B5
:100FA000657261626C652E0054686973206D656EB0
:100FB000752063616E206D616B65005361696C66BD
:100FC0006973682076372E313020723031383632EE
:100FD0000041546D65676120313238302031342F43
:100FE00030372F3139002D2D2D205468696E672040
:100FF0003332303834202D2D2D2D0053462D52659F
:10100000706C696361746F72320020202020202090
:1010100020202020202020202020202020200020F0
:101020002020200020004320202020002F202020EE
:1010300043004F464600202025004D4158004641C0
:101040004E3A2D2D2D0001009403360009016B004E
:10105000D800A000BD00D500AB000A019D003F01F3
:10106000870074017F00A9017700DE017000130280
:101070006800480262007D025B00B2025400E70291
:101080004D001C03440051033A0086033000BB03AB
:101090002200F0030200FF030000D0FEC0FF18FF93
:1010A000D0FF63FFE0FFB1FFF0FF0000000052003F
:1010B0001000A4002000F80030004D014000A20103
:1010C0005000F70160004C027000A0028000F302A3
:1010D00090004503A0009703B000E903C0003B0463
:1010E000D0008D04E000E004F00033050001870526
:1010F0001001DB05200130063001DA065001436F94
:101100006F6C696E672046616E20506F7765720064
:10111000456C61707365643A2020202020303030A7
:101120006830306D0020736563730054696D65200D
:101130004C6566743A2020203030306830306D00C5
:10114000557365203020666F7220756E6C696D690D
:10115000746564004D6178205A2050726F6265207A
:1011600048697473005072696E74206F6273747290
:10117000756374696F6E202020646574656374659F
:10118000642E2020436865636B2074686570726903
:101190006E7420616E642065787472756465722E59
:1011A000205072657373204C45465420666F722040
:1011B0006D656E752E004175746F2D6C6576656C6E
:1011C000206661696C65640A546F6F2066617220E5
:1011D0006F7574206F66206C6576656C0050726563
:1011E00073732043454E54455220627574746F6E7C
:1011F00020746F20636F6E74696E75652E0054687D
:1012000065206275696C6420706C61746520697317
:1012100020206E6F74206C6576656C6564210054C7
:101220006865206275696C6420706C617465206902
:101230007320206C6576656C656421004175746F60
:101240002D6C6576656C2020302E303030306D6D21
:10125000004175746F2D6C6576656C20696E6163F5
:101260007469766520004175746F2D6C6576656CC8
:10127000206661696C65640A496E636F6D706C65A8
:1012800074652070726F62696E67004175746F2DAE
:101290006C6576656C206661696C65640A426164A0
:1012A0002070726F62696E6720706F696E74730070
:1012B0006265747765656E2070726F626520707408
:1012C000732E004D617820686569676874207661C7
:1012D0007269616E6365004175746F2D6C6576652A
:1012E0006C2056617269616E6365002050726F6296
:1012F00065204F6666736574004175746F2D6C656B
:1013000076656C204F66667365747300204465666D
:101310006C656374696F6E004175746F2D6C6576D2
:10132000656C2041646A0045726173652045657093
:10133000726F6D005344202D3E20456570726F6DB5
:1013400000456570726F6D202D3E20534400456549
:1013500070726F6D005072696E742054696D653AD9
:10136000202020682030306D004C61737420507252
:10137000696E743A20202020682030306D004C695E
:10138000666574696D653A20202020202068203031
:10139000306D00526573756D696E6720706F73698B
:1013A00074696F6E2E2E2E00436C656172696E67D4
:1013B000206275696C642E2E2E20202000447261FC
:1013C000696E696E6720706970656C696E652E2E36
:1013D0002E004C656176696E672070617573652EAD
:1013E0002E2E202020200043616E63656C6C696E98
:1013F00067207072696E742E2E2E2000456E746503
:1014000072696E672070617573652E2E2E20202004
:10141000005061757365206174205A506F733A20D3
:1014200000506C6174666F726D2054656D703A2067
:101430002020004C6566742054656D703A2000527F
:10144000696768742054656D703A200020546F6F8E
:101450006C68656164204F66667365743A00204F5E
:1014600066667365743A0055702F446E2F4C65663E
:10147000742F4D20746F207365740055702F446E67
:101480002F522F4C2F4D20746F20736574005072B3
:101490006F66696C65204E616D653A0053617665D3
:1014A00020546F2050726F66696C65004368616EEE
:1014B0006765204E616D6500446973706C617920C9
:1014C000436F6E66696700526573746F7265005290
:1014D000657365743A2070726573732043454E548A
:1014E00045520046696C2E20547269703A00466974
:1014F0006C616D656E743A00547269703A004C69A3
:1015000066653A0046696C616D656E74204F646F64
:101510006D657465720048656174657273204F660D
:10152000660043616E63656C205072696E74004C96
:10153000697665205A204F66667365742041646A37
:101540002E005072696E74205374617469737469EB
:101550006373004261636B20746F204D6F6E69741A
:101560006F72006D006D6D00486F6D65204F66668F
:10157000736574730050726F66696C6573004669B9
:101580006C616D656E743A202020202020302E3052
:101590006D6D0046696C616D656E743A005A506FEE
:1015A000736974696F6E3A202020005072696E74FE
:1015B0002054696D653A20202020206820206D008D
:1015C00054656D70657261747572652072656164D1
:1015D000732020206F7574206F662072616E6765BE
:1015E0002E20202020202020436865636B2077690F
:1015F00072696E672E0054656D70657261747572E4
:1016000065207265616473202020617265206661C7
:10161000696C696E672E20202020202020204368DE
:1016200065636B20776972696E672E0054656D7013
:10163000657261747572652064726F7070696E672F
:10164000436865636B20776972696E672E004E6F21
:10165000742068656174696E672070726F7065725E
:101660006C79436865636B20776972696E672E00D9
:1016700054656D70206C696D697420726561636872
:1016800065642E2053687574646F776E206F7220C6
:10169000726573746172742E00506C6174666F723F
:1016A0006D204661696C7572652120202000546FA1
:1016B0006F6C2031204661696C7572652120202095
:1016C000202000546F6F6C2030204661696C757269
:1016D0006521202020202000457874727564657291
:1016E000204661696C757265212020200048656183
:1016F000746572732073687574646F776E20647597
:1017000065746F20696E61637469766974790046E7
:10171000696C616D656E74206C6F61642F756E6CA1
:101720006F616463616E63656C65642064756520D8
:10173000746F20746865207072696F7220686561CB
:10174000746572206572726F72004D792074656DD8
:1017500070657261747572652077617320206368AB
:10176000616E6765642065787465726E616C6C7912
:101770002E20526573656C6563742066696C616DBB
:10178000656E742020206D656E7520746F207472F4
:101790007920616761696E2E0077616974696E678F
:1017A000200020204E4120202020006572726F72A0
:1017B0002100536574204C6967687473204F4E2074
:1017C00000536574204C6967687473204F46460067
:1017D0002843616E6E6F74205072696E7420436F7F
:1017E000707929005072696E7420416E6F7468655B
:1017F0007220436F7079004D61696E204D656E7582
:101800000053657420436F6F6C696E672046616E8C
:10181000204F46460053657420436F6F6C696E67B6
:101820002046616E204F4E20004368616E67652040
:101830004842502054656D70004368616E676520B2
:1018400054656D7065726174757265004368616E90
:101850006765205370656564004368616E67652045
:10186000457874727573696F6E0050617573652089
:101870006174205A506F7300446974746F20507201
:10188000696E74696E67004E2F4100502D53746F5E
:10189000702074726967676572656400502D5374B7
:1018A0006F7020496E76657274656400502D5374B4
:1018B0006F7020436F6E74726F6C00436865636B6A
:1018C00020534420526561647300457874727564D6
:1018D000657220486F6C640050617573652077698C
:1018E00074682048656174004F766572726964653A
:1018F00020476354656D700048425020696E7374D0
:10190000616C6C656400416363656C6572617469E8
:101910006F6E0045786974204D656E7500536F7564
:101920006E6400457874727564657220436F756EDD
:101930007400426F742053746174697374696373C3
:1019400000526573746F72652053657474696E67B5
:10195000730047656E6572616C2053657474696EBF
:1019600067730050726568656174205365747469AB
:101970006E6773004C6576656C204275696C6420F7
:10198000506C61746500456E61626C6520537465CE
:10199000707065727320200044697361626C652009
:1019A00053746570706572730056657273696F6EFB
:1019B00020496E666F726D6174696F6E0046696C66
:1019C000616D656E74204C6F6164696E6700486F6D
:1019D0006D652041786573004A6F67204D6F6465BF
:1019E000004D6F6E69746F72204D6F6465005574A1
:1019F000696C69746965730050726568656174002B
:101A00005072696E742066726F6D205344004920D5
:101A100074696D6564206F7574207768696C6520E2
:101A20002020617474656D7074696E6720746F2016
:101A30006865617420206D7920706C6174666F72C6
:101A40006D2E00492074696D6564206F7574207770
:101A500068696C65202020617474656D7074696EAE
:101A60006720746F206865617420206D7920657827
:101A70007472756465722E00556E61626C652074B7
:101A80006F2072656164205344202020636172647A
:101A900020706172746974696F6E73206F766572FD
:101AA00032474220696E2073697A652E2020466F86
:101AB000726D61746173204641542D3136206F720E
:101AC000202D33322E00556E61626C6520746F20BC
:101AD0007265616420746869732053442063617285
:101AE0006420666F726D61742E2020202020466F66
:101AF000726D6174206173204641542D3136206F20
:101B000072204641542D33322E00534420636172BB
:101B1000642072656164206572726F722E20546F4A
:101B20006F206D616E7920435243206572726F722F
:101B3000732E426164206361726420636F6E74610E
:101B4000637473206F72656C656374726963616C32
:101B5000206E6F6973652E005344206361726420A8
:101B600072656164206572726F7200534420636114
:101B70007264206E6F742070726573656E740053AA
:101B800044206361726420697320656D707479000C
:101B900043616E6E6F74206F70656E20746865208F
:101BA00066696C65005344206361726420726561EC
:101BB0006473206172652020206E6F7420676F69E6
:101BC0006E672077656C6C2E2020547279612064DA
:101BD0006966666572656E74206361726400492788
:101BE0006D20616C7265616479206275696C6469ED
:101BF0006E6700436F6C6420506175736500556EAD
:101C000070617573650050617573652020004361D4
:101C10006E63656C206C6F61642F756E6C6F6164B0
:101C20003F0043616E63656C207468697320707255
:101C3000696E743F0073657474696E67733F005218
:101C40006573746F726520666163746F727900509A
:101C50006C6174666F726D2020202020202020206F
:101C60002020004C65667420457874727564657236
:101C70002020202020200052696768742045787455
:101C8000727564657220202020200045787472757A
:101C90006465722020202020202020202020005059
:101CA00072657373206C65667420746F2063616E57
:101CB00063656C0045787472756465723A20202003
:101CC0002D2D2D2F2D2D2D43004842503A2D2D2DF9
:101CD0002F2D2D2D43004C2045787472756465724C
:101CE0003A202D2D2D2F2D2D2D4300522045787477
:101CF00072756465723A202D2D2D2F2D2D2D4300E8
:101D0000202D2D250048656174696E673A202020DA
:101D10002020202020202020200048656174696E4A
:101D2000673A00203C2D592020284D656E752920EA
:101D30002020202020202000203C2D582020284D2D
:101D4000656E752920205A2D3E202020002020205D
:101D50002020202020582D2020202020202020203E
:101D60002000202020202020284D656E752920206D
:101D7000592D3E20202000202020202020202058E7
:101D80002B20202020202020202020002020202068
:101D9000204A6F67206D6F6465202020202020205E
:101DA00000556E6C6F6164206C65667400556E6CD6
:101DB0006F616420726967687400556E6C6F61644E
:101DC000004C6F6164004C6F6164206C6566740048
:101DD0004C6F61642072696768740035206D696EAC
:101DE0007574652074696D656F75742068617365BD
:101DF0006C61707365642E2020507265737320745B
:101E000068652063656E74657220627574746F6EA8
:101E100020746F2020202066696E6973682E00424E
:101E20006567696E206C6F6164696E67206F7220F0
:101E3000202020756E6C6F6164696E672E20507271
:101E40006573732074686563656E7465722062756E
:101E500074746F6E207768656E202066696E697392
:101E60006865642E004578747275646572732061CC
:101E70007265206E6F7420202068656174696E67DA
:101E80002E2020436865636B207468652077697233
:101E9000696E672E00594553004E4F2000446F6E07
:101EA0006500457874727564657200506C61746683
:101EB0006F726D005475726E20486561746572733F
:101EC000204F4646005374617274205072656865F5
:101ED0006174696E670046726565205352414D20FA
:101EE000004F4646004F4E200000072AC92DBC3542
:101EF0009C366D3EFD4098441E48BD49FB5C946F86
:101F0000BB723A7EF77E068052813A8250822A84E2
:101F1000DC978598D19ED89EC39F90A197A2C9A611
:101F200011A79DA96AAD71ADB5D72CDC50DDC3DD1D
:101F300070DE7DDEEDEEFBE185EC91E201C0819388
:101F4000EF3FF907E0F3D9F311241FBECFEFD1E241
:101F5000DEBFCDBF16E0A0E0B2E0E8EDFBEC01E0B3
:101F60000BBF02C007900D92A235B107D9F72BE144
:101F7000A2E5B6E001C01D92AD3EB207E1F71FE059
:101F8000CAE9DFE004C02197FE010E9450E3C53793
:101F9000D107C9F70E9412360C94EAE50C940000B0
:101FA0006BBFFA01DC0102C007900D922150304056
:101FB000D8F708958091E30881110CC08091E20860
:101FC0008F5F8093E208853028F081E08093E308FA
:101FD00010926D06089581E00E944E3C60E080E022
:101FE0000C94EC3B8F929F92AF92BF92CF92DF9274
:101FF000EF92FF920F931F93CF93DF93C62FD0E002
:10200000FE01EE0FFF1FEE0FFF1FE057F94FC080DC
:10201000D180E280F380FC01408151816281738133
:102020004C195D096E097F09CC0FDD1FC457D94FCC
:10203000E881F9814F01A12CB12C84169506A606E2
:10204000B70644F58C01C80CD91CEA1CFB1CDB014B
:10205000CA0188199909AA09BB09AC0133272227AB
:102060006091BE027091BF028091C0029091C10246
:102070000E9484DEBB2797FDB095AB2FC80ED91EFA
:10208000EA1EFB1EF801C082D182E282F38219822D
:10209000188205C0CF01841B950B99838883DF913B
:1020A000CF911F910F91FF90EF90DF90CF90BF9055
:1020B000AF909F908F9008958F929F92AF92BF9212
:1020C000CF92DF92EF92FF920F931F93CF93DF9304
:1020D000FC0180809180A280B380C62FD0E0CC0F1D
:1020E000DD1FC457D94F688179816B01E12CF12C38
:1020F000C814D904EA04FB0424F58C01D501C401F9
:102100008C199D09AE09BF09AC01332722276091C4
:10211000BE027091BF028091C0029091C1020E94E4
:1021200084DEBB2797FDB095AB2FC80ED91EEA1EE3
:10213000FB1EF801C082D182E282F38219821882EA
:1021400004C06819790979836883DF91CF911F9161
:102150000F91FF90EF90DF90CF90BF90AF909F9046
:102160008F9008951F93CF93DF93EB01142F60E0BE
:1021700043FD03C00E94F20F02C00E945C1061E0A8
:10218000CE0114FD05C0DF91CF911F910C94F20F89
:10219000DF91CF911F910C945C100E94EB0F60E0D7
:1021A0008FEF0E94497AE8EDF6E0138212821582E1
:1021B0001482108611860C944932F894E8EDF6E00A
:1021C0002281338180819181821B930B78940895C1
:1021D000EF92FF920F931F93CF937C018B01C42F3B
:1021E0008DEA99E00E94CECAB7018DEA99E00E947B
:1021F000A6CAB8018DEA99E00E94A6CAE0913F0AFA
:10220000EE0FFF0BEF5CF54F808191818D5A994065
:1022100039F06DEA79E085E29AE00E9463A704C094
:102220008DEA99E00E940ECBC0930C0ACF911F91CA
:102230000F91FF90EF90089510920C0AE0913F0AE1
:10224000EE0FFF0BEF5CF54F808191818D5A994025
:1022500021F485E29AE00E9407A8E0913F0AEE0F80
:10226000FF0BEF5CF54F80819181DC01ED91FC91DA
:102270000480F581E02D0994809102020895CF92A7
:10228000DF92EF92FF920F931F93CF93DF93CDB71F
:10229000DEB7A0970FB6F894DEBF0FBECDBF20917A
:1022A0006E06222309F47FC08C01CE0101960E94A4
:1022B000567460E070E0C8010E945441FC01C08087
:1022C000D180E280F38060E070E0CE0101960E9450
:1022D0005441FC0180819181A281B381C81AD90A3D
:1022E000EA0AFB0ACD8ADE8AEF8AF88E61E070E0A6
:1022F000C8010E945441FC01C080D180E280F3807B
:1023000061E070E0CE0101960E945441FC018081A1
:102310009181A281B381C81AD90AEA0AFB0AC98E3F
:10232000DA8EEB8EFC8E62E070E0C8010E945441B0
:10233000FC01C080D180E280F38062E070E0CE01D9
:1023400001960E945441FC0180819181A281B38158
:10235000A7019601281B390B4A0B5B0BDA01C90157
:102360002D8F3E8F4F8F58A34D895E896F89788D51
:10237000452B462B472B61F4498D5A8D6B8D7C8DF7
:10238000452B462B472B21F4892B8A2B8B2B59F07D
:1023900080916E0683FF05C0CE0145960E942845B8
:1023A00002C010926E06A0960FB6F894DEBF0FBE64
:1023B000CDBFDF91CF911F910F91FF90EF90DF90F4
:1023C000CF90089510928B060895882311F080E431
:1023D00001C080E88093D5066093D2061092E5088C
:1023E0001092E408089581E08093D10608958091C9
:1023F000D506181634F48091D206811104C081E00C
:10240000089580E0089582E008958091D5060895AA
:1024100081E09091D506923008F480E00895CF9342
:10242000DF93CDB7DEB764970FB6F894DEBF0FBE6B
:10243000CDBF6093B9067093BA068093BB069093A4
:10244000BC06CE0101960E94567462E070E0CE0197
:1024500001960E944D41FC0140815181628173814E
:102460008091B9069091BA06A091BB06B091BC06C6
:10247000481759076A077B071CF01092B80603C07B
:1024800081E08093B80664960FB6F894DEBF0FBE65
:10249000CDBFDF91CF9108956091B9067091BA06D2
:1024A0008091BB069091BC0608952091DA06309188
:1024B000DB0681E0232B09F080E00895CF9360E0F4
:1024C00070E0CB010E940F121092B80610927A06AB
:1024D00010927B0610927C0610927D0610927E066A
:1024E000C1E0C09301021092E6081092D606109245
:1024F000D5061092D4061092D3061092D2061092EE
:10250000A8061092A9061092AA061092AB06109285
:10251000AC061092AD061092AE061092AF06109265
:1025200098061092990610929A0610929B061092A5
:102530009C0610929D0610929E0610929F06109285
:1025400090061092910610929206109293061092A5
:10255000B0061092B1061092B2061092B306109215
:10256000B4061092B5061092B6061092B7061092F5
:10257000A0061092A1061092A2061092A306109235
:10258000A4061092A5061092A6061092A706109215
:10259000940610929506109296061092970661E0A6
:1025A00082E490E00E945CA0823009F042C060E0CA
:1025B0008FEF9FE00E945CA08823D9F1C0936F0643
:1025C0001092750610927606109277061092780691
:1025D0001092740610927006109271061092720694
:1025E000109273061092E5081092E2081092E30828
:1025F00010926D061092E40810928A0610928906D5
:102600001092860610928506109288061092870610
:1026100010928406109283061092800610927F0614
:10262000109282061092810610926E06CF910C9441
:10263000CB4510926F06C4CF0E945E1285E6809350
:102640000202E8EDF6E013821282158214821086EF
:10265000118610926C06089581E090916C06963078
:1026600009F080E0089580916E0683FF16C0909176
:102670000002992391F080916C06833071F0809173
:10268000E308882351F080916D068F5F80936D067B
:10269000981718F481E08093E40808958F929F9230
:1026A000AF92BF92CF92DF92EF92FF920F931F9360
:1026B000CF93DF93CDB7DEB7AA970FB6F894DEBFFE
:1026C0000FBECDBF882321F091E090938B0605C00B
:1026D00090918B06992309F4ECC0F82ECE01459613
:1026E0000E94567481E089A78AA76E0189E2C80E0C
:1026F000D11C03E010E086EA9AE0FC01E55AFF4FA6
:102700002081FC01222319F0208D318D04C0EA5B69
:10271000FF4F20813181232B91F10A960E9487A4DB
:10272000882369F1F6018081F81224C0812C912C54
:1027300054018394402F60E070E080E090E40E94B8
:102740006472A50194010E94CBE24B015C01B801C7
:10275000CE0145960E945441FC0140815181628125
:102760007381840E951EA61EB71E80829182A2825E
:10277000B38205C088248A94982C5401DBCF04309E
:10278000110509F08EC060ED77E08CEE91E00E94BB
:1027900065A0BC0180E090E00E9409E12091C11594
:1027A0003091C2154091C3155091C4150E9411E299
:1027B0009B01AC0160E074E284E799E40E9425E0AB
:1027C0000E94D3E04B015C0180916F06882329F1C0
:1027D0008091D70681110AC064E070E0CE01459671
:1027E0000E9454418C0163E070E009C063E070E036
:1027F000CE0145960E9454418C0164E070E0CE0108
:1028000045960E945441FC0180819181A281B3814F
:10281000F80180839183A283B383E12C00E010E070
:102820009801B501A401CE0145960E94AD75F11045
:1028300040C0CE0101960E94567463E070E0CE0164
:1028400001960E9454418C0163E070E08DEB96E0AC
:102850000E945441FC0180819181A281B381F801E1
:1028600080839183A283B38364E070E0CE010196FC
:102870000E9454418C0164E070E08DEB96E00E9470
:102880005441FC0180819181A281B381F801808350
:102890009183A283B38360E0CE0101960E94CD7341
:1028A00008C0FFEFCF1ADF0A87E19BE004E010E0E9
:1028B00024CFAA960FB6F894DEBF0FBECDBFDF912E
:1028C000CF911F910F91FF90EF90DF90CF90BF902D
:1028D000AF909F908F9008952F923F924F925F926A
:1028E0006F927F928F929F92AF92BF92CF92DF9220
:1028F000EF92FF920F931F93CF93DF93CDB7DEB785
:10290000C856D1090FB6F894DEBF0FBECDBF182F41
:10291000CE01CD960E941841CE0189960E941841A1
:10292000112309F433C1E4E3F5E18EEB95E124854D
:10293000222309F4B2C22385222309F4AEC2BE9633
:102940008E179F07A1F784E1EDEBF6E0DE015596C7
:1029500001900D928A95E1F7CE0101960E9456747E
:1029600060E070E0CE0145960E9454418C01409198
:1029700045155091461560914715709148158EE0A8
:1029800090E00E9474A06B017C0180E00E9446727E
:1029900020E030E040EA50E40E9411E20E94D3E0DF
:1029A000C61AD70AE80AF90AF801C082D182E2827F
:1029B000F38261E070E0CE0145960E9454418C01A3
:1029C000409173155091741560917515709176153D
:1029D00082E190E00E9474A06B017C0181E00E9482
:1029E000467220E030E040EA50E40E9411E20E948A
:1029F000D3E0C61AD70AE80AF90AF801C082D182E0
:102A0000E282F38262E070E0CE0145960E9454417A
:102A10008C0162E070E0CE0101960E945441FC01FD
:102A2000C080D180E280F38082E00E94467220E084
:102A300030E040EA50E40E9411E20E94D3E0C60E6A
:102A4000D71EE81EF91EF801C082D182E282F3820D
:102A500062E070E0CE0145960E945441FC01408145
:102A60005181628173818091A1159091A215A091ED
:102A7000A315B091A41584179507A607B7079CF472
:102A800062E070E0CE0145960E9454414091A1154C
:102A90005091A2156091A3157091A415FC0140837B
:102AA00051836283738362E070E0CE0101960E94DD
:102AB0005441FC01C080D180E280F38062E070E08C
:102AC000CE0145960E945441FC0180819181A281F2
:102AD000B3818C159D05AE05BF05BCF462E070E0C6
:102AE000CE0145960E9454418C0162E070E0CE0117
:102AF00001960E945441FC0180819181A281B381A1
:102B0000F80180839183A283B38363E070E0CE01F8
:102B100045960E9454418C0163E070E0CE0101961D
:102B20000E945441FC0180819181A281B381F8010E
:102B300080839183A283B38364E070E0CE014596E5
:102B40000E9454418C0164E070E0CE0101960E9425
:102B50005441FC0180819181A281B381F80180837D
:102B60009183A283B383BE016B5E7F4FCE018F5AE8
:102B70009F4F0E94907384E1FE01EF5AFF4FDE01E8
:102B8000999601900D928A95E1F757C084E1EDEB9B
:102B9000F6E0DE01999601900D928A95E1F7CE015B
:102BA00045960E94567464E070E0CE0189960E94BA
:102BB0005441FC01108101813280238063E070E088
:102BC000CE0189960E945441FC0180809180A280B0
:102BD000B38062E070E0CE0145960E945441FC0152
:102BE000C080D180E280F38061E070E0CE01459644
:102BF0000E945441FC01408051806280738060E0FB
:102C000070E0CE0145960E945441FC014081518103
:102C1000628173812F923F920F931F9393018201E0
:102C2000CE0101960E94194160E0CE0101960E94FA
:102C3000CD730F900F900F900F906091971570913A
:102C400098158091991590919A150E940BE120E0BA
:102C500030E040E857E30E9411E220919315309153
:102C6000941540919515509196150E9411E20E947D
:102C7000D3E0A9966CAF7DAF8EAF9FAFA997CE0181
:102C80008F5A9F4F0E94567484E1FE01EF5AFF4F06
:102C9000DE01DD9601900D928A95E1F760E070E02B
:102CA000CE01CD960E945441FC01C080D180E280CB
:102CB000F38060E070E0CE0189960E945441FC01EF
:102CC00080819181A281B381A7019601281B390BD4
:102CD0004A0B5B0BCA01B9010E940BE12091371529
:102CE000309138154091391550913A150E9425E0E0
:102CF0002B013C0161E070E0CE01CD960E94544171
:102D0000FC01C080D180E280F38061E070E0CE0100
:102D100089960E945441FC0180819181A281B381F6
:102D2000A7019601281B390B4A0B5B0BCA01B9019D
:102D30000E940BE120916515309166154091671551
:102D4000509168150E9425E04B015C0162E070E043
:102D5000CE01CD960E945441FC01C080D180E2801A
:102D6000F38062E070E0CE0189960E945441FC013C
:102D700080819181A281B381A7019601281B390B23
:102D80004A0B5B0BCA01B9010E940BE1209193151C
:102D90003091941540919515509196150E9425E01B
:102DA0006B017C01A3019201C301B2010E9411E2F7
:102DB0002B013C01A5019401C501B4010E9411E25F
:102DC0009B01AC01C301B2010E949DDF4B015C017C
:102DD000A7019601C701B6010E9411E29B01AC0157
:102DE000C501B4010E949DDF0E9484E22B013C01D9
:102DF00080916F06882329F18091D70681110AC03E
:102E000064E070E0CE0189960E9454418C0163E039
:102E100070E009C063E070E0CE0189960E945441E1
:102E20008C0164E070E0CE0189960E945441FC015F
:102E300080819181A281B381F80180839183A283F3
:102E4000B383B0906A1610926A16609197157091CC
:102E500098158091991590919A150E940BE120E0A8
:102E600030E040E857E30E9411E220E030E040E823
:102E700052E40E9411E20E94D3E06B0183017201CF
:102E800020E0A9964CAD5DAD6EAD7FADA997CE01AA
:102E900089960E944377B0926A16C859DF4F0FB6E1
:102EA000F894DEBF0FBECDBFDF91CF911F910F9180
:102EB000FF90EF90DF90CF90BF90AF909F908F905A
:102EC0007F906F905F904F903F902F900895EF927A
:102ED000FF920F931F93CF93DF9328E0829FC0014F
:102EE0001124FC01E855F94FF08001811281D38152
:102EF000C481B581E680E7812F2D302F412F5D2FD2
:102F00006C2F7B2F8E2D9E2FA0E00E942CE554F479
:102F10000E9487E4F22E032F142FD52FC62FB72F30
:102F2000E82EE92F2F2D302F412F5D2F6C2F7B2F77
:102F30008E2D9E2FDF91CF911F910F91FF90EF90DB
:102F400008952F923F924F925F926F927F928F924D
:102F50009F92AF92BF92CF92DF92EF92FF920F9328
:102F60001F93CF93DF93C82F0E94671779011A012F
:102F70002B013C01A0E00E942CE509F00CF453C0A9
:102F800088E0C89FE00111244E0188E4881A8EEF82
:102F9000980A00E010E020E030E040E050E060E01F
:102FA00070E0C4010E9418A159016A01F62FE72FB1
:102FB0008C019701A101B201C301EF2EFE2E0E94E8
:102FC00005E589019A01AB01BC01C4010E946AA117
:102FD000DE01A856B94FFE01E855F94F80818C9368
:102FE000818111968C931197828112968C931297FE
:102FF000838113968C931397848114968C931497E2
:10300000858115968C931597868116968C931697C5
:10301000878117968C9310821182128213821482F8
:10302000158216821782DF91CF911F910F91FF9029
:10303000EF90DF90CF90BF90AF909F908F907F9058
:103040006F905F904F903F902F90089580E00E9486
:10305000A11781E00C94A117EF92FF920F931F9399
:10306000CF93DF9328E0829FC0011124FC01E85632
:10307000F94FF08001811281D381C481B581E6804E
:10308000E7812F2D302F412F5D2F6C2F7B2F8E2D21
:103090009E2FA0E00E942CE554F40E9487E4F22EBB
:1030A000032F142FD52FC62FB72FE82EE92F2F2D42
:1030B000302F412F5D2F6C2F7B2F8E2D9E2FDF9178
:1030C000CF911F910F91FF90EF900895CF92DF92D3
:1030D000EF92FF9280E00E942C18E42F43E0B901A8
:1030E0008E2F952F0E9452726B017C0181E00E940D
:1030F0002C18E42F44E0B9018E2F952F0E945272B4
:103100009B01AC01C701B6010E949DDF6B017C01F0
:1031100080E00E946717E42F43E0B9018E2F952FBE
:103120000E9452729B01AC01C701B6010E949DDF53
:103130006B017C0181E00E946717E42F44E0B90134
:103140008E2F952F0E9452729B01AC01C701B601D0
:103150000E949DDFFF90EF90DF90CF9008950F9336
:103160001F93CF93DF93D82F0AE716E0C0E0F80152
:10317000808181110FC08C2F0E947E7AF80180839C
:10318000DD2321F08C2F0E94847A04C064E18C2F0F
:103190000E94797ACF5F0F5F1F4FC53041F7DF91F3
:1031A000CF911F910F9108950F931F93CF930AE72B
:1031B00016E0C0E0F80160818C2F0E94797AF80156
:1031C00011928F01CF5FC530A9F7CF911F910F9159
:1031D0000895EF92FF920F931F93CF93DF93CDB794
:1031E000DEB764970FB6F894DEBF0FBECDBF8091F7
:1031F000D506853409F40BC190F5813409F461C01A
:10320000B8F4803209F4EEC1803409F43FC0823052
:1032100009F01FC20E941C116091D3067091D40660
:1032200021E040E086E599E00E941D3A81E0FDC181
:10323000833409F450C008F058C0CE0101960E94B2
:10324000567484E1FE013196ADEBB6E001900D922B
:103250008A95E1F781E00E944E1383E4E6C1843849
:1032600009F486C150F4813809F464C1833809F443
:1032700070C1803809F0EDC100C1863809F491C1F0
:1032800008F485C1873809F491C1E3C10E943C303C
:10329000853029F00E943C30843009F0BAC181E4C5
:1032A0008093D50681E064960FB6F894DEBF0FBE1A
:1032B000CDBFDF91CF911F910F91FF90EF900C94B4
:1032C000AF188091C40C9091C30C891B8F7009F0CA
:1032D000C0C182E4AAC18091C40C9091C30C891B27
:1032E0008F7009F0B6C184E4A0C181E00E946C1423
:1032F00085E48093D5060E943C30853039F00E94E9
:103300003C3011E0843019F010E001C011E08091F0
:10331000A00B8093790660E080E00E94EC3B8091F6
:10332000010B882329F08091BE0A9091BF0A04C046
:103330008091EC0A9091ED0A9093800680937F062D
:103340008091720B882329F080912F0B9091300B84
:1033500004C080915D0B90915E0B909382068093E8
:1033600081068091A20A882329F080915F0A9091BA
:10337000600A04C080918D0A90918E0A9093840611
:10338000809383068091D20681114BC160E08EEF5D
:103390009FE00E945CA0882309F443C18091D2067B
:1033A000882349F040E060E080E00E94218060E0F6
:1033B00088EF0E94497A6091D3067091D406611516
:1033C000710569F08091E608811105C0111103C0F3
:1033D0008CEF93E102C087EE93E141E00AC0111146
:1033E00003C08CEF93E102C087EE93E141E068EA0D
:1033F00073E164960FB6F894DEBF0FBECDBFDF91C8
:10340000CF911F910F91FF90EF900C94E810809155
:10341000C40C9091C30C891B8F7009F01AC10E94D3
:10342000D4188091E608882311F080E209C08091C9
:10343000D3069091D406892B11F481E001C082E07B
:103440008093D5060E941C110E943C30853009F4FF
:1034500000C10E943C30843009F4FBC087E06496D0
:103460000FB6F894DEBF0FBECDBFDF91CF911F9195
:103470000F91FF90EF900C94A44080E00E94AF1851
:103480000091890610918A060115110521F4009119
:103490008306109184061016110654F460E081E54D
:1034A0009AE00E940BA5B80181E59AE00E94B7A3BB
:1034B000E0908506F0908606E114F10421F4E09096
:1034C0007F06F09080061E141F0494F460E080EBE9
:1034D0009AE00E940BA5B70180EB9AE00E94B7A387
:1034E000101611062CF461E080EB9AE00E940BA507
:1034F000E0908706F0908806E114F10421F4E09052
:103500008106F09082061E141F0494F460E081E2AC
:103510009BE00E940BA5B70181E29BE00E94B7A34C
:10352000101611062CF461E081E29BE00E940BA5CD
:1035300081E87BC080918306909184061816190655
:103540000CF072C081E59AE00E9487A481116CC0E2
:1035500080C080917F0690918006181619060CF0A5
:1035600067C080EB9AE00E9487A4811161C071C09E
:1035700081E00E94AF1880E00E946C1485E880937F
:10358000D50641E063E973E182ED93E132CF8091AA
:10359000C40C9091C30C891B8F7009F05AC086E847
:1035A00044C080E00E944E1387E83FC08091C40C65
:1035B0009091C30C891B8F7009F04BC060E0809123
:1035C00079060E94EC3B0E94D4180E941C111092B4
:1035D000D5061092D4061092D3061092E5081092E8
:1035E000E40837C00E941C116091D3067091D40684
:1035F00021E040E086E599E00E941D3A0E94B64233
:103600001092D4061092D3061092E6081092D506B6
:1036100020C041E06DEB73E18CEF93E10E94E81074
:103620003ECE0E94EB0FBACE83E88093D50611C040
:1036300080918106909182061816190634F481E271
:103640009BE00E9487A4882321F00E94D41884E87C
:10365000ECCF64960FB6F894DEBF0FBECDBFDF91FE
:10366000CF911F910F91FF90EF9008958F929F92AD
:10367000AF92BF92CF92DF92EF92FF92CF93C09121
:103680000202C53609F453C0CC2309F450C0F090AF
:103690007406CF1509F44BC0FF2009F448C06091AF
:1036A0007006709171068091720690917306611593
:1036B000710581059105D9F10E9409E14B015C0179
:1036C0006C2F70E06F197109072E000C880B990B95
:1036D0000E940BE19B01AC01C501B4010E9425E0F1
:1036E0006B017C016C2F70E080E090E00E9409E1AA
:1036F0009B01AC0160E070E088EC92E40E949CDFEA
:103700009B01AC01C701B6010E9411E26B017C0173
:1037100020E030E0A9010E9420E087FF03C0C12C17
:10372000D12C7601C701B6010E94D3E003C060E04E
:1037300070E0CB01CF91FF90EF90DF90CF90BF90E2
:10374000AF909F908F900895FC0184819581860FA2
:10375000971F608171810E94E7E226813781820F85
:10376000931F08951F93CF93DF93EC012A813B8130
:10377000888199812817390770F4162F6A817B8117
:10378000CE010E94A41BFC0110838A819B810196BB
:103790009B838A8302C081E08887DF91CF911F914C
:1037A0000895682F88ED96E00C94B21BCF93DF93B9
:1037B000EC018A819B81892B21F481E0898780E05B
:1037C00015C060E070E0CE010E94A41BFC018C815A
:1037D0009D810196688179810E94E7E29D838C83B7
:1037E0008A819B8101979B838A838081DF91CF911E
:1037F000089588ED96E00C94D61BCF9388ED96E063
:103800000E94D61BC82F88ED96E00E94D61B982FE9
:103810008C2FCF9108951F93CF93DF9388ED96E07F
:103820000E94D61B182F88ED96E00E94D61BD82F39
:1038300088ED96E00E94D61BC82F88ED96E00E9486
:10384000D61B982F612F7D2F8C2FDF91CF911F9149
:103850000895CF92DF92EF92FF921F93CF93DF9361
:10386000C82F61E070E088ED96E00E94A41BFC0187
:103870001081CF3F09F01C2F62E070E088ED96E0E8
:103880000E94A41BFC0180818D3009F488C048F49B
:103890008C3008F071C0843008F0F0C0833071F0D3
:1038A0000BC0873109F45EC020F4803108F4E6C013
:1038B00003C08F3109F47FC010E000C164E070E004
:1038C00088ED96E00E94A41BFC01C081D0E065E079
:1038D00070E088ED96E00E94A41BFC01808190E0DE
:1038E000982F8827C80FD91F209719F40E942618EF
:1038F00014C0C12ED12C7601EE0CFF1CF701EB5742
:10390000F94F80819181892B09F0BAC060E08DEF79
:103910009FE00E945CA08111B3C0113019F086EACB
:103920009AE002C087E19BE0BE010A960E94B7A31D
:1039300081E59AE00E94B3A4882309F4B6C081E52A
:103940009AE00E94C8A48111B0C0113019F086EA33
:103950009AE002C087E19BE00A960E94C8A4811108
:10396000A4C07CC00E94F71191E0811190E060E05A
:10397000892F0E94953282C064E070E088ED96E065
:103980000E94A41BFC0160816170113019F086EA6D
:103990009AE002C087E19BE00E942AA26FC064E027
:1039A00070E088ED96E00E94A41B61E0FC0180813C
:1039B0000E94EC3B63C00E940A2D182F882309F453
:1039C0005DC064E070E088ED96E00E94A41BFC01FD
:1039D000C081EC2EF12C65E070E088ED96E00E944D
:1039E000A41BFC01C081D0E0DC2FCC27CE0DDF1D55
:1039F0002097D1F08091890690918A06892B39F41D
:103A000060E08DEF9FE00E945CA0882369F08091C8
:103A1000890690918A06009731F464E670E08CE59F
:103A200091E00E9465A0EC01BE0181E59AE00E9450
:103A3000B7A361E086E599E00E94E73B81E59AE063
:103A40000E94C8A491E089278093D6060E94603E18
:103A50008091A40B8E7F8093A40B30C081E0809373
:103A6000D6061130F9F086EA9AE061E00A960E94E3
:103A70000BA58091A40B8E7F8093A40B11E01EC038
:103A8000F701EB57F94F80819181009749F4C60106
:103A9000880F991F66EE70E0885A9E4F0E9465A0BD
:103AA000EC013BCF87E19BE0E0CF113019F086EAD3
:103AB0009AE002C087E19BE060E0D8CF812FDF91E0
:103AC000CF911F91FF90EF90DF90CF9008952F92AC
:103AD0003F924F925F926F927F928F929F92AF929E
:103AE000BF92CF92DF92EF92FF920F931F93CF93EB
:103AF000DF93CDB7DEB7C656D1090FB6F894DEBF57
:103B00000FBECDBF0E9443428823B9F08091DA06F0
:103B10009091DB062091D8063091D90628173907F5
:103B200049F10E949742882329F10E94A442682FFC
:103B300088ED96E00E94B21BE9CF0E949D7E88230B
:103B4000A1F18091DA069091DB062091D8063091A0
:103B5000D9062817390709F413C20E94AB7E8823BF
:103B600009F40EC20E94B97E682F88ED96E00E948B
:103B7000B21BE7CF0E949742811117C080910402C7
:103B8000882309F4F3C19091D5069111EFC191E01A
:103B90009093E608813009F0E1C18BE69BE19093B8
:103BA000D4068093D3060E94CD108091D606882338
:103BB00059F081E59AE00E9487A4882329F080E0EB
:103BC0000E94603E1092D6068091B9069091BA0686
:103BD000A091BB06B091BC06892B8A2B8B2B19F1C7
:103BE0008091B80681111FC0CE0101960E945674C3
:103BF00062E070E0CE0101960E944D41DC014D91E2
:103C00005D916D917C918091B9069091BA06A091D9
:103C1000BB06B091BC06481759076A077B071CF41E
:103C200081E08093B8068091B9069091BA06A09180
:103C3000BB06B091BC06892B8A2B8B2B79F1809126
:103C4000B806882359F10E94F711811127C0CE01CF
:103C500001960E94567462E070E0CE0101960E94C7
:103C60004D41FC0140815181628173818091B9068F
:103C70009091BA06A091BB06B091BC0648175907AF
:103C80006A077B075CF060E070E0CB010E940F12D6
:103C900060E081E00E9495320C94ED291091D506E8
:103CA000123020F00E94E9180C94ED291130F1F443
:103CB0008091D20681110C94ED298091D106811159
:103CC0000C94ED298DE09AE00E948CDD882311F49C
:103CD0000C94ED291093D2060E94EB0F40E060E0B7
:103CE00080E00E94218060E088EF8DC180916C06A9
:103CF000833071F40E94D172882341F080E696E00F
:103D00000E948CDD882321F00E94027E10926C06B6
:103D10008091E508811104C08091E408882329F18D
:103D20008091E308882309F180916C068330E9F0E3
:103D30008091D506811119C00E94F711811111C01F
:103D40008091E408882319F085E691E102C08BE8B0
:103D500098E19093D4068093D30661E081E00E94BD
:103D600095321092E50810926D0680916C068130B4
:103D700031F40E94D172811102C010926C068091C0
:103D80006C06823039F486E696E00E948CDD811163
:103D900010926C0680916C06843009F052C08AE55E
:103DA00096E00E948CDD882349F020E040E063E447
:103DB0007AE186E599E00E941D3A20C08091D706FD
:103DC000813019F487E19BE002C086EA9AE00A9606
:103DD0000E94B3A4811115C080916F06882371F0F1
:103DE0008091D706811103C087E19BE002C086EA7B
:103DF0009AE00A960E94B3A4811123C010926C0627
:103E000020C08091D706813019F487E19BE002C081
:103E100086EA9AE00A960E9487A4882391F080910E
:103E20006F06882359F38091D706882319F086EA14
:103E30009AE002C087E19BE00A960E9487A4811164
:103E4000DDCF80916C068530E1F48AE596E00E9432
:103E50008CDD882349F020E040E06EE07AE186E5E1
:103E600099E00E941D3AD3C081E59AE00E94B3A474
:103E7000882309F4CCC081E59AE00E9487A48111CF
:103E8000C6C080916C06863091F584E596E00E946C
:103E90008CDD882391F08091520681FF06C060E09E
:103EA00086E599E00E94783E22C010926C068091CF
:103EB000A40B8F7E8093A40B1AC085E29AE00E9427
:103EC00092A98823A1F08091520682FF04C085E266
:103ED0009AE00E9407A80E94593E8091A40B8F7E11
:103EE0008093A40B8FEF0E94658010926C068091E6
:103EF0006C0681110C94ED2960E070E088ED96E08D
:103F00000E94A41BDC011C910E94EC5B882359F0E9
:103F1000812F8F7E8B3811F01E3811F410920C0215
:103F200081E080930B02B0E26996BFAF6997809100
:103F3000DA069091DB06892B89F18091C40C90916F
:103F4000C30C891B8F708E3048F5812F8F7E8B3884
:103F500009F42EC51E3809F42BC520C08B3019F486
:103F60008AE09BE11CCE88E59BE119CE8091D306C7
:103F70009091D406892B09F018CE0E94B64215CE36
:103F80000E94AB7E811111CE8091DA069091DB0602
:103F9000892B09F00ACE0E94F47E07CE80910C0294
:103FA000811105C00E948D6481E080930C02809194
:103FB000DA069091DB06892B11F40C94ED2986E545
:103FC00099E00E94263A1B3809F41FC11E3809F4F3
:103FD0001CC11B3909F419C11938E1F48091DA06C2
:103FE0009091DB06029710F40C94ED290E94F91BC6
:103FF0000E94F91B90916F0691110C947D29682FF6
:10400000661F6627661F0E94497A0C94ED2910925C
:104010006C0637CF163811F40C946D291C3909F44D
:10402000F4C0812F8B7F803999F09DE7910F9230FA
:1040300078F0883849F0163909F4E7C00E94EC5B43
:10404000882311F40C94ED291C3811F40C94942954
:104050001538D1F48091DA069091DB06059710F4BB
:104060000C94ED2982E080936C060E94F91B0E945B
:104070000B1C9B01AC01A8EEB3E00E9468E3AB010E
:10408000BC0186E696E01AC11439A1F58091DA06E2
:104090009091DB06059710F40C94ED290E94F91B12
:1040A0000E94F91B809353060E94FD1B7C010E9415
:1040B000F91B80935206E114F10471F0D70120E45A
:1040C00032E44FE050E00E9468E3AB01BC0184E5BC
:1040D00096E00E945ADD87C0CE0101960E9457DD0E
:1040E00086E0FE013196A4E5B6E001900D928A9536
:1040F000E1F779C0153909F088C08091DA0690910E
:10410000DB06069710F40C94ED290E94F91B0E941F
:10411000F91B182F0E94F91BD82E0E94F91BE82EBC
:104120000E94F91BF82E10FD04C08DEA99E00E9450
:10413000CECAD092B009E092B10968ED76E08DEA7E
:1041400099E00E9432CA11FD02C00C94ED29E09161
:104150003F0AEE0FFF0BEF5CF54F808191818D5A86
:10416000994039F06DEA79E085E29AE00E9463A710
:1041700004C08DEA99E00E940ECB1470FF2049F034
:10418000111107C06F2D8DEA99E00E94FECA0C94B0
:10419000ED29112311F40C94ED29FF2079F0AF2DB6
:1041A000B0E020E432E44FE050E00E9468E3AB016D
:1041B000BC0184E596E00E945ADD0DC0CE01019657
:1041C0000E9457DD86E0FE013196A4E5B6E001903D
:1041D0000D928A95E1F781E0809353068091520613
:1041E0008470809352060E944F3E6091530685E290
:1041F0009AE00E948FA98091A40B80618093A40B08
:1042000086E080936C060C94ED298DE7810F823057
:1042100070F58091DA069091DB06089710F40C9403
:10422000ED290E94F91B0E94F91BF82E0E940B1C1D
:104230004B015C010E94FD1B23E020936C06DC0116
:1042400020E432E44FE050E00E9468E3AB01BC019F
:1042500080E696E00E945ADD81E0143809F080E0A3
:10426000A50194016F2D0E948C790C94ED291738CB
:1042700049F58091DA069091DB06069710F40C94CC
:10428000ED2984E080936C0681E08093E30810922E
:104290006D060E94F91B0E94F91B8093D7060E94AD
:1042A000FD1B0E94FD1BDC0120E432E44FE050E0E6
:1042B0000E9468E3AB01BC018AE596E00E945ADDEA
:1042C0000C94ED291D38A9F48091DA069091DB0653
:1042D000069710F40C94ED2985E080936C0681E03C
:1042E0008093E30810926D060E94F91B0E94F91B4F
:1042F000D6CF1F3809F09CC08091DA069091DB067A
:10430000029710F40C94ED290E94F91B0E94F91BEE
:10431000182FCE0101960E9456749EE0C92ED12C12
:10432000E12CF12CA12EB12CC5010E2C02C09595CB
:1043300087950A94E2F780FF17C0B701CE01019676
:104340000E945441FC0180819181A281B3818AA79E
:104350009BA7ACA7BDA7F89444E050E0B601CE01FE
:104360008A960E94C5E57894FFEFEF1AFF0A04E0F1
:10437000C00ED11C23E0E216F104B1F6112311F4B2
:104380000C94ED29812F887181130C94ED2918303C
:1043900021F0103121F012E003C010E001C011E063
:1043A00081E090E0012E01C0880F0A94EAF7909115
:1043B0006E06892B80936E0660E070E0CE01019658
:1043C0000E945441FC0180819181A281B3818AA71E
:1043D0009BA7ACA7BDA761E070E0CE0101960E944B
:1043E0005441FC0180819181A281B3818EA79FA756
:1043F000A8ABB9AB62E070E0CE0101960E945441D7
:10440000FC0180819181A281B3818AAB9BABACAB73
:10441000BDABF894FCE01F9FB00111246B5D714FA0
:104420004CE050E0CE018A960E94C5E57894D5C74D
:10443000103909F029C18091DA069091DB060297C4
:1044400008F4CBC70E94F91B0E94F91B182FCE015C
:104450008A960E945674183109F07AC080916E06CF
:104460008770873009F043C0F89444E050E066E17B
:1044700070E0CE01CE960E94A1E549E250E060E2F4
:104480007EE0CE0101960E94A1E578948A819B810D
:10449000AC81BD81181619061A061B0644F088EC7B
:1044A00090E0A0E0B0E08A839B83AC83BD8322963A
:1044B0002CAD3DAD4EAD5FAD22976A817B818C8185
:1044C0009D818E01025E1F4F6801DE0152967D01C3
:1044D000085111090E94EF45882339F080916E063A
:1044E000886080936E0610E003C012E001C011E006
:1044F000F89461E0111101C060E080E29EE00E944A
:10450000CFE578941123C1F0113019F486E692E1D9
:104510000CC00E9415486D3F7F4F8F4F9F4F19F47D
:104520008BE892E102C086EB91E19093D4068093F0
:10453000D3060E94CD1003C081E00E94CE7210927B
:10454000651610926616109267161092681645C787
:10455000183009F03EC0F89444E050E066E170E0A5
:10456000CE018C5B9F4F0E94A1E549E250E060E2E2
:104570007EE0CE0101960E94A1E578948CE390E064
:10458000A0E0B0E08A839B83AC83BD838E01025E92
:104590001F4F9E012E5E3F4FAE014A5F5F4F6CE39F
:1045A00070E080E090E00E94664540E06DED71E1D2
:1045B000882319F08FE192E102C08EEF91E10E9411
:1045C000E810CE01CE960E9457DD86E0FE01FE96F1
:1045D000FCCD103119F40E94CB45FFC68EE0A82E09
:1045E000B12CC12CD12CE12EF12CC7010C2C02C016
:1045F000959587950A94E2F780FF0CC0F894B60170
:10460000CE018A960E94544144E050E0B5010E94D8
:10461000A1E57894EFEFCE1ADE0AF4E0AF0EB11CFC
:1046200003E0C016D10409F763E070E0CE018A967A
:104630000E945441FC0180819181A281B3818093C9
:10464000900690939106A0939206B093930664E02F
:1046500070E0CE018A960E945441FC0180819181D4
:10466000A281B3818093940690939506A0939606B9
:10467000B0939706CE018A960E943F1161E0CE0169
:104680008A960E94CD73A9C6113999F48091DA06F1
:104690009091DB06039708F4A0C60E94F91B0E94C4
:1046A000F91B182F0E94F91B682F812F0E94797A1D
:1046B00094C61239E1F48091DA069091DB060697F0
:1046C00008F48BC60E94F91B0E94F91B182F0E9448
:1046D000F91BF82E0E94F91BE82E0E94F91B0E947C
:1046E000F91B4E2D6F2D812F0E943F8176C6133905
:1046F000B1F48091DA069091DB06069708F46DC656
:104700000E94F91B0E94FD1B7C010E94FD1B6C0195
:104710000E94F91BB601C7010E9443405EC61838CB
:1047200009F062C08091DA069091DB06049708F4E4
:1047300054C663E070E088ED96E00E94A41B2091CF
:10474000DA063091DB06DC01EC90F12CB4E0EB0EE4
:10475000F11C2E153F0508F440C680916F06882392
:1047600039F080910102882319F01092010203C0F0
:1047700081E08093010262E070E088ED96E00E94A3
:10478000A41BFC018081833059F062E070E088ED69
:1047900096E00E94A41BDC018C918C3009F099C535
:1047A0008091010281110DC061E070E088ED96E01A
:1047B0000E94A41BFC0181E09081992319F080E004
:1047C00001C08FEF0E94291C80910102882309F407
:1047D00004C610E0812F90E08E159F0508F0FDC5FE
:1047E0000E94F91B1F5FF6CF163909F041C0809176
:1047F000DA069091DB06039708F4EFC50E94F91BD7
:104800000E94F91B809302020E94F91B8091020210
:104810008823F1F08091750690917606A091770635
:10482000B0917806892B8A2B8B2B91F4809174069A
:1048300081110EC00E941531609375067093760643
:104840008093770690937806809102028093740695
:1048500080910202882309F4C0C50E94153160933B
:104860007006709371068093720690937306B5C5B7
:104870001739B9F48091DA069091DB060297B8F106
:104880000E94F91B0E94F91B811102C084E006C03E
:10489000813019F40E94A4402AC082E00E94DF40C7
:1048A00026C0183999F48091DA069091DB060297B8
:1048B00008F493C50E94F91B0E94F91B0E94042C66
:1048C00060E086E599E00E94783E87C5193991F449
:1048D0008091DA069091DB06059708F47EC50E9468
:1048E000F91B0E940B1C88ED96E00E945930109233
:1048F000E30873C51A3971F48091DA069091DB06EA
:10490000029708F46AC50E94F91B0E94F91B0E94D5
:10491000AC31EDCF1C3999F48091DA069091DB0629
:10492000029708F45AC50E94F91B0E94F91B91E0F6
:10493000813009F090E0892F0E94897A4EC51D3997
:10494000A1F48091DA069091DB06459708F445C5FD
:104950000E940B1C0E940B1C0E940B1C0E940B1C33
:104960000E940B1C0E94F91B38C51E3909F035C581
:104970008091DA069091DB06059708F42EC50E9417
:10498000F91B0E940B1C6B017C012FE632E143E80E
:104990005AE30E9420E087FF03C0C12CD12C76018E
:1049A00042E0C701B6010E9464720E940F1215C551
:1049B0006996BFAD6997B1506996BFAF6997B1115C
:1049C00005C086E599E00E94263A07C51B3809F024
:1049D000EEC08091DA069091DB06499708F453C443
:1049E0000E94F91BE1E0E0936C060E940B1C2C96E0
:1049F0006CAF7DAF8EAF9FAF2C970E940B1C609663
:104A00006CAF7DAF8EAF9FAF60970E940B1C64961A
:104A10006CAF7DAF8EAF9FAF64970E940B1C229648
:104A20006CAF7DAF8EAF9FAF22970E940B1C6AA721
:104A30007BA78CA79DA780916916882351F060E021
:104A4000CE01CE960E94F20F61E0CE018A960E94BE
:104A5000F20F0E940B1C68966CAF7DAF8EAF9FAFBC
:104A6000689780916F068823C9F08091D7068111DD
:104A70000BC022968CAD9DADAEADBFAD22978AA77F
:104A80009BA7ACA7BDA70AC08AA59BA5ACA5BDA541
:104A900022968CAF9DAFAEAFBFAF229722968CAD62
:104AA0009DADAEADBFAD22978093900690939106D9
:104AB000A0939206B09393064AA45BA46CA47DA431
:104AC0008091940690919506A0919606B0919706D4
:104AD00093018201081B190B2A0B3B0BD901C8015A
:104AE00068017901FF0CCC08DC2C76019801AD013E
:104AF0006C2D7C2D8C2D9C2DA090B006B090B10615
:104B0000C090B206D090B306E090B406F090B5061F
:104B10000091B6061091B7060E9405E52093B006F5
:104B20003093B1064093B2065093B3066093B40637
:104B30007093B5068093B6069093B706409294069C
:104B40005092950660929606709297060E94DA0F30
:104B500022968CAC9DACAEACBFAC22978DA58F934A
:104B60008CA58F938BA58F938AA58F936496CCACDD
:104B7000DDACEEACFFAC649760960CAD1DAD2EAD18
:104B80003FAD60972C964CAD5DAD6EAD7FAD2C9773
:104B9000CE0101960E941941E12C00E010E098013D
:104BA00068964CAD5DAD6EAD7FAD6897CCC11E38DB
:104BB00009F0CEC18091DA069091DB064A9708F49D
:104BC00062C30E94F91B11E010936C060E940B1C3B
:104BD00064966CAF7DAF8EAF9FAF64970E940B1C45
:104BE00068966CAF7DAF8EAF9FAF68970E940B1C2D
:104BF0006D966CAF7DAF8EAF9FAF6D970E940B1C13
:104C000028966CAF7DAF8EAF9FAF28970E940B1C8C
:104C100022966CAF7DAF8EAF9FAF22970E940B1C88
:104C2000A1966CAF7DAF8EAF9FAFA1970E94F91B8D
:104C300029968FAF299780916F06882399F18091EB
:104C4000D706811117C028968CAD9DADAEADBFAD16
:104C5000289722968CAF9DAFAEAFBFAF2297299613
:104C60008FAD29978F7E29962FAD299723FF17C0E7
:104C7000806115C022968CAD9DADAEADBFAD2297C3
:104C800028968CAF9DAFAEAFBFAF289729968FAD5A
:104C90002997877F29963FAD299734FD886029960B
:104CA0008FAF299780916916882359F029964FADC7
:104CB0002997BE01625C7F4FCE018C5B9F4F0E94A3
:104CC000B21028968CAD9DADAEADBFAD28978AA72A
:104CD0009BA7ACA7BDA722968CAD9DADAEADBFADD9
:104CE00022978EA79FA7A8ABB9ABA8EAB6E0A79674
:104CF000BFAFAEAFA7971E01BAE22B0E311CE0E9A1
:104D0000F6E0A596FFAFEEAFA59773E0472E512CC6
:104D10002996BFAD2997AB2FB0E0A396BFAFAEAF3A
:104D2000A397A3968EAD9FADA397042C02C0959533
:104D300087950A94E2F780FF53C0F101608071808B
:104D40008280938074016301FF0CCC08DC2C760117
:104D50009301A4016C2D7C2D8C2D9C2DA796AEADBE
:104D6000BFADA797AC901196BC9011971296CC90BE
:104D700012971396DC9013971496EC90149715964F
:104D8000FC90159716960C91169717961C911797ED
:104D90000E9405E52C9311963C93119712964C9323
:104DA000129713965C93139714966C931497159619
:104DB0007C93159716968C93169717969C93A596A9
:104DC000EEADFFADA5974081518162817381460DA3
:104DD000571D681D791D408351836283738360C0B2
:104DE000D1010D911D912D913C9160960CAF1DAF9D
:104DF0002EAF3FAF6097A596EEADFFADA597408172
:104E000051816281738148015901841A950AA60A69
:104E1000B70A75016401FF0CCC08DC2C7601940103
:104E2000A5016C2D7C2D8C2D9C2DA796AEADBFAD14
:104E3000A797AC901196BC9011971296CC901297B0
:104E40001396DC9013971496EC9014971596FC909B
:104E5000159716960C91169717961C9117970E9406
:104E600005E52C9311963C93119712964C9312974B
:104E700013965C93139714966C93149715967C93E2
:104E8000159716968C93169717969C9360960CAD73
:104E90001DAD2EAD3FAD6097008311832283338318
:104EA000BFEF4B1A5B0AA796EEADFFADA7973896FA
:104EB000A796FFAFEEAFA797F4E02F0E311CA59693
:104EC000AEADBFADA5971496A596BFAFAEAFA597F3
:104ED000B5E04B16510409F024CF0E94DA0F289652
:104EE0008CAC9DACAEACBFAC289722968FAD229710
:104EF0008F9321968FAD21978F938FAD8F938EAD2A
:104F00008F936D96CCACDDACEEACFFAC6D97689634
:104F10000CAD1DAD2EAD3FAD689764964CAD5DAD4B
:104F20006EAD7FAD6497CE0101960E94194129961E
:104F3000EFAC2997A1960CAD1DAD2EAD3FADA1975D
:104F400040E050E0BA01CE0101960E94AD7597C1D4
:104F50001B3909F098C18091DA069091DB068097A1
:104F600008F491C10E94F91BE1E0E0936C060E94F5
:104F70000B1C60966CAF7DAF8EAF9FAF60970E94A9
:104F80000B1C64966CAF7DAF8EAF9FAF64970E9491
:104F90000B1C68966CAF7DAF8EAF9FAF68970E9479
:104FA0000B1C28966CAF7DAF8EAF9FAF28970E94E9
:104FB0000B1C22966CAF7DAF8EAF9FAF22970E94E5
:104FC0000B1C6D966CAF7DAF8EAF9FAF6D970E943F
:104FD000F91B182F0E940B1CA1966CAF7DAF8EAFF2
:104FE0009FAFA1970E94FD1BA3969FAF8EAFA39783
:104FF00080916F06811105C01F7729961FAF2997F1
:1050000033C08091D706811118C028968CAD9DAD14
:10501000AEADBFAD289722968CAF9DAFAEAFBFAF00
:105020002297F12FFF762996FFAF299713FF1CC017
:10503000F0612996FFAF299717C022968CAD9DADE0
:10504000AEADBFAD229728968CAF9DAFAEAFBFAFD0
:105050002897012F077729960FAF299714FF04C0CF
:10506000086029960FAF299780916916882359F017
:1050700029964FAD2997BE01625C7F4FCE018C5BB4
:105080009F4F0E94B21028968CAD9DADAEADBFADC6
:1050900028978AA79BA7ACA7BDA722968CAD9DADEC
:1050A000AEADBFAD22978EA79FA7A8ABB9ABE8EA7C
:1050B000F6E01E011AE2210E311CA0E9B6E0A79627
:1050C000BFAFAEAFA79743E0442E512C2996BFAD9A
:1050D0002997AB2FB0E0A596BFAFAEAFA597A59629
:1050E0008EAD9FADA597042C02C0959587950A9427
:1050F000E2F7D1016D907D908D909C9080FF31C042
:1051000074016301FF0CCC08DC2C76019301A4012F
:105110006C2D7C2D8C2D9C2DA080B180C280D380E5
:10512000E480F580068117810E9405E520833183A4
:10513000428353836483758386839783A796AEAD3A
:10514000BFADA7974D915D916D917C911397460DE1
:10515000571D681D791D4D935D936D937C93139737
:1051600034C0A796AEADBFADA7974D915D916D913F
:105170007C91139794018301041B150B260B370BAD
:10518000C901B80168017901FF0CCC08DC2C76015B
:105190009B01AC016C2D7C2D8C2D9C2DA080B180B1
:1051A000C280D380E480F580068117810E9405E5E6
:1051B00020833183428353836483758386839783FB
:1051C0006D927D928D929C921397BFEF4B1A5B0A62
:1051D000389604E0200E311CA796AEADBFADA79760
:1051E0001496A796BFAFAEAFA797B5E04B16510484
:1051F00009F075CF0E94DA0F70906A162996EFAD0C
:1052000029977E2A28968CAC9DACAEACBFAC289773
:1052100022968FAD22978F9321968FAD21978F93F2
:105220008FAD8F938EAD8F936896CCACDDACEEAC2A
:10523000FFAC689764960CAD1DAD2EAD3FAD649785
:1052400060964CAD5DAD6EAD7FAD6097CE010196C1
:105250000E941941A396CEACDFACA397A196ECAC0B
:10526000FDAC0EAD1FADA197272D6D964CAD5DAD7C
:105270006EAD7FAD6D97CE0101960E9443770F9082
:105280000F900F900F902091DA063091DB068091FD
:10529000D8069091D9062817390781F00E94434219
:1052A000882361F00E949742882341F00E94A44223
:1052B000682F88ED96E00E94B21BE5CF60E070E0B9
:1052C00088ED96E00E94A41BFC011081A8950C9427
:1052D000971F81E08093010263CA8091DA06909162
:1052E000DB06029708F479C00E94F91B0E94F91BA3
:1052F0008093D7060E948C7A70C09091D706911146
:1053000008C0982F9F7E83FF0CC0892F80610C946A
:10531000FF1F982F977F84FF04C0892F88600C940B
:10532000FF1F892F0C94FF1F8091DA069091DB06F6
:10533000459708F452C00E94F91B0E940B1C2B01D8
:105340003C010E940B1C2C966CAF7DAF8EAF9FAFC3
:105350002C970E940B1C6B017C010E940B1C4B01C3
:105360005C010E940B1C20916F06222349F02091C2
:10537000D706211103C0B401C50102C04B015C0175
:105380008092900690929106A0929206B092930617
:105390006093940670939506809396069093970673
:1053A0009F938F937F936F932C960CAD1DAD2EAD75
:1053B0003FAD2C97B301A201CE0101960E94194185
:1053C000CE0101960E943F1160E0CE0101960E943D
:1053D000CD730F900F900F900F90CA59DF4F0FB6FB
:1053E000F894DEBF0FBECDBFDF91CF911F910F911B
:1053F000FF90EF90DF90CF90BF90AF909F908F90F5
:105400007F906F905F904F903F902F90089540E075
:1054100065E174E087EE98E00E94B0DAE8EDF6E02E
:1054200080E092E09183808313821282158214823D
:1054300082EE96E097838683108611868DEB96E048
:105440000E94184186E696E00E9457DD80E696E0CD
:105450000E9457DD8AE596E00E9457DD84E596E0DC
:105460000C9457DDCF93DF9300D0CDB7DEB721E0AA
:10547000298322E32A8342E050E0BC01CE01019659
:105480000E94C5E50F900F90DF91CF910895CF93C3
:10549000DF93EC0140E050E060EE70E40E94DFA09A
:1054A00046E656E666EA7EE3CE0102960E94DFA05B
:1054B00040E050E060E172E4CE010496DF91CF91CC
:1054C0000C94DFA0CF93DF93EC010A960E94472A49
:1054D000CE0140960E94472ACE014A96DF91CF9195
:1054E0000C94322A0F931F93CF93DF9300D01F9217
:1054F000CDB7DEB78C0167E00E94CFE561E0C8015F
:1055000002960E94CFE58FEF89838A838B83B8014F
:105510006C5F7F4F43E050E0CE0101960E94C5E5ED
:105520000F900F900F90DF91CF911F910F910895E1
:1055300067E080E491E00C945CA0FF920F931F93CE
:10554000CF93DF9300D01F92CDB7DEB7F82E062F92
:10555000142F68E080E491E00E94CFE5F9820A838D
:105560001B8343E050E064E471E0CE0101960E94A9
:10557000C5E50F900F900F90DF91CF911F910F9184
:10558000FF900895CF92DF92EF92FF92CF93DF9337
:105590006B017C01EA01CA010E94E5E5B701CE0179
:1055A0000496DF91CF91FF90EF90DF90CF900C9415
:1055B000E5E5AC018091CA029091CB02A091CC02AA
:1055C000B091CD02BC01CD010E94C22A0895CF93B3
:1055D000DF93EC0166EE70E00E94E5E566EE70E0B8
:1055E000CE0102960E94E5E564E670E0CE010496E5
:1055F0000E94E5E565E0CE010696DF91CF910C941F
:10560000CFE561E08EE691E00E94CFE568EE73E0C1
:1056100082E791E00E94E5E568EE73E084E791E0BF
:105620000E94E5E566E970E086E791E00E94E5E525
:1056300060ED77E088E791E00E94E5E560ED77E0D6
:105640008AE791E00E94E5E56FE070E08CE791E089
:105650000E94E5E56FE070E08EE791E00E94E5E5ED
:105660006AE070E080E891E00E94E5E564E170E0C6
:1056700082E891E00E94E5E564E170E084E891E071
:105680000E94E5E544EF51E060E070E088ED91E0D4
:105690000E94DDE54CE755E160E070E08CED91E0C3
:1056A0000E94DDE560E170E080EE91E00E94E5E5BA
:1056B00060E170E082EE91E00E94E5E560E08BE061
:1056C00092E00E94CFE561E084EE91E00E94CFE598
:1056D00060E888E891E00C94CFE5CF93DF93CDB7F5
:1056E000DEB764970FB6F894DEBF0FBECDBF84E17E
:1056F000EEECF2E0DE01119601900D928A95E1F751
:1057000044E150E06EE070E0CE0101960E94C5E5F4
:1057100064960FB6F894DEBF0FBECDBFDF91CF9178
:105720000895CF92DF92EF92FF920F931F93CF9342
:10573000DF93CDB7DEB764970FB6F894DEBF0FBE28
:10574000CDBF7C0188E0E2EEF2E0DE011D96019023
:105750000D928A95E1F74CE050E06EE070E0CE01EA
:1057600001960E94A1E56E018DE0C80ED11C870153
:10577000F12C48E050E0B801F601819191916F0160
:105780000E94C5E54CE050E0B801685F7F4FCE0154
:1057900001960E94C5E566EE70E0C80144960E943D
:1057A000E5E566EE70E0C80146960E94E5E5F1E0A9
:1057B000FF1619F064E670E002C06DE270E0C80107
:1057C00048960E94E5E5F394065E1F4F84E0F812C8
:1057D000D0CF6CEA8CEF9FE00E94CFE564960FB6C5
:1057E000F894DEBF0FBECDBFDF91CF911F910F9117
:1057F000FF90EF90DF90CF90089561E082E490E019
:105800000E94CFE50C946D2B0F931F93CF93DF93E2
:10581000CDB7DEB76D970FB6F894DEBF0FBECDBF24
:1058200085E0EAEEF2E0DE01559601900D928A9550
:10583000E1F74DE050E062E270E08EE493E00E9418
:10584000C5E545E050E066E070E0CE0145960E9477
:10585000C5E56FE984E090E00E94CFE56BE18CE064
:1058600090E00E94CFE50E946D2B84E99FE00E94AA
:10587000912BA89544E150E06CE871E083E893E057
:105880000E94C5E544E150E064EA71E08BE593E0F5
:105890000E94C5E544E150E064EF71E08FE693E0DB
:1058A0000E94C5E50E94012B8091EF029091F002C9
:1058B000A091F102B091F2028A8F9B8FAC8FBD8FC5
:1058C00044E050E064E470E0CE014A960E94C5E5F1
:1058D00080E091E00E94622A8CE191E00E94622ABD
:1058E00000E010E020E030E040E050E060E070E0F8
:1058F00088EC91E00E946AA120E030E040E050E0B6
:1059000060E070E080ED91E00E946AA180E491E0A7
:105910000E94722A8AE491E00E94D92A88E591E0E7
:105920000E94E72A61E080E691E00E94CFE560E016
:105930008DEF9FE00E94CFE560E08EEF9FE00E9438
:10594000CFE560E08FEF9FE00E94CFE561E082E964
:105950009FE00E94CFE560E081E99FE00E94CFE5F3
:1059600080E00E94FD2B60E08CE490E00E94CFE597
:1059700060E08FE89FE00E94CFE560E08EE89FE066
:105980000E94CFE588EC90E0A0E0B0E089839A83A4
:10599000AB83BC8344E050E061E27EE08E010F5FA8
:1059A0001F4FC8010E94C5E563E084E69FE00E94A6
:1059B000CFE564E683E69FE00E94CFE584E1F8014D
:1059C00011928A95E9F744E150E069E47FE0C8016B
:1059D0000E94C5E560E080E99FE00E94CFE560E0BD
:1059E00088E49FE00E94CFE56D960FB6F894DEBF85
:1059F0000FBECDBFDF91CF911F910F91089561E050
:105A000082E490E00E945CA091E0823009F490E092
:105A1000892F089561E08CE490E00E945CA091E001
:105A2000813009F090E0892F0895CF93DF93CDB7AF
:105A3000DEB72C970FB6F894DEBF0FBECDBF8CE15A
:105A40009CE0A0E0B0E089839A83AB83BC831D8295
:105A50001E821F82188619861A861B861C864CE0B9
:105A600050E062E671E0CE0101960E94C5E52C96F9
:105A70000FB6F894DEBF0FBECDBFDF91CF91089572
:105A80000F931F93CF93DF938C01EB0160E070E0E5
:105A900080EA91E00E9465A0F8019183808360E034
:105AA00082EA91E00E945CA08883DF91CF911F91F0
:105AB0000F910895CF93C62FBC0180EA91E00E9418
:105AC000E5E56C2F82EA91E0CF910C94CFE5FF924F
:105AD0000F931F93CF93DF9300D01F92CDB7DEB704
