:100000000C94BE0F0C94F20F0C94F20F0C94F20FA0
:100010000C94F20F0C94F20F0C94F20F0C94F20F5C
:100020000C94F20F0C94F20F0C94F20F0C94F20F4C
:100030000C94F20F0C947F3A0C94F20F0C94F20F84
:100040000C94F20F0C94553A0C94F20F0C94F20F9E
:100050000C94F20F0C94F20F0C94F20F0C94F20F1C
:100060000C94F20F0C94E6DF0C94F20F0C9412E057
:100070000C94F20F0C946E9F0C94F20F0C94F20FF0
:100080000C94F20F0C94F20F0C94F20F0C94F20FEC
:100090000C94F20F0C94F20F0C94F20F0C94F20FDC
:1000A0000C94F20F0C94F20F0C94F20F0C94F20FCC
:1000B0000C94F20F0C94F20F0C94F20F0C94A73ADC
:1000C0000C94F20F0C94F20F0C94F20F0C94F20FAC
:1000D0000C94F20F0C94F20F0C94F20F0C94F20F9C
:1000E0000C94F20FCD3315341734F2332434C0346A
:1000F000C034F2334D34C0345B3466347A347F34E8
:10010000C034C0342C34F2334834C034DB332834A8
:10011000843495349C34C034C034A034A180A88089
:10012000AA80A4809E80AE80BC80B2806DCF8ACF32
:1001300097CFC0CFDFCFF2CF00D031D05DD05265A6
:10014000706C6963617430722032001704C800005B
:1001500000DC0027056400000078007505C8000079
:1001600000DC002006640000007800E006C8000003
:1001700000DC002006C8000000DC002006C80000EB
:1001800000DC002D08C80000000000C00DC8000001
:10019000001400C00DC800000014005A10C8000070
:1001A000001400C00D9001000000007003900100D9
:1001B0000014005504C800000014002705C8000002
:1001C0000014007003900100000000C805C8000082
:1001D000001400C805C80000001400C805C80000CD
:1001E000001400DD04B004000014007505C8000010
:1001F0000014007505C800000014007505C8000053
:100200000014009704B00400000000C00DC80000F6
:10021000001400C00DC80000001400910E900100F1
:100220000014005A10900100001400C00D200300BB
:100230000000007003BC000000BC00E006BC000031
:1002400000BC00B807BC000000BC002D08BC00A921
:1002500008BC000000BC00C00D4D0100000000C043
:100260000D20010000BC005311BC000000BC005B6D
:1002700012B101000000009302690000006900EE65
:10028000016900000069002601B801000000002497
:10029000F4D43050C38E20C2A24017828B7011124A
:1002A0007A910D816CD90AA861E108C75866076187
:1002B0005143061E4B5D05C145A7041A41110409AF
:1002C0003D9803713931034036DB0265339102D426
:1002D000305402802E1D02632CEE01752AC501B038
:1002E00028A001102781018F2564012B244B01E0F8
:1002F000223401AC211F018D200D01801FFC0084E0
:100300001EED00971DDF00B81CD200E61BC60020C2
:100310001BBC00641AB200B219A8000A19A0006A36
:10032000189900D117910040178B00B51684003141
:10033000167E00B31579003A157300C7146F005884
:10034000146A00EE1366008813630025135E00C76D
:10035000125B006C12570015125400C1115100704D
:10036000114F0021114B00D61049008D1047004657
:1003700010440002104200C00F4000800F3E0042B7
:100380000F3C00060F3B00CB0E3800930E37005C8D
:100390000E3500270E3400F30D3200C10D310090F0
:1003A0000D3000600D2E00320D2D00050D2C00D9F2
:1003B0000C2B00AE0C2900850C29005C0C270035A5
:1003C0000C27000E0C2600E80B2400C40B2400A010
:1003D0000B23007D0B23005A0B2100390B21001841
:1003E0000B2000F80A1F00D90A1E00BB0A1E009D40
:1003F0000A1D00800A1D00630A1C00470A1B002C0E
:100400000A1B00110A1A00F7091A00DD091900C4B5
:10041000091900AB091900920917007B091800633C
:100420000917004C09160036091600200916000AA3
:10043000091500F5081500E0081400CC081400B8F0
:10044000081400A4081400900813007D0812006B23
:10045000081300580812004608120034081100233F
:100460000811001208110001081100F0071000E047
:10047000071000D0071000C0071000B0070F00A140
:1004800007100091070E0083070F0074070F006527
:10049000070E0057070E0049070E003B070D002E00
:1004A000070E0020070D0013070D0006070D00F9C9
:1004B000060C00ED060D00E0060C00D4060C00C88A
:1004C000060C00BC060C00B0060C00A4060B00993C
:1004D000060C008D060B0082060B0077060B006CE5
:1004E000060B0061060A0057060B004C060A004284
:1004F000060A0038060A002E060A0024060A001A18
:10050000060A001006090007060A00FD050900F4A6
:10051000050900EB050900E2050900D9050900D02D
:10052000050900C7050900BE050900B5050800ADAD
:10053000050800A50509009C050800940508008C25
:10054000050800840508007C050800740508006C97
:10055000050700650508005D050700560508004E03
:10056000050700470507004005080038050700316A
:100570000507002A050700230507001C05060016CD
:100580000507000F0507000805060002050700FB28
:10059000040600F5040700EE040600E8040600E285
:1005A000040700DB040600D5040600CF040600C9DA
:1005B000040600C3040600BD040600B7040600B12B
:1005C000040500AC040600A6040600A00405009B78
:1005D00004060095040500900406008A04050085C1
:1005E000040500800406007A040500750405007007
:1005F0000405006B04050066040500610405005C49
:1006000004050057040500520405004D0405004888
:10061000040500430405003E0404003A04050035C7
:10062000040500300404002C040500270404002302
:100630000405001E0404001A040400160405001139
:100640000404000D0404000904050004040400006F
:10065000040400FC030400F8030400F4030400F0A5
:10066000030400EC030400E8030400E4030400E0D6
:10067000030400DC030400D8030400D4030400D006
:10068000030400CC030400C8030300C503030024D3
:10069000F404D9201BC40C5C0E9804C4095F0265E5
:1006A000077101F405F900FB04B30048048700C199
:1006B0000369005803550003034500BE023A008455
:1006C00002310053022A002902250004022000E41E
:1006D000011C00C8011900AF011700980114008423
:1006E000011300710110006101100051010E00435F
:1006F000010D0036010B002B010B0020010B001532
:100700000109000C01090003010800FB000800F3C7
:10071000000800EB000700E4000600DE000600D839
:10072000000600D2000600CC000500C7000500C28C
:10073000000500BD000400B9000400B5000400B1CC
:10074000000400AD000400A9000400A5000300A2FD
:100750000003009F0004009B000300980003009525
:1007600000020093000300900003008D0002008B44
:10077000000300880002008600020084000300815C
:100780000002007F0002007D0002007B0002007971
:10079000000200770001007600020074000200727F
:1007A000000100710002006F0002006D0001006C8A
:1007B0000002006A00010069000200670001006693
:1007C0000001006500010064000200620001006198
:1007D000000100600001005F0002005D0001005C9C
:1007E0000001005B0001005A00010059000100589F
:1007F000000100570001005600010055000100549F
:10080000000100530000005300010052000100519C
:10081000000100500001004F0001004E0000004E9A
:100820000001004D0001004C0001004B0000004B96
:100830000001004A00010049000100480000004892
:10084000000100470001004600000046000100458D
:100850000000004500010044000100430000004387
:100860000001004200000042000100410000004180
:10087000000100400001003F0000003F0001003E79
:100880000000003E0001003D0000003D0001003C72
:100890000000003C0000003C0001003B0000003B69
:1008A0000001003A0000003A000100390000003960
:1008B0000001003800000038000000380001003757
:1008C000000000370001003600000036000000364E
:1008D0000001003500000035000000350001003443
:1008E0000000003400000034000100330000003339
:1008F000000000330001003200000032000000322E
:100900000001003100000031000000310001003022
:1009100000000030000000300001002F0000002F18
:100920000000002F0000002F0001002E0000002E0C
:100930000000002E0001002D0000002D0000002D01
:100940000000002D0001002C0000002C0000002CF5
:100950000000002C0001002B0000002B0000002BE9
:100960000000002B0001002A0000002A0000002ADD
:100970000000002A000100290000002900000029D1
:1009800000000029000000290001002800000028C4
:1009900000000028000000280000002800010027B7
:1009A00000000027000000270000002700000027AB
:1009B000000100260000002600000026000000269E
:1009C0000000002600010025000000250000002591
:1009D0000000002500000025000000250001002483
:1009E0000000002400000024000000240000002477
:1009F000000100230000002300000023000000236A
:100A0000000000230000002300000023000100225A
:100A1000000000220000002200000022000000224E
:100A20000000002200010021000000210000002140
:100A30000000002100000021000000210000002132
:100A40000001002000000020000000200000002025
:100A50000000002000000020000000200000002016
:100A60000001001F0000001F0000001F0000001F09
:100A70000000001F0000001F0000001F0001001EFA
:100A80000000001E0000001E0000001E0000008983
:100A900010990000000052657047204275696C642F
:100AA000009600FF83048800000014008C00000002
:100AB000000000000060F0FFFF00000000000000E8
:100AC000009B00000000000000000000000000008B
:100AD000000000000000A51C000018000020419547
:100AE0000484036901000014008304DC0500001481
:100AF00000901F8B0000000000000000A00F00000D
:100B00000000000000000000800000009B000000CA
:100B10000000000000A40F00000000000000000022
:100B2000006A0A0000180AD7233CAA019B000000B3
:100B300000000000000000000000000000000000B5
:100B400000A51C000018F62820419504891B95007B
:100B500000000042792068616E64206D6F76652028
:100B60007468652065782D00950100000074727529
:100B700064657220746F20646966666572656E7460
:100B800020009501000000706F736974696F6E73C7
:100B9000206F76657220746865202000950700003C
:100BA000006275696C6420706C6174666F726D2E82
:100BB0002E2E2E00950000000041646A757374208B
:100BC0007468652073706163696E67202000950109
:100BD0000000006265747765656E20746865206545
:100BE000787472756465720095010000006E6F7A0A
:100BF0007A6C6520616E6420706C6174666F726DD2
:100C000020009507000000776974682074686520EB
:100C10006B6E6F62732E2E2E009500000000756EB5
:100C20006465722074686520706C6174666F726DA3
:100C30002020009501000000616E6420612073682F
:100C4000656574206F6620706170657200950100A3
:100C50000000706C61636564206265747765656E21
:100C6000207468652020009507000000706C617496
:100C7000666F726D20616E64207468652E2E2E0082
:100C800095000000006E6F7A7A6C652E20576865BB
:100C90006E20796F75206172650095010000006417
:100CA0006F6E652C207072657373207468652020E8
:100CB00020202000950700000063656E7465722097
:100CC000627574746F6E2E00891F891F62003D0269
:100CD000000000002110422063308440A550C6600F
:100CE000E770088129914AA16BB18CC1ADD1CEE1E9
:100CF000EFF13112100273325222B5529442F77260
:100D0000D662399318837BB35AA3BDD39CC3FFF338
:100D1000DEE36224433420040114E664C774A4446F
:100D200085546AA54BB528850995EEE5CFF5ACC588
:100D30008DD55336722611163006D776F66695563F
:100D4000B4465BB77AA719973887DFF7FEE79DD7D8
:100D5000BCC7C448E5588668A778400861180228CF
:100D60002338CCC9EDD98EE9AFF9488969990AA928
:100D70002BB9F55AD44AB77A966A711A500A333A9F
:100D8000122AFDDBDCCBBFFB9EEB799B588B3BBB78
:100D90001AABA66C877CE44CC55C222C033C600C2F
:100DA000411CAEED8FFDECCDCDDD2AAD0BBD688DC8
:100DB000499D977EB66ED55EF44E133E322E511E7F
:100DC000700E9FFFBEEFDDDFFCCF1BBF3AAF599F18
:100DD000788F8891A981CAB1EBA10CD12DC14EF1B8
:100DE0006FE18010A100C230E3200450254046701E
:100DF0006760B9839893FBA3DAB33DC31CD37FE349
:100E00005EF3B1029012F322D2323542145277626D
:100E10005672EAB5CBA5A89589856EF54FE52CD518
:100E20000DC5E234C324A0148104667447642454BD
:100E30000544DBA7FAB79987B8975FE77EF71DC728
:100E40003CD7D326F2369106B0165766767615460D
:100E500034564CD96DC90EF92FE9C899E9898AB978
:100E6000ABA94458654806782768C018E10882385D
:100E7000A3287DCB5CDB3FEB1EFBF98BD89BBBAB88
:100E80009ABB754A545A376A167AF10AD01AB32AAD
:100E9000923A2EFD0FED6CDD4DCDAABD8BADE89DD8
:100EA000C98D267C076C645C454CA23C832CE01CFD
:100EB000C10C1FEF3EFF5DCF7CDF9BAFBABFD98F68
:100EC000F89F176E367E554E745E932EB23ED10E4D
:100ED000F01E78206D6F726521002A2050726573B4
:100EE00073200045726173696E672E2E2E00656552
:100EF00070726F6D5F64756D702E62696E206669C9
:100F00006C656E6F7420666F756E64005265616407
:100F1000206661696C65643B20454550524F4D2009
:100F20006D617920626520636F7272757074005212
:100F30006573746F72696E672E2E2E006565707210
:100F40006F6D5F64756D702E62696E2066696C6589
:100F5000616C72656164792065786973747300539C
:100F600044206361726420777269746520666169E8
:100F70006C656400536176696E672E2E2E00507288
:100F800065737320555020746F2070726F636565B0
:100F9000642E00796F757220626F7420696E6F70B5
:100FA000657261626C652E0054686973206D656EB0
:100FB000752063616E206D616B65005361696C66BD
:100FC0006973682076372E313020723031383632EE
:100FD0000041546D65676120313238302031342F43
:100FE00030372F3139002D2D2D205468696E672040
:100FF0003332303834202D2D2D2D0053462D52659F
:101000007020325800202020202020202020202066
:101010002020202020202020200020202020002010
:10102000004320202020002F20202043004F464650
:1010300000202025004D41580046414E3A2D2D2DCF
:101040000001009403360009016B00D800A000BD28
:1010500000D500AB000A019D003F01870074017FAD
:1010600000A9017700DE01700013026800480262E7
:10107000007D025B00B2025400E7024D001C0344F5
:101080000051033A0086033000BB032200F0030244
:1010900000FF030000D0FEC0FF18FFD0FF63FFE099
:1010A000FFB1FFF0FF0000000052001000A400207C
:1010B00000F80030004D014000A2015000F701602F
:1010C000004C027000A0028000F30290004503A0D3
:1010D000009703B000E903C0003B04D0008D04E09A
:1010E00000E004F0003305000187051001DB052056
:1010F0000130063001DA065001436F6F6C696E678C
:101100002046616E20506F77657200456C61707388
:1011100065643A20202020203030306830306D0067
:1011200020736563730054696D65204C6566743A7D
:101130002020203030306830306D0055736520300D
:1011400020666F7220756E6C696D69746564004D00
:101150006178205A2050726F62652048697473006C
:101160005072696E74206F62737472756374696F04
:101170006E20202064657465637465642E202043AE
:101180006865636B207468657072696E7420616E47
:10119000642065787472756465722E205072657370
:1011A00073204C45465420666F72206D656E752E17
:1011B000004175746F2D6C6576656C206661696C95
:1011C00065640A546F6F20666172206F7574206FBA
:1011D00066206C6576656C005072657373204345BC
:1011E0004E54455220627574746F6E20746F206384
:1011F0006F6E74696E75652E00546865206275693E
:101200006C6420706C61746520697320206E6F744B
:10121000206C6576656C6564210054686520627594
:10122000696C6420706C61746520697320206C6542
:1012300076656C656421004175746F2D6C6576650B
:101240006C2020302E303030306D6D004175746F61
:101250002D6C6576656C20696E61637469766520B6
:10126000004175746F2D6C6576656C206661696CE4
:1012700065640A496E636F6D706C65746520707289
:101280006F62696E67004175746F2D6C6576656C71
:10129000206661696C65640A4261642070726F62E5
:1012A000696E6720706F696E74730062657477652C
:1012B000656E2070726F6265207074732E004D61D0
:1012C00078206865696768742076617269616E6309
:1012D00065004175746F2D6C6576656C2056617282
:1012E00069616E6365002050726F6265204F6666AB
:1012F000736574004175746F2D6C6576656C204F55
:1013000066667365747300204465666C6563746912
:101310006F6E004175746F2D6C6576656C2041644D
:101320006A00457261736520456570726F6D005388
:1013300044202D3E20456570726F6D0045657072CA
:101340006F6D202D3E20534400456570726F6D0017
:101350005072696E742054696D653A2020206820AF
:1013600030306D004C617374205072696E743A2095
:10137000202020682030306D004C69666574696DEE
:10138000653A202020202020682030306D005265F2
:1013900073756D696E6720706F736974696F6E2EF7
:1013A0002E2E00436C656172696E67206275696CF0
:1013B000642E2E2E20202000447261696E696E67B3
:1013C00020706970656C696E652E2E2E004C65610B
:1013D00076696E672070617573652E2E2E20202031
:1013E000200043616E63656C6C696E672070726982
:1013F0006E742E2E2E2000456E746572696E672005
:1014000070617573652E2E2E20202000506175733B
:1014100065206174205A506F733A2000506C6174DB
:10142000666F726D2054656D703A202020004C6507
:1014300066742054656D703A2000526967687420A4
:1014400054656D703A2000546F6F6C68656164205C
:101450004F6666736574730020546F6F6C686561C6
:1014600064204F66667365743A00204F6666736544
:10147000743A0055702F446E2F4C6566742F4D20C2
:10148000746F207365740055702F446E2F522F4C6B
:101490002F4D20746F207365740050726F66696CF5
:1014A00065204E616D653A005361766520546F206A
:1014B00050726F66696C65004368616E6765204EA7
:1014C000616D6500446973706C617920436F6E666D
:1014D000696700526573746F726500526573657455
:1014E0003A2070726573732043454E54455200464E
:1014F000696C2E20547269703A0046696C616D65A2
:101500006E743A00547269703A004C6966653A002C
:1015100046696C616D656E74204F646F6D657465AE
:10152000720048656174657273204F66660043619E
:101530006E63656C205072696E74004C697665202C
:101540005A204F66667365742041646A2E0050729B
:10155000696E7420537461746973746963730042B3
:1015600061636B20746F204D6F6E69746F72006DD4
:10157000006D6D00486F6D65204F6666736574730E
:101580000050726F66696C65730046696C616D65C9
:101590006E743A202020202020302E306D6D0046C1
:1015A000696C616D656E743A005A506F7369746945
:1015B0006F6E3A202020005072696E742054696D5D
:1015C000653A20202020206820206D0054656D7031
:1015D0006572617475726520726561647320202084
:1015E0006F7574206F662072616E67652E202020F3
:1015F00020202020436865636B20776972696E67DD
:101600002E0054656D706572617475726520726527
:10161000616473202020617265206661696C696E67
:10162000672E2020202020202020436865636B2027
:10163000776972696E672E0054656D7065726174AA
:101640007572652064726F7070696E674368656358
:101650006B20776972696E672E004E6F7420686523
:101660006174696E672070726F7065726C7943681F
:1016700065636B20776972696E672E0054656D70C3
:10168000206C696D697420726561636865642E20E1
:1016900053687574646F776E206F7220726573740F
:1016A0006172742E00506C6174666F726D204661B9
:1016B000696C7572652120202000546F6F6C203199
:1016C000204661696C75726521202020202000541D
:1016D0006F6F6C2030204661696C75726521202027
:1016E0002020200045787472756465722046616917
:1016F0006C757265212020200048656174657273E5
:101700002073687574646F776E20647565746F20DC
:10171000696E61637469766974790046696C616D9C
:10172000656E74206C6F61642F756E6C6F6164639D
:10173000616E63656C65642064756520746F2074E8
:101740006865207072696F722068656174657220C7
:101750006572726F72004D792074656D706572618B
:10176000747572652077617320206368616E6765A8
:10177000642065787465726E616C6C792E20526598
:1017800073656C6563742066696C616D656E742049
:1017900020206D656E7520746F20747279206167EA
:1017A00061696E2E0077616974696E672000202080
:1017B0004E4120202020006572726F722100536517
:1017C00074204C6967687473204F4E200053657411
:1017D000204C6967687473204F4646002843616E49
:1017E0006E6F74205072696E7420436F7079290097
:1017F0005072696E7420416E6F7468657220436F19
:101800007079004D61696E204D656E750053657489
:1018100020436F6F6C696E672046616E204F4646AD
:101820000053657420436F6F6C696E672046616E6C
:10183000204F4E20004368616E676520484250206B
:1018400054656D70004368616E67652054656D7006
:1018500065726174757265004368616E67652053D7
:1018600070656564004368616E67652045787472D1
:101870007573696F6E005061757365206174205ACD
:10188000506F7300446974746F205072696E74698C
:101890006E67004E2F4100502D53746F702074728C
:1018A0006967676572656400502D53746F702049D5
:1018B0006E76657274656400502D53746F702043AA
:1018C0006F6E74726F6C00436865636B20534420C5
:1018D000526561647300457874727564657220485E
:1018E0006F6C640050617573652077697468204877
:1018F000656174004F766572726964652047635450
:10190000656D700048425020696E7374616C6C653F
:101910006400416363656C65726174696F6E004554
:10192000786974204D656E7500536F756E6400455F
:101930007874727564657220436F756E7400426FBF
:101940007420537461746973746963730043616CC8
:10195000696272617465204E6F7A7A6C65730052A9
:101960006573746F72652053657474696E67730074
:1019700047656E6572616C2053657474696E677338
:1019800000507265686561742053657474696E6790
:1019900073004C6576656C204275696C6420506CF0
:1019A00061746500456E61626C652053746570708A
:1019B00065727320200044697361626C6520537402
:1019C0006570706572730056657273696F6E204939
:1019D0006E666F726D6174696F6E0046696C616DE1
:1019E000656E74204C6F6164696E6700486F6D6549
:1019F0002041786573004A6F67204D6F6465004D24
:101A00006F6E69746F72204D6F6465005574696CF8
:101A1000697469657300507265686561740050721D
:101A2000696E742066726F6D20534400492074699A
:101A30006D6564206F7574207768696C652020205F
:101A4000617474656D7074696E6720746F20686569
:101A5000617420206D7920706C6174666F726D2ED8
:101A600000492074696D6564206F7574207768691A
:101A70006C65202020617474656D7074696E6720D8
:101A8000746F206865617420206D792065787472A8
:101A9000756465722E00556E61626C6520746F20EE
:101AA0007265616420534420202063617264207059
:101AB0006172746974696F6E73206F7665723247F4
:101AC0004220696E2073697A652E2020466F726D00
:101AD00061746173204641542D3136206F72202D80
:101AE00033322E00556E61626C6520746F20726512
:101AF00061642074686973205344206361726420B8
:101B0000666F726D61742E2020202020466F726DEA
:101B10006174206173204641542D3136206F72204C
:101B20004641542D33322E005344206361726420A9
:101B300072656164206572726F722E20546F6F201F
:101B40006D616E7920435243206572726F72732EFD
:101B5000426164206361726420636F6E74616374B8
:101B600073206F72656C656374726963616C206E5B
:101B70006F6973652E00534420636172642072653F
:101B80006164206572726F720053442063617264F5
:101B9000206E6F742070726573656E7400534420FC
:101BA0006361726420697320656D707479004361AC
:101BB0006E6E6F74206F70656E2074686520666944
:101BC0006C650053442063617264207265616473C4
:101BD000206172652020206E6F7420676F696E67C8
:101BE0002077656C6C2E20205472796120646966C0
:101BF000666572656E7420636172640049276D20AA
:101C0000616C7265616479206275696C64696E6784
:101C100000436F6C6420506175736500556E706190
:101C200075736500506175736520200043616E63B4
:101C3000656C206C6F61642F756E6C6F61643F0022
:101C400043616E63656C2074686973207072696E9D
:101C5000743F0073657474696E67733F00526573F7
:101C6000746F726520666163746F727900506C6185
:101C700074666F726D2020202020202020202020DC
:101C8000004C656674204578747275646572202016
:101C9000202020200052696768742045787472758E
:101CA0006465722020202020004578747275646578
:101CB000722020202020202020202020005072652B
:101CC0007373206C65667420746F2063616E636546
:101CD0006C0045787472756465723A2020202D2D51
:101CE0002D2F2D2D2D43004842503A2D2D2D2F2DD7
:101CF0002D2D43004C2045787472756465723A202E
:101D00002D2D2D2F2D2D2D430052204578747275C9
:101D10006465723A202D2D2D2F2D2D2D4300202D61
:101D20002D250048656174696E673A2020202020C7
:101D3000202020202020200048656174696E673AC9
:101D400000203C2D592020284D656E75292020202B
:101D5000202020202000203C2D582020284D656E7A
:101D6000752920205A2D3E202020002020202020D0
:101D7000202020582D20202020202020202020003E
:101D8000202020202020284D656E75292020592DE7
:101D90003E202020002020202020202020582B2002
:101DA0002020202020202020200020202020204A29
:101DB0006F67206D6F646520202020202020005553
:101DC0006E6C6F6164206C65667400556E6C6F613B
:101DD0006420726967687400556E6C6F6164004CB2
:101DE0006F6164004C6F6164206C656674004C6FB9
:101DF00061642072696768740035206D696E75745E
:101E0000652074696D656F757420686173656C61B8
:101E1000707365642E20205072657373207468653A
:101E20002063656E74657220627574746F6E2074C1
:101E30006F2020202066696E6973682E00426567F6
:101E4000696E206C6F6164696E67206F722020205C
:101E500020756E6C6F6164696E672E2050726573B9
:101E6000732074686563656E74657220627574743E
:101E70006F6E207768656E202066696E697368658D
:101E8000642E0045787472756465727320617265A2
:101E9000206E6F7420202068656174696E672E2043
:101EA00020436865636B2074686520776972696E8A
:101EB000672E00592041786973204C696E6500587F
:101EC0002041786973204C696E6500594553004E76
:101ED0004F2000446F6E650053656C65637420622B
:101EE000657374206C696E65733A00457874727519
:101EF00064657200506C6174666F726D0054757227
:101F00006E2048656174657273204F4646005374B5
:101F10006172742050726568656174696E6700460D
:101F2000726565205352414D20004F4646004F4E8A
:101F300020002B2AF02DE335C336943E2441BF44C4
:101F40004548E449225DBB6FE272617E1E7F2D80B1
:101F500079816182778251840398AC98F89EFF9EC4
:101F6000EA9FB7A1BEA2F0A638A7C4A991AD98ADCB
:101F700087D902DE26DF99DF46E053E0EAE1FCE1A3
:101F800085EC91E201C08193EF3FF907E0F3D9F3CB
:101F900011241FBECFEFD1E2DEBFCDBF16E0A0E01F
:101FA000B2E0E4E8FFEC01E00BBF02C007900D9245
:101FB000A836B107D9F72CE1A8E6B6E001C01D921A
:101FC000AA31B207E1F71FE0CEEBDFE004C02197B2
:101FD000FE010E9426E5C939D107C9F70E943936AA
:101FE0000C94C0E70C9400006BBFFA01DC0102C046
:101FF00007900D9221503040D8F708958091F9084C
:1020000081110CC08091F8088F5F8093F8088530AB
:1020100028F081E08093F90810928306089581E00A
:102020000E94753C60E080E00C94133C8F929F927C
:10203000AF92BF92CF92DF92EF92FF920F931F93D6
:10204000CF93DF93C62FD0E0FE01EE0FFF1FEE0F00
:10205000FF1FEA55F94FC080D180E280F380FC0178
:1020600040815181628173814C195D096E097F093C
:10207000CC0FDD1FCE55D94FE881F9814F01A12C3E
:10208000B12C84169506A606B70644F58C01C80C3B
:10209000D91CEA1CFB1CDB01CA0188199909AA0991
:1020A000BB09AC01332722276091BE027091BF02A9
:1020B0008091C0029091C1020E945AE0BB2797FD17
:1020C000B095AB2FC80ED91EEA1EFB1EF801C082C8
:1020D000D182E282F3821982188205C0CF01841B6B
:1020E000950B99838883DF91CF911F910F91FF907A
:1020F000EF90DF90CF90BF90AF909F908F9008951A
:102100008F929F92AF92BF92CF92DF92EF92FF9207
:102110000F931F93CF93DF93FC0180809180A28067
:10212000B380C62FD0E0CC0FDD1FCE55D94F6881CC
:1021300079816B01E12CF12CC814D904EA04FB0469
:1021400024F58C01D501C4018C199D09AE09BF0984
:10215000AC01332722276091BE027091BF028091AB
:10216000C0029091C1020E945AE0BB2797FDB09532
:10217000AB2FC80ED91EEA1EFB1EF801C082D18209
:10218000E282F3821982188204C06819790979837E
:102190006883DF91CF911F910F91FF90EF90DF90B7
:1021A000CF90BF90AF909F908F9008951F93CF9343
:1021B000DF93EB01142F60E043FD03C00E94161073
:1021C00002C00E94801061E0CE0114FD05C0DF91C5
:1021D000CF911F910C941610DF91CF911F910C9409
:1021E00080100E940F1060E08FEF0E94707AEEEE78
:1021F000F6E01382128215821482108611860C94E6
:102200007032F894EEEEF6E0228133818081918184
:10221000821B930B78940895EF92FF920F931F9374
:10222000CF937C018B01C42F83EC99E00E9492CC68
:10223000B70183EC99E00E946ACCB80183EC99E085
:102240000E946ACCE091550AEE0FFF0BE95BF54F57
:1022500080819181835C994039F063EC79E08BE374
:102260009AE00E948AA704C083EC99E00E94D2CC35
:10227000C093220ACF911F910F91FF90EF90089584
:102280001092220AE091550AEE0FFF0BE95BF54F21
:1022900080819181835C994021F48BE39AE00E94D4
:1022A0002EA8E091550AEE0FFF0BE95BF54F8081F8
:1022B0009181DC01ED91FC910480F581E02D099480
:1022C000809102020895CF92DF92EF92FF920F93D6
:1022D0001F93CF93DF93CDB7DEB7A0970FB6F894D7
:1022E000DEBF0FBECDBF20918406222309F47FC03C
:1022F0008C01CE0101960E947D7460E070E0C801FF
:102300000E947B41FC01C080D180E280F38060E0CC
:1023100070E0CE0101960E947B41FC018081918199
:10232000A281B381C81AD90AEA0AFB0ACD8ADE8AD9
:10233000EF8AF88E61E070E0C8010E947B41FC01E9
:10234000C080D180E280F38061E070E0CE01019630
:102350000E947B41FC0180819181A281B381C81AD6
:10236000D90AEA0AFB0AC98EDA8EEB8EFC8E62E08D
:1023700070E0C8010E947B41FC01C080D180E280F6
:10238000F38062E070E0CE0101960E947B41FC0187
:1023900080819181A281B381A7019601281B390B0D
:1023A0004A0B5B0BDA01C9012D8F3E8F4F8F58A36B
:1023B0004D895E896F89788D452B462B472B61F4BB
:1023C000498D5A8D6B8D7C8D452B462B472B21F4E7
:1023D000892B8A2B8B2B59F08091840683FF05C0B3
:1023E000CE0145960E944F4502C010928406A096E9
:1023F0000FB6F894DEBF0FBECDBFDF91CF911F9116
:102400000F91FF90EF90DF90CF9008951092A1066A
:102410000895882311F080E401C080E88093EB06E2
:102420006093E8061092FB081092FA08089581E084
:102430008093E70608958091EB06181634F4809196
:10244000E806811104C081E0089580E0089582E0EB
:1024500008958091EB06089581E09091EB0692300B
:1024600008F480E00895CF93DF93CDB7DEB764978B
:102470000FB6F894DEBF0FBECDBF6093CF0670934A
:10248000D0068093D1069093D206CE0101960E9489
:102490007D7462E070E0CE0101960E947441FC01FF
:1024A00040815181628173818091CF069091D006E5
:1024B000A091D106B091D206481759076A077B0749
:1024C0001CF01092CE0603C081E08093CE06649685
:1024D0000FB6F894DEBF0FBECDBFDF91CF91089548
:1024E0006091CF067091D0068091D1069091D2066E
:1024F00008952091F0063091F10681E0232B09F038
:1025000080E00895CF9360E070E0CB010E94331229
:102510001092CE061092900610929106109292069A
:102520001092930610929406C1E0C093010210929B
:10253000FC081092EC061092EB061092EA0610923C
:10254000E9061092E8061092BE061092BF0610929D
:10255000C0061092C1061092C2061092C3061092D5
:10256000C4061092C5061092AE061092AF061092E5
:10257000B0061092B1061092B2061092B3061092F5
:10258000B4061092B5061092A6061092A7061092F5
:10259000A8061092A9061092C6061092C7061092BD
:1025A000C8061092C9061092CA061092CB06109265
:1025B000CC061092CD061092B6061092B706109275
:1025C000B8061092B9061092BA061092BB06109285
:1025D000BC061092BD061092AA061092AB0610928D
:1025E000AC061092AD0661E082E490E00E9483A008
:1025F000823009F042C060E08FEF9FE00E9483A02C
:102600008823D9F1C093850610928B0610928C0610
:1026100010928D0610928E0610928A0610928606EF
:102620001092870610928806109289061092FB0875
:102630001092F8081092F908109283061092FA0886
:102640001092A00610929F0610929C0610929B0674
:1026500010929E0610929D0610929A06109299066C
:102660001092960610929506109298061092970670
:1026700010928406CF910C94F24510928506C4CF37
:102680000E94821285E680930202EEEEF6E013824B
:102690001282158214821086118610928206089585
:1026A00081E090918206963009F080E00895809153
:1026B000840683FF16C090910002992391F08091C7
:1026C0008206833071F08091F908882351F080915F
:1026D00083068F5F80938306981718F481E08093B8
:1026E000FA0808958F929F92AF92BF92CF92DF9295
:1026F000EF92FF920F931F93CF93DF93CDB7DEB787
:10270000AA970FB6F894DEBF0FBECDBF882321F085
:1027100091E09093A10605C09091A106992309F438
:10272000ECC0F82ECE0145960E947D7481E089A709
:102730008AA76E0189E2C80ED11C03E010E08CEB81
:102740009AE0FC01E55AFF4F2081FC01222319F099
:10275000208D318D04C0EA5BFF4F20813181232B16
:1027600091F10A960E94AEA4882369F1F601808156
:10277000F81224C0812C912C54018394402F60E0E6
:1027800070E080E090E40E948B72A50194010E94A9
:10279000A1E44B015C01B801CE0145960E947B414A
:1027A000FC014081518162817381840E951EA61EB9
:1027B000B71E80829182A282B38205C088248A9447
:1027C000982C5401DBCF0430110509F08EC060ED68
:1027D00077E08CEE91E00E948CA0BC0180E090E05C
:1027E0000E94DFE22091D7153091D8154091D9157C
:1027F0005091DA150E94E7E39B01AC0160E074E2BE
:1028000084E799E40E94FBE10E94A9E24B015C018C
:1028100080918506882329F18091ED0681110AC0F7
:1028200064E070E0CE0145960E947B418C0163E03C
:1028300070E009C063E070E0CE0145960E947B41E4
:102840008C0164E070E0CE0145960E947B41FC0162
:1028500080819181A281B381F80180839183A283D9
:10286000B383E12C00E010E09801B501A401CE0192
:1028700045960E94D475F11040C0CE0101960E9489
:102880007D7463E070E0CE0101960E947B418C0173
:1028900063E070E083ED96E00E947B41FC01808163
:1028A0009181A281B381F80180839183A283B38354
:1028B00064E070E0CE0101960E947B418C0164E0EF
:1028C00070E083ED96E00E947B41FC018081918164
:1028D000A281B381F80180839183A283B38360E0F6
:1028E000CE0101960E94F47308C0FFEFCF1ADF0AF1
:1028F0008DE29BE004E010E024CFAA960FB6F89496
:10290000DEBF0FBECDBFDF91CF911F910F91FF9022
:10291000EF90DF90CF90BF90AF909F908F900895F1
:102920002F923F924F925F926F927F928F929F92DF
:10293000AF92BF92CF92DF92EF92FF920F931F93CD
:10294000CF93DF93CDB7DEB7C856D1090FB6F89451
:10295000DEBF0FBECDBF182FCE01CD960E943F41E6
:10296000CE0189960E943F41112309F433C1EAE464
:10297000F5E184ED95E12485222309F4B2C2238593
:10298000222309F4AEC2BE968E179F07A1F784E1F9
:10299000E3EDF6E0DE01559601900D928A95E1F7A0
:1029A000CE0101960E947D7460E070E0CE014596F4
:1029B0000E947B418C0140915B1550915C156091A8
:1029C0005D1570915E158EE090E00E949BA06B01FA
:1029D0007C0180E00E946D7220E030E040EA50E42B
:1029E0000E94E7E30E94A9E2C61AD70AE80AF90A98
:1029F000F801C082D182E282F38261E070E0CE0110
:102A000045960E947B418C014091891550918A1511
:102A100060918B1570918C1582E190E00E949BA0D3
:102A20006B017C0181E00E946D7220E030E040EAA1
:102A300050E40E94E7E30E94A9E2C61AD70AE80A16
:102A4000F90AF801C082D182E282F38262E070E08A
:102A5000CE0145960E947B418C0162E070E0CE0180
:102A600001960E947B41FC01C080D180E280F3800E
:102A700082E00E946D7220E030E040EA50E40E9463
:102A8000E7E30E94A9E2C60ED71EE81EF91EF80170
:102A9000C082D182E282F38262E070E0CE0145968C
:102AA0000E947B41FC014081518162817381809150
:102AB000B7159091B815A091B915B091BA158417B2
:102AC0009507A607B7079CF462E070E0CE01459633
:102AD0000E947B414091B7155091B8156091B9158E
:102AE0007091BA15FC01408351836283738362E065
:102AF00070E0CE0101960E947B41FC01C080D18034
:102B0000E280F38062E070E0CE0145960E947B4156
:102B1000FC0180819181A281B3818C159D05AE0558
:102B2000BF05BCF462E070E0CE0145960E947B4197
:102B30008C0162E070E0CE0101960E947B41FC01B5
:102B400080819181A281B381F80180839183A283E6
:102B5000B38363E070E0CE0145960E947B418C0117
:102B600063E070E0CE0101960E947B41FC01808110
:102B70009181A281B381F80180839183A283B38381
:102B800064E070E0CE0145960E947B418C0164E0D8
:102B900070E0CE0101960E947B41FC018081918111
:102BA000A281B381F80180839183A283B383BE01A4
:102BB0006B5E7F4FCE018F5A9F4F0E94B77384E1A7
:102BC000FE01EF5AFF4FDE01999601900D928A9512
:102BD000E1F757C084E1E3EDF6E0DE01999601905C
:102BE0000D928A95E1F7CE0145960E947D7464E0CE
:102BF00070E0CE0189960E947B41FC011081018129
:102C00003280238063E070E0CE0189960E947B4190
:102C1000FC0180809180A280B38062E070E0CE01F0
:102C200045960E947B41FC01C080D180E280F38008
:102C300061E070E0CE0145960E947B41FC0140803E
:102C400051806280738060E070E0CE0145960E9402
:102C50007B41FC0140815181628173812F923F92BF
:102C60000F931F9393018201CE0101960E94404170
:102C700060E0CE0101960E94F4730F900F900F90C8
:102C80000F906091AD157091AE158091AF15909138
:102C9000B0150E94E1E220E030E040E857E30E94F6
:102CA000E7E32091A9153091AA154091AB155091F9
:102CB000AC150E94E7E30E94A9E2A9966CAF7DAF34
:102CC0008EAF9FAFA997CE018F5A9F4F0E947D7400
:102CD00084E1FE01EF5AFF4FDE01DD9601900D9277
:102CE0008A95E1F760E070E0CE01CD960E947B41CD
:102CF000FC01C080D180E280F38060E070E0CE0112
:102D000089960E947B41FC0180819181A281B381DF
:102D1000A7019601281B390B4A0B5B0BCA01B901AD
:102D20000E94E1E220914D1530914E1540914F15D2
:102D3000509150150E94FBE12B013C0161E070E0D5
:102D4000CE01CD960E947B41FC01C080D180E28003
:102D5000F38061E070E0CE0189960E947B41FC0126
:102D600080819181A281B381A7019601281B390B33
:102D70004A0B5B0BCA01B9010E94E1E220917B156D
:102D800030917C1540917D1550917E150E94FBE19C
:102D90004B015C0162E070E0CE01CD960E947B4168
:102DA000FC01C080D180E280F38062E070E0CE015F
:102DB00089960E947B41FC0180819181A281B3812F
:102DC000A7019601281B390B4A0B5B0BCA01B901FD
:102DD0000E94E1E22091A9153091AA154091AB150E
:102DE0005091AC150E94FBE16B017C01A3019201A3
:102DF000C301B2010E94E7E32B013C01A50194014C
:102E0000C501B4010E94E7E39B01AC01C301B2011B
:102E10000E9473E14B015C01A7019601C701B60155
:102E20000E94E7E39B01AC01C501B4010E9473E17C
:102E30000E945AE42B013C0180918506882329F1E8
:102E40008091ED0681110AC064E070E0CE018996A0
:102E50000E947B418C0163E070E009C063E070E098
:102E6000CE0189960E947B418C0164E070E0CE0126
:102E700089960E947B41FC0180819181A281B3816E
:102E8000F80180839183A283B383B090801610925F
:102E900080166091AD157091AE158091AF1590912F
:102EA000B0150E94E1E220E030E040E857E30E94E4
:102EB000E7E320E030E040E852E40E94E7E30E94CC
:102EC000A9E26B018301720120E0A9964CAD5DADD2
:102ED0006EAD7FADA997CE0189960E946A77B092B8
:102EE0008016C859DF4F0FB6F894DEBF0FBECDBFB6
:102EF000DF91CF911F910F91FF90EF90DF90CF90D6
:102F0000BF90AF909F908F907F906F905F904F9009
:102F10003F902F900895EF92FF920F931F93CF93BE
:102F2000DF9328E0829FC0011124FC01E254F94F95
:102F3000F08001811281D381C481B581E680E7816F
:102F40002F2D302F412F5D2F6C2F7B2F8E2D9E2FFD
:102F5000A0E00E9402E754F40E945DE6F22E032FE7
:102F6000142FD52FC62FB72FE82EE92F2F2D302F56
:102F7000412F5D2F6C2F7B2F8E2D9E2FDF91CF91B8
:102F80001F910F91FF90EF9008952F923F924F92D3
:102F90005F926F927F928F929F92AF92BF92CF92E9
:102FA000DF92EF92FF920F931F93CF93DF93C82F7F
:102FB0000E948B1779011A012B013C01A0E00E94AD
:102FC00002E709F00CF453C088E0C89FE001112427
:102FD0004E0188E4881A8EEF980A00E010E020E0A5
:102FE00030E040E050E060E070E0C4010E943FA1AA
:102FF00059016A01F62FE72F8C019701A101B20157
:10300000C301EF2EFE2E0E94DBE689019A01AB017F
:10301000BC01C4010E9491A1DE01A255B94FFE017D
:10302000E254F94F80818C93818111968C93119792
:10303000828112968C931297838113968C931397A7
:10304000848114968C931497858115968C9315978B
:10305000868116968C931697878117968C9310828B
:103060001182128213821482158216821782DF91D6
:10307000CF911F910F91FF90EF90DF90CF90BF9075
:10308000AF909F908F907F906F905F904F903F9008
:103090002F90089580E00E94C51781E00C94C51719
:1030A000EF92FF920F931F93CF93DF9328E0829FBD
:1030B000C0011124FC01E255F94FF0800181128119
:1030C000D381C481B581E680E7812F2D302F412F38
:1030D0005D2F6C2F7B2F8E2D9E2FA0E00E9402E78C
:1030E00054F40E945DE6F22E032F142FD52FC62F25
:1030F000B72FE82EE92F2F2D302F412F5D2F6C2F6A
:103100007B2F8E2D9E2FDF91CF911F910F91FF90DE
:10311000EF900895CF92DF92EF92FF9280E00E94AD
:103120005018E42F43E0B9018E2F952F0E94797239
:103130006B017C0181E00E945018E42F44E0B9014A
:103140008E2F952F0E9479729B01AC01C701B601A9
:103150000E9473E16B017C0180E00E948B17E42FD9
:1031600043E0B9018E2F952F0E9479729B01AC012B
:10317000C701B6010E9473E16B017C0181E00E94EE
:103180008B17E42F44E0B9018E2F952F0E9479729E
:103190009B01AC01C701B6010E9473E1FF90EF9063
:1031A000DF90CF9008950F931F93CF93DF93D82F85
:1031B00000E916E0C0E0F801808181110FC08C2F7A
:1031C0000E94A57AF8018083DD2321F08C2F0E94D4
:1031D000AB7A04C064E18C2F0E94A07ACF5F0F5FAE
:1031E0001F4FC53041F7DF91CF911F910F91089587
:1031F0000F931F93CF9300E916E0C0E0F8016081C0
:103200008C2F0E94A07AF80111928F01CF5FC530F8
:10321000A9F7CF911F910F910895EF92FF920F930D
:103220001F93CF93DF93CDB7DEB764970FB6F894B3
:10323000DEBF0FBECDBF8091EB06853409F40BC114
:1032400090F5813409F461C0B8F4803209F4EEC11C
:10325000803409F43FC0823009F01FC20E9440113F
:103260006091E9067091EA0621E040E08CE699E081
:103270000E94443A81E0FDC1833409F450C008F053
:1032800058C0CE0101960E947D7484E1FE01319602
:10329000A3EDB6E001900D928A95E1F781E00E94DE
:1032A000721383E4E6C1843809F486C150F481388E
:1032B00009F464C1833809F470C1803809F0EDC1A4
:1032C00000C1863809F491C108F485C1873809F432
:1032D00091C1E3C10E946330853029F00E946330C0
:1032E000843009F0BAC181E48093EB0681E06496F2
:1032F0000FB6F894DEBF0FBECDBFDF91CF911F9107
:103300000F91FF90EF900C94D3188091DA0C90916C
:10331000D90C891B8F7009F0C0C182E4AAC18091C9
:10332000DA0C9091D90C891B8F7009F0B6C184E436
:10333000A0C181E00E94901485E48093EB060E9476
:103340006330853039F00E94633011E0843019F029
:1033500010E001C011E08091B60B80938F0660E011
:1033600080E00E94133C8091170B882329F0809104
:10337000D40A9091D50A04C08091020B9091030B5E
:1033800090939606809395068091880B882329F068
:103390008091450B9091460B04C08091730B9091E6
:1033A000740B90939806809397068091B80A8823AF
:1033B00029F08091750A9091760A04C08091A30A41
:1033C0009091A40A90939A06809399068091E806BA
:1033D00081114BC160E08EEF9FE00E9483A08823A3
:1033E00009F443C18091E806882349F040E060E099
:1033F00080E00E94488060E088EF0E94707A6091CF
:10340000E9067091EA066115710569F08091FC0882
:10341000811105C0111103C087EF93E102C082EE54
:1034200093E141E00AC0111103C087EF93E102C0AC
:1034300082EE93E141E063EA73E164960FB6F8949B
:10344000DEBF0FBECDBFDF91CF911F910F91FF90D7
:10345000EF900C940C118091DA0C9091D90C891B8F
:103460008F7009F01AC10E94F8188091FC08882317
:1034700011F080E209C08091E9069091EA06892B5B
:1034800011F481E001C082E08093EB060E944011BC
:103490000E946330853009F400C10E94633084309B
:1034A00009F4FBC087E064960FB6F894DEBF0FBE48
:1034B000CDBFDF91CF911F910F91FF90EF900C94B2
:1034C000CB4080E00E94D31800919F061091A00687
:1034D0000115110521F40091990610919A06101614
:1034E000110654F460E087E69AE00E9432A5B80124
:1034F00087E69AE00E94DEA3E0909B06F0909C068F
:10350000E114F10421F4E0909506F09096061E1463
:103510001F0494F460E086EC9AE00E9432A5B701A3
:1035200086EC9AE00E94DEA3101611062CF461E0EE
:1035300086EC9AE00E9432A5E0909D06F0909E06EF
:10354000E114F10421F4E0909706F09098061E141F
:103550001F0494F460E087E39BE00E9432A5B7016A
:1035600087E39BE00E94DEA3101611062CF461E0B5
:1035700087E39BE00E9432A581E87BC08091990699
:1035800090919A06181619060CF072C087E69AE018
:103590000E94AEA481116CC080C08091950690916C
:1035A0009606181619060CF067C086EC9AE00E9481
:1035B000AEA4811161C071C081E00E94D31880E087
:1035C0000E94901485E88093EB0641E06EE873E179
:1035D0008DEC93E132CF8091DA0C9091D90C891B5C
:1035E0008F7009F05AC086E844C080E00E947213D0
:1035F00087E83FC08091DA0C9091D90C891B8F70BD
:1036000009F04BC060E080918F060E94133C0E943D
:10361000F8180E9440111092EB061092EA061092E0
:10362000E9061092FB081092FA0837C00E94401178
:103630006091E9067091EA0621E040E08CE699E0AD
:103640000E94443A0E94DD421092EA061092E90676
:103650001092FC081092EB0620C041E068EB73E189
:1036600087EF93E10E940C113ECE0E940F10BACE5C
:1036700083E88093EB0611C080919706909198069D
:103680001816190634F487E39BE00E94AEA4882341
:1036900021F00E94F81884E8ECCF64960FB6F894F5
:1036A000DEBF0FBECDBFDF91CF911F910F91FF9075
:1036B000EF9008958F929F92AF92BF92CF92DF9238
:1036C000EF92FF92CF93C0910202C53609F453C026
:1036D000CC2309F450C0F0908A06CF1509F44BC0F2
:1036E000FF2009F448C0609186067091870680919A
:1036F0008806909189066115710581059105D9F1BA
:103700000E94DFE24B015C016C2F70E06F197109C0
:10371000072E000C880B990B0E94E1E29B01AC0183
:10372000C501B4010E94FBE16B017C016C2F70E0CC
:1037300080E090E00E94DFE29B01AC0160E070E07D
:1037400088EC92E40E9472E19B01AC01C701B601D2
:103750000E94E7E36B017C0120E030E0A9010E94B8
:10376000F6E187FF03C0C12CD12C7601C701B60159
:103770000E94A9E203C060E070E0CB01CF91FF900E
:10378000EF90DF90CF90BF90AF909F908F90089573
:10379000FC0184819581860F971F608171810E9451
:1037A000BDE426813781820F931F08951F93CF9325
:1037B000DF93EC012A813B818881998128173907A1
:1037C00070F4162F6A817B81CE010E94C81BFC0118
:1037D00010838A819B8101969B838A8302C081E04A
:1037E0008887DF91CF911F910895682F8EEE96E024
:1037F0000C94D61BCF93DF93EC018A819B81892B9C
:1038000021F481E0898780E015C060E070E0CE019E
:103810000E94C81BFC018C819D8101966881798181
:103820000E94BDE49D838C838A819B8101979B8349
:103830008A838081DF91CF9108958EEE96E00C947B
:10384000FA1BCF938EEE96E00E94FA1BC82F8EEEE5
:1038500096E00E94FA1B982F8C2FCF9108951F930A
:10386000CF93DF938EEE96E00E94FA1B182F8EEE18
:1038700096E00E94FA1BD82F8EEE96E00E94FA1B6B
:10388000C82F8EEE96E00E94FA1B982F612F7D2F95
:103890008C2FDF91CF911F910895CF92DF92EF92FD
:1038A000FF921F93CF93DF93C82F61E070E08EEEFD
:1038B00096E00E94C81BFC011081CF3F09F01C2F2D
:1038C00062E070E08EEE96E00E94C81BFC018081F1
:1038D0008D3009F488C048F48C3008F071C0843011
:1038E00008F0F0C0833071F00BC0873109F45EC07E
:1038F00020F4803108F4E6C003C08F3109F47FC0A2
:1039000010E000C164E070E08EEE96E00E94C81BFB
:10391000FC01C081D0E065E070E08EEE96E00E9490
:10392000C81BFC01808190E0982F8827C80FD91F01
:10393000209719F40E944A1814C0C12ED12C760188
:10394000EE0CFF1CF701E556F94F80819181892B20
:1039500009F0BAC060E08DEF9FE00E9483A0811162
:10396000B3C0113019F08CEB9AE002C08DE29BE0FD
:10397000BE010A960E94DEA387E69AE00E94DAA4BE
:10398000882309F4B6C087E69AE00E94EFA481116B
:10399000B0C0113019F08CEB9AE002C08DE29BE0D0
:1039A0000A960E94EFA48111A4C07CC00E941B1241
:1039B00091E0811190E060E0892F0E94BC3282C0CA
:1039C00064E070E08EEE96E00E94C81BFC0160810E
:1039D0006170113019F08CEB9AE002C08DE29BE02F
:1039E0000E9451A26FC064E070E08EEE96E00E94EB
:1039F000C81B61E0FC0180810E94133C63C00E94EF
:103A0000312D182F882309F45DC064E070E08EEE3C
:103A100096E00E94C81BFC01C081EC2EF12C65E0F1
:103A200070E08EEE96E00E94C81BFC01C081D0E0E1
:103A3000DC2FCC27CE0DDF1D2097D1F080919F0683
:103A40009091A006892B39F460E08DEF9FE00E94F1
:103A500083A0882369F080919F069091A00600972B
:103A600031F464E670E08CE591E00E948CA0EC01FA
:103A7000BE0187E69AE00E94DEA361E08CE699E051
:103A80000E940E3C87E69AE00E94EFA491E089270D
:103A90008093EC060E94873E8091BA0B8E7F8093C4
:103AA000BA0B30C081E08093EC061130F9F08CEB5A
:103AB0009AE061E00A960E9432A58091BA0B8E7F4F
:103AC0008093BA0B11E01EC0F701E556F94F8081D3
:103AD0009181009749F4C601880F991F66EE70E046
:103AE000885A9E4F0E948CA0EC013BCF8DE29BE058
:103AF000E0CF113019F08CEB9AE002C08DE29BE030
:103B000060E0D8CF812FDF91CF911F91FF90EF9090
:103B1000DF90CF9008952F923F924F925F926F92D5
:103B20007F928F929F92AF92BF92CF92DF92EF924D
:103B3000FF920F931F93CF93DF93CDB7DEB7C65697
:103B4000D1090FB6F894DEBF0FBECDBF0E946A4206
:103B50008823B9F08091F0069091F1062091EE064D
:103B60003091EF062817390749F10E94BE42882399
:103B700029F10E94CB42682F8EEE96E00E94D61B60
:103B8000E9CF0E94C47E8823A1F18091F006909134
:103B9000F1062091EE063091EF062817390709F457
:103BA00013C20E94D27E882309F40EC20E94E07ED6
:103BB000682F8EEE96E00E94D61BE7CF0E94BE4291
:103BC000811117C080910402882309F4F3C19091F8
:103BD000EB069111EFC191E09093FC08813009F060
:103BE000E1C189E89BE19093EA068093E9060E948F
:103BF000F1108091EC06882359F087E69AE00E9444
:103C0000AEA4882329F080E00E94873E1092EC0643
:103C10008091CF069091D006A091D106B091D206A6
:103C2000892B8A2B8B2B19F18091CE0681111FC015
:103C3000CE0101960E947D7462E070E0CE01019693
:103C40000E947441DC014D915D916D917C91809158
:103C5000CF069091D006A091D106B091D206481718
:103C600059076A077B071CF481E08093CE06809198
:103C7000CF069091D006A091D106B091D206892BA3
:103C80008A2B8B2B79F18091CE06882359F10E94E3
:103C90001B12811127C0CE0101960E947D7462E043
:103CA00070E0CE0101960E947441FC014081518177
:103CB000628173818091CF069091D006A091D10648
:103CC000B091D206481759076A077B075CF060E09D
:103CD00070E0CB010E94331260E081E00E94BC32B0
:103CE0000C94112A1091EB06123020F00E940D194D
:103CF0000C94112A1130F1F48091E80681110C9492
:103D0000112A8091E70681110C94112A83E29AE02E
:103D10000E9462DF882311F40C94112A1093E806A4
:103D20000E940F1040E060E080E00E94488060E068
:103D300088EF8DC180918206833071F40E94F87201
:103D4000882341F086E796E00E9462DF882321F015
:103D50000E94297E109282068091FB08811104C086
:103D60008091FA08882329F18091F908882309F1C4
:103D7000809182068330E9F08091EB06811119C0B1
:103D80000E941B12811111C08091FA08882319F03A
:103D900080E691E102C087E998E19093EA0680937A
:103DA000E90661E081E00E94BC321092FB081092AB
:103DB000830680918206813031F40E94F87281116D
:103DC00002C01092820680918206823039F48CE71C
:103DD00096E00E9462DF8111109282068091820635
:103DE000843009F052C080E796E00E9462DF8823A9
:103DF00049F020E040E061E67AE18CE699E00E943B
:103E0000443A20C08091ED06813019F48DE29BE0A8
:103E100002C08CEB9AE00A960E94DAA4811115C0C8
:103E200080918506882371F08091ED06811103C091
:103E30008DE29BE002C08CEB9AE00A960E94DAA425
:103E4000811123C01092820620C08091ED0681303E
:103E500019F48DE29BE002C08CEB9AE00A960E9476
:103E6000AEA4882391F080918506882359F3809130
:103E7000ED06882319F08CEB9AE002C08DE29BE0FE
:103E80000A960E94AEA48111DDCF80918206853012
:103E9000E1F480E796E00E9462DF882349F020E0A9
:103EA00040E06CE27AE18CE699E00E94443AD3C0AB
:103EB00087E69AE00E94DAA4882309F4CCC087E65A
:103EC0009AE00E94AEA48111C6C08091820686301D
:103ED00091F58AE696E00E9462DF882391F0809156
:103EE000680681FF06C060E08CE699E00E949F3E74
:103EF00022C0109282068091BA0B8F7E8093BA0BFB
:103F00001AC08BE39AE00E94B9A98823A1F080919E
:103F1000680682FF04C08BE39AE00E942EA80E94EC
:103F2000803E8091BA0B8F7E8093BA0B8FEF0E94F8
:103F30008C80109282068091820681110C94112A45
:103F400060E070E08EEE96E00E94C81BDC011C91E0
:103F50000E94135C882359F0812F8F7E8B3811F0DB
:103F60001E3811F410920C0281E080930B02B0E233
:103F70006996BFAF69978091F0069091F106892B01
:103F800089F18091DA0C9091D90C891B8F708E3059
:103F900048F5812F8F7E8B3809F42EC51E3809F421
:103FA0002BC520C08B3019F488E29BE11CCE86E73C
:103FB0009BE119CE8091E9069091EA06892B09F0E0
:103FC00018CE0E94DD4215CE0E94D27E811111CE04
:103FD0008091F0069091F106892B09F00ACE0E949B
:103FE0001B7F07CE80910C02811105C00E94B46432
:103FF00081E080930C028091F0069091F106892B6C
:1040000011F40C94112A8CE699E00E944D3A1B3869
:1040100009F41FC11E3809F41CC11B3909F419C168
:104020001938E1F48091F0069091F106029710F4AE
:104030000C94112A0E941D1C0E941D1C9091850643
:1040400091110C94A129682F661F6627661F0E9494
:10405000707A0C94112A1092820637CF163811F418
:104060000C9491291C3909F4F4C0812F8B7F80397D
:1040700099F09DE7910F923078F0883849F0163921
:1040800009F4E7C00E94135C882311F40C94112AF0
:104090001C3811F40C94B8291538D1F48091F0062D
:1040A0009091F106059710F40C94112A82E0809308
:1040B00082060E941D1C0E942F1C9B01AC01A8EED1
:1040C000B3E00E943EE5AB01BC018CE796E01AC16B
:1040D0001439A1F58091F0069091F106059710F43E
:1040E0000C94112A0E941D1C0E941D1C80936906BD
:1040F0000E94211C7C010E941D1C80936806E11413
:10410000F10471F0D70120E432E44FE050E00E9466
:104110003EE5AB01BC018AE696E00E9430DF87C035
:10412000CE0101960E942DDF86E0FE013196AAE6BF
:10413000B6E001900D928A95E1F779C0153909F042
:1041400088C08091F0069091F106069710F40C94C7
:10415000112A0E941D1C0E941D1C182F0E941D1C4C
:10416000D82E0E941D1CE82E0E941D1CF82E10FD4A
:1041700004C083EC99E00E9492CCD092C609E092F0
:10418000C7096EEE76E083EC99E00E94F6CB11FD54
:1041900002C00C94112AE091550AEE0FFF0BE95B67
:1041A000F54F80819181835C994039F063EC79E02F
:1041B0008BE39AE00E948AA704C083EC99E00E94F6
:1041C000D2CC1470FF2049F0111107C06F2D83EC81
:1041D00099E00E94C2CC0C94112A112311F40C9482
:1041E000112AFF2079F0AF2DB0E020E432E44FE057
:1041F00050E00E943EE5AB01BC018AE696E00E94D9
:1042000030DF0DC0CE0101960E942DDF86E0FE0159
:104210003196AAE6B6E001900D928A95E1F781E029
:1042200080936906809168068470809368060E9476
:10423000763E609169068BE39AE00E94B6A9809170
:10424000BA0B80618093BA0B86E0809382060C944F
:10425000112A8DE7810F823070F58091F0069091E0
:10426000F106089710F40C94112A0E941D1C0E945C
:104270001D1CF82E0E942F1C4B015C010E94211C6A
:1042800023E020938206DC0120E432E44FE050E09A
:104290000E943EE5AB01BC0186E796E00E9430DF5C
:1042A00081E0143809F080E0A50194016F2D0E948F
:1042B000B3790C94112A173849F58091F006909142
:1042C000F106069710F40C94112A84E0809382067C
:1042D00081E08093F908109283060E941D1C0E94C1
:1042E0001D1C8093ED060E94211C0E94211CDC01F4
:1042F00020E432E44FE050E00E943EE5AB01BC0117
:1043000080E796E00E9430DF0C94112A1D38A9F452
:104310008091F0069091F106069710F40C94112A02
:1043200085E08093820681E08093F90810928306ED
:104330000E941D1C0E941D1CD6CF1F3809F09CC076
:104340008091F0069091F106029710F40C94112AD6
:104350000E941D1C0E941D1C182FCE0101960E9458
:104360007D749EE0C92ED12CE12CF12CA12EB12C14
:10437000C5010E2C02C0959587950A94E2F780FF3F
:1043800017C0B701CE0101960E947B41FC018081DC
:104390009181A281B3818AA79BA7ACA7BDA7F894FE
:1043A00044E050E0B601CE018A960E949BE77894E3
:1043B000FFEFEF1AFF0A04E0C00ED11C23E0E21663
:1043C000F104B1F6112311F40C94112A812F887194
:1043D00081130C94112A183021F0103121F012E0D1
:1043E00003C010E001C011E081E090E0012E01C0A7
:1043F000880F0A94EAF790918406892B80938406AB
:1044000060E070E0CE0101960E947B41FC0180815A
:104410009181A281B3818AA79BA7ACA7BDA761E0C8
:1044200070E0CE0101960E947B41FC018081918168
:10443000A281B3818EA79FA7A8ABB9AB62E070E061
:10444000CE0101960E947B41FC0180819181A28175
:10445000B3818AAB9BABACABBDABF894FCE01F9FC8
:10446000B00111246B5D714F4CE050E0CE018A9693
:104470000E949BE77894D5C7103909F029C1809133
:10448000F0069091F106029708F4CBC70E941D1C1C
:104490000E941D1C182FCE018A960E947D7418312F
:1044A00009F07AC0809184068770873009F043C094
:1044B000F89444E050E066E170E0CE01CE960E94B0
:1044C00077E749E250E060E27EE0CE0101960E948B
:1044D00077E778948A819B81AC81BD811816190693
:1044E0001A061B0644F088EC90E0A0E0B0E08A8356
:1044F0009B83AC83BD8322962CAD3DAD4EAD5FADAD
:1045000022976A817B818C819D818E01025E1F4F83
:104510006801DE0152967D01085111090E9416467C
:10452000882339F08091840688608093840610E0A7
:1045300003C012E001C011E0F89461E0111101C064
:1045400060E080E29EE00E94A5E778941123C1F02C
:10455000113019F481E692E10CC00E943C486D3F95
:104560007F4F8F4F9F4F19F486E892E102C081EB95
:1045700091E19093EA068093E9060E94F11003C04E
:1045800081E00E94F57210927B1610927C161092B8
:104590007D1610927E1645C7183009F03EC0F8947B
:1045A00044E050E066E170E0CE018C5B9F4F0E94DA
:1045B00077E749E250E060E27EE0CE0101960E949A
:1045C00077E778948CE390E0A0E0B0E08A839B8367
:1045D000AC83BD838E01025E1F4F9E012E5E3F4F56
:1045E000AE014A5F5F4F6CE370E080E090E00E94B4
:1045F0008D4540E068ED71E1882319F08AE192E190
:1046000002C089EF91E10E940C11CE01CE960E946A
:104610002DDF86E0FE01FE96FCCD103119F40E94DC
:10462000F245FFC68EE0A82EB12CC12CD12CE12E74
:10463000F12CC7010C2C02C0959587950A94E2F7DE
:1046400080FF0CC0F894B601CE018A960E947B418F
:1046500044E050E0B5010E9477E77894EFEFCE1A7E
:10466000DE0AF4E0AF0EB11C03E0C016D10409F776
:1046700063E070E0CE018A960E947B41FC0180815C
:104680009181A281B3818093A6069093A706A093FF
:10469000A806B093A90664E070E0CE018A960E9455
:1046A0007B41FC0180819181A281B3818093AA0624
:1046B0009093AB06A093AC06B093AD06CE018A965C
:1046C0000E94631161E0CE018A960E94F473A9C62C
:1046D000113999F48091F0069091F106039708F44E
:1046E000A0C60E941D1C0E941D1C182F0E941D1C8C
:1046F000682F812F0E94A07A94C61239E1F480912C
:10470000F0069091F106069708F48BC60E941D1CD6
:104710000E941D1C182F0E941D1CF82E0E941D1C9B
:10472000E82E0E941D1C0E941D1C4E2D6F2D812FF6
:104730000E94668176C61339B1F48091F00690919B
:10474000F106069708F46DC60E941D1C0E94211CEC
:104750007C010E94211C6C010E941D1CB601C70136
:104760000E946A405EC6183809F062C08091F00667
:104770009091F106049708F454C663E070E08EEE61
:1047800096E00E94C81B2091F0063091F106DC01F2
:10479000EC90F12CB4E0EB0EF11C2E153F0508F463
:1047A00040C680918506882339F0809101028823D4
:1047B00019F01092010203C081E08093010262E0CF
:1047C00070E08EEE96E00E94C81BFC018081833071
:1047D00059F062E070E08EEE96E00E94C81BDC01AA
:1047E0008C918C3009F099C58091010281110DC026
:1047F00061E070E08EEE96E00E94C81BFC0181E053
:104800009081992319F080E001C08FEF0E944D1C28
:1048100080910102882309F404C610E0812F90E002
:104820008E159F0508F0FDC50E941D1C1F5FF6CF69
:10483000163909F041C08091F0069091F106039776
:1048400008F4EFC50E941D1C0E941D1C80930202EB
:104850000E941D1C809102028823F1F080918B063A
:1048600090918C06A0918D06B0918E06892B8A2B93
:104870008B2B91F480918A0681110EC00E943C31ED
:1048800060938B0670938C0680938D0690938E06B2
:104890008091020280938A0680910202882309F4A3
:1048A000C0C50E943C316093860670938706809352
:1048B000880690938906B5C51739B9F48091F0063A
:1048C0009091F1060297B8F10E941D1C0E941D1CD8
:1048D000811102C084E006C0813019F40E94CB40EF
:1048E0002AC082E00E94064126C0183999F48091BE
:1048F000F0069091F106029708F493C50E941D1CE2
:104900000E941D1C0E942B2C60E08CE699E00E9406
:104910009F3E87C5193991F48091F0069091F10678
:10492000059708F47EC50E941D1C0E942F1C8EEE68
:1049300096E00E9480301092F90873C51A3971F41C
:104940008091F0069091F106029708F46AC50E94E2
:104950001D1C0E941D1C0E94D331EDCF1C3999F4FF
:104960008091F0069091F106029708F45AC50E94D2
:104970001D1C0E941D1C91E0813009F090E0892FE0
:104980000E94B07A4EC51D39A1F48091F006909135
:10499000F106459708F445C50E942F1C0E942F1C64
:1049A0000E942F1C0E942F1C0E942F1C0E941D1C65
:1049B00038C51E3909F035C58091F0069091F10691
:1049C000059708F42EC50E941D1C0E942F1C6B0128
:1049D0007C012FE632E143E85AE30E94F6E187FFCB
:1049E00003C0C12CD12C760142E0C701B6010E9460
:1049F0008B720E94331215C56996BFAD6997B1508D
:104A00006996BFAF6997B11105C08CE699E00E9425
:104A10004D3A07C51B3809F0EEC08091F006909121
:104A2000F106499708F453C40E941D1CE1E0E0938D
:104A300082060E942F1C2C966CAF7DAF8EAF9FAF6D
:104A40002C970E942F1C60966CAF7DAF8EAF9FAFEE
:104A500060970E942F1C64966CAF7DAF8EAF9FAFA6
:104A600064970E942F1C22966CAF7DAF8EAF9FAFD4
:104A700022970E942F1C6AA77BA78CA79DA78091D5
:104A80007F16882351F060E0CE01CE960E9416106A
:104A900061E0CE018A960E9416100E942F1C689633
:104AA0006CAF7DAF8EAF9FAF6897809185068823EE
:104AB000C9F08091ED0681110BC022968CAD9DADA1
:104AC000AEADBFAD22978AA79BA7ACA7BDA70AC072
:104AD0008AA59BA5ACA5BDA522968CAF9DAFAEAF18
:104AE000BFAF229722968CAD9DADAEADBFAD2297E4
:104AF0008093A6069093A706A093A806B093A90654
:104B00004AA45BA46CA47DA48091AA069091AB06F4
:104B1000A091AC06B091AD0693018201081B190B60
:104B20002A0B3B0BD901C80168017901FF0CCC08A5
:104B3000DC2C76019801AD016C2D7C2D8C2D9C2DEB
:104B4000A090C606B090C706C090C806D090C9060F
:104B5000E090CA06F090CB060091CC061091CD06ED
:104B60000E94DBE62093C6063093C7064093C80632
:104B70005093C9066093CA067093CB068093CC0607
:104B80009093CD064092AA065092AB066092AC0676
:104B90007092AD060E94FE0F22968CAC9DACAEAC1E
:104BA000BFAC22978DA58F938CA58F938BA58F93E8
:104BB0008AA58F936496CCACDDACEEACFFAC649769
:104BC00060960CAD1DAD2EAD3FAD60972C964CADF3
:104BD0005DAD6EAD7FAD2C97CE0101960E94404138
:104BE000E12C00E010E0980168964CAD5DAD6EAD33
:104BF0007FAD6897CCC11E3809F0CEC18091F00618
:104C00009091F1064A9708F462C30E941D1C11E0BE
:104C1000109382060E942F1C64966CAF7DAF8EAFFE
:104C20009FAF64970E942F1C68966CAF7DAF8EAFCC
:104C30009FAF68970E942F1C6D966CAF7DAF8EAFB3
:104C40009FAF6D970E942F1C28966CAF7DAF8EAFE3
:104C50009FAF28970E942F1C22966CAF7DAF8EAF1E
:104C60009FAF22970E942F1CA1966CAF7DAF8EAF95
:104C70009FAFA1970E941D1C29968FAF2997809105
:104C80008506882399F18091ED06811117C0289639
:104C90008CAD9DADAEADBFAD289722968CAF9DAFCC
:104CA000AEAFBFAF229729968FAD29978F7E2996F9
:104CB0002FAD299723FF17C0806115C022968CADB8
:104CC0009DADAEADBFAD229728968CAF9DAFAEAF78
:104CD000BFAF289729968FAD2997877F29963FAD3B
:104CE000299734FD886029968FAF299780917F1688
:104CF000882359F029964FAD2997BE01625C7F4FFA
:104D0000CE018C5B9F4F0E94D61028968CAD9DAD36
:104D1000AEADBFAD28978AA79BA7ACA7BDA722962B
:104D20008CAD9DADAEADBFAD22978EA79FA7A8ABB2
:104D3000B9ABAEEBB6E0A796BFAFAEAFA7971E017B
:104D4000BAE22B0E311CE6EAF6E0A596FFAFEEAF15
:104D5000A59773E0472E512C2996BFAD2997AB2F0D
:104D6000B0E0A396BFAFAEAFA397A3968EAD9FADB5
:104D7000A397042C02C0959587950A94E2F780FFCB
:104D800053C0F1016080718082809380740163015F
:104D9000FF0CCC08DC2C76019301A4016C2D7C2D3A
:104DA0008C2D9C2DA796AEADBFADA797AC9011965C
:104DB000BC9011971296CC9012971396DC90139793
:104DC0001496EC9014971596FC90159716960C91E6
:104DD000169717961C9117970E94DBE62C93119655
:104DE0003C93119712964C93129713965C931397DA
:104DF00014966C93149715967C93159716968C932E
:104E0000169717969C93A596EEADFFADA59740819A
:104E1000518162817381460D571D681D791D408344
:104E200051836283738360C0D1010D911D912D91D7
:104E30003C9160960CAF1DAF2EAF3FAF6097A5962B
:104E4000EEADFFADA597408151816281738148012C
:104E50005901841A950AA60AB70A75016401FF0C64
:104E6000CC08DC2C76019401A5016C2D7C2D8C2DB9
:104E70009C2DA796AEADBFADA797AC901196BC90F8
:104E800011971296CC9012971396DC901397149664
:104E9000EC9014971596FC90159716960C91169712
:104EA00017961C9117970E94DBE62C9311963C9362
:104EB000119712964C93129713965C93139714962E
:104EC0006C93149715967C93159716968C9316975A
:104ED00017969C9360960CAD1DAD2EAD3FAD6097BF
:104EE0000083118322833383BFEF4B1A5B0AA7969B
:104EF000EEADFFADA7973896A796FFAFEEAFA79799
:104F0000F4E02F0E311CA596AEADBFADA59714965B
:104F1000A596BFAFAEAFA597B5E04B16510409F00B
:104F200024CF0E94FE0F28968CAC9DACAEACBFACDB
:104F3000289722968FAD22978F9321968FAD219738
:104F40008F938FAD8F938EAD8F936D96CCACDDAC80
:104F5000EEACFFAC6D9768960CAD1DAD2EAD3FADC0
:104F6000689764964CAD5DAD6EAD7FAD6497CE0134
:104F700001960E9440412996EFAC2997A1960CAD6D
:104F80001DAD2EAD3FADA19740E050E0BA01CE017E
:104F900001960E94D47597C11B3909F098C1809180
:104FA000F0069091F106809708F491C10E941D1CB3
:104FB000E1E0E09382060E942F1C60966CAF7DAF0B
:104FC0008EAF9FAF60970E942F1C64966CAF7DAF31
:104FD0008EAF9FAF64970E942F1C68966CAF7DAF19
:104FE0008EAF9FAF68970E942F1C28966CAF7DAF45
:104FF0008EAF9FAF28970E942F1C22966CAF7DAF7B
:105000008EAF9FAF22970E942F1C6D966CAF7DAF25
:105010008EAF9FAF6D970E941D1C182F0E942F1CF2
:10502000A1966CAF7DAF8EAF9FAFA1970E94211C60
:10503000A3969FAF8EAFA39780918506811105C07F
:105040001F7729961FAF299733C08091ED068111F4
:1050500018C028968CAD9DADAEADBFAD28972296F9
:105060008CAF9DAFAEAFBFAF2297F12FFF762996E1
:10507000FFAF299713FF1CC0F0612996FFAF299756
:1050800017C022968CAD9DADAEADBFAD22972896D0
:105090008CAF9DAFAEAFBFAF2897012F0777299692
:1050A0000FAF299714FF04C0086029960FAF299706
:1050B00080917F16882359F029964FAD2997BE011C
:1050C000625C7F4FCE018C5B9F4F0E94D61028966A
:1050D0008CAD9DADAEADBFAD28978AA79BA7ACA701
:1050E000BDA722968CAD9DADAEADBFAD22978EA76C
:1050F0009FA7A8ABB9ABEEEBF6E01E011AE2210EBA
:10510000311CA6EAB6E0A796BFAFAEAFA79743E0C3
:10511000442E512C2996BFAD2997AB2FB0E0A59610
:10512000BFAFAEAFA597A5968EAD9FADA597042C4A
:1051300002C0959587950A94E2F7D1016D907D9014
:105140008D909C9080FF31C074016301FF0CCC08EE
:10515000DC2C76019301A4016C2D7C2D8C2D9C2DD3
:10516000A080B180C280D380E480F5800681178161
:105170000E94DBE6208331834283538364837583FB
:1051800086839783A796AEADBFADA7974D915D91EE
:105190006D917C911397460D571D681D791D4D9398
:1051A0005D936D937C93139734C0A796AEADBFAD5E
:1051B000A7974D915D916D917C9113979401830117
:1051C000041B150B260B370BC901B80168017901C7
:1051D000FF0CCC08DC2C76019B01AC016C2D7C2DE6
:1051E0008C2D9C2DA080B180C280D380E480F5807E
:1051F000068117810E94DBE620833183428353833B
:1052000064837583868397836D927D928D929C9241
:105210001397BFEF4B1A5B0A389604E0200E311C3F
:10522000A796AEADBFADA7971496A796BFAFAEAF8A
:10523000A797B5E04B16510409F075CF0E94FE0FF9
:10524000709080162996EFAD29977E2A28968CAC0F
:105250009DACAEACBFAC289722968FAD22978F93B2
:1052600021968FAD21978F938FAD8F938EAD8F93B6
:105270006896CCACDDACEEACFFAC689764960CAD38
:105280001DAD2EAD3FAD649760964CAD5DAD6EAD7E
:105290007FAD6097CE0101960E944041A396CEACAF
:1052A000DFACA397A196ECACFDAC0EAD1FADA19702
:1052B000272D6D964CAD5DAD6EAD7FAD6D97CE017A
:1052C00001960E946A770F900F900F900F90209197
:1052D000F0063091F1068091EE069091EF062817C6
:1052E000390781F00E946A42882361F00E94BE4221
:1052F000882341F00E94CB42682F8EEE96E00E94F8
:10530000D61BE5CF60E070E08EEE96E00E94C81BF1
:10531000FC011081A8950C94BB1F81E080930102D1
:1053200063CA8091F0069091F106029708F479C063
:105330000E941D1C0E941D1C8093ED060E94B37AE2
:1053400070C09091ED06911108C0982F9F7E83FF49
:105350000CC0892F80610C942320982F977F84FFA5
:1053600004C0892F88600C942320892F0C9423205B
:105370008091F0069091F106459708F452C00E9482
:105380001D1C0E942F1C2B013C010E942F1C2C96DF
:105390006CAF7DAF8EAF9FAF2C970E942F1C6B011F
:1053A0007C010E942F1C4B015C010E942F1C20914C
:1053B0008506222349F02091ED06211103C0B40196
:1053C000C50102C04B015C018092A6069092A7061F
:1053D000A092A806B092A9066093AA067093AB06A5
:1053E0008093AC069093AD069F938F937F936F93BA
:1053F0002C960CAD1DAD2EAD3FAD2C97B301A20187
:10540000CE0101960E944041CE0101960E94631197
:1054100060E0CE0101960E94F4730F900F900F9000
:105420000F90CA59DF4F0FB6F894DEBF0FBECDBF45
:10543000DF91CF911F910F91FF90EF90DF90CF9070
:10544000BF90AF909F908F907F906F905F904F90A4
:105450003F902F90089540E066E174E08DEF98E072
:105460000E9486DCEEEEF6E080E092E0918380839D
:10547000138212821582148288EF96E097838683C6
:105480001086118683ED96E00E943F418CE796E0FE
:105490000E942DDF86E796E00E942DDF80E796E0F0
:1054A0000E942DDF8AE696E00C942DDFCF93DF93E8
:1054B00000D0CDB7DEB721E0298322E32A8342E082
:1054C00050E0BC01CE0101960E949BE70F900F9027
:1054D000DF91CF910895CF93DF93EC0140E050E04E
:1054E00060EE70E40E9406A146E656E666EA7EE3B8
:1054F000CE0102960E9406A140E050E060E172E415
:10550000CE010496DF91CF910C9406A1CF93DF9347
:10551000EC010A960E946B2ACE0140960E946B2AEB
:10552000CE014A96DF91CF910C94562A0F931F9388
:10553000CF93DF9300D01F92CDB7DEB78C0167E029
:105540000E94A5E761E0C80102960E94A5E78FEFDF
:1055500089838A838B83B8016C5F7F4F43E050E07F
:10556000CE0101960E949BE70F900F900F90DF9164
:10557000CF911F910F91089567E080E491E00C9422
:1055800083A0FF920F931F93CF93DF9300D01F92BE
:10559000CDB7DEB7F82E062F142F68E080E491E037
:1055A0000E94A5E7F9820A831B8343E050E064E48C
:1055B00071E0CE0101960E949BE70F900F900F9033
:1055C000DF91CF911F910F91FF900895CF92DF92BD
:1055D000EF92FF92CF93DF936B017C01EA01CA0146
:1055E0000E94BBE7B701CE010496DF91CF91FF90F7
:1055F000EF90DF90CF900C94BBE7AC018091CA0292
:105600009091CB02A091CC02B091CD02BC01CD0112
:105610000E94E62A0895CF93DF93EC0166EE70E0D6
:105620000E94BBE766EE70E0CE0102960E94BBE7E7
:1056300064E670E0CE0104960E94BBE765E0CE010F
:105640000696DF91CF910C94A5E761E08EE691E09C
:105650000E94A5E768EE73E082E791E00E94BBE755
:1056600068EE73E084E791E00E94BBE766E970E0D2
:1056700086E791E00E94BBE760ED77E088E791E084
:105680000E94BBE760ED77E08AE791E00E94BBE70C
:105690006FE070E08CE791E00E94BBE76FE070E0A4
:1056A0008EE791E00E94BBE76AE070E080E891E05D
:1056B0000E94BBE764E170E082E891E00E94BBE7F2
:1056C00064E170E084E891E00E94BBE744EF51E0C0
:1056D00060E070E088ED91E00E94B3E74CE755E1AF
:1056E00060E070E08CED91E00E94B3E760E170E073
:1056F00080EE91E00E94BBE760E170E082EE91E015
:105700000E94BBE760E08BE092E00E94A5E761E0C9
:1057100084EE91E00E94A5E760E888E891E00C94AF
:10572000A5E7CF93DF93CDB7DEB764970FB6F894B4
:10573000DEBF0FBECDBF84E1EEECF2E0DE011196DC
:1057400001900D928A95E1F744E150E06EE070E03F
:10575000CE0101960E949BE764960FB6F894DEBFD7
:105760000FBECDBFDF91CF910895CF92DF92EF9220
:10577000FF920F931F93CF93DF93CDB7DEB764975C
:105780000FB6F894DEBF0FBECDBF7C0188E0E2EE1D
:10579000F2E0DE011D9601900D928A95E1F74CE052
:1057A00050E06EE070E0CE0101960E9477E76E0156
:1057B0008DE0C80ED11C8701F12C48E050E0B80103
:1057C000F601819191916F010E949BE74CE050E0BE
:1057D000B801685F7F4FCE0101960E949BE766EE9D
:1057E00070E0C80144960E94BBE766EE70E0C80115
:1057F00046960E94BBE7F1E0FF1619F064E670E000
:1058000002C06DE270E0C80148960E94BBE7F394C5
:10581000065E1F4F84E0F812D0CF6CEA8CEF9FE059
:105820000E94A5E764960FB6F894DEBF0FBECDBF09
:10583000DF91CF911F910F91FF90EF90DF90CF906C
:105840000895813009F082E0682F82E490E00E94A0
:10585000A5E70C94912B0F931F93CF93DF93CDB7B4
:10586000DEB76D970FB6F894DEBF0FBECDBF85E0F3
:10587000EAEEF2E0DE01559601900D928A95E1F78D
:105880004EE050E062E270E08EE493E00E949BE71D
:1058900045E050E066E070E0CE0145960E949BE74F
:1058A0006FE984E090E00E94A5E76BE18CE090E076
:1058B0000E94A5E70E94912B84E99FE00E94B52BEE
:1058C000A89544E150E06CE871E084E893E00E9420
:1058D0009BE744E150E064EA71E08CE593E00E94CC
:1058E0009BE744E150E064EF71E080E793E00E94C1
:1058F0009BE70E94252B8091EF029091F002A091EE
:10590000F102B091F2028A8F9B8FAC8FBD8F44E081
:1059100050E064E470E0CE014A960E949BE780E08C
:1059200091E00E94862A8CE191E00E94862A00E0A4
:1059300010E020E030E040E050E060E070E088EC13
:1059400091E00E9491A120E030E040E050E060E072
:1059500070E080ED91E00E9491A180E491E00E94CE
:10596000962A8AE491E00E94FD2A88E591E00E944F
:105970000B2B61E080E691E00E94A5E760E08DEFEF
:105980009FE00E94A5E760E08EEF9FE00E94A5E700
:1059900060E08FEF9FE00E94A5E761E082E99FE071
:1059A0000E94A5E760E081E99FE00E94A5E780E012
:1059B0000E94212C61E08CE490E00E94A5E760E069
:1059C0008FE89FE00E94A5E760E08EE89FE00E94DC
:1059D000A5E788EC90E0A0E0B0E089839A83AB83F0
:1059E000BC8344E050E061E27EE08E010F5F1F4F18
:1059F000C8010E949BE763E084E69FE00E94A5E760
:105A000064E683E69FE00E94A5E784E1F801119235
:105A10008A95E9F744E150E069E47FE0C8010E941B
:105A20009BE760E080E99FE00E94A5E760E088E4F2
:105A30009FE00E94A5E76D960FB6F894DEBF0FBEFB
:105A4000CDBFDF91CF911F910F91089561E082E466
:105A500090E00E9483A091E0823009F490E0892FC9
:105A6000089561E08CE490E00E9483A091E0813091
:105A700009F090E0892F0895CF93DF93CDB7DEB77B
:105A80002C970FB6F894DEBF0FBECDBF8CE19CE023
:105A9000A0E0B0E089839A83AB83BC831D821E8221
:105AA0001F82188619861A861B861C864CE050E0D9
:105AB00062E671E0CE0101960E949BE72C960FB63C
:105AC000F894DEBF0FBECDBFDF91CF9108950F9345
:105AD0001F93CF93DF938C01EB0160E070E080EACD
