:100000000C94CB110C9406120C9406120C9406124C
:100010000C9406120C9406120C9406120C94061200
:100020000C9406120C9406120C9406120C940612F0
:100030000C9406120C94973C0C9406120C94061225
:100040000C9406120C946D3C0C9406120C9406123F
:100050000C9406120C9406120C9406120C940612C0
:100060000C9406120C94D0E20C9406120C94FCE250
:100070000C9406120C9486A10C9406120C94061291
:100080000C9406120C9406120C9406120C94061290
:100090000C9430E30C9406120C945CE30C9406125E
:1000A0000C9406120C9406120C9406120C94061270
:1000B0000C9406120C9406120C9406120C94BF3C7D
:1000C0000C9406120C9406120C9406120C94061250
:1000D0000C9406120C9406120C9406120C94061240
:1000E0000C940612E5352D362F360A363C36D836B6
:1000F000D8360A366536D83673367E369236973617
:10010000D836D83644360A366036D836F3354036D7
:100110009C36AD36B436D836D836B836BA82C182B7
:10012000C382BD82B782C782D582CB8219D236D232
:1001300043D26CD28BD29ED2ACD2DDD209D30C94F6
:100140005EB10C943C430C943EB20C94B8DF0C941A
:10015000C7820C94AC400C9445C40C94CBAF0C9467
:1001600036810C9436D20C94BA820C9458B20C940A
:10017000D4D90C94A4D70C943FB10C94AFBB0C947D
:10018000D0AF0C94C0830C94ACE00C94D5820C944A
:10019000F7CD0C949AD80C9445820C9410A10C9431
:1001A00007B00C9496C00C94FC4B0C948BD20C941E
:1001B00050A90C94BBB60C9477CE0C94CFB90C9488
:1001C000D7460C94F2B80C94B5830C94FA740C9442
:1001D00081C80C9453DA0C94E5350C94A9AF0C94B7
:1001E000DAAF0C9432DC0C9411D70C94E9B60C9471
:1001F000B2B40C94F6D80C9443DB0C94D4B10C94A8
:1002000001BA0C9424E90C9419D20C94DCAB0C9434
:1002100059B10C9479800C9437D10C9473B10C942F
:1002200066C10C94C1AF0C9410B10C9450B10C94F5
:1002300044360C9408B60C94B7820C94B4360C94E3
:10024000F8AF0C942DB20C94079C0C94EEAF0C9468
:10025000D0E10C9408A90C9428B40C94DB380C94CD
:10026000BAC60C94D8360C9418B10C9473360C940E
:10027000DFAF0C945DC50C9479840C949CC20C94F3
:10028000C6AF0C9470BE0C9433BE0C947E360C94A6
:10029000E5B40C9486840C9435BA0C94B0AF0C94ED
:1002A00040360C94EDD70C94FDAF0C9454B10C94E3
:1002B00025B10C94C1820C94D2B70C94FDB00C946F
:1002C00020B90C9417B20C94ADDF0C94BEB70C940B
:1002D000C7830C940FB80C94C6B80C949C360C943D
:1002E00097360C94D3710C9434B00C9493C70C943F
:1002F0005FB10C94A8C30C942FB00C948BDF0C94BA
:1003000091830C9402A20C94C1C90C94B6C20C94B3
:10031000C2CA0C949DE30C94A1DA0C94CB820C9489
:100320002AB00C9498830C94C49A0C945D4A0C9453
:1003300039B00C94D1C70C941B9F0C9437B80C9413
:10034000A4B50C9407300C94DFDF0C94BBC80C945C
:10035000D2B60C9443CC0C94FFBD0C9401B20C9417
:1003600097C50C94B2BD0C94A6B50C94FE830C9466
:10037000AEC40C94A1D80C94B8360C9448D40C9408
:100380001B9A0C9416B00C94FB370C94B7AF0C94DA
:100390008F840C94D2A30C94DDD20C94C4C50C941D
:1003A00011B00C9410D50C94D9A40C9409B80C94E9
:1003B00017A10C9483E10C94C88A0C9453BC0C9440
:1003C000CB8A0C9465BF0C9490E30C9445BB0C94C1
:1003D0001DB10C9443E20C940A360C948D9E0C943F
:1003E0000CB00C9450AC0C943C360C9430C80C946B
:1003F000E9D50C9421B10C9411D80C944ED00C94E6
:1004000009D30C9488A40C94F3C80C94B4B60C943F
:10041000F5830C942EB10C9485B90C941BB00C94FC
:10042000F1D80C9420B00C94CDC80C947BC90C94DA
:1004300010D60C941FB50C9465360C94F3AF0C9445
:1004400001DC0C942F360C94E9AF0C9420B80C947A
:10045000A1BC0C94E7B00C949ED20C9469860C94C9
:10046000BD820C94D5AF0C9480840C94F2B20C94A1
:100470008FBB0C94DA380C94C0B60C94E2380C9410
:100480007BE10C9402B00C946CD20C941DBD0C94C6
:100490003F2C0C945BB50C9497B50C94ACD20C9497
:1004A0005EB60C941EC00C943A5F0C94BCAF0C94D6
:1004B00004C40C9443D20C9460360C94FAB00C949F
:1004C00003B70C9425B00C94AD360C94DAC10C949F
:1004D0002D360C94F3350C94CBBA0C9492360C94C4
:1004E0007FA00C9484C20C9414C70C9417C40C9471
:1004F000C3820C94E4AF5265706C696361743072AE
:100500002032001704C8000000DC0027056400004A
:100510000078007505C8000000DC002006640000BB
:10052000007800E006C8000000DC002006C80000DB
:1005300000DC002006C8000000DC002D08C8000018
:10054000000000C00DC80000001400C00DC800006D
:100550000014005A10C80000001400C00D900100E3
:1005600000000070039001000014005504C8000052
:100570000014002705C8000000140070039001005B
:10058000000000C805C80000001400C805C800002D
:10059000001400C805C80000001400DD04B0040009
:1005A0000014007505C800000014007505C800009F
:1005B0000014007505C800000014009704B0040082
:1005C000000000C00DC80000001400C00DC80000ED
:1005D000001400910E9001000014005A10900100C8
:1005E000001400C00D2003000000007003BC0000D8
:1005F00000BC00E006BC000000BC00B807BC000066
:1006000000BC002D08BC00A908BC000000BC00C054
:100610000D4D0100000000C00D20010000BC005382
:1006200011BC000000BC005B12B10100000000938F
:1006300002690000006900EE0169000000690026FF
:1006400001B8010000000024F4D43050C38E20C251
:10065000A24017828B7011127A910D816CD90AA871
:1006600061E108C7586607615143061E4B5D05C12D
:1006700045A7041A411104093D980371393103401B
:1006800036DB0265339102D4305402802E1D0263A2
:100690002CEE01752AC501B028A001102781018F19
:1006A0002564012B244B01E0223401AC211F018D74
:1006B000200D01801FFC00841EED00971DDF00B897
:1006C0001CD200E61BC600201BBC00641AB200B29C
:1006D00019A8000A19A0006A189900D117910040C2
:1006E000178B00B516840031167E00B31579003AD9
:1006F000157300C7146F0058146A00EE1366008863
:1007000013630025135E00C7125B006C12570015BF
:10071000125400C111510070114F0021114B00D62D
:100720001049008D1047004610440002104200C0DE
:100730000F4000800F3E00420F3C00060F3B00CBF5
:100740000E3800930E37005C0E3500270E3400F390
:100750000D3200C10D3100900D3000600D2E0032C1
:100760000D2D00050D2C00D90C2B00AE0C29008599
:100770000C29005C0C2700350C27000E0C2600E825
:100780000B2400C40B2400A00B23007D0B23005A74
:100790000B2100390B2100180B2000F80A1F00D98B
:1007A0000A1E00BB0A1E009D0A1D00800A1D006370
:1007B0000A1C00470A1B002C0A1B00110A1A00F72A
:1007C000091A00DD091900C4091900AB09190092C2
:1007D0000917007B091800630917004C0916003639
:1007E000091600200916000A091500F5081500E091
:1007F000081400CC081400B8081400A408140090D1
:100800000813007D0812006B0813005808120046F8
:100810000812003408110023081100120811000109
:10082000081100F0071000E0071000D0071000C00A
:10083000071000B0070F00A107100091070E0083FA
:10084000070F0074070F0065070E0057070E0049D9
:10085000070E003B070D002E070E0020070D0013AA
:10086000070D0006070D00F9060C00ED060D00E06F
:10087000060C00D4060C00C8060C00BC060C00B028
:10088000060C00A4060B0099060C008D060B0082D6
:10089000060B0077060B006C060B0061060A00577A
:1008A000060B004C060A0042060A0038060A002E13
:1008B000060A0024060A001A060A001006090007A4
:1008C000060A00FD050900F4050900EB050900E230
:1008D000050900D9050900D0050900C7050900BEB2
:1008E000050900B5050800AD050800A50509009C2F
:1008F000050800940508008C050800840508007CA4
:10090000050800740508006C050700650508005D12
:10091000050700560508004E05070047050700407B
:1009200005080038050700310507002A05070023E0
:100930000507001C050600160507000F050700083F
:1009400005060002050700FB040600F5040700EE9B
:10095000040600E8040600E2040700DB040600D5F4
:10096000040600CF040600C9040600C3040600BD47
:10097000040600B7040600B1040500AC040600A696
:10098000040600A00405009B0406009504050090E1
:100990000406008A04050085040500800406007A28
:1009A00004050075040500700405006B040500666D
:1009B000040500610405005C0405005704050052AD
:1009C0000405004D04050048040500430405003EED
:1009D0000404003A04050035040500300404002C2A
:1009E00004050027040400230405001E0404001A63
:1009F00004040016040500110404000D0404000999
:100A00000405000404040000040400FC030400F8CE
:100A1000030400F4030400F0030400EC030400E802
:100A2000030400E4030400E0030400DC030400D832
:100A3000030400D4030400D0030400CC030400C862
:100A4000030300C503030024F404D9201BC40C5C79
:100A50000E9804C4095F0265077101F405F900FBF3
:100A600004B30048048700C103690058035500031C
:100A7000034500BE023A008402310053022A0029D5
:100A800002250004022000E4011C00C8011900AF87
:100A90000117009801140084011300710110006116
:100AA00001100051010E0043010D0036010B002B17
:100AB000010B0020010B00150109000C01090003C6
:100AC000010800FB000800F3000800EB000700E449
:100AD000000600DE000600D8000600D2000600CCAA
:100AE000000500C7000500C2000500BD000400B9F4
:100AF000000400B5000400B1000400AD000400A92A
:100B0000000400A5000300A20003009F0004009B56
:100B1000000300980003009500020093000300907A
:100B20000003008D0002008B000300880002008695
:100B300000020084000300810002007F0002007DAB
:100B40000002007B000200790002007700010076BD
:100B50000002007400020072000100710002006FC8
:100B60000002006D0001006C0002006A00010069D3
:100B700000020067000100660001006500010064DA
:100B80000002006200010061000100600001005FDE
:100B90000002005D0001005C0001005B0001005AE2
:100BA00000010059000100580001005700010056E3
:100BB00000010055000100540001005300000053E3
:100BC0000001005200010051000100500001004FDF
:100BD0000001004E0000004E0001004D0001004CDD
:100BE0000001004B0000004B0001004A00010049D9
:100BF00000010048000000480001004700010046D5
:100C000000000046000100450000004500010044CE
:100C100000010043000000430001004200000042C8
:100C20000001004100000041000100400001003FC0
:100C30000000003F0001003E0000003E0001003DBA
:100C40000000003D0001003C0000003C0000003CB2
:100C50000001003B0000003B0001003A0000003AA8
:100C600000010039000000390001003800000038A0
:100C70000000003800010037000000370001003696
:100C8000000000360000003600010035000000358D
:100C90000000003500010034000000340000003482
:100CA0000001003300000033000000330001003277
:100CB000000000320000003200010031000000316D
:100CC0000000003100010030000000300000003062
:100CD0000001002F0000002F0000002F0000002F57
:100CE0000001002E0000002E0000002E0001002D4B
:100CF0000000002D0000002D0000002D0001002C40
:100D00000000002C0000002C0000002C0001002B33
:100D10000000002B0000002B0000002B0001002A27
:100D20000000002A0000002A0000002A000100291B
:100D3000000000290000002900000029000000290F
:100D40000001002800000028000000280000002802
:100D500000000028000100270000002700000027F5
:100D600000000027000000270001002600000026E8
:100D700000000026000000260000002600010025DB
:100D800000000025000000250000002500000025CF
:100D900000000025000100240000002400000024C1
:100DA00000000024000000240001002300000023B4
:100DB00000000023000000230000002300000023A7
:100DC0000000002300010022000000220000002299
:100DD000000000220000002200000022000100218B
:100DE000000000210000002100000021000000217F
:100DF0000000002100000021000100200000002070
:100E00000000002000000020000000200000002062
:100E100000000020000000200001001F0000001F53
:100E20000000001F0000001F0000001F0000001F46
:100E30000000001F0001001E0000001E0000001E38
:100E40000000001E0000008910990000000052659B
:100E50007047204275696C64009600FF8304880027
:100E6000000014008C000000000000000060F0FF93
:100E7000FF00000000000000009B000000000000D8
:100E80000000000000000000000000000000A51CA1
:100E9000000018000020419504840369010000143B
:100EA000008304DC0500001400901F8B000000008C
:100EB00000000000A00F0000000000000000000083
:100EC000800000009B0000000000000000A40F0054
:100ED0000000000000000000006A0A0000180AD7A5
:100EE000233CAA019B00000000000000000000005D
:100EF000000000000000000000A51C000018F628FB
:100F000020419504891B950000000042792068610A
:100F10006E64206D6F7665207468652065782D009D
:100F2000950100000074727564657220746F20640E
:100F30006966666572656E74200095010000007038
:100F40006F736974696F6E73206F76657220746851
:100F50006520200095070000006275696C642070B0
:100F60006C6174666F726D2E2E2E2E00950000003F
:100F70000041646A757374207468652073706163DE
:100F8000696E672020009501000000626574776536
:100F9000656E20746865206578747275646572008A
:100FA00095010000006E6F7A7A6C6520616E642096
:100FB000706C6174666F726D200095070000007799
:100FC00069746820746865206B6E6F62732E2E2EB4
:100FD000009500000000756E6465722074686520DD
:100FE000706C6174666F726D2020009501000000C6
:100FF000616E642061207368656574206F6620707F
:1010000061706572009501000000706C6163656439
:10101000206265747765656E207468652020009590
:1010200007000000706C6174666F726D20616E6401
:10103000207468652E2E2E0095000000006E6F7AD9
:101040007A6C652E205768656E20796F7520617205
:1010500065009501000000646F6E652C207072655C
:1010600073732074686520202020200095070000FD
:101070000063656E74657220627574746F6E2E0005
:10108000891F891F62003D020000000021104220DC
:1010900063308440A550C660E770088129914AA159
:1010A0006BB18CC1ADD1CEE1EFF1311210027332D0
:1010B0005222B5529442F772D662399318837BB3A9
:1010C0005AA3BDD39CC3FFF3DEE362244334200460
:1010D0000114E664C774A44485546AA54BB52885F9
:1010E0000995EEE5CFF5ACC58DD5533672261116B0
:1010F0003006D776F6669556B4465BB77AA7199749
:101100003887DFF7FEE79DD7BCC7C448E558866837
:10111000A7784008611802282338CCC9EDD98EE998
:10112000AFF9488969990AA92BB9F55AD44AB77A0F
:10113000966A711A500A333A122AFDDBDCCBBFFBE8
:101140009EEB799B588B3BBB1AABA66C877CE44C1F
:10115000C55C222C033C600C411CAEED8FFDECCD38
:10116000CDDD2AAD0BBD688D499D977EB66ED55EEF
:10117000F44E133E322E511E700E9FFFBEEFDDDF88
:10118000FCCF1BBF3AAF599F788F8891A981CAB114
:10119000EBA10CD12DC14EF16FE18010A100C23046
:1011A000E3200450254046706760B9839893FBA301
:1011B000DAB33DC31CD37FE35EF3B1029012F32296
:1011C000D2323542145277625672EAB5CBA5A89551
:1011D00089856EF54FE52CD50DC5E234C324A014E6
:1011E00081046674476424540544DBA7FAB79987E1
:1011F000B8975FE77EF71DC73CD7D326F236910636
:10120000B01657667676154634564CD96DC90EF928
:101210002FE9C899E9898AB9ABA944586548067885
:101220002768C018E1088238A3287DCB5CDB3FEB40
:101230001EFBF98BD89BBBAB9ABB754A545A376AD5
:10124000167AF10AD01AB32A923A2EFD0FED6CDD10
:101250004DCDAABD8BADE89DC98D267C076C645C25
:10126000454CA23C832CE01CC10C1FEF3EFF5DCF20
:101270007CDF9BAFBABFD98FF89F176E367E554E75
:10128000745E932EB23ED10EF01E78206D6F7265A3
:1012900021002A20507265737320004572617369C2
:1012A0006E672E2E2E00656570726F6D5F64756DB2
:1012B000702E62696E2066696C656E6F7420666F51
:1012C000756E640052656164206661696C65643B9B
:1012D00020454550524F4D206D6179206265206355
:1012E0006F727275707400526573746F72696E6795
:1012F0002E2E2E00656570726F6D5F64756D702E99
:1013000062696E2066696C65616C726561647920E2
:101310006578697374730053442063617264207745
:1013200072697465206661696C65640053617669F1
:101330006E672E2E2E0050726573732055502074E8
:101340006F2070726F636565642E00796F7572200F
:10135000626F7420696E6F70657261626C652E00D9
:1013600054686973206D656E752063616E206D61D0
:101370006B65005361696C666973682076372E313E
:1013800030207230313836320041546D656761204B
:10139000323536302031342F30372F3139002D2D72
:1013A0002D205468696E67203332303834202D2D5B
:1013B0002D2D0053462D52657020325800202020DC
:1013C000202020202020202020202020202020201D
:1013D0002000202020200020004320202020002F5B
:1013E00020202043004F464600202025004D415834
:1013F0000046414E3A2D2D2D000100940336000980
:10140000016B00D800A000BD00D500AB000A019D13
:10141000003F01870074017F00A9017700DE0170A1
:101420000013026800480262007D025B00B20254B1
:1014300000E7024D001C03440051033A00860330CC
:1014400000BB032200F0030200FF030000D0FEC037
:10145000FF18FFD0FF63FFE0FFB1FFF0FF000000C7
:101460000052001000A4002000F80030004D0140A0
:1014700000A2015000F70160004C027000A0028041
:1014800000F30290004503A0009703B000E903C0F9
:10149000003B04D0008D04E000E004F000330500C0
:1014A0000187051001DB05200130063001DA065006
:1014B00001436F6F6C696E672046616E20506F77D5
:1014C000657200456C61707365643A2020202020AD
:1014D0003030306830306D002073656373005469BC
:1014E0006D65204C6566743A2020203030306830BD
:1014F000306D00557365203020666F7220756E6CFC
:10150000696D69746564004D6178205A2050726F6E
:1015100062652048697473005072696E74206F624E
:10152000737472756374696F6E20202064657465CE
:10153000637465642E2020436865636B207468655E
:101540007072696E7420616E64206578747275645F
:1015500065722E205072657373204C454654206688
:101560006F72206D656E752E004175746F2D6C6500
:1015700076656C206661696C65640A546F6F2066DD
:101580006172206F7574206F66206C6576656C00E3
:1015900050726573732043454E54455220627574F2
:1015A000746F6E20746F20636F6E74696E75652E34
:1015B00000546865206275696C6420706C617465A4
:1015C00020697320206E6F74206C6576656C65648D
:1015D0002100546865206275696C6420706C6174C8
:1015E0006520697320206C6576656C656421004117
:1015F00075746F2D6C6576656C2020302E30303020
:10160000306D6D004175746F2D6C6576656C206969
:101610006E61637469766520004175746F2D6C6529
:1016200076656C206661696C65640A496E636F6DEE
:10163000706C6574652070726F62696E67004175C9
:10164000746F2D6C6576656C206661696C65640AE3
:101650004261642070726F62696E6720706F696E9C
:101660007473006265747765656E2070726F626571
:10167000207074732E004D61782068656967687406
:101680002076617269616E6365004175746F2D6CBF
:101690006576656C2056617269616E6365002050E5
:1016A000726F6265204F6666736574004175746F72
:1016B0002D6C6576656C204F6666736574730020CB
:1016C0004465666C656374696F6E004175746F2D57
:1016D0006C6576656C2041646A0055415254310056
:1016E00020205553420053657269616C20492F4F89
:1016F00000457261736520456570726F6D005344DB
:10170000202D3E20456570726F6D00456570726FCB
:101710006D202D3E20534400456570726F6D005062
:1017200072696E742054696D653A202020682030FB
:10173000306D004C617374205072696E743A2020D1
:101740002020682030306D004C69666574696D65D5
:101750003A202020202020682030306D0052657310
:10176000756D696E6720706F736974696F6E2E2E68
:101770002E00436C656172696E67206275696C64E6
:101780002E2E2E20202000447261696E696E672023
:10179000706970656C696E652E2E2E004C656176E1
:1017A000696E672070617573652E2E2E20202020B3
:1017B0000043616E63656C6C696E67207072696E60
:1017C000742E2E2E2000456E746572696E6720702F
:1017D000617573652E2E2E20202000506175736573
:1017E000206174205A506F733A2000506C61746607
:1017F0006F726D2054656D703A202020004C656634
:10180000742054656D703A200052696768742054E2
:10181000656D703A2000546F6F6C68656164204F8D
:101820006666736574730020546F6F6C68656164DD
:10183000204F66667365743A00204F666673657460
:101840003A0055702F446E2F4C6566742F4D2074EE
:101850006F207365740055702F446E2F522F4C2FDC
:101860004D20746F207365740050726F66696C65EB
:10187000204E616D653A005361766520546F2050AB
:10188000726F66696C65004368616E6765204E61C2
:101890006D6500446973706C617920436F6E666991
:1018A0006700526573746F72650052657365743AB0
:1018B0002070726573732043454E5445520046694B
:1018C0006C2E20547269703A0046696C616D656EC9
:1018D000743A00547269703A004C6966653A004681
:1018E000696C616D656E74204F646F6D65746572AF
:1018F0000048656174657273204F66660043616ECF
:1019000063656C205072696E74004C697665205A6C
:10191000204F66667365742041646A2E00507269B8
:101920006E742053746174697374696373004261E7
:10193000636B20746F204D6F6E69746F72006D0061
:101940006D6D00486F6D65204F666673657473003A
:1019500050726F66696C65730046696C616D656E87
:10196000743A202020202020302E306D6D004669F2
:101970006C616D656E743A005A506F736974696F6B
:101980006E3A202020005072696E742054696D6593
:101990003A20202020206820206D0054656D70655D
:1019A0007261747572652072656164732020206FA6
:1019B0007574206F662072616E67652E202020206E
:1019C000202020436865636B20776972696E672EFB
:1019D0000054656D70657261747572652072656121
:1019E0006473202020617265206661696C696E678E
:1019F0002E2020202020202020436865636B207744
:101A00006972696E672E0054656D706572617475D8
:101A100072652064726F7070696E67436865636B8E
:101A200020776972696E672E004E6F742068656159
:101A300074696E672070726F7065726C7943686547
:101A4000636B20776972696E672E0054656D702034
:101A50006C696D697420726561636865642E2053DA
:101A6000687574646F776E206F722072657374612D
:101A700072742E00506C6174666F726D20466169DD
:101A80006C7572652120202000546F6F6C2031200E
:101A90004661696C75726521202020202000546FFA
:101AA0006F6C2030204661696C75726521202020A2
:101AB0002020004578747275646572204661696CF7
:101AC000757265212020200048656174657273205D
:101AD00073687574646F776E20647565746F2069C0
:101AE0006E61637469766974790046696C616D65CD
:101AF0006E74206C6F61642F756E6C6F61646361CE
:101B00006E63656C65642064756520746F2074680D
:101B100065207072696F72206865617465722065F6
:101B200072726F72004D792074656D7065726174A8
:101B30007572652077617320206368616E676564E4
:101B40002065787465726E616C6C792E20526573B5
:101B5000656C6563742066696C616D656E742020C8
:101B6000206D656E7520746F2074727920616761D5
:101B7000696E2E0077616974696E67200020204EBF
:101B80004120202020006572726F7221004F46466E
:101B900020202000435553544F4D00574849544589
:101BA0002000505552504C4500424C5545202000D5
:101BB000475245454E200050494E4B2020004F5281
:101BC000414E474500524544202020004C454420CA
:101BD000436F6C6F757200536574204C696768744D
:101BE00073204F4E2000536574204C6967687473EE
:101BF000204F4646002843616E6E6F742050726914
:101C00006E7420436F707929005072696E742041A0
:101C10006E6F7468657220436F7079004D61696EF4
:101C2000204D656E750053657420436F6F6C696E4F
:101C3000672046616E204F46460053657420436F0F
:101C40006F6C696E672046616E204F4E20004368BE
:101C5000616E6765204842502054656D700043688E
:101C6000616E67652054656D70657261747572652B
:101C7000004368616E676520537065656400436862
:101C8000616E676520457874727573696F6E005078
:101C900061757365206174205A506F7300446974D4
:101CA000746F205072696E74696E67004E2F410028
:101CB000502D53746F702074726967676572656424
:101CC00000502D53746F7020496E76657274656490
:101CD00000502D53746F7020436F6E74726F6C00E0
:101CE000436865636B20534420526561647300450B
:101CF0007874727564657220486F6C640050617509
:101D0000736520776974682048656174004F766553
:101D1000727269646520476354656D700048425073
:101D200020696E7374616C6C656400416363656CFB
:101D300065726174696F6E0045786974204D656ED7
:101D40007500536F756E64004578747275646572C2
:101D500020436F756E7400426F7420537461746910
:101D600073746963730043616C69627261746520A6
:101D70004E6F7A7A6C657300526573746F7265206A
:101D800053657474696E67730047656E6572616C44
:101D90002053657474696E6773005072656865617D
:101DA000742053657474696E6773004C6576656C56
:101DB000204275696C6420506C61746500456E61E9
:101DC000626C6520537465707065727320200044E6
:101DD000697361626C65205374657070657273001D
:101DE00056657273696F6E20496E666F726D6174AD
:101DF000696F6E0046696C616D656E74204C6F6131
:101E000064696E6700486F6D652041786573004AAC
:101E10006F67204D6F6465004D6F6E69746F72203F
:101E20004D6F6465005574696C6974696573005021
:101E3000726568656174005072696E742066726FB5
:101E40006D20534400492074696D6564206F75747A
:101E5000207768696C65202020617474656D7074EA
:101E6000696E6720746F206865617420206D792029
:101E7000706C6174666F726D2E00492074696D65B7
:101E800064206F7574207768696C65202020617408
:101E900074656D7074696E6720746F206865617415
:101EA00020206D792065787472756465722E0055F6
:101EB0006E61626C6520746F2072656164205344AA
:101EC0002020206361726420706172746974696F8C
:101ED0006E73206F76657232474220696E20736997
:101EE0007A652E2020466F726D61746173204641C1
:101EF000542D3136206F72202D33322E00556E61F5
:101F0000626C6520746F2072656164207468697307
:101F1000205344206361726420666F726D61742E79
:101F20002020202020466F726D617420617320464E
:101F300041542D3136206F72204641542D33322EBC
:101F4000005344206361726420726561642065728D
:101F5000726F722E20546F6F206D616E7920435224
:101F600043206572726F72732E42616420636172E6
:101F70006420636F6E7461637473206F72656C6547
:101F80006374726963616C206E6F6973652E0053B0
:101F90004420636172642072656164206572726FAF
:101FA000720053442063617264206E6F74207072FB
:101FB0006573656E740053442063617264206973B5
:101FC00020656D7074790043616E6E6F74206F7060
:101FD000656E207468652066696C650053442063F3
:101FE00061726420726561647320617265202020D3
:101FF0006E6F7420676F696E672077656C6C2E203A
:10200000205472796120646966666572656E742019
:10201000636172640049276D20616C726561647947
:10202000206275696C64696E6700436F6C64205050
:102030006175736500556E706175736500506175EB
:10204000736520200043616E63656C206C6F616472
:102050002F756E6C6F61643F0043616E63656C2029
:1020600074686973207072696E743F00736574746C
:10207000696E67733F00526573746F7265206661A5
:1020800063746F727900506C6174666F726D20209A
:10209000202020202020202020004C656674204530
:1020A00078747275646572202020202020005269A7
:1020B00067687420457874727564657220202020EA
:1020C00020004578747275646572202020202020DD
:1020D0002020202020005072657373206C65667488
:1020E00020746F2063616E63656C0045787472754F
:1020F0006465723A2020202D2D2D2F2D2D2D43008B
:102100004842503A2D2D2D2F2D2D2D43004C20458A
:10211000787472756465723A202D2D2D2F2D2D2D1A
:102120004300522045787472756465723A202D2DF3
:102130002D2F2D2D2D4300202D2D25004865617458
:10214000696E673A20202020202020202020202097
:102150000048656174696E673A00203C2D59202063
:10216000284D656E75292020202020202020002069
:102170003C2D582020284D656E752920205A2D3E73
:10218000202020002020202020202020582D20202A
:102190002020202020202020002020202020202857
:1021A0004D656E75292020592D3E202020002020CD
:1021B000202020202020582B2020202020202020DC
:1021C00020200020202020204A6F67206D6F64654A
:1021D0002020202020202000556E6C6F6164206C30
:1021E00065667400556E6C6F61642072696768740F
:1021F00000556E6C6F6164004C6F6164004C6F61E0
:1022000064206C656674004C6F6164207269676855
:10221000740035206D696E7574652074696D656F25
:10222000757420686173656C61707365642E20201D
:102230005072657373207468652063656E7465728F
:1022400020627574746F6E20746F20202020666980
:102250006E6973682E00426567696E206C6F6164F9
:10226000696E67206F7220202020756E6C6F61642C
:10227000696E672E2050726573732074686563659C
:102280006E74657220627574746F6E207768656E07
:10229000202066696E69736865642E0045787472E3
:1022A000756465727320617265206E6F74202020E2
:1022B00068656174696E672E2020436865636B20D2
:1022C00074686520776972696E672E0059204178BD
:1022D0006973204C696E6500582041786973204C01
:1022E000696E6500594553004E4F2000446F6E657E
:1022F0000053656C6563742062657374206C696E4D
:1023000065733A00457874727564657200506C614B
:1023100074666F726D005475726E204865617465E5
:102320007273204F46460053746172742050726578
:1023300068656174696E6700467265652053524135
:102340004D20004F4646004F4E2000003F2C0730E6
:10235000FB37DB38AC403C43D7465D4AFC4B3A5F29
:10236000D371FA74798036814582918379848F8420
:1023700069861B9AC49A10A117A102A2D2A3D9A45C
:1023800008A950A9DCABA9AFB0AF32DCACE0D0E11A
:1023900043E290E39DE3ECE2FCE185EC91E201C0D5
:1023A0008193EF3FF907E0F3D9F311241FBECFEF7C
:1023B000D1E2DEBFCDBF00E00CBF16E0A0E0B2E08E
:1023C000E6E1F6ED01E00BBF02C007900D92A837E1
:1023D000B107D9F72CE1A8E7B6E001C01D92AC32F5
:1023E000B207E1F711E1CBECD1E100E006C02197A3
:1023F0000109802FFE010E9470E8C63AD10780E0F3
:102400000807A9F70E9451380C9409EB0C940000BE
:102410006BBFFA01DC0102C007900D9221503040E1
:10242000D8F708958091090981110CC0809108099D
:102430008F5F80930809853028F081E08093090937
:1024400010929306089581E00E948D3E60E080E046
:102450000C942B3E8F929F92AF92BF92CF92DF92BD
:10246000EF92FF920F931F93CF93DF93C62FD0E08D
:10247000FE01EE0FFF1FEE0FFF1FEA54F94FC08061
:10248000D180E280F380FC014081518162817381BF
:102490004C195D096E097F09CC0FDD1FCE54D94F51
:1024A000E881F9814F01A12CB12C84169506A6066E
:1024B000B70644F58C01C80CD91CEA1CFB1CDB01D7
:1024C000CA0188199909AA09BB09AC013327222737
:1024D0006091BE027091BF028091C0029091C102D2
:1024E0000E94A4E3BB2797FDB095AB2FC80ED91E61
:1024F000EA1EFB1EF801C082D182E282F3821982B9
:10250000188205C0CF01841B950B99838883DF91C6
:10251000CF911F910F91FF90EF90DF90CF90BF90E0
:10252000AF909F908F9008958F929F92AF92BF929D
:10253000CF92DF92EF92FF920F931F93CF93DF938F
:10254000FC0180809180A280B380C62FD0E0CC0FA8
:10255000DD1FCE54D94F688179816B01E12CF12CBC
:10256000C814D904EA04FB0424F58C01D501C40184
:102570008C199D09AE09BF09AC0133272227609150
:10258000BE027091BF028091C0029091C1020E9470
:10259000A4E3BB2797FDB095AB2FC80ED91EEA1E4A
:1025A000FB1EF801C082D182E282F3821982188276
:1025B00004C06819790979836883DF91CF911F91ED
:1025C0000F91FF90EF90DF90CF90BF90AF909F90D2
:1025D0008F9008951F93CF93DF93EB01142F60E04A
:1025E00043FD03C00E942A1202C00E94941261E0BF
:1025F000CE0114FD05C0DF91CF911F910C942A12DA
:10260000DF91CF911F910C9494120E94231260E0ED
:102610008FEF0E94887CEEEFF6E013821282158223
:102620001482108611860C948634F894EEEFF6E04E
:102630002281338180819181821B930B789408954C
:10264000EF92FF920F931F93CF937C018B01C42FC6
:1026500083ED99E00E943ECFB70183ED99E00E949F
:1026600016CFB80183ED99E00E9416CFE091650A7C
:10267000EE0FFF0BE95AF54F80819181835D994000
:1026800039F063ED79E08BE49AE00E94A2A904C0DE
:1026900083ED99E00E947DCFC093320ACF911F91C4
:1026A0000F91FF90EF9008951092320AE091650A21
:1026B000EE0FFF0BE95AF54F80819181835D9940C0
:1026C00021F48BE49AE00E9446AAE091650AEE0F9D
:1026D000FF0BE95AF54F80819181DC01ED91FC916E
:1026E0000480F581E02D1994809102020895CF9223
:1026F000DF92EF92FF920F931F93CF93DF93CDB7AB
:10270000DEB7A0970FB6F894DEBF0FBECDBF209105
:102710009406222309F47FC08C01CE0101960E9409
:10272000957660E070E0C8010E949343FC01C08090
:10273000D180E280F38060E070E0CE0101960E94DB
:102740009343FC0180819181A281B381C81AD90A87
:10275000EA0AFB0ACD8ADE8AEF8AF88E61E070E031
:10276000C8010E949343FC01C080D180E280F380C5
:1027700061E070E0CE0101960E949343FC018081EC
:102780009181A281B381C81AD90AEA0AFB0AC98ECB
:10279000DA8EEB8EFC8E62E070E0C8010E949343FB
:1027A000FC01C080D180E280F38062E070E0CE0165
:1027B00001960E949343FC0180819181A281B381A3
:1027C000A7019601281B390B4A0B5B0BDA01C901E3
:1027D0002D8F3E8F4F8F58A34D895E896F89788DDD
:1027E000452B462B472B61F4498D5A8D6B8D7C8D83
:1027F000452B462B472B21F4892B8A2B8B2B59F009
:102800008091940683FF05C0CE0145960E946747DC
:1028100002C010929406A0960FB6F894DEBF0FBEC9
:10282000CDBFDF91CF911F910F91FF90EF90DF907F
:10283000CF9008951092B1060895882311F080E496
:1028400001C080E88093FB066093F80610920B09A4
:1028500010920A09089581E08093F7060895809107
:10286000FB06181634F48091F806811104C081E04B
:10287000089580E0089582E008958091FB06089510
:1028800081E09091FB06923008F480E00895CF93A8
:10289000DF93CDB7DEB764970FB6F894DEBF0FBEF7
:1028A000CDBF6093DF067093E0068093E1069093BE
:1028B000E206CE0101960E94957662E070E0CE01BC
:1028C00001960E948C43FC01408151816281738199
:1028D0008091DF069091E006A091E106B091E206BA
:1028E000481759076A077B071CF01092DE0603C0E1
:1028F00081E08093DE0664960FB6F894DEBF0FBECB
:10290000CDBFDF91CF9108956091DF067091E00611
:102910008091E1069091E2060895209100073091A0
:10292000010781E0232B09F080E00895CF9360E058
:1029300070E0CB010E9447141092DE061092A006B0
:102940001092A1061092A2061092A3061092A4065D
:10295000C1E0C093010210920C091092FC06109283
:10296000FB061092FA061092F9061092F8061092E1
:10297000CE061092CF061092D0061092D106109279
:10298000D2061092D3061092D4061092D506109259
:10299000BE061092BF061092C0061092C106109299
:1029A000C2061092C3061092C4061092C506109279
:1029B000B6061092B7061092B8061092B906109299
:1029C000D6061092D7061092D8061092D906109209
:1029D000DA061092DB061092DC061092DD061092E9
:1029E000C6061092C7061092C8061092C906109229
:1029F000CA061092CB061092CC061092CD06109209
:102A0000BA061092BB061092BC061092BD0661E099
:102A100082E490E00E949CA2823009F042C060E013
:102A20008FEF9FE00E949CA28823D9F1C093950666
:102A300010929B0610929C0610929D0610929E0684
:102A400010929A0610929606109297061092980687
:102A50001092990610920B09109208091092090918
:102A60001092930610920A091092B0061092AF06C7
:102A70001092AC061092AB061092AE061092AD0604
:102A80001092AA061092A9061092A6061092A50608
:102A90001092A8061092A70610929406CF910C945B
:102AA0000A4810929506C4CF0E94961485E680933A
:102AB0000202EEEFF6E01382128215821482108673
:102AC000118610929206089581E0909192069630B8
:102AD00009F080E008958091940683FF16C09091DC
:102AE0000002992391F080919206833071F08091D9
:102AF0000909882351F0809193068F5F8093930694
:102B0000981718F481E080930A0908958F929F9294
:102B1000AF92BF92CF92DF92EF92FF920F931F93EB
:102B2000CF93DF93CDB7DEB7AA970FB6F894DEBF89
:102B30000FBECDBF882321F091E09093B10605C070
:102B40009091B106992309F4ECC0F82ECE01459678
:102B50000E94957681E089A78AA76E0189E2C80E56
:102B6000D11C03E010E08CEC9AE0FC01E55AFF4F29
:102B70002081FC01222319F0208D318D04C0EA5BF5
:102B8000FF4F20813181232B91F10A960E94C7A625
:102B9000882369F1F6018081F81224C0812C912CE0
:102BA00054018394402F60E070E080E090E40E9444
:102BB000A374A50194010E94EBE74B015C01B801ED
:102BC000CE0145960E949343FC0140815181628170
:102BD0007381840E951EA61EB71E80829182A282EA
:102BE000B38205C088248A94982C5401DBCF04302A
:102BF000110509F08EC060ED77E08CEE91E00E9447
:102C0000A5A2BC0180E090E00E9429E62091E71592
:102C10003091E8154091E9155091EA150E9431E78D
:102C20009B01AC0160E074E284E799E40E9445E511
:102C30000E94F3E54B015C0180919506882329F100
:102C40008091FD0681110AC064E070E0CE014596D6
:102C50000E9493438C0163E070E009C063E070E080
:102C6000CE0145960E9493438C0164E070E0CE0152
:102C700045960E949343FC0180819181A281B3819A
:102C8000F80180839183A283B383E12C00E010E0FC
:102C90009801B501A401CE0145960E94EC77F11090
:102CA00040C0CE0101960E94957663E070E0CE01AF
:102CB00001960E9493438C0163E070E083EE96E0FE
:102CC0000E949343FC0180819181A281B381F8012C
:102CD00080839183A283B38364E070E0CE01019688
:102CE0000E9493438C0164E070E083EE96E00E94C2
:102CF0009343FC0180819181A281B381F80180839B
:102D00009183A283B38360E0CE0101960E940C768A
:102D100008C0FFEFCF1ADF0A8DE39BE004E010E06C
:102D200024CFAA960FB6F894DEBF0FBECDBFDF91B9
:102D3000CF911F910F91FF90EF90DF90CF90BF90B8
:102D4000AF909F908F9008952F923F924F925F92F5
:102D50006F927F928F929F92AF92BF92CF92DF92AB
:102D6000EF92FF920F931F93CF93DF93CDB7DEB710
:102D7000C856D1090FB6F894DEBF0FBECDBF182FCD
:102D8000CE01CD960E945743CE0189960E945743AB
:102D9000112309F433C1EAE5F5E184EE95E12485D8
:102DA000222309F4B2C22385222309F4AEC2BE96BF
:102DB0008E179F07A1F784E1E3EEF6E0DE0155965A
:102DC00001900D928A95E1F7CE0101960E949576C9
:102DD00060E070E0CE0145960E9493438C014091E3
:102DE0006B1550916C1560916D1570916E158EE09C
:102DF00090E00E94B4A26B017C0180E00E94857487
:102E000020E030E040EA50E40E9431E70E94F3E520
:102E1000C61AD70AE80AF90AF801C082D182E2820A
:102E2000F38261E070E0CE0145960E9493438C01ED
:102E30004091991550919A1560919B1570919C1530
:102E400082E190E00E94B4A26B017C0181E00E94CB
:102E5000857420E030E040EA50E40E9431E70E94AF
:102E6000F3E5C61AD70AE80AF90AF801C082D18246
:102E7000E282F38262E070E0CE0145960E949343C5
:102E80008C0162E070E0CE0101960E949343FC0148
:102E9000C080D180E280F38082E00E94857420E0CF
:102EA00030E040EA50E40E9431E70E94F3E5C60EAC
:102EB000D71EE81EF91EF801C082D182E282F38299
:102EC00062E070E0CE0145960E949343FC01408190
:102ED0005181628173818091C7159091C815A0912D
:102EE000C915B091CA1584179507A607B7079CF4B2
:102EF00062E070E0CE0145960E9493434091C71571
:102F00005091C8156091C9157091CA15FC01408394
:102F100051836283738362E070E0CE0101960E9468
:102F20009343FC01C080D180E280F38062E070E0D6
:102F3000CE0145960E949343FC0180819181A2813C
:102F4000B3818C159D05AE05BF05BCF462E070E051
:102F5000CE0145960E9493438C0162E070E0CE0161
:102F600001960E949343FC0180819181A281B381EB
:102F7000F80180839183A283B38363E070E0CE0184
:102F800045960E9493438C0163E070E0CE01019668
:102F90000E949343FC0180819181A281B381F80159
:102FA00080839183A283B38364E070E0CE01459671
:102FB0000E9493438C0164E070E0CE0101960E9470
:102FC0009343FC0180819181A281B381F8018083C8
:102FD0009183A283B383BE016B5E7F4FCE018F5A74
:102FE0009F4F0E94CF7584E1FE01EF5AFF4FDE0133
:102FF000999601900D928A95E1F757C084E1E3EE2E
:10300000F6E0DE01999601900D928A95E1F7CE01E6
:1030100045960E94957664E070E0CE0189960E9404
:103020009343FC01108101813280238063E070E0D2
:10303000CE0189960E949343FC0180809180A280FA
:10304000B38062E070E0CE0145960E949343FC019C
:10305000C080D180E280F38061E070E0CE014596CF
:103060000E949343FC01408051806280738060E045
:1030700070E0CE0145960E949343FC01408151814E
:10308000628173812F923F920F931F93930182016C
:10309000CE0101960E94584360E0CE0101960E9445
:1030A0000C760F900F900F900F906091BD1570915E
:1030B000BE158091BF159091C0150E942BE620E0AF
:1030C00030E040E857E30E9431E72091B915309194
:1030D000BA154091BB155091BC150E9431E70E9472
:1030E000F3E5A9966CAF7DAF8EAF9FAFA997CE01E8
:1030F0008F5A9F4F0E94957684E1FE01EF5AFF4F51
:10310000DE01DD9601900D928A95E1F760E070E0B6
:10311000CE01CD960E949343FC01C080D180E28015
:10312000F38060E070E0CE0189960E949343FC0139
:1031300080819181A281B381A7019601281B390B5F
:103140004A0B5B0BCA01B9010E942BE620915D1569
:1031500030915E1540915F15509160150E9445E5D4
:103160002B013C0161E070E0CE01CD960E949343BB
:10317000FC01C080D180E280F38061E070E0CE018C
:1031800089960E949343FC0180819181A281B38141
:10319000A7019601281B390B4A0B5B0BCA01B90129
:1031A0000E942BE620918B1530918C1540918D1546
:1031B00050918E150E9445E54B015C0162E070E084
:1031C000CE01CD960E949343FC01C080D180E28065
:1031D000F38062E070E0CE0189960E949343FC0187
:1031E00080819181A281B381A7019601281B390BAF
:1031F0004A0B5B0BCA01B9010E942BE62091B9155D
:103200003091BA154091BB155091BC150E9445E50F
:103210006B017C01A3019201C301B2010E9431E75D
:103220002B013C01A5019401C501B4010E9431E7C5
:103230009B01AC01C301B2010E94BDE44B015C01E2
:10324000A7019601C701B6010E9431E79B01AC01BD
:10325000C501B4010E94BDE40E94A4E72B013C011A
:1032600080919506882329F18091FD0681110AC07D
:1032700064E070E0CE0189960E9493438C0163E084
:1032800070E009C063E070E0CE0189960E9493432C
:103290008C0164E070E0CE0189960E949343FC01AA
:1032A00080819181A281B381F80180839183A2837F
:1032B000B383B0909016109290166091BD157091E6
:1032C000BE158091BF159091C0150E942BE620E09D
:1032D00030E040E857E30E9431E720E030E040E88A
:1032E00052E40E9431E70E94F3E56B018301720111
:1032F00020E0A9964CAD5DAD6EAD7FADA997CE0136
:1033000089960E948279B0929016C859DF4F0FB605
:10331000F894DEBF0FBECDBFDF91CF911F910F910B
:10332000FF90EF90DF90CF90BF90AF909F908F90E5
:103330007F906F905F904F903F902F900895EF9205
:10334000FF920F931F93CF93DF9328E0829FC001DA
:103350001124FC01E253F94FF08001811281D381E5
:10336000C481B581E680E7812F2D302F412F5D2F5D
:103370006C2F7B2F8E2D9E2FA0E00E944BEA54F4E1
:103380000E94A6E9F22E032F142FD52FC62FB72F98
:10339000E82EE92F2F2D302F412F5D2F6C2F7B2F03
:1033A0008E2D9E2FDF91CF911F910F91FF90EF9067
:1033B00008952F923F924F925F926F927F928F92D9
:1033C0009F92AF92BF92CF92DF92EF92FF920F93B4
:1033D0001F93CF93DF93C82F0E949F1979011A0181
:1033E0002B013C01A0E00E944BEA09F00CF453C011
:1033F00088E0C89FE00111244E0188E4881A8EEF0E
:10340000980A00E010E020E030E040E050E060E0AA
:1034100070E0C4010E945AA359016A01F62FE72FF8
:103420008C019701A101B201C301EF2EFE2E0E9473
:1034300024EA89019A01AB01BC01C4010E94ACA33A
:10344000DE01A254B94FFE01E253F94F80818C9303
:10345000818111968C931197828112968C93129789
:10346000838113968C931397848114968C9314976D
:10347000858115968C931597868116968C93169751
:10348000878117968C931082118212821382148284
:10349000158216821782DF91CF911F910F91FF90B5
:1034A000EF90DF90CF90BF90AF909F908F907F90E4
:1034B0006F905F904F903F902F90089580E00E9412
:1034C000D91981E00C94D919EF92FF920F931F93B1
:1034D000CF93DF9328E0829FC0011124FC01E254C6
:1034E000F94FF08001811281D381C481B581E680DA
:1034F000E7812F2D302F412F5D2F6C2F7B2F8E2DAD
:103500009E2FA0E00E944BEA54F40E94A6E9F22EFE
:10351000032F142FD52FC62FB72FE82EE92F2F2DCD
:10352000302F412F5D2F6C2F7B2F8E2D9E2FDF9103
:10353000CF911F910F91FF90EF900895CF92DF925E
:10354000EF92FF9280E00E94641AE42F43E0B901F9
:103550008E2F952F0E9491746B017C0181E00E9457
:10356000641AE42F44E0B9018E2F952F0E949174C4
:103570009B01AC01C701B6010E94BDE46B017C0157
:1035800080E00E949F19E42F43E0B9018E2F952F10
:103590000E9491749B01AC01C701B6010E94BDE479
:1035A0006B017C0181E00E949F19E42F44E0B90186
:1035B0008E2F952F0E9491749B01AC01C701B6011B
:1035C0000E94BDE4FF90EF90DF90CF9008950F939D
:1035D0001F93CF93DF93D82F00EA16E0C0E0F801E5
:1035E000808181110FC08C2F0E94BD7CF8018083E7
:1035F000DD2321F08C2F0E94C37C04C064E18C2F5A
:103600000E94B87CCF5F0F5F1F4FC53041F7DF913D
:10361000CF911F910F9108950F931F93CF9300EABD
:1036200016E0C0E0F80160818C2F0E94B87CF801A0
:1036300011928F01CF5FC530A9F7CF911F910F91E4
:103640000895EF92FF920F931F93CF93DF93CDB71F
:10365000DEB764970FB6F894DEBF0FBECDBF809182
:10366000FB06853409F40BC190F5813409F461C07F
:10367000B8F4803209F4EEC1803409F43FC08230DE
:1036800009F01FC20E9454136091F9067091FA0666
:1036900021E040E08CE799E00E945C3C81E0FDC1C4
:1036A000833409F450C008F058C0CE0101960E943E
:1036B000957684E1FE013196A3EEB6E001900D927D
:1036C0008A95E1F781E00E94861583E4E6C184389B
:1036D00009F486C150F4813809F464C1833809F4CF
:1036E00070C1803809F0EDC100C1863809F491C17C
:1036F00008F485C1873809F491C1E3C10E947A3288
:10370000853029F00E947A32843009F0BAC181E410
:103710008093FB0681E064960FB6F894DEBF0FBE7F
:10372000CDBFDF91CF911F910F91FF90EF900C943F
:10373000E71A8091EA0C9091E90C891B8F7009F0CF
:10374000C0C182E4AAC18091EA0C9091E90C891B66
:103750008F7009F0B6C184E4A0C181E00E94A41674
:1037600085E48093FB060E947A32853039F00E940E
:103770007A3211E0843019F010E001C011E080913C
:10378000C60B80939F0660E080E00E942B3E8091F4
:10379000270B882329F08091E40A9091E50A04C060
:1037A0008091120B9091130B9093A6068093A5061F
:1037B0008091980B882329F08091550B9091560B9E
:1037C00004C08091830B9091840B9093A806809302
:1037D000A7068091C80A882329F08091850A9091D4
:1037E000860A04C08091B30A9091B40A9093AA0605
:1037F0008093A9068091F80681114BC160E08EEF9D
:103800009FE00E949CA2882309F443C18091F8069E
:10381000882349F040E060E080E00E94608260E040
:1038200088EF0E94887C6091F9067091FA06611514
:10383000710569F080910C09811105C0111103C057
:1038400086EC97E102C081EB97E141E00AC01111DB
:1038500003C086EC97E102C081EB97E141E062E7AB
:1038600077E164960FB6F894DEBF0FBECDBFDF914F
:10387000CF911F910F91FF90EF900C9420138091A6
:10388000EA0C9091E90C891B8F7009F01AC10E9413
:103890000C1B80910C09882311F080E209C08091F3
:1038A000F9069091FA06892B11F481E001C082E0BB
:1038B0008093FB060E9454130E947A32853009F4EB
:1038C00000C10E947A32843009F4FBC087E064961C
:1038D0000FB6F894DEBF0FBECDBFDF91CF911F9121
:1038E0000F91FF90EF900C94E34280E00E94E71A62
:1038F0000091AF061091B0060115110521F4009159
:10390000A9061091AA061016110654F460E087E784
:103910009AE00E944BA7B80187E79AE00E94F8A5B9
:10392000E090AB06F090AC06E114F10421F4E090D5
:10393000A506F090A6061E141F0494F460E086ED20
:103940009AE00E944BA7B70186ED9AE00E94F8A585
:10395000101611062CF461E086ED9AE00E944BA748
:10396000E090AD06F090AE06E114F10421F4E09091
:10397000A706F090A8061E141F0494F460E087E4E4
:103980009BE00E944BA7B70187E49BE00E94F8A54B
:10399000101611062CF461E087E49BE00E944BA70F
:1039A00081E87BC08091A9069091AA061816190695
:1039B0000CF072C087E79AE00E94C7A681116CC024
:1039C00080C08091A5069091A606181619060CF0E5
:1039D00067C086ED9AE00E94C7A6811161C071C0E0
:1039E00081E00E94E71A80E00E94A41685E8809397
:1039F000FB0641E06DE577E18CE997E132CF8091FC
:103A0000EA0C9091E90C891B8F7009F05AC086E886
:103A100044C080E00E94861587E83FC08091EA0C90
:103A20009091E90C891B8F7009F04BC060E0809188
:103A30009F060E942B3E0E940C1B0E945413109262
:103A4000FB061092FA061092F90610920B091092DA
:103A50000A0937C00E9454136091F9067091FA0662
:103A600021E040E08CE799E00E945C3C0E94F54434
:103A70001092FA061092F90610920C091092FB06A9
:103A800020C041E067E877E186EC97E10E942013CF
:103A90003ECE0E942312BACE83E88093FB0611C06B
:103AA0008091A7069091A8061816190634F487E4A9
:103AB0009BE00E94C7A6882321F00E940C1B84E88B
:103AC000ECCF64960FB6F894DEBF0FBECDBFDF918A
:103AD000CF911F910F91FF90EF9008958F929F9239
:103AE000AF92BF92CF92DF92EF92FF92CF93C091AD
:103AF0000202C53609F453C0CC2309F450C0F0903B
:103B00009A06CF1509F44BC0FF2009F448C0609114
:103B10009606709197068091980690919906611586
:103B2000710581059105D9F10E9429E64B015C01DF
:103B30006C2F70E06F197109072E000C880B990B20
:103B40000E942BE69B01AC01C501B4010E9445E532
:103B50006B017C016C2F70E080E090E00E9429E610
:103B60009B01AC0160E070E088EC92E40E94BCE450
:103B70009B01AC01C701B6010E9431E76B017C01DA
:103B800020E030E0A9010E9440E587FF03C0C12C7E
:103B9000D12C7601C701B6010E94F3E503C060E0B5
:103BA00070E0CB01CF91FF90EF90DF90CF90BF906E
:103BB000AF909F908F900895FC0184819581860F2E
:103BC000971F608171810E9407E826813781820FEB
:103BD000931F08951F93CF93DF93EC012A813B81BC
:103BE000888199812817390770F4162F6A817B81A3
:103BF000CE010E94DC1DFC0110838A819B8101960D
:103C00009B838A8302C081E08887DF91CF911F91D7
:103C10000895682F8EEF96E00C94EA1DCF93DF9302
:103C2000EC018A819B81892B21F481E0898780E0E6
:103C300015C060E070E0CE010E94DC1DFC018C81AB
:103C40009D810196688179810E9407E89D838C831C
:103C50008A819B8101979B838A838081DF91CF91A9
:103C600008958EEF96E00C940E1ECF938EEF96E0A3
:103C70000E940E1EC82F8EEF96E00E940E1E982FF7
:103C80008C2FCF9108951F93CF93DF938EEF96E003
:103C90000E940E1E182F8EEF96E00E940E1ED82F47
:103CA0008EEF96E00E940E1EC82F8EEF96E00E94C7
:103CB0000E1E982F612F7D2F8C2FDF91CF911F919A
:103CC0000895CF92DF92EF92FF921F93CF93DF93ED
:103CD000C82F61E070E08EEF96E00E94DC1DFC01D1
:103CE0001081CF3F09F01C2F62E070E08EEF96E06C
:103CF0000E94DC1DFC0180818D3009F488C048F4ED
:103D00008C3008F071C0843008F0F0C0833071F05E
:103D10000BC0873109F45EC020F4803108F4E6C09E
:103D200003C08F3109F47FC010E000C164E070E08F
:103D30008EEF96E00E94DC1DFC01C081D0E065E0C2
:103D400070E08EEF96E00E94DC1DFC01808190E027
:103D5000982F8827C80FD91F209719F40E945E1A40
:103D600014C0C12ED12C7601EE0CFF1CF701E555D5
:103D7000F94F80819181892B09F0BAC060E08DEF05
:103D80009FE00E949CA28111B3C0113019F08CEC0D
:103D90009AE002C08DE39BE0BE010A960E94F8A55E
:103DA00087E79AE00E94F3A6882309F4B6C087E764
:103DB0009AE00E9408A78111B0C0113019F08CEC74
:103DC0009AE002C08DE39BE00A960E9408A7811149
:103DD000A4C07CC00E942F1491E0811190E060E0AB
:103DE000892F0E94D23482C064E070E08EEF96E0AA
:103DF0000E94DC1DFC0160816170113019F08CECB7
:103E00009AE002C08DE39BE00E946CA46FC064E066
:103E100070E08EEF96E00E94DC1D61E0FC01808185
:103E20000E942B3E63C00E94492F182F882309F45B
:103E30005DC064E070E08EEF96E00E94DC1DFC0146
:103E4000C081EC2EF12C65E070E08EEF96E00E94D0
:103E5000DC1DFC01C081D0E0DC2FCC27CE0DDF1DA6
:103E60002097D1F08091AF069091B006892B39F45C
:103E700060E08DEF9FE00E949CA2882369F0809112
:103E8000AF069091B006009731F464E670E08CE5DF
:103E900091E00E94A5A2EC01BE0187E79AE00E9492
:103EA000F8A561E08CE799E00E94263E87E79AE05A
:103EB0000E9408A791E089278093FC060E949F40FA
:103EC0008091CA0B8E7F8093CA0B30C081E08093B3
:103ED000FC061130F9F08CEC9AE061E00A960E9441
:103EE0004BA78091CA0B8E7F8093CA0B11E01EC036
:103EF000F701E555F94F80819181009749F4C6019A
:103F0000880F991F66EE70E0885A9E4F0E94A5A206
:103F1000EC013BCF8DE39BE0E0CF113019F08CEC4E
:103F20009AE002C08DE39BE060E0D8CF812FDF9163
:103F3000CF911F91FF90EF90DF90CF9008952F9237
:103F40003F924F925F926F927F928F929F92AF9229
:103F5000BF92CF92DF92EF92FF920F931F93CF9376
:103F6000DF93CDB7DEB7C656D1090FB6F894DEBFE2
:103F70000FBECDBF0E9482448823B9F08091000714
:103F8000909101072091FE063091FF06281739070E
:103F900049F10E94D644882329F10E94E344682F06
:103FA0008EEF96E00E94EA1DE9CF0E94DC80882314
:103FB000A1F180910007909101072091FE063091B8
:103FC000FF062817390709F413C20E94EA808823E4
:103FD00009F40EC20E94F880682F8EEF96E00E94CE
:103FE000EA1DE7CF0E94D644811117C080910402D8
:103FF000882309F4F3C19091FB069111EFC191E080
:1040000090930C09813009F0E1C182EA9FE190931D
:10401000FA068093F9060E9405138091FC06882316
:1040200059F087E79AE00E94C7A6882329F080E02C
:104030000E949F401092FC068091DF069091E0065E
:10404000A091E106B091E206892B8A2B8B2B19F106
:104050008091DE0681111FC0CE0101960E949576E7
:1040600062E070E0CE0101960E948C43DC014D912C
:104070005D916D917C918091DF069091E006A09119
:10408000E106B091E206481759076A077B071CF45E
:1040900081E08093DE068091DF069091E006A0919A
:1040A000E106B091E206892B8A2B8B2B79F1809166
:1040B000DE06882359F10E942F14811127C0CE01FA
:1040C00001960E94957662E070E0CE0101960E9412
:1040D0008C43FC0140815181628173818091DF06B4
:1040E0009091E006A091E106B091E20648175907C9
:1040F0006A077B075CF060E070E0CB010E94471428
:1041000060E081E00E94D2340C94252C1091FB06D3
:10411000123020F00E94211B0C94252C1130F1F458
:104120008091F80681110C94252C8091F70681115D
:104130000C94252C83E39AE00E940CE2882311F46E
:104140000C94252C1093F8060E94231240E060E0A6
:1041500080E00E94608260E088EF8DC180919206CD
:10416000833071F40E941075882341F086E896E050
:104170000E940CE2882321F00E9441801092920656
:1041800080910B09811104C080910A09882329F1CB
:1041900080910909882309F1809192068330E9F022
:1041A0008091FB06811119C00E942F14811111C04A
:1041B00080910A09882319F088E195E102C080EB1B
:1041C0009CE19093FA068093F90661E081E00E94F9
:1041D000D23410920B09109293068091920681308E
:1041E00031F40E941075811102C0109292068091E4
:1041F0009206823039F48CE896E00E940CE281113C
:104200001092920680919206843009F052C080E8A4
:1042100096E00E940CE2882349F020E040E06AE743
:104220007EE18CE799E00E945C3C20C08091FD0615
:10423000813019F48DE39BE002C08CEC9AE00A9681
:104240000E94F3A6811115C080919506882371F014
:104250008091FD06811103C08DE39BE002C08CECD0
:104260009AE00A960E94F3A6811123C0109292064A
:1042700020C08091FD06813019F48DE39BE002C0DF
:104280008CEC9AE00A960E94C7A6882391F0809150
:104290009506882359F38091FD06882319F08CEC4C
:1042A0009AE002C08DE39BE00A960E94C7A68111A6
:1042B000DDCF809192068530E1F480E896E00E949F
:1042C0000CE2882349F020E040E065E47EE18CE7E1
:1042D00099E00E945C3CD3C087E79AE00E94F3A675
:1042E000882309F4CCC087E79AE00E94C7A6811111
:1042F000C6C080919206863091F58AE796E00E94CA
:104300000CE2882391F08091780681FF06C060E07E
:104310008CE799E00E94B74022C0109292068091EB
:10432000CA0B8F7E8093CA0B1AC08BE49AE00E945E
:10433000D1AB8823A1F08091780682FF04C08BE482
:104340009AE00E9446AA0E9498408091CA0B8F7EF4
:104350008093CA0B8FEF0E94A382109292068091E5
:10436000920681110C94252C60E070E08EEF96E0AF
:104370000E94DC1DDC011C910E942B5E882359F0F9
:10438000812F8F7E8B3811F01E3811F410920C02A1
:1043900081E080930B02B0E26996BFAF699780918C
:1043A000000790910107892B89F18091EA0C909187
:1043B000E90C891B8F708E3048F5812F8F7E8B38EA
:1043C00009F42EC51E3809F42BC520C08B3019F412
:1043D00081E49FE11CCE8FE89FE119CE8091F90620
:1043E0009091FA06892B09F018CE0E94F54415CE5B
:1043F0000E94EA80811111CE8091000790910107FF
:10440000892B09F00ACE0E94338107CE80910C02DD
:10441000811105C00E94CC6681E080930C028091DE
:10442000000790910107892B11F40C94252C8CE73F
:1044300099E00E94653C1B3809F41FC11E3809F43D
:104440001CC11B3909F419C11938E1F48091000726
:1044500090910107029710F40C94252C0E94311EB4
:104460000E94311E9091950691110C94B52B682FE6
:10447000661F6627661F0E94887C0C94252C10926C
:10448000920637CF163811F40C94A52B1C3909F479
:10449000F4C0812F8B7F803999F09DE7910F923086
:1044A00078F0883849F0163909F4E7C00E942B5E8D
:1044B000882311F40C94252C1C3811F40C94CC2B6B
:1044C0001538D1F48091000790910107059710F4F9
:1044D0000C94252C82E0809392060E94311E0E944B
:1044E000431E9B01AC01A8EEB3E00E9487E8AB013C
:1044F000BC018CE896E01AC11439A1F5809100073F
:1045000090910107059710F40C94252C0E94311E00
:104510000E94311E809379060E94351E7C010E9404
:10452000311E80937806E114F10471F0D70120E484
:1045300032E44FE050E00E9487E8AB01BC018AE71B
:1045400096E00E94DAE187C0CE0101960E94D7E191
:1045500086E0FE013196AAE7B6E001900D928A95B9
:10456000E1F779C0153909F088C080910007909172
:104570000107069710F40C94252C0E94311E0E940E
:10458000311E182F0E94311ED82E0E94311EE82E97
:104590000E94311EF82E10FD04C083ED99E00E94A8
:1045A0003ECFD092D609E092D7096EEF76E083ED48
:1045B00099E00E94A2CE11FD02C00C94252CE0913E
:1045C000650AEE0FFF0BE95AF54F80819181835DFB
:1045D000994039F063ED79E08BE49AE00E94A2A95A
:1045E00004C083ED99E00E947DCF1470FF2049F054
:1045F000111107C06F2D83ED99E00E946DCF0C94CF
:10460000252C112311F40C94252CFF2079F0AF2DCB
:10461000B0E020E432E44FE050E00E9487E8AB01D4
:10462000BC018AE796E00E94DAE10DC0CE01019656
:104630000E94D7E186E0FE013196AAE7B6E001903C
:104640000D928A95E1F781E0809379068091780652
:104650008470809378060E948E40609179068BE486
:104660009AE00E94CEAB8091CA0B80618093CA0B06
:1046700086E0809392060C94252C8DE7810F823082
:1046800070F58091000790910107089710F40C9441
:10469000252C0E94311E0E94311EF82E0E94431EBE
:1046A0004B015C010E94351E23E020939206DC0141
:1046B00020E432E44FE050E00E9487E8AB01BC0107
:1046C00086E896E00E94DAE181E0143809F080E0A3
:1046D000A50194016F2D0E94CB7B0C94252C1738DB
:1046E00049F58091000790910107069710F40C940A
:1046F000252C84E08093920681E080930909109232
:1047000093060E94311E0E94311E8093FD060E9476
:10471000351E0E94351EDC0120E432E44FE050E0FB
:104720000E9487E8AB01BC0180E896E00E94DAE1D4
:104730000C94252C1D38A9F4809100079091010755
:10474000069710F40C94252C85E08093920681E066
:1047500080930909109293060E94311E0E94311E17
:10476000D6CF1F3809F09CC08091000790910107B7
:10477000029710F40C94252C0E94311E0E94311EC9
:10478000182FCE0101960E9495769EE0C92ED12C5D
:10479000E12CF12CA12EB12CC5010E2C02C0959557
:1047A00087950A94E2F780FF17C0B701CE01019602
:1047B0000E949343FC0180819181A281B3818AA7E9
:1047C0009BA7ACA7BDA7F89444E050E0B601CE018A
:1047D0008A960E94E4EA7894FFEFEF1AFF0A04E059
:1047E000C00ED11C23E0E216F104B1F6112311F43E
:1047F0000C94252C812F887181130C94252C183052
:1048000021F0103121F012E003C010E001C011E0EE
:1048100081E090E0012E01C0880F0A94EAF79091A0
:104820009406892B8093940660E070E0CE01019697
:104830000E949343FC0180819181A281B3818AA768
:104840009BA7ACA7BDA761E070E0CE0101960E94D6
:104850009343FC0180819181A281B3818EA79FA7A0
:10486000A8ABB9AB62E070E0CE0101960E94934321
:10487000FC0180819181A281B3818AAB9BABACABFF
:10488000BDABF894FCE01F9FB00111246B5D714F2C
:104890004CE050E0CE018A960E94E4EA7894D5C7B5
:1048A000103909F029C18091000790910107029702
:1048B00008F4CBC70E94311E0E94311E182FCE0172
:1048C0008A960E949576183109F07AC080919406F4
:1048D0008770873009F043C0F89444E050E066E107
:1048E00070E0CE01CE960E94C0EA49E250E060E25C
:1048F0007EE0CE0101960E94C0EA78948A819B8175
:10490000AC81BD81181619061A061B0644F088EC06
:1049100090E0A0E0B0E08A839B83AC83BD832296C5
:104920002CAD3DAD4EAD5FAD22976A817B818C8110
:104930009D818E01025E1F4F6801DE0152967D014E
:10494000085111090E942E48882339F0809194065D
:1049500088608093940610E003C012E001C011E06B
:10496000F89461E0111101C060E080E29EE00E94D5
:10497000EEEA78941123C1F0113019F489E196E13F
:104980000CC00E94544A6D3F7F4F8F4F9F4F19F4C8
:104990008EE396E102C089E695E19093FA06809352
:1049A000F9060E94051303C081E00E940D75109264
:1049B0008B1610928C1610928D1610928E1645C77B
:1049C000183009F03EC0F89444E050E066E170E031
:1049D000CE018C5B9F4F0E94C0EA49E250E060E24A
:1049E0007EE0CE0101960E94C0EA78948CE390E0CC
:1049F000A0E0B0E08A839B83AC83BD838E01025E1E
:104A00001F4F9E012E5E3F4FAE014A5F5F4F6CE32A
:104A100070E080E090E00E94A54740E060E975E129
:104A2000882319F082ED95E102C081EB95E10E94A7
:104A30002013CE01CE960E94D7E186E0FE01FE96BD
:104A4000FCCD103119F40E940A48FFC68EE0A82E52
:104A5000B12CC12CD12CE12EF12CC7010C2C02C0A1
:104A6000959587950A94E2F780FF0CC0F894B601FB
:104A7000CE018A960E94934344E050E0B5010E9423
:104A8000C0EA7894EFEFCE1ADE0AF4E0AF0EB11C64
:104A900003E0C016D10409F763E070E0CE018A9606
:104AA0000E949343FC0180819181A281B381809314
:104AB000B6069093B706A093B806B093B90664E023
:104AC00070E0CE018A960E949343FC01808191811F
:104AD000A281B3818093BA069093BB06A093BC06D3
:104AE000B093BD06CE018A960E94771361E0CE0195
:104AF0008A960E940C76A9C6113999F48091000714
:104B000090910107039708F4A0C60E94311E0E94ED
:104B1000311E182F0E94311E682F812F0E94B87CF1
:104B200094C61239E1F4809100079091010706972D
:104B300008F48BC60E94311E0E94311E182F0E945D
:104B4000311EF82E0E94311EE82E0E94311E0E9456
:104B5000311E4E2D6F2D812F0E947E8376C6133914
:104B6000B1F48091000790910107069708F46DC693
:104B70000E94311E0E94351E7C010E94351E6C0170
:104B80000E94311EB601C7010E9482425EC61838DB
:104B900009F062C08091000790910107049708F422
:104BA00054C663E070E08EEF96E00E94DC1D209119
:104BB000000730910107DC01EC90F12CB4E0EB0E22
:104BC000F11C2E153F0508F440C6809195068823F8
:104BD00039F080910102882319F01092010203C07C
:104BE00081E08093010262E070E08EEF96E00E9427
:104BF000DC1DFC018081833059F062E070E08EEFB3
:104C000096E00E94DC1DDC018C918C3009F099C586
:104C10008091010281110DC061E070E08EEF96E09D
:104C20000E94DC1DFC0181E09081992319F080E055
:104C300001C08FEF0E94611E80910102882309F458
:104C400004C610E0812F90E08E159F0508F0FDC589
:104C50000E94311E1F5FF6CF163909F041C08091C6
:104C6000000790910107039708F4EFC50E94311ED9
:104C70000E94311E809302020E94311E8091020226
:104C80008823F1F080919B0690919C06A0919D064F
:104C9000B0919E06892B8A2B8B2B91F480919A06DA
:104CA00081110EC00E94533360939B0670939C0643
:104CB00080939D0690939E068091020280939A06AF
:104CC00080910202882309F4C0C50E945333609387
:104CD0009606709397068093980690939906B5C5AB
:104CE0001739B9F480910007909101070297B8F144
:104CF0000E94311E0E94311E811102C084E006C054
:104D0000813019F40E94E3422AC082E00E941E43CF
:104D100026C0183999F480910007909101070297F5
:104D200008F493C50E94311E0E94311E0E94432E3A
:104D300060E08CE799E00E94B74087C5193991F48B
:104D40008091000790910107059708F47EC50E94A5
:104D5000311E0E94431E8EEF96E00E949732109201
:104D6000090973C51A3971F4809100079091010700
:104D7000029708F46AC50E94311E0E94311E0E94EB
:104D8000E933EDCF1C3999F4809100079091010728
:104D9000029708F45AC50E94311E0E94311E91E00C
:104DA000813009F090E0892F0E94C87C4EC51D39E2
:104DB000A1F48091000790910107459708F445C53B
:104DC0000E94431E0E94431E0E94431E0E94431ED7
:104DD0000E94431E0E94311E38C51E3909F035C598
:104DE0008091000790910107059708F42EC50E9455
:104DF000311E0E94431E6B017C012FE632E143E825
:104E00005AE30E9440E587FF03C0C12CD12C7601F4
:104E100042E0C701B6010E94A3740E94471415C561
:104E20006996BFAD6997B1506996BFAF6997B111E7
:104E300005C08CE799E00E94653C07C51B3809F066
:104E4000EEC08091000790910107499708F453C480
:104E50000E94311EE1E0E09392060E94431E2C96D0
:104E60006CAF7DAF8EAF9FAF2C970E94431E6096B4
:104E70006CAF7DAF8EAF9FAF60970E94431E64966C
:104E80006CAF7DAF8EAF9FAF64970E94431E22969A
:104E90006CAF7DAF8EAF9FAF22970E94431E6AA773
:104EA0007BA78CA79DA780918F16882351F060E087
:104EB000CE01CE960E942A1261E0CE018A960E940F
:104EC0002A120E94431E68966CAF7DAF8EAF9FAFD3
:104ED0006897809195068823C9F08091FD0681111D
:104EE0000BC022968CAD9DADAEADBFAD22978AA70B
:104EF0009BA7ACA7BDA70AC08AA59BA5ACA5BDA5CD
:104F000022968CAF9DAFAEAFBFAF229722968CADED
:104F10009DADAEADBFAD22978093B6069093B70618
:104F2000A093B806B093B9064AA45BA46CA47DA470
:104F30008091BA069091BB06A091BC06B091BD06C7
:104F400093018201081B190B2A0B3B0BD901C801E5
:104F500068017901FF0CCC08DC2C76019801AD01C9
:104F60006C2D7C2D8C2D9C2DA090D606B090D70654
:104F7000C090D806D090D906E090DA06F090DB0613
:104F80000091DC061091DD060E9424EA2093D606EB
:104F90003093D7064093D8065093D9066093DA062B
:104FA0007093DB068093DC069093DD064092BA0690
:104FB0005092BB066092BC067092BD060E9412120F
:104FC00022968CAC9DACAEACBFAC22978DA58F93D6
:104FD0008CA58F938BA58F938AA58F936496CCAC69
:104FE000DDACEEACFFAC649760960CAD1DAD2EADA4
:104FF0003FAD60972C964CAD5DAD6EAD7FAD2C97FF
:10500000CE0101960E945843E12C00E010E0980187
:1050100068964CAD5DAD6EAD7FAD6897CCC11E3866
:1050200009F0CEC180910007909101074A9708F4DA
:1050300062C30E94311E11E0109392060E94431E2B
:1050400064966CAF7DAF8EAF9FAF64970E94431E96
:1050500068966CAF7DAF8EAF9FAF68970E94431E7E
:105060006D966CAF7DAF8EAF9FAF6D970E94431E64
:1050700028966CAF7DAF8EAF9FAF28970E94431EDE
:1050800022966CAF7DAF8EAF9FAF22970E94431EDA
:10509000A1966CAF7DAF8EAF9FAFA1970E94311EDE
:1050A00029968FAF299780919506882399F1809151
:1050B000FD06811117C028968CAD9DADAEADBFAD7C
:1050C000289722968CAF9DAFAEAFBFAF229729969F
:1050D0008FAD29978F7E29962FAD299723FF17C073
:1050E000806115C022968CAD9DADAEADBFAD22974F
:1050F00028968CAF9DAFAEAFBFAF289729968FADE6
:105100002997877F29963FAD299734FD8860299696
:105110008FAF299780918F16882359F029964FAD2C
:105120002997BE01625C7F4FCE018C5B9F4F0E942E
:10513000EA1228968CAD9DADAEADBFAD28978AA77B
:105140009BA7ACA7BDA722968CAD9DADAEADBFAD64
:1051500022978EA79FA7A8ABB9ABAEECB6E0A796F7
:10516000BFAFAEAFA7971E01BAE22B0E311CE6EB24
:10517000F6E0A596FFAFEEAFA59773E0472E512C52
:105180002996BFAD2997AB2FB0E0A396BFAFAEAFC6
:10519000A397A3968EAD9FADA397042C02C09595BF
:1051A00087950A94E2F780FF53C0F1016080718017
:1051B0008280938074016301FF0CCC08DC2C7601A3
:1051C0009301A4016C2D7C2D8C2D9C2DA796AEAD4A
:1051D000BFADA797AC901196BC9011971296CC904A
:1051E00012971396DC9013971496EC9014971596DB
:1051F000FC90159716960C91169717961C91179779
:105200000E9424EA2C9311963C93119712964C938A
:10521000129713965C93139714966C9314971596A4
:105220007C93159716968C93169717969C93A59634
:10523000EEADFFADA5974081518162817381460D2E
:10524000571D681D791D408351836283738360C03D
:10525000D1010D911D912D913C9160960CAF1DAF28
:105260002EAF3FAF6097A596EEADFFADA5974081FD
:1052700051816281738148015901841A950AA60AF5
:10528000B70A75016401FF0CCC08DC2C760194018F
:10529000A5016C2D7C2D8C2D9C2DA796AEADBFADA0
:1052A000A797AC901196BC9011971296CC9012973C
:1052B0001396DC9013971496EC9014971596FC9027
:1052C000159716960C91169717961C9117970E9492
:1052D00024EA2C9311963C93119712964C931297B3
:1052E00013965C93139714966C93149715967C936E
:1052F000159716968C93169717969C9360960CADFF
:105300001DAD2EAD3FAD60970083118322833383A3
:10531000BFEF4B1A5B0AA796EEADFFADA797389685
:10532000A796FFAFEEAFA797F4E02F0E311CA5961E
:10533000AEADBFADA5971496A596BFAFAEAFA5977E
:10534000B5E04B16510409F024CF0E9412122896A2
:105350008CAC9DACAEACBFAC289722968FAD22979B
:105360008F9321968FAD21978F938FAD8F938EADB5
:105370008F936D96CCACDDACEEACFFAC6D976896C0
:105380000CAD1DAD2EAD3FAD689764964CAD5DADD7
:105390006EAD7FAD6497CE0101960E945843299669
:1053A000EFAC2997A1960CAD1DAD2EAD3FADA197E9
:1053B00040E050E0BA01CE0101960E94EC7797C11F
:1053C0001B3909F098C180910007909101078097DF
:1053D00008F491C10E94311EE1E0E09392060E9420
:1053E000431E60966CAF7DAF8EAF9FAF60970E94FB
:1053F000431E64966CAF7DAF8EAF9FAF64970E94E3
:10540000431E68966CAF7DAF8EAF9FAF68970E94CA
:10541000431E28966CAF7DAF8EAF9FAF28970E943A
:10542000431E22966CAF7DAF8EAF9FAF22970E9436
:10543000431E6D966CAF7DAF8EAF9FAF6D970E9490
:10544000311E182F0E94431EA1966CAF7DAF8EAF08
:105450009FAFA1970E94351EA3969FAF8EAFA397D3
:1054600080919506811105C01F7729961FAF299756
:1054700033C08091FD06811118C028968CAD9DAD7A
:10548000AEADBFAD289722968CAF9DAFAEAFBFAF8C
:105490002297F12FFF762996FFAF299713FF1CC0A3
:1054A000F0612996FFAF299717C022968CAD9DAD6C
:1054B000AEADBFAD229728968CAF9DAFAEAFBFAF5C
:1054C0002897012F077729960FAF299714FF04C05B
:1054D000086029960FAF299780918F16882359F07D
:1054E00029964FAD2997BE01625C7F4FCE018C5B40
:1054F0009F4F0E94EA1228968CAD9DADAEADBFAD18
:1055000028978AA79BA7ACA7BDA722968CAD9DAD77
:10551000AEADBFAD22978EA79FA7A8ABB9ABEEECFF
:10552000F6E01E011AE2210E311CA6EBB6E0A796AA
:10553000BFAFAEAFA79743E0442E512C2996BFAD25
:105540002997AB2FB0E0A596BFAFAEAFA597A596B4
:105550008EAD9FADA597042C02C0959587950A94B2
:10556000E2F7D1016D907D908D909C9080FF31C0CD
:1055700074016301FF0CCC08DC2C76019301A401BB
:105580006C2D7C2D8C2D9C2DA080B180C280D38071
:10559000E480F580068117810E9424EA208331830C
:1055A000428353836483758386839783A796AEADC6
:1055B000BFADA7974D915D916D917C911397460D6D
:1055C000571D681D791D4D935D936D937C931397C3
:1055D00034C0A796AEADBFADA7974D915D916D91CB
:1055E0007C91139794018301041B150B260B370B39
:1055F000C901B80168017901FF0CCC08DC2C7601E7
:105600009B01AC016C2D7C2D8C2D9C2DA080B1803C
:10561000C280D380E480F580068117810E9424EA4D
:105620002083318342835383648375838683978386
:105630006D927D928D929C921397BFEF4B1A5B0AED
:10564000389604E0200E311CA796AEADBFADA797EB
:105650001496A796BFAFAEAFA797B5E04B1651040F
:1056600009F075CF0E941212709090162996EFAD36
:1056700029977E2A28968CAC9DACAEACBFAC2897FF
:1056800022968FAD22978F9321968FAD21978F937E
:105690008FAD8F938EAD8F936896CCACDDACEEACB6
:1056A000FFAC689764960CAD1DAD2EAD3FAD649711
:1056B00060964CAD5DAD6EAD7FAD6097CE0101964D
:1056C0000E945843A396CEACDFACA397A196ECAC56
:1056D000FDAC0EAD1FADA197272D6D964CAD5DAD08
:1056E0006EAD7FAD6D97CE0101960E9482790F90CD
:1056F0000F900F900F90209100073091010780913B
:10570000FE069091FF062817390781F00E94824417
:10571000882361F00E94D644882341F00E94E3442C
:10572000682F8EEF96E00E94EA1DE5CF60E070E002
:105730008EEF96E00E94DC1DFC011081A8950C9470
:10574000CF2181E08093010263CA8091000790918C
:105750000107029708F479C00E94311E0E94311E91
:105760008093FD060E94CB7C70C09091FD06911144
:1057700008C0982F9F7E83FF0CC0892F80610C94F6
:105780003722982F977F84FF04C0892F88600C945C
:105790003722892F0C9437228091000790910107BE
:1057A000459708F452C00E94311E0E94431E2B01EF
:1057B0003C010E94431E2C966CAF7DAF8EAF9FAF15
:1057C0002C970E94431E6B017C010E94431E4B01DB
:1057D0005C010E94431E20919506222349F02091EE
:1057E000FD06211103C0B401C50102C04B015C01DB
:1057F0008092B6069092B706A092B806B092B9060B
:105800006093BA067093BB068093BC069093BD0666
:105810009F938F937F936F932C960CAD1DAD2EAD00
:105820003FAD2C97B301A201CE0101960E945843CF
:10583000CE0101960E94771360E0CE0101960E948E
:105840000C760F900F900F900F90CA59DF4F0FB644
:10585000F894DEBF0FBECDBFDF91CF911F910F91A6
:10586000FF90EF90DF90CF90BF90AF909F908F9080
:105870007F906F905F904F903F902F90089540E001
:1058800066E174E08DE099E00E9430DFEEEFF6E033
:1058900080E092E0918380831382128215821482C9
:1058A00088E097E0978386831086118683EE96E0E2
:1058B0000E9457438CE896E00E94D7E186E896E084
:1058C0000E94D7E180E896E00E94D7E18AE796E05F
:1058D0000C94D7E1CF93DF931F921F92CDB7DEB721
:1058E00021E0298322E32A8342E050E0BC01CE017B
:1058F00001960E94E4EA0F900F90DF91CF910895F6
:10590000CF93DF93EC0140E050E060EE70E40E9442
:1059100020A346E656E666EA7EE3CE0102960E94A2
:1059200020A340E050E060E172E4CE010496DF91F4
:10593000CF910C9420A3CF93DF93EC010A960E94A1
:10594000802CCE0140960E94802CCE014A96DF9199
:10595000CF910C946A2C0F931F93CF93DF9300D0B9
:10596000CDB7DEB78C0167E00E94EEEA61E0C801C6
:1059700002960E94EEEA8FEF89838A838B83B801B7
:105980006C5F7F4F43E050E0CE0101960E94E4EA55
:105990000F900F900F90DF91CF911F910F9108956D
:1059A00067E080E491E00C949CA2682F80E491E091
:1059B0000C94EEEAFF920F931F93CF93DF9300D0E6
:1059C000CDB7DEB7F82E062F142F68E080E491E003
:1059D0000E94EEEAF9820A831B8343E050E064E40C
:1059E00071E0CE0101960E94E4EA0F900F900F90B3
:1059F000DF91CF911F910F91FF900895CF92DF9289
:105A0000EF92FF92CF93DF936B017C01EA01CA0111
:105A10000E9404EBB701CE010496DF91CF91FF9075
:105A2000EF90DF90CF900C9404EBAC018091CA0210
:105A30009091CB02A091CC02B091CD02BC01CD01DE
:105A40000E94FE2C0895CF93DF93EC0166EE70E088
:105A50000E9404EB66EE70E0CE0102960E9404EB19
:105A600064E670E0CE0104960E9404EB65E0CE018E
:105A70000696DF91CF910C94EEEA61E08EE691E01C
:105A80000E94EEEA68EE73E082E791E00E9404EB88
:105A900068EE73E084E791E00E9404EB66E970E051
:105AA00086E791E00E9404EB60ED77E088E791E003
:105AB0000E9404EB60ED77E08AE791E00E9404EB3E
:105AC0006FE070E08CE791E00E9404EB6FE070E023
:105AD0008EE791E00E9404EB6AE070E080E891E0DC
